:020000022000DC
:1060000000FD0020B1AF0300D9AF0300DBAF0300F8
:10601000DDAF0300DFAF0300E1AF030000000000CD
:10602000000000000000000000000000E3AF0300DB
:10603000E5AF030000000000E7AF0300E9AF030095
:10604000EBAF0300EBAF0300EBAF0300EBAF0300DC
:10605000EBAF0300EBAF03003D6B0200EBAF0300BF
:10606000EBAF0300EBAF0300B9F80200EBAF0300A6
:10607000EBAF0300EBAF0300EBAF0300EBAF0300AC
:10608000EBAF0300717A030005B40200EBAF03002D
:10609000417B0300EBAF030021700200EBAF030074
:1060A000EBAF0300EBAF0300EBAF0300EBAF03007C
:1060B000EBAF0300EBAF03000000000000000000A6
:1060C000EBAF0300EBAF0300EBAF0300EBAF03005C
:1060D000EBAF0300EBAF0300EBAF030000000000E9
:1060E00000000000000000000000000000000000B0
:1060F00000000000000000000000000000000000A0
:10610000000000000000000000000000000000008F
:10611000000000000000000000000000000000007F
:10612000000000000000000000000000000000006F
:10613000000000000000000000000000000000005F
:10614000000000000000000000000000000000004F
:10615000000000000000000000000000000000003F
:10616000000000000000000000000000000000002F
:10617000000000000000000000000000000000001F
:10618000000000000000000000000000000000000F
:1061900000000000000000000000000000000000FF
:1061A00000000000000000000000000000000000EF
:1061B00000000000000000000000000000000000DF
:1061C00000000000000000000000000000000000CF
:1061D00000000000000000000000000000000000BF
:1061E00000000000000000000000000000000000AF
:1061F000000000000000000000000000000000009F
:1062000010B5054C237833B9044B13B10448AFF3F0
:1062100000800123237010BDA82E00200000000084
:10622000F8E0030008B5034B1BB103490348AFF383
:10623000008008BD00000000AC2E0020F8E0030044
:10624000154B002B08BF134B9D46A3F5803A002148
:106250008B460F461348144A121A16F06DFA0F4B6C
:10626000002B00D098470E4B002B00D09847002001
:10627000002104000D000D48002802D00C48AFF3A7
:10628000008016F009FA2000290000F04FF916F0FE
:10629000EFF900BF0000080000FD00200000000032
:1062A00000000000A82E00200C5800200000000074
:1062B0000000000041DF704707B5194B1B685B0405
:1062C00016D5184B1B68032B12DD17482F2116F02B
:1062D00005FBC8B12F21144816F000FB411C134BDD
:1062E000134AD3F8043500920420632206F004F820
:1062F000104800210DF03AFC78B10B4A642103B03C
:106300005DF804EB14F07FBE07485C2116F0E6FA56
:1063100008B15C21DFE70449E1E703B05DF804FB65
:10632000042E0020002E002074C90300001001403C
:106330009CC903009430002010B5044600214FF49E
:10634000F01004EB840400F081FB62003221BDE810
:1063500010404FF4C01000F083BB00F0B3BB00004E
:106360001FB503A810F0F8FB144B1B685B0419D58C
:10637000134B1B68032B15DD12482F2116F0AEFAC4
:1063800098B12F210F4816F0A9FA411C0E4BBDF809
:106390000C20D3F8043501920C4A00920420782294
:1063A00005F0AAFF05B05DF804FB06485C2116F075
:1063B00095FA08B15C21E5E70249E7E7042E0020E1
:1063C000002E002074C9030000100140BCC9030066
:1063D00030B54D4B1B685B0489B018D54B4B1B681F
:1063E000032B14DD4A482F2116F078FA002800F01C
:1063F00082802F21464816F071FA411C454B464ACF
:10640000D3F80435009204207D2205F075FFFFF7D4
:10641000A7FF00F057FB00214FF4F01000F016FB2F
:10642000C8214FF4F010042200F01AFB012303A945
:106430000DF10A00039310F0BBFE18B1344A862117
:1064400014F0E1FDBDF80A0010F0A2FC334B014648
:1064500004AA0020CDE90400CDE9060010F072FF87
:1064600018B12B4A8A2114F0CEFD2D49012010F0DD
:1064700083FB18B1264A8B2114F0C5FD274D294C0A
:10648000298820880FF084F818B1214A8C2114F053
:10649000BAFD234B208819880EF06EFE18B11C4AF5
:1064A0008D2114F0B0FD298820880FF0DDF818B197
:1064B000174A8E2114F0A7FD208806210FF03EF91F
:1064C00018B1134A8F2114F09EFD16480DF0A0FB61
:1064D00018B10F4A902114F096FD13480CF0D8F82B
:1064E000014610480DF0A8FB18B1094A912114F09B
:1064F0008AFD09B030BD06485C2116F0EFF908B1FD
:106500005C2177E7024979E7042E0020002E002065
:1065100074C9030000100140D3C90300C42E002039
:106520009030002094300020C82E002000B5724C1E
:10653000724A04218DB04FF4C04005F0C1FE2368BB
:10654000590418D56E4B1B68032B14DD6D482F21A1
:1065500016F0C4F9002800F085802F21694816F054
:10656000BDF9411C684B694AD3F8043500920420F8
:10657000AE2205F0C1FE11F02BFC18B1614AB0212A
:1065800014F041FD00F0AEFA00F0AAFB0021202239
:1065900003A816F0D1F801238DF80C3007238DF8ED
:1065A0000F3006238DF8143059495A4B0B9303A82A
:1065B00000F042F918B30B2840F0828023685A0497
:1065C0001DD54F4E3268032A19DD4E482F2116F093
:1065D00085F900284FD02F214A4816F07FF9411C39
:1065E000494D4D4AD5F8043500920420A12205F00A
:1065F00083FE23685B0402D53368032B44DC444BE1
:106600001978002961D1102203A816F095F8434BA0
:106610000493434B0593434B0793434B089303A8C1
:10662000424B099300F0ACF918B1364AC62114F078
:10663000EAFC00F033FE00F0B3FA00F07FF818B186
:10664000304AD12114F0DFFC00214FF4F01000F0AB
:10665000FDF90222C8214FF4F01000F001FAFFF713
:1066600029FEFCE727485C2116F038F908B15C21C7
:1066700074E7244976E723485C2116F02FF908B126
:106680005C21A9E71F49ABE71E482F2116F026F928
:1066900068B12F211B4816F021F9411C244AD5F876
:1066A000043500920420A22205F026FEA7E7154833
:1066B0005C2116F013F908B15C21EBE71149EDE715
:1066C000104AA72114F09FFC99E7FFF749FE1948EB
:1066D0000DF09EFA18B10B4ACB2114F094FC164829
:1066E0000BF0D6FF014613480DF0A6FA0028A0D003
:1066F000044ACC219BE700BF042E002095C2020073
:10670000002E002074C9030000100140EDC90300F1
:10671000C62E0020B962020031CA0300D163020014
:10672000396302005B630200A8CA0300CACA0300FF
:106730007FCA030094300020C82E002003F070BDF3
:1067400070B5837DC27D86B043EA0223ADF8143074
:106750000546012305A80E46ADF8163010F0C8F91D
:106760000446002845D1288A04AA294610F07AFB5D
:10677000044600283DD1BDF81010E88A0DF112033F
:10678000324610F033FD0446002832D1297ED5F878
:10679000120001F0010103F0BDF910B1784600F0DC
:1067A00043FDBDF8120013F0DFFF044608BB174B92
:1067B0001B681B031DD5164B1B68062B19DD1548DE
:1067C0002F2116F08BF8B8B12F21124816F086F859
:1067D000411C2A7E104B02F00102D3F804350292CC
:1067E000D5F8122001920D4A00920720C62205F02A
:1067F00083FD204606B070BD06485C2116F06EF899
:1068000008B15C21E1E70349E3E700BF042E002063
:10681000002E0020DACA030000100140F9CA03006C
:1068200008B504F0E1F80EF035FB10F0C1F8BDE852
:10683000084002F057BF000073B50E46054688B306
:1068400003F080FC044650BB10F040F90EF06AFBE8
:10685000286913F059FF044608BB2B7F0193AB69ED
:10686000009301466B6910484FF6FF7214F0FCF973
:106870000446A0B92B6A03B1984707F01BFE10F03D
:1068800047F805460EF088F80B2D01D00B2802D1F1
:10689000FFF7C6FF0B2411F099F806B130702046BF
:1068A00002B070BD0E24FAE7C030002010B50749D1
:1068B00007480AF0E9FA024638B906490648496924
:1068C000BDE8104001230AF0F8BA10BD38310020AD
:1068D000543400201C3100202033002010B50378F0
:1068E000023B082B2CD8DFE803F01B05102B2B2CC8
:1068F0002B2B38001E4B9B6813B3007A00B31D4A44
:1069000001211170BDE810401847194BDB68BBB17D
:10691000184A1178A1B100211170BDE81040184744
:10692000154B1A78124B42B91B6913B111490A7001
:106930009847BDE81040FFF7B9BF5B68002BECD16A
:1069400010BD0B4B0D48996910220AF0FBFA002884
:10695000F6D0BDE8104014F049BBD0E90210FFF7B3
:10696000EFFE08B114F042FB034B01221A70E7E777
:106970001C31002018310020193100202033002064
:1069800070B5164A164E5168044686B0106803ABBF
:1069900003C31189927A19809A700FCC35460FC5BE
:1069A00094E8070085E80700B369A3B10D4B009395
:1069B0000D4A0E490E4803AB0AF038FA48B90D48A3
:1069C0000BF066FE01460A480AF04AFA08B9FFF7DA
:1069D0006DFF06B070BD0720FBE700BF19CB0300B9
:1069E0001C310020DD6802003831002054340020C2
:1069F000203300205831002070B5104C206808B9B1
:106A000014F0F4FA4FF0A0450D4ED5F80435326875
:106A10005340C5F804352368013B236063B9094836
:106A200011F090FA3268D5F8043523EA0203064AD9
:106A300012681343C5F8043570BD00BF94340020BC
:106A4000983400209C340020C43400204FF0A04330
:106A500011B1C3F80C057047C3F808057047000072
:106A6000F8B52AB3132923D9124B134C5200013A1B
:106A70004FF0A0451A602060D5F8043518400F4B40
:106A80004FF4FA76186000274FF40040E0FB0167EE
:106A90004FF47A7200233046394615F06DFC00221F
:106AA0000146074811F002FA10B92368C5F80C3501
:106AB000F8BD00BF9434002098340020C434002076
:106AC0009C34002008B5054811F03CFA044B1A68C4
:106AD0004FF0A043C3F8082508BD00BF9C34002038
:106AE0009834002008B54FF0A04303224FF4003142
:106AF000C3F84427C3F808154FF48021C3F848278A
:106B0000C3F808154FF40021C3F84C27C3F8081543
:106B1000C3F850274FF48012C3F808250548064AE9
:106B2000012111F0B1F918B1BDE8084014F05EBAC6
:106B300008BD00BF24CB0300F9690200F8B5134B70
:106B4000134D144E144F0024C3F87C414FF0A04362
:106B500015F8011BD3F8102501238B40934310D067
:106B60003368D7F80425991A48BFD11A43F2333352
:106B7000994206D9D7F804353360084B20461B6884
:106B800098470134042CE1D1F8BD00BF00600040FB
:106B900028CB0300C034002000100140BC3400208A
:106BA0002DE9F0410446CEB038B1424D2B685A046D
:106BB00003D5414E3368032B02DC4EB0BDE8F081B3
:106BC0003E4B18680DAB611E04F10F0C1F4611F807
:106BD000012F4FEA121E02F00F0210F80EE083F8A8
:106BE00000E0825C5A70614503F10203EFD100239B
:106BF000334887F820302F2115F070FE002846D04A
:106C00002F212F4815F06AFE411CDFF8C4802D4A61
:106C1000D8F8043501922C4A0092029742220420AF
:106C200005F06AFB2B685B04C7D53368032BC4DD12
:106C300023482F2115F052FE002831D02F21204863
:106C400015F04CFE411CE27B2068D8F804350B920D
:106C5000A27B0A92627B0992227B0892E27A0792D7
:106C6000A27A0692627A0592227A0492E28852BA55
:106C700092B20392A28852BA00BA92B2CDE901024E
:106C8000124A00920420432205F036FB95E70C4897
:106C90005C2115F023FE08B15C21B2E70849B4E796
:106CA00007485C2115F01AFE08B15C21C7E70449CA
:106CB000C9E700BF042E0020002E0020082E00206F
:106CC0002CCB030054CB030066CB03006ECB030038
:106CD0000010014060DF704769DF704703F0FEBAC3
:106CE00010B588B000F04AF908B114F07FF92B4BC9
:106CF0000393039B04930C22002105A815F01CFDAF
:106D00000023049A8DF8143005A90120FFF7E4FF51
:106D100008B114F06BF90C22002105A815F00CFD48
:106D2000F823049A059305A9A120FFF7D5FF08B120
:106D300014F05CF904A8FFF7CDFF039B049A9A4274
:106D400004461CD0164B1B685B0418D5154B1B68FA
:106D5000012B14DD14482F2115F0C0FDA8B12F21FF
:106D6000114815F0BBFD411C104B049AD3F80435B3
:106D700001920F4A00920220AB2205F0BDFA14B135
:106D8000204614F033F908B010BD07485C2115F017
:106D9000A5FD08B15C21E3E70349E5E7F02D0020FC
:106DA000042E0020002E0020AECB03000010014076
:106DB000DECB030070B5EFF3108672B60C4A946810
:106DC00001239CB993600B4B0B4DD3F880102940E5
:106DD0001160C3F88050D3F8841051604FF0FF3237
:106DE000C3F88420047006B962B670BD0370FAE778
:106DF0008457002000E100E0FC06FFBD10B5084B01
:106E00009A685AB150B9EFF3108172B6054A1C68FE
:106E100014605C685460986001B962B610BD00BF30
:106E20008457002000E100E001600B6843604A687D
:106E3000934204BF002343607047436843B1026834
:106E400091680B4443605268934204BF002343603F
:106E500070474BDF704700001FB50D4C01A8FFF7CE
:106E6000F8FF70B9214602A8FFF7DEFF039B002B55
:106E7000F4D00198D3E90021904702A8FFF7DDFF85
:106E8000F4E7052801D014F0B1F804B010BD00BF3C
:106E900018CC030061DF704730B5114B1B7891B0FF
:106EA000E3B1104D34240DF1020103A8ADF8024006
:106EB000FFF7F0FF70B9294601A8FFF7B5FF029B65
:106EC000002BF0D003A8D3E90021904701A8FFF7D9
:106ED000B4FFF4E7052801D014F088F811B030BDF4
:106EE000C834002024CC030010DF704713B50446DB
:106EF00009496846FFF798FF019808B902B010BD2C
:106F0000D0E900212046904718B16846FFF795FF69
:106F1000F2E71120F2E700BF34CC030013B50446BA
:106F200007496846FFF780FF019B0BB902B010BD0F
:106F30002046D3E9002190476846FFF77EFFF3E73C
:106F40004CCC03000B4991F816335A09EC2313413A
:106F5000DB0706D5084B9A683AB94FF480030B60FB
:106F6000704742F2020014F041B81A6842F48002FD
:106F70001A60704700E100E084570020F7B5194F10
:106F80003C7864BB184E012520463570FFF7AEFFF4
:106F9000112821D02046FFF7C1FF144B8DF8034084
:106FA000186801900DF10300FFF704FF104901A8D4
:106FB000FFF79AFF0446B0FA80F0400938709DF858
:106FC0000300FFF71BFF3CB90A4B34701C70FFF73E
:106FD000B9FF2846FFF7A2FF204603B0F0BD082402
:106FE000FAE700BFCA340020C934002030CC0300C7
:106FF00029700200CB34002007B508496846FFF726
:1070000013FF019B13B903B05DF804FBD3E9002023
:1070100090476846FFF711FFF3E700BF40CC03003D
:10702000FFF7EABF0620704730B5754B14461B6862
:1070300044F20102904287B00D4603F4804300F011
:10704000A98022D8012844D041F20102904276D092
:10705000002B58D06B4B1B68002B54DD6A482F2146
:1070600015F03CFC002800F0BF802F21664815F089
:1070700035FC411C654B664AD3F8043500920195F6
:107080007B22012005F038F93DE044F202029042F3
:10709000DED1002B37D05B4B1B68002B33DD5A4809
:1070A0002F2115F01BFC00286BD02F21564815F01E
:1070B00015FC411C554B2288D3F8043503926268B5
:1070C000CDE90152534A00920120692205F014F9DA
:1070D00019E0C3B14B4B1B68002B14DD4A482F212C
:1070E00015F0FCFB10B32F21474815F0F7FB411CAE
:1070F000464B494AD3F804350092CDE90154602249
:10710000012005F0F9F84FF0A0434FF4F012C3F856
:107110001825C3F80C25EFF3108372B64DF6AD6C4D
:107120003E4A1378002B68D107B030BD36485C2149
:1071300015F0D4FB08B15C21D6E73349D8E7002B22
:10714000E1D0304B1B68002BDDDD2F482F2115F0DF
:10715000C5FB68B12F212C4815F0C0FB411C2B4BFF
:107160002F4AD3F804350092CDE901546322C7E7D2
:1071700025485C2115F0B2FB08B15C21EBE7224900
:10718000EDE721485C2115F0A9FB08B15C218DE7F2
:107190001D498FE7002BB6D01A4B1B68002BB2DDC0
:1071A00019482F2115F09AFBA8B12F21164815F088
:1071B00095FB411C154B2268D3F804350492626894
:1071C000CDE90252A2680192164A00920120732270
:1071D00005F092F897E70C485C2115F07FFB08B1A9
:1071E0005C21E3E70849E5E707485C2115F076FBF9
:1071F00008B15C213AE704493CE730BF91E700BFA2
:10720000042E0020002E002058CC03000010014066
:10721000FCCC0300BCCC030080CC0300F02D00208C
:107220009ACC0300DBCC030007B500230146ADF880
:1072300000306A46044B019344F20200FFF7F4FE6B
:1072400003B05DF804FB00BFA7CF03000146102286
:10725000014815F063BA00BFCC34002010B50C4CC7
:107260000C490822204615F059FA08220A49A018AC
:1072700015F054FAA37903F00F0343F04003A37110
:10728000237A03F03F0363F07F03237210BD00BF36
:10729000CC34002060000010A400001000487047AB
:1072A000CC3400200022064913460132202A4B80AC
:1072B0004B6001F8083BF8D1024A1360704700BFE9
:1072C000DC340020DC350020F0B50C4B0C4D1B6885
:1072D000044620227BB1013B15F8330050B105EB89
:1072E000C3067788A74202D176688E4202D0013A5F
:1072F000F0D11046F0BD1F23EEE700BFDC350020C3
:10730000DC34002030B5094A094C136804EBC3058E
:107310001F2B69604FF0010104F83310194408BFB6
:107320000023688014BF1160136030BDDC3500207D
:10733000DC340020C0F30C038B42084438BFA0F5B6
:107340000050C01A70470000F0B50D4B0D4A1E6882
:1073500000218E4212D0156800230AE052F8044C36
:1073600004EBC30714F83340844201D17868F0BDC0
:1073700001339D42F2D101310832EAE70020F6E7FD
:10738000643600206C36002000B58DB048B9991CD9
:1073900007D0012101A8CDE902328DF8041001F0D7
:1073A0004FFA034B186803F055FF0DB05DF804FB6E
:1073B0007036002010B50378044613B97846FFF7FD
:1073C00033FF607A431C01209840013810BD2DE93D
:1073D000F0410E468EB015461C46074610B9784659
:1073E000FFF722FF16B97846FFF71EFF636AA278FF
:1073F00002330593E378A2F10800002B14BF0121AA
:1074000002210DF1040842424241434604F10C00BE
:1074100004F055F8A3788DF83430237BADF8205074
:10742000022B16FA85F5CDE906870B960C950FD140
:10743000236913B97846FFF7F7FE236909931023F0
:1074400005A8ADF8283004F036F80EB0BDE8F0819C
:107450000023F5E7B2F5C07F2DE9F0478146884665
:10746000174602D97846FFF7DFFE244B00259A46DF
:1074700093F848605EB9384607F00BFE702404FBB1
:1074800005A4E06648B900242046BDE8F087013530
:10749000042D03F17003EBD1F5E730224946204675
:1074A00015F03CF9B8F1010FE664A4F84A701BD15D
:1074B000134BA4F852601B7D84F8513084F850605F
:1074C000D9F8283063656FF00103A3620D4BA4F86F
:1074D0005860A3632464012002F0CCFA702303FBFC
:1074E00005A585F84880CFE76FF00103A362064B3E
:1074F000A36584F86860054B2466EAE78C360020B3
:1075000074360020657C0200798202005D7C0200F6
:1075100010B50446C06E07F0BEFD04F1300003F064
:10752000D7F894F84830022B03D104F1500003F04F
:10753000CFF820467022002115F0FEF8002084F8D4
:107540004800BDE8104002F095BA10B590F84830F8
:10755000012B8CB0044602D07846FFF765FE01236C
:107560008DF80430636D029303F0F2F8039001A8E4
:1075700001F066F92046FFF7CBFF0CB010BD10B547
:107580000446808A02F01EFD01281CD1237BD3B162
:1075900094F91620002A18DBE27D5AB1022B12D092
:1075A00094F90330002B10DBA378002B0CBF0020D4
:1075B000072010BDE2780AB9012B06D1237833B930
:1075C000A378042BF2E71020F3E70720F1E700206F
:1075D000EFE700001FB500230A468DF80F3028B3EF
:1075E000023008600DF10F01104603F066FF9DF8B0
:1075F0000F30DBB1144B1B685B0717D5134B1B68AF
:10760000032B13DD12482F2115F068F998B12F21B3
:107610000F4815F063F9411C0E4B0F4AD3F804359F
:107620000092042040F2154204F066FE9DF80F001F
:1076300005B05DF804FB06485C2115F04FF908B170
:107640005C21E5E70249E7E7042E0020002E002038
:1076500015CD03000010014032CD030070B5044683
:10766000D4E906122378808A8CB0D3B1E38805F080
:10767000FDFD054690B1A68AE4692C22002101A8EF
:1076800015F05AF804F001040F2301A88DF8043016
:10769000ADF80860ADF80A4001F0D2F828460CB009
:1076A00070BD05F0DFFDE4E72DE9F04F9846137853
:1076B000D2F818A0F3B006460D46144623B1D1887F
:1076C0005046FFF737FE9061E378A278002BA2F1D5
:1076D00008000DF10C0914BF0121022104F10C076F
:1076E00042424B464241384603F0E9FEA3788DF80A
:1076F0003C30ADB2E81A80B2CDE90896E378C4F820
:1077000018A006440E964FF0000912AEADF82800FE
:107710000D96ADF83090002B65D04FF0100B04F1B2
:10772000240A237BC4F82490022B02BF2369ADF8FE
:1077300030B00B93206A217952460FF0F7FF606A50
:1077400030BB237B022B05D1E089394610F084F849
:107750000028E6D1374B1B685B0741D5364B1B68C9
:10776000052B3DDD35482F2115F0B8F8002858D0FD
:107770002F21324815F0B2F8411C314B314AD3F871
:1077800004350092062040F2017204F0B5FD27E0B6
:1077900007A9FFF71FFF0028CCD02046FFF75EFFA8
:1077A000F0B9A1780B906D1A8DF81C0097E80300D2
:1077B000A38AADF82A3001220CAB8DF8282083E88B
:1077C0000300A37D8DF84030236A0E9307A8636AF7
:1077D0000896ADF824500F93CDF8448001F030F8AE
:1077E00073B0BDE8F08F227B012AB3D1A146E089B6
:1077F000B4F814A049F8243F49460FF0C7FF606A67
:1078000007A9FFF7E7FE0028C7D160624946504646
:107810000FF0BCFF606A07A9FFF7DCFE002899D0D3
:10782000BBE706485C2115F059F808B15C21A0E7D8
:107830000249A2E7042E0020002E002015CD0300EF
:107840000010014045CD0300C37D0A7830B5002B00
:107850003DD0C37822F07F0203F07F031A430A7001
:107860000B78027803F07F0343EAC2130B700378AE
:1078700063B38378083B5A425A414B7803F07F0345
:1078800043EAC2134B708A78C58802F00302C5F33D
:10789000861442EA850223F07F032343D2B28A7022
:1078A0004B70CB78057A03F01F03C5F3C10422F0B7
:1078B000030243EA45132243DBB2CB708A70427A5B
:1078C00023F01F0302F01F021343CB7030BDC478B6
:1078D00022F0400343EA8413DBB20B70027923F0F9
:1078E0003F0302F03F0213430B70B9E72DE9F04F5D
:1078F000824689B00D4609B100220A600AF10C03E4
:107900009AF85040019301274FF0000B9AF80900B4
:10791000A04203D2002009B0BDE8F08FDAF84C1085
:1079200007FA04F20A4264D19AF81720019B8AF8F8
:107930000840002A0CBF0C26082684429AF8002032
:10794000029306FB04F908BFBAF84A608DF818B034
:1079500008BFA6EB0906002A14BF4FF004084FF039
:10796000010806EB08020492DAF82820039202A824
:10797000DAF82C20059203F044FF0028CBD1079AB7
:10798000904454B99AF853203AB9DAF818208AF892
:107990005370C2F30C02AAF806209AF817209AB97D
:1079A0009AF8522082B914B17846FFF73DFCBAF834
:1079B0004A109AF802208A1ADAF86C1053460846E0
:1079C000FFF705FD8AF8527007995046FFF73CFF14
:1079D000DAF86C1032464944404614F09FFE02A883
:1079E00003F030FF15B12A6801322A60621C8AF860
:1079F00050200134E4B289E738B590F84830012BC3
:107A0000044602D07846FFF70FFC02F0A1FE237B6C
:107A1000074A012B05BFD2E90315A37DD16805FBF9
:107A20000311014404F13000BDE8384002F067BEA4
:107A300074360020F0B5C37D16468278002B3244A0
:107A400014BF4FF480734FF4C0739342C7B00F4616
:107A50007DD3424B002493F84810012907D19D8A19
:107A6000818A8D4203D1DD89C1898D4271D0013473
:107A7000042C03F17003EED10121FFF7EBFC054666
:107A8000002844D032463946C06E14F047FE002329
:107A900004A928460493FFF729FF30F004040646A2
:107AA00050D1049B13B12846FFF7A6FF2C4B1B684F
:107AB00013F004034FD02B4B1B68032B27DDB5F8C5
:107AC0004A00294B802805AA1F6828BF8020002370
:107AD0001646834202F102021CD10022234806F816
:107AE00013202F2114F0FAFE18B32F211F4814F091
:107AF000F5FE411C1E4B1F4AD3F8043501921E4A65
:107B0000009202964FF4AC62042004F0F5FB20468C
:107B100047B0F0BDE96EC95C4FEA111C01F00F01DE
:107B200017F80CC002F802CC795C02F8011C013392
:107B3000CFE70E485C2114F0D1FE08B15C21D5E7F7
:107B40000A49D7E72846FFF7E3FC3446DFE7092474
:107B5000DDE70824DBE71C46D9E700BF8C360020B0
:107B6000042E0020002E0020082E002015CD03003A
:107B7000001001406ECD030066CB0300F0B50D464A
:107B800091B0044610B97846FFF74EFB94F84830A0
:107B9000022B18D1E188A069FFF7CCFB284AE169E4
:107BA00013680F0A0E06591C1160264A361803F096
:107BB00007034FEA031147F1000702EB0313A08A02
:107BC0005052C3E902672C22002105A8666D14F00B
:107BD000B3FD102305A88DF8143006968DF81C50BF
:107BE00000F02EFE2046FFF793FC174B1B685B0747
:107BF0001BD5164B1B68032B17DD15482F2114F0DE
:107C00006DFEA0B12F21124814F068FE411C114BEB
:107C1000D3F80435029594F8482001920E4A009258
:107C2000042040F2F31204F067FB11B0F0BD0848E5
:107C30005C2114F053FE08B15C21E4E70449E6E757
:107C400060360020E0350020042E0020002E0020A9
:107C500015CD0300001001407CCD03000846002133
:107C6000FFF78CBF10B591F84830012B0C4602D0BD
:107C70007846FFF7D9FA94F851305BB1013B84F8AC
:107C80005130002384F85030084BBDE8104018688C
:107C900003F0E0BA217B0129204603D1BDE8104062
:107CA000FFF76CBFBDE81040FFF74FBC70360020F7
:107CB0002DE9F04306468FB010460F46154698460C
:107CC000FFF7CCFC044600285ED195F80390B9F18B
:107CD000000F40F0AA80062F56D1307873788201C9
:107CE00002F4FE5242EA9302604B1F4693F848109A
:107CF000012928D1B3F814C0E9898C4523D1D9884A
:107D0000914220D1B3F858C0A98ABCF1000F01D02C
:107D10008C4518D110F0800FD6F802204FF0700378
:107D20003ED003FB0473A3F85810702000FB0474CA
:107D300012BAE56C1543E564002A63D1032120469D
:107D4000FFF71CFF20E00134042C03F17003CDD1B8
:107D5000474B1B685B0717D5464B1B68012B13DD90
:107D600045482F2114F0BAFD88B12F21424814F064
:107D7000B5FD411C414B424AD3F804350092022024
:107D800040F2776204F0B8FA0FB0BDE8F0833A48E9
:107D90005C2114F0A3FD08B15C21E7E73649E9E76F
:107DA00003FB0473DB898B42BFD0314B1B685A073E
:107DB000EAD5304B1B68012BE6DD2F482F2114F04C
:107DC0008DFDB0B12F212C4814F088FD411C70208E
:107DD0002A4BAA8AD3F80435029200FB04740220CD
:107DE000E2890192274A009240F27B6204F084FA11
:107DF000CAE721485C2114F071FD08B15C21E2E77B
:107E00001D49E4E72046FFF7D5FA854203D1204615
:107E1000FFF79BFBB8E7002184F850102046FFF7DE
:107E200065FD2046FFF7E8FDAEE74846FFF78CFA10
:107E300002460028A8D0D5E903012B6A0B93AB8A30
:107E4000ADF8223009AB83E80300AB7D8DF830300C
:107E50002B788DF82030EB6A8DF81490CDE9066709
:107E60000D93414605A890478EE700BF8C36002051
:107E7000042E0020002E002015CD0300001001402C
:107E80009FCD0300CDCD0300F0B589B005460E4669
:107E90000192FFF774FB044638B92B78019A3BB185
:107EA00031462846FFF7C6FD0446204609B0F0BD1E
:107EB000E97DAB7801920029134414BF0B210F21F7
:107EC0008B4226D80133049305F10C030293AB6A6D
:107ED00003938DF81800EB6A059302A803F091FC58
:107EE00004460028E1D1079928464F1CFFF7ACFC57
:107EF000EB7D019A3BB13146384614F00FFC02A8E5
:107F000003F0A0FCD1E72B4639463046FFF75FFA75
:107F1000F5E70924C9E7000010B54FF4E07200212D
:107F2000134814F009FC002405F088FA114B12489C
:107F30001C602146802214F0FFFB104B1049114AAF
:107F400011489C75C3E9001210494CF25032C3E944
:107F500002211A6140F604029A8203F05DF90C4B8B
:107F600018600C4B0C481C60BDE8104005F076BB57
:107F70008C36002060360020E0350020743600206A
:107F800080969800F04902007587020020A1070042
:107F900070360020643600208973020005F05AB95B
:107FA00030B504468DB000285FD00369002B5CD04B
:107FB000C369002B59D08569002D56D05A788DF8A9
:107FC00004201A780993838A82F001020B2B8DF822
:107FD0000320027B09D90121022A8DF8001001D16A
:107FE000234A927D5AB904220AE0C17A0029F2D1CB
:107FF000012A0CBF012200228DF8002031D1082275
:1080000013448DF802200B330C22B3FBF2F3013B37
:108010008DF8093000238DF8083094E80300002320
:108020008DF8173003AB83E803002389ADF81430D3
:10803000A37A8DF81630236A0A932046DF23089529
:108040000B930FF09FFC28B12378012B14BFFF2363
:1080500020230B93A28A21696846FFF715FF0DB014
:1080600030BD04238DF80230D7E70E20F7E700BFBC
:108070007436002030B50A4691B00446002860D01E
:108080004368002B5DD08569002D5AD003788DF8A8
:10809000133000230D9383680B2B94BF017B0121C8
:1080A00001F001008DF8100000208DF8120031B1B0
:1080B0000733DB08013B8DF819308DF81800D4E93F
:1080C000040101238DF8273007AB83E80300E3891F
:1080D000ADF82430237F8DF82630236A0C95CDE946
:1080E0000E23194B1B685B071BD5184B1B68062B0F
:1080F00017DD17482F2114F0F1FBC8B12F211448C8
:1081000014F0ECFB411C134BA269D3F80435029226
:1081100022780192104A0092072040F6030204F0F0
:10812000EBF8D4E9011204A8FFF7AEFE11B030BDA0
:1081300007485C2114F0D2FB08B15C21DFE7044959
:10814000E1E70E20F2E700BF042E0020002E002001
:1081500015CD0300001001400ECE030070B5037B67
:10816000012B90B004460D4677D13D4B1B685B0751
:1081700018D53C4B1B68032B14DD3B482F2114F012
:10818000ADFB00285ED02F21374814F0A7FB411C1F
:10819000364B374AD3F804350092042040F263226C
:1081A00004F0AAF804AE0B220021304614F0C4FA01
:1081B0009DF81130E288089603F0030343EA820336
:1081C0008DF811302B0E8DF812302B0C8DF81330EA
:1081D0006378022B0CBF80230023C2F3861242EA8D
:1081E00003024FF0060309934FF001038DF82C3082
:1081F000A38AADF82E304FF000036DBA8DF8102031
:108200000C93226A8DF81C308DF82830E36AADF8A3
:1082100014500D920F931ED10DF10E0103A80FF013
:10822000A1FBBDF80C30ADF82A30A37D0BB1114B8A
:108230005B7D8DF838306FF0010107A8FFF71AFF5A
:1082400010B070BD08485C2114F048FB08B15C21F7
:108250009AE705499CE7E389E5E70020F0E700BFDE
:10826000042E0020002E002015CD03000010014038
:1082700039CE03007436002010B591F84830022B37
:108280000C4602D07846FEF7CFFF022384F8683010
:1082900094F84830022B06D1E16C2046FFF75EFFD0
:1082A00008B984F8680010BD2DE9F04F0D469DB067
:1082B000174698460446002800F05882002A00F02D
:1082C000558221B9092630461DB0BDE8F08F18222D
:1082D000394613A814F022FA237894F900100020EC
:1082E000DA0981428DF84020B4BF04220122954270
:1082F0008DF84100E6D39DF85760EEB103F07F039F
:1083000081428DF843308DF842002EDA6278A378EE
:10831000920102F4FE5242EA9302ADF84620DB00DD
:10832000E27803F0180343EA521302F01F028DF8BB
:1083300048308DF8492018E0C3F38010002903F07D
:108340003F038DF843008DF8443008DA94F901308A
:10835000002BB4BF082304238DF84230D6E7042352
:108360001A4495428DF84230ACD30023199398F803
:108370000030032B02D97846FEF756FF98F800200C
:10838000CB4B10A853F822301B93FFF7F8F80646A2
:10839000002898D10146082203A814F0CDF9788866
:1083A00003A90FF059FA28B19DF8413043F00103B9
:1083B0008DF84130D7E90312388904F085FF002891
:1083C00055D19DF84130002B3FF47DAF13F00103F0
:1083D0001CBF049A14929DF84020002A00F0B4813A
:1083E000BDF846101698FEF7A5FF179BBDF854C0C0
:1083F000B0494FEA036A4FEA132B1AEB000A4FF019
:1084000000074BF1000B0B88634506D1D1E902232D
:108410009B4508BF92453FF456AF0137082F01F145
:108420001001F0D1A44B4FF00009184693F84820F2
:10843000022A25D19A8A624522D1702303FB0909B9
:10844000B9F80610D9F81800FEF774FFD9F81C1017
:108450000A0612184FEA112343F100035B4508BFD7
:10846000524535D205214846FFF788FB0FE09DF8BD
:10847000413003F0FE038DF84130002BA1D122E7FB
:1084800009F10109B9F1040F03F17003CED1DDE95F
:108490001612BDF84630BDF8540004F03FFF002826
:1084A00000F0C980DDE91612BDF84630BDF8540071
:1084B00004F06AFF00283FF406AF10A8FEF77AFF29
:1084C000014610A8FFF74AFE10A8FFF7C7F8FAE622
:1084D0009B4508BF9245FFF4F6AE784B1B685B07DF
:1084E0001CD5774B1B68032B18DD76482F2114F021
:1084F000F5F9002800F00E812F21724814F0EEF9F2
:10850000411C714B9DF84820D3F8043501926F4A05
:108510000092042040F2A33203F0EEFE99F84830B6
:10852000022B02D07846FEF77FFEDFF8A8A1DAF82A
:1085300000B002F00DF90BEB000109F1300002F080
:10854000DEF899F80C30012B1AD199F86830BBB9D4
:1085500099F84830022B02D07846FEF765FEDAE93A
:1085600001329AF8151002FB013A02F0F1F800EB23
:108570000A0109F1500002F0C2F8012389F86830BD
:108580009DF84810D9F84C3001228A4013EA020ABB
:108590007FF499AE1343C9F84C309DF8573099F8E1
:1085A0000920002B14BF4FF0080E4FF00C0E8A422A
:1085B000A5F104050EFB01FE40F0B5800EEB0503AE
:1085C000A9F84A30D9F81820169B9A420AD20DF120
:1085D0004C0CBCE80F0009F10C070FC79CE8030026
:1085E00087E80300D9F86C00211D2A46704414F076
:1085F00095F84846D9F84C40FEF7DCFE84427FF4FB
:1086000062AED9F84C104846FFF7A8FD99F8013042
:10861000DA070CD599F81730D9F86C00B9F84A1078
:10862000002B00F08C8043464A46FFF741FB48464A
:10863000FEF76EFF81E09DF857209DF84930002A33
:1086400014BF4FF008094FF00C0903FB099914BF40
:108650004FF480734FF4C07399453DD9174B1B6895
:1086600059077FF530AE164B1B68002B7FF72BAEFA
:1086700014482F2114F032F988B12F21114814F039
:108680002DF9411C104B124AD3F804350092CDF855
:10869000049040F27F32012003F02EFE13E60948D9
:1086A0005C2114F01BF908B15C21E7E70549E9E713
:1086B00070CE0300E03500208C360020042E002010
:1086C000002E002015CD0300001001405DCE0300F8
:1086D00049CE0300743600204A46022110A8FEF756
:1086E000B9FE814600287FF4F8AE014610A8FFF7D6
:1086F00035FD2C22494605A814F01EF810238DF8EC
:10870000143005A80223CDF818908DF81C3000F025
:1087100097F8D8E516485C2114F0E0F808B15C2120
:10872000EBE61349EDE6002B08BF0C27BD423FF4F2
:1087300049AF04214846FFF721FA0026C3E5434626
:108740004A46FEF7B1FF72E7002B3FF4BCAD9DF83F
:108750005730601C691E23B1434610AAFFF7A8FAE0
:10876000B1E5434610AAFEF79FFFACE50E26AAE549
:1087700015CD0300F7B5184C00262546374695F869
:108780004830012B0BD101A928460197FFF7AEF81D
:10879000042801D0019B13B12846FFF72DF90136BB
:1087A000042E05F17005EAD1002594F84830022B1B
:1087B0000AD194F86830022B06D1E16C2046FFF70D
:1087C000CDFC08B984F868000135042D04F170046B
:1087D000EBD1012003B0F0BD8C3600202DE9F84329
:1087E0000F46064610B3144B1C689846E4B925465C
:1087F00000F10409BD4208D1104BC3E90065012313
:10880000C8F800302046BDE8F88359F835306BB120
:1088100016F9353016F83500002B09DB50B1FEF79C
:1088200093FD38B90135E5E70424EBE70E24E9E7C9
:108830000B24E7E70F24E5E76436002068360020C4
:10884000F8B5074610B97846FEF7EEFC0F4E3468CF
:1088500094B10F4D01232B7023791BB954F8043CBC
:10886000384698472468002CF6D12B78022B03D188
:108870003168064C09B92970F8BD0B790E6813B13F
:10888000204603F0BEFC3146F4E700BF503800201C
:108890004C38002010B5044610B97846FEF7C4FCE9
:1088A00000232372211D0248BDE8104003F088BC5C
:1088B0005038002010B5044610B97846FEF7B4FCD5
:1088C000074A1378013B012B04D8022313700123BC
:1088D000237210BD211D0348BDE8104003F091BC78
:1088E0004C380020503800200B888268D25A07325A
:1088F00022F00302134402889BB2043A934288BFD9
:1089000000230B80704713B58368C91AADF80610B1
:108910000DF10601FFF7E8FFBDF806308068184446
:1089200002B010BD70B5064615460C4611B9784622
:10893000FEF77AFC16B97846FEF776FCB4F1005FD4
:1089400024D94FF08053D3F80C3103F50023B4EB56
:10895000832F1ED26B1E2344B3F1005F26D94FF044
:108960008052D2F80C2102F50022B3EB822F20D2E4
:10897000042D02D87846FEF757FC35800023043DCD
:108980007380B380B4602580A37070BDB4F5000F10
:1089900008D94FF08053D3F80C3103F50053B4EBF2
:1089A000832FD7D37846FEF73FFCD3E7B3F5000F0C
:1089B00008D94FF08052D2F80C2102F50052B3EBE7
:1089C000822FD5D37846FEF72FFCD1E738B5044681
:1089D00010B97846FEF728FC6288A36813449B7898
:1089E000012B02D17846FEF71FFCEFF3108572B61B
:1089F000A268A18811448B78032B0AD12046FFF787
:108A000082FFA368C31A63800023837005B962B62E
:108A100038BD002393706380A380F7E7F8B50E4656
:108A20001546044610B97846FEF7FEFB16B978469F
:108A3000FEF7FAFB6288A36813449B78012B02D1EE
:108A40007846FEF7F1FB002D37D02388043B9BB21C
:108A50009D4232D8EFF3108772B66288A388E81D72
:108A600020F003009A4280B204D29B1A984210DD93
:108A7000042016E018D92188891A814209D2984227
:108A8000F6D8032981BFA3689B1804229A7000239B
:108A900063806288A1688B188D5201229A70002031
:108AA000336007B962B6F8BDA26813449B78002B07
:108AB000DED193706380A380EBE70920F3E7F8B57C
:108AC0000D461646044610B97846FEF7ADFB15B9BB
:108AD0007846FEF7A9FBAB78012B02D07846FEF76B
:108AE000A3FB2B88B34202D27846FEF79DFB16B952
:108AF0007846FEF799FBEFF3108772B60223AB704E
:108B0000E1182E802046FFF7EFFE6288A38893428B
:108B10001FBFA3689B1800229A7007B962B6F8BD00
:108B200070B50D46044610B97846FEF77DFB15B9C1
:108B30007846FEF779FBEFF3108672B6A288A36839
:108B400013449A78042A06D1211D2046FFF7CCFE53
:108B5000A288A36813449A78022A05D0032A08D071
:108B6000052006B962B670BD03229A702B60002002
:108B7000F7E77846FEF758FBF9E738B5044610B931
:108B80007846FEF751FBEFF3108572B6A088A16816
:108B900001448B78042B03D12046FFF7B4FE014635
:108BA0008878831E5842584105B962B638BD38B539
:108BB000044610B97846FEF737FBEFF3108572B61E
:108BC000A088A16801448878C31E012B05D9831EA3
:108BD0005842584105B962B638BD2046FFF793FEAA
:108BE0000146F0E7F8B50D46044610B97846FEF7A1
:108BF0001BFB15B97846FEF717FBEFF3108672B62C
:108C0000AB78012B19D0032B22D1A288A36813447F
:108C10009D4202D07846FEF707FB0027AF70211D6A
:108C20002046FFF761FEA288A36813449B78042BBB
:108C300000D1A78006B962B6F8BD6288A368134464
:108C40009D4202D07846FEF7EFFA0023AB70F1E7C1
:108C50007846FEF7E9FAEDE710B5EFF3108472B647
:108C60008288816811448B78042B02D1FFF74BFE78
:108C700001468878B0FA80F0400904B962B610BDA8
:108C8000037942799B1A03F57F2303F6FF7300EB08
:108C90000330704710B5054884681C22002113F08A
:108CA0004BFD2046BDE8104004F09CB8543800202D
:108CB00070B5194CE36813B97846FEF7B5FA237E10
:108CC00013B17846FEF7B0FA6368092B02D97846EB
:108CD000FEF7AAFA114D0026636855F8233098472D
:108CE000022811D003280DD0012810D16368013368
:108CF000092B636002D97846FEF796FA237E002B93
:108D0000EAD004E06660F9E7237E0BB1207070BD05
:108D1000BDE87040FFF7BEBF54380020DCCE030032
:108D200010B50388044613B97846FEF77DFA20880B
:108D3000084B04EB800030EA030203D06288B2F5EE
:108D4000FE4F05D104EA030000F58050047820446A
:108D500010BD00BF00F0FFFF70B504460D4647F69A
:108D6000FE66FFF7DDFFA84207D2844205D24388A2
:108D7000013B9BB2B342F4D870BD0020FCE7000079
:108D80000B78032B094B04BF00221A761A78012AAC
:108D900003D11B7E43B9FFF78BBF022A04D10B78A6
:108DA000032B01D1FFF776BF704700BF5438002076
:108DB00010B50C4CE3681878002203F58051184474
:108DC00004F010FC50B9E1680846FFF759FF8142F2
:108DD00006D001F58051E160032010BD0120FCE7C1
:108DE0000220FAE7543800201FB50A4B02221B6804
:108DF0008DF800200193084A4FF480536946012002
:108E0000029301F021F8B0FA80F0400905B05DF856
:108E100004FB00BF74380020703800201FB5012308
:108E2000CDE902210190054A8DF8003069461846C7
:108E300001F00AF805B05DF804FB00BF70380020AF
:108E40002DE9F047254BD86802794179013A9142E2
:108E50001F4603D101205876BDE8F08700F5805306
:108E60001F491C781C440B6813F8045F1D44FFF76E
:108E700007FF6388013B9BB247F6FE62934200F511
:108E80008056884604D920463146FFF765FF0446E0
:108E9000DFF850A04FF001092CB9B4FA84F464094A
:108EA0007C760120D8E7D8F800106288284601F5C2
:108EB000805104F097FB05460028EED0042251466D
:108EC000204687F81890FFF7A9FF28B920463146B9
:108ED000FFF742FF0446DFE70020BDE754380020DB
:108EE00074380020A8D0030038B5104CE368187817
:108EF0004FF6FF7203F58051184404F073FB88B1FC
:108F0000E36819780B4498420CD0657E0849094BF8
:108F10000422002D08BF1946FFF780FF20B9012069
:108F2000207638BD0120FCE70020FAE75438002005
:108F3000B0D00300ACD0030070B50C4D0C4EE96806
:108F400030680C7804302246FFF768FF58B9326861
:108F5000EB6804F0FC04043414446C611A78134484
:108F60002B61012070BD0020FCE700BF54380020B9
:108F70007438002008B5054B054918680422FFF72E
:108F80004DFFB0FA80F0400908BD00BF74380020E2
:108F90006038002010B5074B074C1968E06840F6B0
:108FA000FC720431FFF73AFF10B90120207610BDA2
:108FB0000020FCE7743800205438002010B50C4C19
:108FC000E1680846FFF75CFE81420AD1094B0A4975
:108FD00018680422FFF722FF40B9012323760220FC
:108FE00010BD01F58051E1600320F9E70020F7E7AB
:108FF0005438002074380020783800202DE9F74FCD
:10900000324D2B6913B97846FEF70EF96B6913B927
:109010007846FEF709F9DFF8B89047F6FE6A6B6903
:10902000D5E9030603EA0908A8EB0308FFF728FEC1
:109030007388013B9BB2534508F5805800F5805B6F
:1090400005D930465946FFF787FE064668B13446D3
:1090500000275C4513D327BB012334B1618847F651
:10906000FF72914201D0002BD9D001202AE0204686
:109070000192FFF755FE019A04461746E9E7228858
:1090800007EB8202904509D986EA040313EA090F27
:1090900004D16388013B9BB25345E8D90FB9012342
:1090A000DCE768693A463146FFF7B8FE48B96A69B5
:1090B0003A446A6114B97846FEF7B6F82C61002389
:1090C000CBE7002003B0BDE8F08F00BF543800208C
:1090D00000F0FFFF1FB50A4B0222DB688DF800206D
:1090E0000193084A4FF4805369460120029300F02F
:1090F000ABFEB0FA80F0400905B05DF804FB00BF9C
:1091000054380020703800201FB540F6F8731B68F3
:109110005A1C0CD1374B1A68013202D01A68002A47
:109120004CD14FF08052516913694B4303E0002B3F
:10913000F7D0A3F58053304CA3F5805323602F4B19
:109140001B68DB0223D52E4B1B68062B1FDD2D4829
:109150002F2113F0C3FB002832D02F21294813F010
:10916000BDFB411C40F6F872274B1268D3F804355A
:10917000501C08BF1F4A206808BF1268CDE90120B3
:10918000224A0092072040F2672203F0B5F82368D4
:1091900019684B1E03332AD8C1F30B033BBB1C4A8F
:1091A0001C48D160012111701B4913839360013366
:1091B0000A2B0ED17846FEF737F80FE01B68B8E7A8
:1091C00010485C2113F08AFB08B15C21C6E70D4909
:1091D000C8E751F823408442E9D1536001200F4988
:1091E00000F022FEFFF764FD012004B010BD002056
:1091F000FBE700BF1410001074380020042E00207C
:10920000002E002080CE030000100140A8CE0300F5
:1092100054380020D5900200DCCE0300818D02007E
:1092200010B5044610B97846FDF7FEFF094A1078DC
:1092300060B1E068D1684379A0EB0333994206D36B
:10924000FFF71EFD81428CBF0020012010BD0020D1
:10925000FCE700BF54380020024B1878003818BFD4
:10926000012070475438002038B50E4C237805464D
:1092700013B17846FDF7D8FF2B78032B02D0784640
:10928000FDF7D2FFEB68E360012000230649A560EB
:1092900063602070238300F0C7FDBDE83840FFF70E
:1092A00007BD00BF54380020818D0200014B1868B3
:1092B000704700BF7438002010B5044610B97846D6
:1092C000FDF7B2FF63681BB123680BB1A36813B944
:1092D0007846FDF7A9FFA3685A1E1A4202D07846C5
:1092E000FDF7A2FF0023C4E9033310BD38B50446DF
:1092F000F0B1E9B18368EBB1EFF3108572B6D0E954
:10930000023022691A44824203D105B962B60425AB
:109310000CE0013B0340D4E9000202FB030013F020
:10932000FDF9E3680133E36035B962B6284638BD1C
:109330000E25FBE70925F9E70025F7E770B50E468E
:109340000446F0B18368F3B1EFF3108572B6D0E94B
:109350000331994203D105B962B605250FE04EB13C
:109360008368013B0B40D0E90012304602FB031139
:1093700013F0D4F923690133236135B962B6284665
:1093800070BD0E25FBE70925F9E70025F7E7C3685F
:1093900003617047D0E90320101A7047024AD2F8DF
:1093A0000034002BFBD0704700E0014038B5C0F31B
:1093B0000B05EDB9F1B1104C0223C4F80435FFF7E9
:1093C000EDFF01F6FF7121F47F6121F00F010144EF
:1093D000884206D10023C4F80435FFF7DFFF284692
:1093E00038BDC4F80805FFF7D9FF00F58050EFE756
:1093F0001025F4E70925F2E700E0014040EA010307
:1094000070B5064698071ED1FAB112F003001CD1C0
:109410000F4B94080122C3F80425FFF7BFFF054650
:10942000A54206D10A4B0022C3F80425FFF7B6FF78
:1094300070BD51F825305A1C03D046F82530FFF78F
:10944000ADFF0135ECE71020F2E70920F0E700BF9F
:1094500000E0014041F2826398429DBF024B1878C0
:10946000C0F3C000012070470339002013B50190FC
:10947000000C01280C4602D07846FDF7D5FE084ABC
:109480000849236813600B7843F001030B7083F0E5
:109490000203C3F340030020137102B010BD00BFEC
:1094A000FC3800200339002013B50190000C02287D
:1094B0000C4602D07846FDF7B7FE084B22681A60CA
:1094C00022791A71064A002058719871D871137860
:1094D00043F00203137002B010BD00BFF438002047
:1094E0000339002007B50190000C032802D078460C
:1094F000FDF79AFE03480522002103B05DF804EB56
:1095000013F01AB9FC38002007B50190000C0428AC
:1095100002D07846FDF788FE03480822002103B0F8
:109520005DF804EB13F008B9F438002013B501908E
:10953000000C03280C4602D07846FDF775FE04495E
:109540000522204602B0BDE8104013F0E7B800BF86
:10955000FC38002007B50190000C032804D00091CE
:109560007846FDF761FE00990648052213F0D6F80B
:10957000054A1378002043F00103137003B05DF82F
:1095800004FB00BFFC3800200339002013B5019014
:10959000000C04280C4602D07846FDF745FE04492D
:1095A0000822204602B0BDE8104013F0B7B800BF53
:1095B000F438002007B50190000C042804D0009175
:1095C0007846FDF731FE00990648082213F0A6F808
:1095D000054A1378002043F00203137003B05DF8CE
:1095E00004FB00BFF43800200339002000B50A4B0B
:1095F0001A7B9B688DB0012A08BF03F1FF330493E7
:109600000390022301A88DF808208DF80430FFF79D
:1096100017F90DB05DF804FBA8380020074A13784D
:10962000590709D50178122906D105490868054965
:109630006FF3820348601370704700BF0339002046
:10964000FC380020A83800201FB5124C237859069A
:1096500002D47846FDF7E8FD23785A0717D40E4A5E
:10966000526802F50052B2F1807F02920FD80B4A85
:1096700043F0040312788DF80C2002A94FF4403017
:10968000237004F0A1FF10B17846FDF7CDFD04B0C2
:1096900010BD00BF03390020A83800200439002085
:1096A0001FB50023ADF80D300C4B9A6802920C4A9E
:1096B0001B7B8DF80C3013780133DBB202A94FF419
:1096C000802013708DF80F3004F07EFF10B17846C3
:1096D000FDF7AAFD05B05DF804FB00BFA838002027
:1096E0000439002007B54FF4403004F0BFFF4FF4B9
:1096F000802004F0BBFF14220021074813F01CF85F
:10970000064A137823F0600343F04003137003B05C
:109710005DF804EBFFF798BFA8380020033900205C
:1097200010B50C4C14220021204613F005F801F06E
:109730000FF8094B094A0A499A600022C3E903124B
:1097400058605A61074B6260197862F3C30119705F
:1097500010BD00BFA838002084380020DD9802002A
:10976000008793030339002037B5264D2B78DB069D
:109770002FD42548254B036000F0AEFD2448254B2F
:10978000036000F0A9FD2B7813F0200212D103F042
:109790000303032B204C1ED02260A260227322827E
:1097A000FFF77EFF236863602B7843F040032B7044
:1097B000FFF74AFF4FF4803004F058FF4FF40030B9
:1097C00004F054FF154800F061FF2B7843F01003BC
:1097D0002B7003B030BD124B1A68A2601A79227345
:1097E0009879597941EA00212182D9790D4B197074
:1097F0000D4B1879884202D00AB92260D2E71B6863
:109800002360CFE7033900209C38002079990200BB
:10981000E83800201D960200A83800208438002077
:10982000F438002004390020FC380020034B18785D
:1098300080F00400C0F38000704700BF03390020AF
:1098400010B501F079FC0D4A137BA3B9947B94B950
:10985000108AFFF7FFFD70B1012313739368148220
:1098600001339360FFF71CFF2046FFF7BFFE01F0B6
:10987000A3FC204610BD0824F9E700BFA83800204B
:1098800010B501F059FC144A547B9CB1917B09BB83
:10989000108AFFF7DFFD044660B1137B51732BB1D3
:1098A000012B0BD07846FDF7BFFC03E0FFF7C8FFA4
:1098B0000028F7D101F080FC204610BD0846C2E91F
:1098C000001111731182FFF791FEFFF7E9FEFFF718
:1098D000BBFEEFE70024EDE7A83800201FB5244CBD
:1098E000227B2AB1012A0FD07846FDF79DFC1CE0AF
:1098F000208AFFF7AFFDC0B1FFF7C2FF638A0BB14B
:10990000013B638204B010BD218A0846FFF7A2FD27
:1099100058B142F2B013994288BF6273FFF7B0FFAB
:109920000028EBD1637B002BE8D1238A01339BB263
:109930001E2118462382B3FBF1F201FB12339BB2C6
:10994000002BDBD1A3680293237B8DF80C30094BED
:10995000ADF80D001B788DF80F3002A94FF4802070
:1099600004F032FE0028C9D07846FDF75DFCC5E75B
:10997000A83800200439002010B50378042B0ED13C
:1099800043681B785BB11C4B4269197B047E69BB41
:10999000598AF9B9012C996802D08A4203D810BDBE
:1099A0004C1CA24218D92A318A42F8D8997B002946
:1099B000F5D184689A60114A1A619981C3E900114E
:1099C000FFF76EFEFFF740FE04F11000BDE8104007
:1099D000FFF70CBE012CE2D1996801318A42DED139
:1099E00001225A73BDE81040FFF74ABF0129D6D1C2
:1099F000012CD4D09968F1E7A83800200000062D8A
:109A000038B5184B1B785B06054626D5164CD4E9AD
:109A100000239A421FD2207B144B1549012808BF0E
:109A20000B469A4207D263682268403B9A4208D3A9
:109A3000FFF70AFE05E001236373FFF721FF00280B
:109A4000F1D0EFF3108072B623685A1C22602B60AD
:109A500028B962B638BDFFF7F7FD0F20FAE70020FE
:109A6000F8E700BF03390020A8380020FFFF7F007F
:109A700000E0FF0010B50C4A1368144628B101201D
:109A80000A4903448873136010BD13B97846FDF783
:109A9000CBFB2368013B2360002BF5D1034A937372
:109AA000BDE81040FFF7ECBE7C380020A83800204D
:109AB00000B58DB00323ADF8080001A88DF8102083
:109AC00003918DF80430FEF7BBFE0DB05DF804FB8A
:109AD000014B9868704700BFA8380020034B986876
:109AE0001B7B012B08BF00F1FF307047A838002016
:109AF000044B9B685840C20748BF03F1FF33184628
:109B0000704700BFA8380020014B187B704700BF8A
:109B1000A838002070B50E4E337813F0200415D10C
:109B20000C4D43F0200333702973A8602C82FFF79B
:109B3000B7FD2046FFF75AFD337843F04003C5E9EF
:109B400000443370FFF780FD204670BD0820FCE71D
:109B500003390020A83800202DE9F3411D4CDFF81F
:109B6000788000250221204602F038FAEFB2014643
:109B70000026B9B96EB12046019102F096FA082884
:109B8000019906D154F8043C1BB10A4638464146B7
:109B900098470135032D04F1BC04E3D1012002B044
:109BA000BDE8F08154F8043C1BB134F80C2C384665
:109BB000984734F80C3C02210133204624F80C3C31
:109BC00002F028FA0221204602F008FA0136014686
:109BD000CFE700BF1C39002014CF030038B50121A6
:109BE00004460C3002F0FAF9054628B3164BC4F8C7
:109BF0009C300023C4F8A03003786268012B07D0A2
:109C0000022B1BD07846FDF70FFB4FF4FA7307E0E9
:109C100081688B1A99084FF4A9734B4303F5FA73C3
:109C20000A4A934294BFC4F8A830C4F8A82001237C
:109C3000C4F8AC4084F8B830284638BD83689B1A15
:109C40001A0B034B5343E9E7759C02006085010042
:109C5000645E010010B50446FFF7C0FF48B104F18F
:109C60009C0005F09BFE20B17846BDE81040FDF752
:109C7000DBBA10BD2DE9F74F494B1B7807460C4660
:109C80003BB105F0C1FE002384F8B83003B0BDE855
:109C9000F08F01F10C09D1F8A8504846012102F0DB
:109CA0009DF9064610B97846FDF7BEFADFF8F8A030
:109CB000A5F5FA784FF4A97B00253378012BA8EBA2
:109CC000050506D0022B3BD07846FDF7ADFA002300
:109CD0001FE06368B268B5FBFBF5D21AAD00954290
:109CE00028BF154625B901937846FDF79DFA019BDB
:109CF000F168706823F003032A4619441844FFF7FB
:109D00007DFB10B17846FDF78FFA63681D446560EE
:109D1000B36862689A422AD105F076FE484601216E
:109D200002F078F90023636084F8B8301D4B18689E
:109D300001F090FA204603B0BDE8F04FFFF78ABF6C
:109D40006368B268B5FBFAF5D21A2D03954228BFB5
:109D5000154625B901937846FDF766FA019B7068B0
:109D600023F0030329461844FFF720FBC9E701F05D
:109D7000D5F83378C51B48BF3D1A012B0BD0022BF9
:109D80000CD07846FDF750FA00232B44434594D974
:109D900005F03AFECEE74FF4A973F6E75346F4E731
:109DA0000C39002008390020645E010070B51B48A2
:109DB0001B4C01F031FA1B4B186004F11C0341F2FB
:109DC00003060825636104F10C0004F11803236104
:109DD000A681A57302F045F904F1D803C4F8D03088
:109DE00004F1C80004F1D403C4F8CC30A4F8C8606E
:109DF00084F8CA5002F035F904F5CA73C4F88C31FE
:109E000004F5C873A4F8846184F88651C4F88831D5
:109E100004F5C270BDE8704002F023B9599B0200FE
:109E20001039002008390020022838B504460D46B4
:109E300002D97846FDF7F8F90248BC2303FB040475
:109E4000A56038BD1039002002282DE9F84F0546DD
:109E50000C46914602D97846FDF7E6F914B97846E2
:109E6000FDF7E2F92378012B12D16368990702D03C
:109E70007846FDF7D9F9E3689A0702D07846FDF7EE
:109E8000D3F9A3689B0711D07846FDF7CDF90DE013
:109E9000022B0DD16368C3F30B0313B17846FDF7B2
:109EA000C3F9A368C3F30B03002BEDD1A36813B967
:109EB0007846FDF7B9F9EFF3108872B6BC26234F48
:109EC0006E4306F10C0BBB440021584602F086F8A5
:109ED000824690B30021584602F09CF81022214699
:109EE000504612F01BFCB9F1000F03D0BB195B8880
:109EF000A9F80030BC2000FB05756B8895F8B840C8
:109F000001336B8004BB124B1D78BDB9B819FFF744
:109F100065FEB8F1000F0ED162B6444640B106F1BD
:109F20009C00384405F03AFD10B17846FDF77CF905
:109F30002046BDE8F88F2C46F0E70424B8F1000F66
:109F4000F6D1A0460020E7E70024F7E7103900200B
:109F50000C39002070B5EFF3108672B6144C2368EC
:109F600018BB13B97846FDF75FF92368013B2360FE
:109F700093B9104D95F8B83013B92846FFF76AFE2B
:109F800095F8743113B90C48FFF764FE95F8303238
:109F900013B90A48FFF75EFE2368094A003B18BF61
:109FA0000123137006B962B670BD01332360F3E775
:109FB000443B002010390020CC390020883A002092
:109FC0000C39002010B1024B800B185C704700BFA9
:109FD00024CF030012DF704713B501F0A9FC04463B
:109FE000D8B1134B1B685B0617D5124B1B68012BAE
:109FF00013DD11482F2112F071FC80B12F210E4882
:10A0000012F06CFC411C0D4B0D4AD3F80435009244
:10A0100001947522022002F06FF902B010BD0648CB
:10A020005C2112F05BFC08B15C21E8E70249EAE739
:10A03000042E0020002E002028CF03000010014035
:10A0400044CF030070B58AB006F09EF9044600289C
:10A0500034D000238DF8103006460FCE05AD0FC565
:10A0600033682B60627D052A0CD9207D00F00F0338
:10A07000072B07D004AB063A04F11D0100F00F00D6
:10A0800005F036F8114B1A68AAB104AB0393237D8F
:10A09000C3F303038DF80430637D062B89BF063BB1
:10A0A00000238DF8053004F11D0398BF8DF80530AD
:10A0B000029301A89047204606F050F906F07EF979
:10A0C00080F00100C0B20AB070BD00BF503B00205C
:10A0D00010B5114C2378022B8CB005D07846FDF7D3
:10A0E000A3F801200CB010BDFFF7A0FB18B90B4876
:10A0F000FEF7D0FBF5E706F013F903232C2200212D
:10A1000001A8237012F018FB1D2301A88DF804305C
:10A11000FEF796FBE5E700BF4C3B0020F42D002046
:10A1200008B50378122B08D10448FEF7C3FB044B93
:10A130001868BDE8084001F08DB808BDF42D002076
:10A14000483B0020F7B5314F3A780546002A52D1F6
:10A15000002852D0067A0F2E01D0062E4FD104F0DF
:10A1600097FFE868002843D0FDF770F80DF107006D
:10A17000FFF730FF0446C0BB9DF80730012B40D1EC
:10A18000FDF790F800F06CFA304600F087FFE878B1
:10A1900000F0F8F800F0CAFD05F0BAFB1C4806F024
:10A1A000AFF905F029F904F079FFFFF7FFFD04F09E
:10A1B0003BF900F017FC04F02BFF04F047FD2846A4
:10A1C00001F00AFBFDF7A8FE03F0E8FCFCF72AFF0C
:10A1D00008B1062817D10F4801F01EF80E4B186081
:10A1E0000E4B00221A6001233B70204603B0F0BDE5
:10A1F000FDF734F8BAE70824F7E70E24F5E707245B
:10A20000F3E70224F1E70446EFE700BF4C3B0020F0
:10A2100045A00200D1A00200483B0020503B002096
:10A2200037B5254D2A78012A04D0043A012A36D9B7
:10A23000082426E001F0DEFAFDF7B0FEFCF7F2FE9E
:10A24000044650B3062828D01C4B1B685B0418D565
:10A250001B4B1B68012B14DD1A482F2112F03EFB0B
:10A2600090B12F21174812F039FB411C164B174AA9
:10A27000D3F804350092019440F28912022002F0D2
:10A280003BF8204603B030BD0E485C2112F026FB9F
:10A2900008B15C21E6E70B49E8E700F02BFF05F089
:10A2A0006FFB04460028ECD102232B70084B186882
:10A2B00000F0D0FFE5E700BF4C3B0020042E00205B
:10A2C000002E002028CF0300001001406DCF0300B6
:10A2D000483B0020FDF764BEFEF7DCBA08B500F08D
:10A2E000F5FC002008BD7047044B1A680132B2F13A
:10A2F000704F08BF01221A6018687047543B002055
:10A3000010B5044610B97846FCF78EFF0023C4E967
:10A31000003310BD38B50D46044610B97846FCF739
:10A3200083FF15B97846FCF77FFF00236B60EFF3DE
:10A33000108372B6226822B92560656003B962B6DF
:10A3400038BD62685560F8E710B5044610B9784624
:10A35000FCF76AFFEFF3108272B6206820B9002381
:10A36000636002B962B610BD43682360002BF8D168
:10A37000F5E710B5044610B97846FCF755FF20689C
:10A3800010BD000007289ABF024B33F81000FA20D6
:10A39000704700BF92CF0300024B5868103840B29C
:10A3A000704700BF00ED00E000280346B8BF00F191
:10A3B0001F03084A5B1152F82330424202F01F0289
:10A3C00000F01F0058BF504223FA00F000F00100D7
:10A3D000704700BF00E100E046DF704730B501F193
:10A3E00010031032103013F8014D12F8015D8B424A
:10A3F00084EA050400F8014DF5D130BD2DE9F047A0
:10A40000144690B002F10F0510220F462D1101469F
:10A410000DEB0200984604F00F0412F07FF9002DB6
:10A4200051D0B4FA84F676090021102208A812F05F
:10A4300083F9C6F1020A04A8FFF7CEFF5FFA8AFA91
:10A4400001210CAA9DF930000F23914692F800C01B
:10A4500012F801EF4FEA4C0C013B4CEADE1C9BB2B8
:10A4600002F801CC002BF1D19DF83F305B00DBB24C
:10A470000028B8BF83F087038DF83F304B1C9A4506
:10A480004FF00201DDD2013D07EB0511EEB10CAA40
:10A490006846FFF7A3FF102200210CA812F04CF928
:10A4A0000024AC4223DB4A46694608A8FFF796FF22
:10A4B00004A8FFF791FF10224946404612F02EF9FA
:10A4C00010B0BDE8F0872E46AEE72246684612F08F
:10A4D00025F910AB2344802203F8402C0134102CC2
:10A4E00002D10CAA6946D3E70DF80460F6E707EB42
:10A4F0000412494608A8FFF771FF04A8FFF76CFF94
:10A500000134CEE738B5114B1A6804462AB11A68EF
:10A5100040685268821A002A0DDA1A6862611C606B
:10A520009A88013292B29A8012B97846FCF77CFE82
:10A530000123237038BD1A68154652691AB1516853
:10A54000091A0029F8DB62616C61E9E75C3B0020D5
:10A5500010B5124B1A68824204461A460BD1426962
:10A560001A609A8892B2511E89B299808AB9784647
:10A57000FCF75AFE0DE01B685BB15969A1420BD193
:10A580006169596193889BB2591E89B29180002BF1
:10A59000EDD00023237010BD0B46EDE75C3B00209F
:10A5A000014B186800F056BE583B0020044B1A6857
:10A5B00022B11B680349586800F054B900F0A8B9EB
:10A5C0005C3B0020A1A502002DE9F04100F0C0F89D
:10A5D000224E054637464FF00008336823B13368F2
:10A5E0005B685B1B642B06D400F0B2F8FFF7DEFF5C
:10A5F0000120BDE8F08134682378012B02D0784631
:10A60000FCF712FE63693B60BB88C4F814809BB200
:10A610005A1E92B2BA8013B97846FCF705FEA368B9
:10A6200013B97846FCF700FE0223284621692370FF
:10A63000A368984700F08CF82378022B0546CCD10C
:10A64000E2680AB92270C8E763681344591B642999
:10A65000FBD463602046FFF755FFBEE75C3B00205C
:10A6600008B508220021064812F066F8054800F0F7
:10A67000D3FD054B1860BDE8084000F05CB800BF92
:10A680005C3B0020C9A50200583B002010B50446E1
:10A6900000F0BAFE10B97846FCF7C6FD14B978464A
:10A6A000FCF7C2FDA36813B97846FCF7BDFD23781B
:10A6B000012B02D17846FCF7B7FD002363612046E9
:10A6C000FFF720FF00F044F8BDE81040FFF76EBF31
:10A6D00010B5044600F098FE10B97846FCF7A4FDCA
:10A6E00014B97846FCF7A0FD2046FFF731FF0023A0
:10A6F000636100F02DF8BDE81040FFF757BF38B593
:10A7000004460D4600F080FE10B97846FCF78CFD3B
:10A7100014B97846FCF788FD2046FFF719FF00239F
:10A72000636120466560FFF7EDFE00F011F8BDE8BB
:10A730003840FFF73BBF08B50DF014FC38B90DF0F9
:10A7400047FB20B17846BDE80840FCF76DBD08BD69
:10A7500010B5EFF3108072B60C4A0D4B1968D2F8A1
:10A760000435D2F80441012C04BFD2F8043501317C
:10A7700000B962B6074843EA01614FF48042002302
:10A78000E0FB0123D00B40EA434010BD0010014024
:10A79000643B002040420F0010B50A4B0A4C4FF4B6
:10A7A0000032C3F84823C3F80823226812B9784658
:10A7B000FCF73AFD2468FFF7CBFF2346BDE81040C5
:10A7C000184700BF00100140703B002010B5EFF3A8
:10A7D000108072B61E4B1F490022C3F804210A687C
:10A7E00001320A6000B962B61B4A116809B31168E8
:10A7F000013911601268E2B9184AD3F804051168EA
:10A80000884217D2EFF3108072B6D3F8041514689B
:10A810000131A1422ABFD3F8042512680332C3F8DC
:10A82000442500B962B64FF40032C3F84423C3F89C
:10A83000042310BD0A4C226812B97846FCF7F4FCD8
:10A840002468FFF785FF2346BDE81040184700BF86
:10A8500000100140643B0020683B00206C3B00205E
:10A86000703B002037B50023044601930D4611B913
:10A870007846FCF7D9FC204B1D60FFF769FF031BEE
:10A88000002BB8BF241A1D481D4AA8BF00244FF44E
:10A89000004500210023E5FB040111F06DFDEFF3FD
:10A8A0001083019372B6174A174CD2F80435032867
:10A8B000C3F1FF1101F57F4138BF032081421349E5
:10A8C00010D30344C2F844354FF40033C2F8443384
:10A8D000C2F80433002323600B60019B03B962B606
:10A8E00003B030BD03F17F43013303441A0E01323C
:10A8F000226023F07F43EFE7703B002020A1070098
:10A9000040420F0000100140683B00206C3B0020DB
:10A91000074B4FF40032C3F84823C3F80823054A15
:10A9200000231360044A1360044A1360704700BF99
:10A9300000100140683B00206C3B0020703B002071
:10A9400030DF704731DF704710B5D0E900238468ED
:10A95000C168A2EB731283EAF43303600C4413441E
:10A96000114444608160C360184610BD73B50D4644
:10A97000064610B97846FCF757FC0024A54201D8DA
:10A9800002B070BD0DF10700FFF7DAFF9DF8072058
:10A99000002AF7D02B1B9A4288BF8DF80730301958
:10A9A0009DF80710FFF7CEFF9DF807301C44E5E740
:10A9B00037B50421044600230DEB01000193FFF796
:10A9C000D5FF074B2360019BE360C4E901331425E5
:10A9D0002046FFF7B9FF013DFAD103B030BD00BFFB
:10A9E000ED5EEAF17047000007B52348019003F0DF
:10A9F0003DFE4FF48173ADF80630019803F036FE4A
:10AA00004FF48273ADF80630019803F02FFE40F248
:10AA10000113ADF80630019803F028FE40F203134D
:10AA2000ADF80630019803F021FE40F20513ADF8B1
:10AA30000630019803F01AFE4FF48373ADF8063028
:10AA4000019803F013FE40F20713ADF806300198A9
:10AA500003F00CFE4FF40073ADF80630019803F0DC
:10AA600005FE4FF40C73ADF80630019803B05DF8A5
:10AA700004EB03F0FBBD00BF0300000148DF70479B
:10AA800049DF70474ADF7047074B032218681A7482
:10AA9000064A5A6143F2B06140F6D863984288BFD3
:10AAA0000B469360704700BFA03B0020C03B0020D6
:10AAB000054B1B68A0F1780228335843034BB0FBC9
:10AAC000F3F0101A704700BFBC3B002040420F005B
:10AAD00038B50E4A0E4C012363711368002501330B
:10AAE0001360257400F076FA05F004F82068FFF78B
:10AAF000DFFF084A0146284600F0DEF920B178461B
:10AB0000BDE83840FCF790BB38BD00BFD43B002007
:10AB1000A03B002089AA020010B41F4B5A6928B13B
:10AB20001968DC6811440134DC60196099680124FB
:10AB30000131E24001291C7499601C685A610ED0F1
:10AB400002291AD05B69154A1C44944203D840F686
:10AB5000D76293421CD85DF8044BFFF7B9BFB2F53A
:10AB6000FA7F03D130B900225A61EBE740F6D86191
:10AB70008A42E7D840F6D862F6E7DA68022A02D1BC
:10AB8000064A121BF0E7012ADCD10028EBD0D9E7F6
:10AB90005DF8044B704700BFA03B002080969800F2
:10ABA00070B5424C424D012323712B781BB1414BB0
:10ABB0001E78002E5BD000232374042853D8DFE8CE
:10ABC00000F0034D4A4844003B4DA179AA68C4E90E
:10ABD000023323682260002934D0012121743749CF
:10ABE000002B08BF0B46991AB1F57A7F26D39A42FB
:10ABF00024D8616143F2B06043F69822C5E90202AD
:10AC000001236B71A371237C023B012B0DD8637967
:10AC100043B104F08BFF2068FFF74AFF00F00CFA05
:10AC200000236371234B00221A70237C2448022BDB
:10AC300004BF012323760023237170BD4FF47A7380
:10AC40006361D7E7FFF744FFD4E70120FFF764FF14
:10AC5000D9E70020FAE704F0FBFED4E700F07EF924
:10AC600004F02EFFCFE77846FCF7DEFACBE700F0E2
:10AC700055F92B782060022B0FD0032B06D0012B27
:10AC800010D10223237400232B70BCE70A4B0D491B
:10AC90000D4A5E71C3E90212A67103232374064BA9
:10ACA0006361F0E77846FCF7BFFAECE7A03B0020D1
:10ACB000D13B0020D03B0020C03B00208096980074
:10ACC000B03B0020A0860100FF1FA107043808B593
:10ACD000042825D8DFE800F016220A030F00114BE4
:10ACE0001B7E012B1CD1FFF7CBFEC8B17846BDE817
:10ACF0000840FCF799BA0B4B00221A76BDE80840D1
:10AD000004F04CBF08480123437143F6982240F6F3
:10AD1000D863C0E90232FFF7B5FEE6E70248FAE77A
:10AD200008BD00BFA03B0020C03B00200D4A4FF4EF
:10AD300080710023918043F2B06C43F69821137028
:10AD4000C2E902C1084A1060084A1370084A137029
:10AD5000084A1360084A13761360938001239371A5
:10AD6000704700BFC03B0020BC3B0020D03B002010
:10AD7000D13B0020D43B0020A03B002010B50D4C5F
:10AD8000227E012A09D0022A12D07AB90A48FFF796
:10AD900075FE10B17846FCF747FA0848FFF772FED7
:10ADA00010B17846FCF740FA02232376002000E039
:10ADB000112010BDA03B0020A1AB0200C03B002031
:10ADC000074B1B7C023B012B07D9064B1878013837
:10ADD00002288CBF0020012070470120704700BF6F
:10ADE000A03B0020D13B0020014B1868704700BFFA
:10ADF000A03B002010B5074A537943B11068FFF714
:10AE000057FE044600F08AF8231A48BF031B184671
:10AE100010BD00BFA03B0020014B1879704700BF58
:10AE2000A03B0020EFF3108372B6054A527922B19D
:10AE3000044A4FF48071C2F8001103B962B670473A
:10AE4000A03B002000E100E0044B1B7E022B04D15C
:10AE5000034B01221A70FFF7E5BF7047A03B0020AB
:10AE6000D13B0020054B1B7E022B06D1044A012852
:10AE700008BF03231370FFF7D5BF7047A03B002026
:10AE8000D13B0020064B19781A4631B128B9054943
:10AE9000097811B11870FFF7C5BF1070704700BF77
:10AEA000D03B0020D13B0020024B1B6803B962B6A7
:10AEB000704700BFE83B0020022810B522D8EFF30E
:10AEC0001084114B1C6072B6104B43F82020104BBD
:10AED000002243F820200F4B1B787BB1830003F145
:10AEE000804303F500431030C3F84021012202FAE9
:10AEF00000F0094AC2F80403C3F84015FFF7D4FF75
:10AF0000002010BD0720FCE7E83B0020D83B0020D4
:10AF1000F43B0020E43B00200080004008B5EFF344
:10AF200010820A4B1A6072B6094B1B7853B1094B59
:10AF30000022C3F84C210122DA64D3F84C05FFF754
:10AF4000B3FF08BD044B1868F9E700BFE83B0020D9
:10AF5000E43B002000800040EC3B00202DE9F84F4E
:10AF60000024174EDFF85C804FF0010AA146A500CF
:10AF700005F1804505F50045D5F84031C3B1D8F855
:10AF8000043304F110070AFA07F73B4210D0D6F851
:10AF900000B0BBF1000F02D17846FCF745F9C6F8C6
:10AFA0000090C8F80873FFF7B9FFD847C5F840917B
:10AFB0000134032C06F10406D9D1BDE8F88F00BF97
:10AFC000D83B002000800040014B1B6818447047AC
:10AFD000F03B002008B5134B0022C3F84025C3F80E
:10AFE0004021D3F84011C3F84425C3F84421D3F8D5
:10AFF0004411C3F84825C3F84821D3F848310A4B17
:10B000001B681BB9094B4FF480721A60084B012270
:10B010001A70FFF79DFB0146FFF780FF054B081AEA
:10B02000186008BD00800040E83B002000E100E01F
:10B03000E43B0020F03B00200B4A0C490023136046
:10B04000536093600A4A0B6010600A4A4B601370A9
:10B050008B60094B4FF0FF32C3F80823074B4FF4C6
:10B060008072C3F880217047F43B0020D83B002059
:10B07000EC3B0020E43B00200080004000E100E0C9
:10B08000044B1B780F2B1EBF034B4FF48022C3F8D9
:10B0900000217047583D002000E100E010B5104C41
:10B0A000104B2070104803601023C0E90133FEF7F5
:10B0B00003F90E48FFF724F923780F2B0AD0072B4A
:10B0C00009D8EC221A41D20705D5094A5B01DBB247
:10B0D00082F8123310BD7846BDE81040FCF7A4B8E2
:10B0E000583D0020143C0020003C00205C3D002026
:10B0F00000E100E00D4B1B780F2B0DD00C4991F8AF
:10B1000012335A09EC231341DB0706D5094B9A6821
:10B1100032B94FF480230B6070477846FCF784B84F
:10B120001A6842F480221A60704700BF583D002020
:10B1300000E100E084570020F8B5EFF3108772B605
:10B1400017480268511C016002BB164B1B780F2B7D
:10B1500021D0EFF3108C72B6134A144C956801237A
:10B16000E5B99360124B134ED3F880103140116053
:10B17000C3F88060D3F8841051604FF0FF32C3F8F9
:10B1800084202570BCF1000F00D162B6036813B9AA
:10B190007846FCF749F807B962B6F8BD2370F1E7C5
:10B1A000143D0020583D002084570020593D0020C8
:10B1B00000E100E0FC06FFBD38B5EFF3108572B684
:10B1C000104C236813B97846FCF72EF82368013B2E
:10B1D0002360A3B90C4B1B780F2B10D00B4B9A6834
:10B1E0006AB10B4A127852B9EFF3108072B609496E
:10B1F0001C680C605C684C609A6000B962B605B966
:10B2000062B638BD143D0020583D00208457002010
:10B21000593D002000E100E038B5054610B97846F8
:10B22000FCF702F8094C23680D2B02D97846FBF78E
:10B23000FBFFEFF3108372B62068421C2260044AC1
:10B2400042F8205003B962B638BD00BF183D002057
:10B250001C3D002010B50E4B1B688342044602D8EB
:10B260007846FBF7E1FFEFF3108072B6094A6109F7
:10B27000012304F01F0403FA04F452F8213023439D
:10B2800042F82130FFF7FCFE00B962B610BD00BFE6
:10B29000183D0020543D002070B50D46164604466A
:10B2A00010B97846FBF7C0FF15B97846FBF7BCFF2D
:10B2B000EFF3108372B60022C4E9025622742460B0
:10B2C00003B962B670BD000070B5044610B9784687
:10B2D000FBF7AAFFA36813B97846FBF7A5FFEFF3C6
:10B2E000108672B6237C03F0FF055BB90123064884
:10B2F00023742146FFF70EF8FFF7C2FE284606B971
:10B3000062B670BD1120FAE75C3D002010B504461E
:10B3100010B97846FBF788FF207C10BD2DE9FF4768
:10B32000324E337813B17846FBF77EFF0125DFF804
:10B33000C880DFF8C8A0DFF8C89035700024D8F8BE
:10B340000030A34212D82A48DFF8A480FEF7FCFFA1
:10B35000002750BB274C69462046FDF7EFFF90B30E
:10B3600000232846337004B0BDE8F087610904F07B
:10B370001F02012393405AF82120134213D0EFF308
:10B38000108072B65AF8212022EA03034AF82130CD
:10B3900000B962B659F824309847074618B92046D4
:10B3A000FFF758FF3D460134C9E70468237C13B911
:10B3B0007846FBF739FFD4E90230984727744046B6
:10B3C000FEF7C2FFC5E79DF8003043B1012BC2D1A3
:10B3D000019B002BBFD0DDE902019847BBE7019B31
:10B3E000002BB8D002989847B5E700BF643D002015
:10B3F0005C3D0020003C0020183D0020543D002012
:10B400001C3D0020FFF78ABF07B5FEF7C5FF8DF88A
:10B4100003009DF803301749F02B0DD10B780F2B4B
:10B4200025D01220FEF7C0FF80F00100C0B200F06E
:10B43000010003B05DF804FB9DF803305BB2002B04
:10B44000ADBF03F160430C4A03F00F0303F5614302
:10B45000B4BFD35C93F800335B090193019A0B7876
:10B46000934204D0019A9342DBD30020DFE701200E
:10B47000DDE700BF583D002014ED00E046DF7047D7
:10B4800030B58DB00D46144601461022684611F0C5
:10B4900045F9102229460DEB020011F03FF96846EC
:10B4A000FFF7ECFF102208A9204611F037F90DB084
:10B4B00030BDFEF7A3BF01F07BBD01F0A3BD0229A3
:10B4C00030B41DD811B3D2015A701970C1680C0480
:10B4D000C1F3074204F47F0422439A70C1F30721A9
:10B4E000120C1A71D97001890A0A42EA0122A3F8E2
:10B4F000052041880A0A42EA0122A3F8072025E034
:10B50000032929D0784630BCFBF78EBE1970847AA7
:10B510005A7864F306025A70C47AD2B264F3C7123E
:10B520005A70C4682504C4F3074205F47F052A4312
:10B530009A70C4F30724120C1A71DC700489D97153
:10B54000220A42EA0422A3F805201972026912BAFB
:10B5500030BCC3F809207047002419705C70C168C2
:10B560000D04C1F3074205F47F052A439A70C1F325
:10B570000721120C1A71D9700189DC710A0A42EA9A
:10B580000122A3F805201C72E0E77FB50E461546A0
:10B59000044600B112B97846FBF746FE0023CDE918
:10B5A0000033CDE9023332462B4621466846FEF78A
:10B5B00025FF04B070BD2DE9FF41DDF82C800F465A
:10B5C00015461C46064620B11AB113B1B8F1000F5A
:10B5D00002D17846FBF728FE6B463A4631462846AC
:10B5E000FEF70CFF9DF82820434621466846FEF7EB
:10B5F00005FF04B0BDE8F081F0B50E468FB01446EB
:10B600001D46074608B101B113B97846FBF70CFE99
:10B610001CB97846FBF708FE01E0102CF9D8254B41
:10B62000009305AA68460421FFF7AFFF01AB394636
:10B6300005A81022FEF7E2FE2246314605A811F0C9
:10B640006DF80EAB2344012203F8242C05ABA2189D
:10B65000194601A892B2FEF7D1FE9DF823302F467D
:10B6600003F07F0307F8013B2246314609A811F099
:10B6700055F804F110060EAB1E441134A4B2022397
:10B6800006F8243C22463B4605A901A8FEF7B6FE73
:10B690003946102205A811F041F8032306F8243C8E
:10B6A000224605F1110305A901A8FEF7A7FE0FB078
:10B6B000F0BD00BF736D6B3230B50C4689B00546E6
:10B6C00000B111B97846FBF7AFFD04210DEB010085
:10B6D0000E4B019304AAFFF758FF04AB2946184606
:10B6E0001022FEF78BFE0A4B18681B798DF80C3080
:10B6F00004AB029002A918460522FEF77FFE08223D
:10B7000006A9204611F00AF809B030BD736D6B33FD
:10B71000A2CF030030B50C4687B0054600B111B981
:10B720007846FBF781FD0E4B009302AA6846042180
:10B73000FFF72BFF02AB294618461022FEF75EFEEC
:10B74000084B0193042202AB18460DEB0201FEF7F1
:10B7500055FE9DF8173003F03F03237007B030BD4E
:10B76000736D6B346964360130B50268037CD17A3D
:10B7700087B000298DF80430836814BF08210421A4
:10B7800009330B44CDE90232436804930446C3688D
:10B790000593694601A801F067FFD0B1237C012B16
:10B7A0000ED02568FEF79AF9286120680C30FEF764
:10B7B00027F9054620B101F0D3FF284607B030BD78
:10B7C0002168009800F097FB009B09336361002516
:10B7D000F3E70425F1E7000008B500B14068044B29
:10B7E0001860FDF79DFFBDE8084002F0EBBB00BF0D
:10B7F000683D002008B5FDF7B7FFBDE8084002F03E
:10B800001FBC10B5044610B97846FBF70DFD236840
:10B8100013B97846FBF708FD23685B6913B97846CE
:10B82000FBF702FD237C012B02D97846FBF7FCFCD9
:10B83000E36813B97846FBF7F7FC2046BDE81040F3
:10B84000FFF792BFF0B50446C7B010B97846FBF7D2
:10B85000EBFC636913B97846FBF7E6FC236813B980
:10B860007846FBF7E1FC23685B6913B97846FBF780
:10B87000DBFC606900F09CFB264B1B689B070546C0
:10B8800034D5254B1B68042B30DD244B186805ABE1
:10B89000691E05F11C071E4611F8012F4FEA121C04
:10B8A00002F00F0210F80CC083F800C0825C5A70DE
:10B8B0008F4203F10203EFD10023194886F83A3092
:10B8C0002F2111F00BF8D8B12F21154811F006F8EF
:10B8D000411C144B144AD3F804350192134A0092C8
:10B8E00002964FF49572052000F006FDA1682068CD
:10B8F00000232A4600F0C0FA01F00CFF47B0F0BD6B
:10B9000007485C2110F0EAFF08B15C21DDE704493B
:10B91000DFE700BF042E0020002E0020082E0020AC
:10B92000A8CF030000100140C3CF030066CB030083
:10B930002DE9F0470E46D4B090460546002800F0A9
:10B940003E8100F037FB9F4F0DF12C09421B294629
:10B95000484610F0E3FE3B68980730D59A4B1B68C9
:10B96000042B2CDD994B802E3046D3F800C028BF25
:10B97000802013AB294600EB050E1C46714503F1F0
:10B98000020340F08780002304F810302F219048F4
:10B9900010F0A4FF002800F08C802F218C4810F0BC
:10B9A0009DFF411C8B4B8C4AD3F8043501928B4A86
:10B9B0000092029440F24F12052000F09DFC0023FB
:10B9C00005AC00932A464B463146204600F00AFA61
:10B9D0000546002840F0BD802378002B00F0B98098
:10B9E000E268B2F1807F80F0B480E27A12B1022B7B
:10B9F00000F0AF8094F90A30002BC0F2AA803B68B7
:10BA000099072BD5704B1B68042B27DD6F4B802EBD
:10BA10001968304613AB28BF8020854203F102032A
:10BA200050D113AA00236A4802F815302F2110F0D4
:10BA300055FF002855D02F21654810F04FFF411CBD
:10BA4000644B13AAD3F804350292654A0192634A03
:10BA5000009205204FF4AC7200F04EFC636913B9FC
:10BA60007846FBF7E1FB3146204600F099FAC6B272
:10BA70003146434622460DF13500FCF715FC13A96B
:10BA8000054620890BF0E8FEA0B3E1682089FBF7AA
:10BA900039FC5EE011F8012B4FEA121A02F00F0296
:10BAA0001CF80AA003F802AC1CF8022003F8012CD1
:10BAB00064E747485C2110F011FF08B15C216DE795
:10BAC00043496FE719F805204FEA121C02F00F02F4
:10BAD00011F80CC003F802CC8A5C03F8012C013584
