:020000022000DC
:1060000000FD0020FDDE030025DF030027DF030085
:1060100029DF03002BDF03002DDF03000000000059
:106020000000000000000000000000002FDF03005F
:1060300031DF03000000000033DF030035DF030021
:1060400037DF030037DF030037DF030037DF0300EC
:1060500037DF030037DF0300897A020037DF0300F0
:1060600037DF030037DF0300E915030037DF0300E4
:1060700037DF030037DF030037DF030037DF0300BC
:1060800037DF03004DB4030079CE020037DF030091
:106090001DB5030037DF0300A187020037DF0300CF
:1060A00037DF030037DF030037DF030037DF03008C
:1060B00037DF030037DF03000000000000000000AE
:1060C00037DF030037DF030037DF030037DF03006C
:1060D00037DF030037DF030037DF03000000000075
:1060E00000000000000000000000000000000000B0
:1060F00000000000000000000000000000000000A0
:10610000000000000000000000000000000000008F
:10611000000000000000000000000000000000007F
:10612000000000000000000000000000000000006F
:10613000000000000000000000000000000000005F
:10614000000000000000000000000000000000004F
:10615000000000000000000000000000000000003F
:10616000000000000000000000000000000000002F
:10617000000000000000000000000000000000001F
:10618000000000000000000000000000000000000F
:1061900000000000000000000000000000000000FF
:1061A00000000000000000000000000000000000EF
:1061B00000000000000000000000000000000000DF
:1061C00000000000000000000000000000000000CF
:1061D00000000000000000000000000000000000BF
:1061E00000000000000000000000000000000000AF
:1061F000000000000000000000000000000000009F
:1062000010B5054C237833B9044B13B10448AFF3F0
:1062100000800123237010BDE82E00200000000044
:10622000D018040008B5034B1BB103490348AFF372
:10623000008008BD00000000EC2E0020D0180400F3
:10624000154B002B08BF134B9D46A3F5803A002148
:106250008B460F461348144A121A19F079FA0F4B5D
:10626000002B00D098470E4B002B00D09847002001
:10627000002104000D000D48002802D00C48AFF3A7
:10628000008019F015FA2000290000F083FF19F0B2
:10629000FBF900BF0000080000FD00200000000026
:1062A00000000000E82E0020745D002000000000C7
:1062B0000000000041DF704730B52D4B14461B68CD
:1062C000526887B00D4603F4804352B3F3B1294BB3
:1062D0001B68032B1ADD28482F2119F00BFBB8B1DE
:1062E0002F21254819F006FB411C244B6268D3F886
:1062F0000435049262880392228802926A8801928D
:106300001F4A00920420EA2207F0C0FD07B030BD0A
:1063100019485C2119F0EEFA08B15C21E1E7164951
:10632000E3E7002BF2D0134B1B68032BEEDD124882
:106330002F2119F0DFFA90B12F210F4819F0DAFA66
:10634000411C0E4B2288D3F8043502926A880192D0
:106350000C4A00920420F02207F098FDD6E7064888
:106360005C2119F0C7FA08B15C21E6E70249E8E7C9
:106370003C2E0020382E00208CF903000010014034
:10638000BAF9030026FA030030B52D4B14461B68FA
:10639000526887B00D4603F4804352B3F3B1294BE2
:1063A0001B68032B1ADD28482F2119F0A3FAB8B176
:1063B0002F21254819F09EFA411C244B6268D3F81E
:1063C0000435049262880392228802926A880192BC
:1063D0001F4A00920420D92207F058FD07B030BDB3
:1063E00019485C2119F086FA08B15C21E1E71649E9
:1063F000E3E7002BF2D0134B1B68032BEEDD1248B2
:106400002F2119F077FA90B12F210F4819F072FA65
:10641000411C0E4B2288D3F8043502926A880192FF
:106420000C4A00920420DE2207F030FDD6E7064831
:106430005C2119F05FFA08B15C21E6E70249E8E760
:106440003C2E0020382E00208CF903000010014063
:106450005EFA0300BCFA0300F0B5834D2B680928EF
:10646000044698BF0134590489B018D57F4B1B6886
:10647000032B14DD7E482F2119F03CFAE0B12F21C7
:106480007B4819F037FA411C7A4B7B4AD3F8043524
:10649000009201944FF4A272042007F0F7FC013C33
:1064A0000F2C2FD8DFE804F011205D5F2E2E2E2E4A
:1064B0002E616D787A7C88936D485C2119F01AFA08
:1064C00008B15C21DCE76A49DEE76C4B18884DF6C1
:1064D000EF0142F21072884294BF121852181A80CB
:1064E0009A7801329A700DE0644A138842F2107172
:1064F0008B4238BF0B46A3F51C53103B1380937897
:106500000133937005F04AFE5D4A136803F53713B3
:1065100003F5D863834207D25A498B7801338B70D5
:1065200056498B7801338B700023CDE906332B68F5
:10653000106003F48043102C00F2A582DFE814F011
:106540004A004A00AE00AE00E50010013B016601C2
:106550009101BC01BC0108020802080208023A02CB
:106560007502484BB2E7474ABFE7474A10884DF6E5
:10657000EF0142F21073884294BF1B185B1813801E
:10658000C0E7414A138842F210718B4238BF0B4674
:10659000A3F51C53103BF2E73C4AE7E73B4AF1E71F
:1065A0003A4A50884DF6EF0142F21073884294BF88
:1065B0001B185B185380A5E7344A538842F21071C8
:1065C0008B4238BF0B46A3F51C53103BF2E72D4B13
:1065D000002284E70BB3254B1B68032B1DDD2448E9
:1065E0002F2119F087F9002834D02F21204819F0E5
:1065F00081F9411C1F4B079AD3F804350492069A7F
:1066000003921E4A9078029012880192204A0092CA
:1066100004204FF4CB7207F039FC1E4B1E4C1E7841
:1066200016493420002306AA06FB00400DF058FC52
:106630000828044600F29F82082800F29E82DFE8C4
:1066400010F03B029C029C029C0246029C029C02AF
:106650007502460206485C2119F04CF908B15C212C
:10666000C4E70349C6E700BF3C2E0020382E0020B7
:106670008CF9030000100140EDFA0300762F002092
:106680007C2F0020082F0020062F0020F02D002056
:1066900000FB0300042F00200C2F002003B39E4BAF
:1066A0001B68032B1CDD9D482F2119F023F918B31B
:1066B0002F219A4819F01EF9411C994B079AD3F8DB
:1066C00004350492069A0392964A907802901288B2
:1066D0000192954A009204204FF4D07207F0D6FB45
:1066E000924B934C1E788F493420002306AA06FB58
:1066F00000400DF077FC9BE788485C2119F0FAF820
:1067000008B15C21D5E78549D7E7BBB1824B1B684F
:10671000032B13DD81482F2119F0ECF8B8B12F219C
:106720007E4819F0E7F8411C7D4B824AD3F80435C6
:106730000092042040F2AD1207F0A8FB7B4B1878C2
:106740007B4B342200FB02300DF02EFD70E77348C6
:106750005C2119F0CFF808B15C21E1E76F49E3E76C
:10676000BBB16D4B1B68032B13DD6C482F2119F057
:10677000C1F8B8B12F21694819F0BCF8411C684B29
:106780006D4AD3F80435009204204FF4D97207F013
:106790007DFB664B1878664B342200FB02300DF00F
:1067A0002BFD45E75D485C2119F0A4F808B15C2198
:1067B000E1E75A49E3E7BBB1574B1B68032B13DDF5
:1067C00056482F2119F096F8B8B12F21534819F0E7
:1067D00091F8411C524B594AD3F8043500920420D9
:1067E00040F2B71207F052FB504B1878504B34224E
:1067F00000FB02300DF028FD1AE748485C2119F033
:1068000079F808B15C21E1E74449E3E7BBB1424BC9
:106810001B68032B13DD41482F2119F06BF8B8B129
:106820002F213E4819F066F8411C3D4B444AD3F8ED
:106830000435009204204FF4DE7207F027FB3B4B37
:1068400018783B4B342200FB02300DF05DFCEFE684
:1068500032485C2119F04EF808B15C21E1E72F497C
:10686000E3E7BBB12C4B1B68032B13DD2B482F2117
:1068700019F040F8B8B12F21284819F03BF8411C15
:10688000274B304AD3F804350092042040F2C1125D
:1068900007F0FCFA254B1878254B342200FB023018
:1068A0000DF05AFCC4E61D485C2119F023F808B12C
:1068B0005C21E1E71949E3E7D3B1174B1B68032BD0
:1068C00016DD16482F2119F015F8E0B12F211348D5
:1068D00019F010F8411C1C4A114B1288D3F80435EA
:1068E00001921A4A0092042040F2C71207F0CEFA31
:1068F0000E4B15491C780E4B3420002204FB00304F
:106900000DF0AEFB94E605485C2118F0F3FF08B1EA
:106910005C21DCE70149DEE7382E00208CF903001A
:1069200000100140082F002058FB0300042F002016
:106930000C2F0020ADFB0300C8FB0300E6FB0300A7
:1069400002FC03001FFC0300062F002043FC030091
:10695000E3B18D4B1B68032B18DD8C482F2118F0F9
:10696000C9FFF0B12F21894818F0C4FF411C884AA3
:10697000884B5088D3F80435029012880192864AD9
:10698000009204204FF4E97207F080FA834B8049AB
:106990001C78834B3420002204FB00300DF086FB72
:1069A00046E67A485C2118F0A5FF08B15C21DAE7D9
:1069B0007649DCE703B3744B1B68032B1CDD73487B
:1069C0002F2118F097FF38B32F21704818F092FF4D
:1069D000411C704B079AD3F804350492069A03922F
:1069E000704A90780290128801926F4A00920420B7
:1069F0004FF4EC7207F04AFA684F694C3B78342642
:106A00007343E05A12F072FC3878664906AA00FB1C
:106A100006400DF0A3FA0BE65C485C2118F06AFF13
:106A200008B15C21D1E75949D3E75C4C22780132A7
:106A3000D2B2022A28BF00222270002B3CD0524B37
:106A40001B68032B38DD51482F2118F053FF88B104
:106A50002F214E4818F04EFF411C4E4B2278D3F8A0
:106A600004350192514A00924FF4F372042007F06A
:106A70000DFA21E045485C2118F03CFF08B15C218B
:106A8000E7E74249E9E7BBB13F4B1B68032B13DD46
:106A90003E482F2118F02EFF80B12F213B4818F0DF
:106AA00029FF411C3B4B424AD3F804350092042095
:106AB00040F2E91207F0EAF909B0F0BD33485C2171
:106AC00018F018FF08B15C21E8E73049EAE72B68C5
:106AD0005A041BD52C4B1B68032B17DD2B482F2189
:106AE00018F008FFC8B12F21284818F003FF411CF7
:106AF000284B2A4AD3F804350294127801922D4A81
:106B00000092042040F2F51207F0C0F9062232216B
:106B10004FF4F01000F022FFCEE71C485C2118F083
:106B2000E9FE08B15C21DFE71849E1E72B685B0467
:106B3000C2D5154B1B68032BBEDD14482F2118F05E
:106B4000D9FE78B12F21114818F0D4FE411C134A08
:106B5000104B1278D3F804350192174A009240F294
:106B6000012283E709485C2118F0C4FE08B15C21CA
:106B7000E9E70649EBE71128A9D0044A40F20521CC
:106B8000204617F0E6F997E7382E00208CF903002D
:106B9000F02D00200010014071FC0300042F0020A4
:106BA0000C2F0020082F00209EFC0300EDFC0300AA
:106BB000F4FF03000FFD030032FD0300012A07B5B7
:106BC0002AD0022A50D0002A70D13C4B1B685904AD
:106BD00016D53B4B1B68032B12DD3A482F2118F0CA
:106BE00089FE80B12F21374818F084FE411C364BB6
:106BF000364AD3F804350092C022042007F046F943
:106C000003B05DF804FB2F485C2118F073FE08B157
:106C10005C21E8E72B49EAE7062232214FF4F01025
:106C200000F09CFE254B1B685A04E9D5244B1B68D9
:106C3000032BE5DD23482F2118F05CFE58B12F21EE
:106C4000204818F057FE411C1F4B214AD3F8043549
:106C50000092C522D1E71B485C2118F04BFE08B119
:106C60005C21EDE71749EFE7144B1B685B04C7D5C0
:106C7000134B1B68032BC3DD12482F2118F03AFE7B
:106C800058B12F210F4818F035FE411C0E4B114A08
:106C9000D3F804350092C922AFE70A485C2118F006
:106CA00029FE08B15C21EDE70649EFE7054ACD2151
:106CB000032003B05DF804EB17F04BB93C2E002025
:106CC000382E00208CF90300001001405CFD030009
:106CD0007CFD03009CFD030037B5244B1B685B045F
:106CE00017D5234B1B68032B13DD22482F2118F0E7
:106CF00001FE80B32F211F4818F0FCFD411C1E4BE4
:106D00001E4AD3F80435009204204FF4087207F0AD
:106D1000BDF81B4C1B4D2563002301212046A362B7
:106D2000A3850DF0A9F820B1124A40F2292117F0ED
:106D300010F90023144865660221E365A4F8603069
:106D40000DF09AF880B10B4A40F2292103B0BDE85A
:106D5000304017F0FEB807485C2118F0CBFD08B1B1
:106D60005C21C8E70349CAE703B030BD3C2E0020D0
:106D7000382E00208CF9030000100140BEFD0300F6
:106D80000C2F0020D8FF0300402F002007B5037808
:106D9000232B2FD1194B1B685B0417D5184B1B688D
:106DA000032B13DD17482F2118F0A4FDC8B12F21A4
:106DB000144818F09FFD411C134B144AD3F80435B6
:106DC0000092042040F2171207F060F80322C82155
:106DD0004FF4F01000F0C2FD03B05DF804EB00F0DA
:106DE000E3BB08485C2118F085FD08B15C21DFE7B2
:106DF0000449E1E703B05DF804FB00BF3C2E00202E
:106E0000382E00208CF9030000100140DEFD030045
:106E100010B5044600214FF4F01004EB840400F098
:106E200093FD62003221BDE810404FF4C01000F025
:106E300095BD00F0C5BD00001FB503A813F04EFAC4
:106E4000144B1B685B0419D5134B1B68032B15DD12
:106E500012482F2118F04EFD98B12F210F4818F03D
:106E600049FD411C0E4BBDF80C20D3F804350192AE
:106E70000C4A009204209B2207F008F805B05DF848
:106E800004FB06485C2118F035FD08B15C21E5E7FC
:106E90000249E7E73C2E0020382E00208CF9030041
:106EA00000100140F7FD030007B51D4B1B685B0494
:106EB00016D51C4B1B68032B12DD1B482F2118F025
:106EC00019FD18B32F21184818F014FD411C174B59
:106ED000174AD3F8043500920420A02206F0D6FF0A
:106EE00000F0CEFF00F0F4FFFFF7A6FF00F068FD12
:106EF00000214FF4F01000F027FD0422C8214FF4C8
:106F0000F01003B05DF804EB00F028BD06485C21EA
:106F100018F0F0FC08B15C21D5E70349D7E700BFC2
:106F20003C2E0020382E00208CF903000010014078
:106F30000EFE030007B5134B1B685B0416D5124BFE
:106F40001B68012B12DD11482F2118F0D3FC80B1F2
:106F50002F210E4818F0CEFC411C0D4B0D4AD3F8E2
:106F6000043500920220B22206F090FF03B05DF8D3
:106F700004FB06485C2118F0BDFC08B15C21E8E781
:106F80000249EAE73C2E0020382E00208CF903004D
:106F90000010014028FE030070B51C4B1B685B0409
:106FA00086B00D46144625D5194B1B68032B21DDF1
:106FB00018482F2118F09EFCF0B12F21154818F029
:106FC00099FC013069882678134D144A144B002E21
:106FD00018BF2A46A588D3F8043504956488019122
:106FE000CDE902240F4A0092014640F20F1204201C
:106FF00006F04CFF06B070BD06485C2118F07AFC24
:1070000008B15C21DAE70348DCE700BF3C2E002032
:10701000382E00208CF903004FFE030047FE0300CA
:10702000001001405FFE030030B5174B1B685B0486
:1070300085B00C4615461BD5144B1B68032B17DD7A
:1070400013482F2118F056FCA0B12F21104818F03A
:1070500051FC411C0F4B2A88D3F8043502926288F8
:1070600001920D4A0092042040F2051206F00EFF34
:1070700005B030BD06485C2118F03CFC08B15C212D
:10708000E4E70349E6E700BF3C2E0020382E00204D
:107090008CF9030000100140A7FE030030B5164B29
:1070A0001B685B0485B00C4615461AD5134B1B684C
:1070B000032B16DD12482F2118F01CFC98B12F214C
:1070C0000F4818F017FC411C0E4B2A88D3F80435E2
:1070D0000292628801920C4A00920420FB2206F080
:1070E000D5FE05B030BD06485C2118F003FC08B1A0
:1070F0005C21E5E70249E7E73C2E0020382E00201E
:107100008CF9030000100140D8FE0300A0F1310308
:10711000082B07B505D8184603B05DF804EBFFF758
:107120009BB9A0F16103072B01D85738F4E7144B42
:107130001B685B0417D5134B1B68032B13DD124828
:107140002F2118F0D7FB88B12F210F4818F0D2FB60
:10715000411C0E4B0E4AD3F804350092042040F235
:107160001A2206F093FE03B05DF804FB06485C218A
:1071700018F0C0FB08B15C21E7E70349E9E700BF6D
:107180003C2E0020382E00208CF903000010014016
:10719000F4FF030000B5864C864A4FF4C0408DB022
:1071A000042106F057FE2368580419D5824B1B684A
:1071B000032B15DD81482F2118F09CFB002800F0DF
:1071C000B9802F217D4818F095FB411C7C4B7D4AEE
:1071D000D3F804350092042040F24A2206F056FE0D
:1071E00014F0E4FA20B1754A4FF4137116F0B1FEB1
:1071F00000F0F6FB744800F01FFC20B16F4A4FF41A
:10720000147116F0A6FE00F0FFFD00F039FE00F04C
:107210005FFE0021202203A818F09AFA01238DF8BE
:107220000C3007238DF80F3006238DF81430674B90
:1072300007936749674B0B9303A800F077F920B3D6
:107240000B2840F0A680236859041ED55A4E326898
:10725000032A1ADD59482F2118F04CFB002872D060
:107260002F21564818F046FB411C554D5A4AD5F877
:107270000435009204204FF40F7206F007FE2368D5
:107280005A0402D53368032B66DC6421534800F0AE
:10729000FBFA4F4B197800297ED1102203A818F071
:1072A00057FA4F4B04934F4B05934F4B07934F4B5C
:1072B000089303A84E4B099300F08EFA20B13F4A81
:1072C00040F26D2116F045FE01F0E4FC00F00EFCEA
:1072D00000F0A2F820B1394A40F2762116F039FECA
:1072E00023685B0418D5344B1B68032B14DD33482B
:1072F0002F2118F0FFFA002851D02F212F4818F025
:10730000F9FA411C2E4B3B4AD3F804350092042075
:107310004FF41E7206F0BAFD00214FF4F01000F099
:1073200013FB0222C8214FF4F01000F017FBFEF708
:10733000C1FFFCE721485C2118F0DCFA08B15C21B0
:1073400040E71E4942E71D485C2118F0D3FA08B116
:107350005C2186E7194988E718482F2118F0CAFAF6
:1073600070B12F21154818F0C5FA411C224AD5F8F2
:1073700004350092042040F23E2206F087FD84E7A7
:107380000E485C2118F0B6FA08B15C21EAE70B4917
:10739000ECE716F0D1FD78E7FFF74EFD94E70748DC
:1073A0005C2118F0A7FA08B15C21A7E70349A9E717
:1073B0003C2E002029DE0200382E00208CF903002C
:1073C0000010014006FF0300596402008D6D0200A9
:1073D000742F0020D96C020038FF03000D710200E9
:1073E000A96E0200116E0200336E0200AFFF0300AF
:1073F000AD030400F4FF030086FF030010B504464C
:1074000007F0AAFA38B123780E2B04D1BDE810405A
:10741000002004F0BDBC10BD08B513F0C5FF20B1BD
:107420000CF018F808B10BF097FFBDE8084004F025
:10743000DDBB000070B5837DC27D86B043EA0223C8
:10744000ADF814300546032305A80E46ADF81630F6
:1074500012F010FF0446002845D1288A04AA2946C4
:1074600013F0E8F8044600283DD1BDF81010E88A72
:107470000DF11203324613F0EDFA0446002832D122
:10748000297ED5F8120001F0010104F011F810B1C5
:10749000784601F0C5FBBDF812000FF0D9FB044699
:1074A00008BB174B1B681B031DD5164B1B68062B0F
:1074B00019DD15482F2118F01DFAB8B12F211248F7
:1074C00018F018FA411C2A7E104B02F00102D3F882
:1074D00004350292D5F8122001920D4A009207203D
:1074E000C62206F0D3FC204606B070BD06485C21DB
:1074F00018F000FA08B15C21E1E70349E3E700BFB7
:107500003C2E0020382E0020BD0304000010014056
:10751000DC03040008B504F08DFF10F0ABFF12F09F
:10752000F9FDBDE8084003F0ABBD000073B50E46A1
:107530000546A0B304F0ECFA044668BB12F088FEDE
:1075400010F0FCFF28690FF053FB044620BB2B7F93
:107550000193AB69009301466B69124859220FF001
:1075600015FE0446C0B92B6A03B1984708F08CFD9C
:1075700012F070FD054610F0F9FC0B2D01D00B2820
:1075800002D1FFF7C7FF0B2413F00EFF054608B129
:107590000BF0A0FE06B13570204602B070BD0E247F
:1075A000FAE700BF802F002008B507F0D5F920B119
:1075B000BDE80840002004F0EBBBBDE808400148EE
:1075C00004F086BBF42D002069DF704730B5394DDB
:1075D0002A7887B01AB1012803D0032862D007B0F7
:1075E00030BD002301A9019300F088FF08B116F017
:1075F000A3FC0C2200210DEB020018F0A9F8BDF845
:107600000C302D4823F47F7323F0030343F4887375
:1076100043F00103ADF80C3000230493ADF81430AF
:1076200018F060F9019AADF8160003A94120FFF7A0
:10763000CBFF08B116F080FC01A800F0C7FF08B12D
:1076400016F07AFC1D4C236803B19847012302A968
:107650000DF10200029313F0CFF908B116F06CFCA3
:10766000BDF8020012F056FF0DF1010113F076F89B
:1076700008B116F061FC0BF02DFE9DF80110002002
:107680000CF08EFA10B1784601F0CAFA04F0AEFAA6
:1076900008B116F051FC00232B706368002B9ED0BC
:1076A00098479CE700F0FAFF002898D016F044FCB9
:1076B00095E700BFDA2F0020FC030400DC2F002038
:1076C00008B503781C2B0CD1064B1B784BB101F08D
:1076D00023F808B116F030FCBDE80840024804F079
:1076E000F9BA08BDDA2F0020002E002010B5074996
:1076F000074814F007FD024638B9064906484969AB
:10770000BDE81040032314F016BD10BDF82F002073
:1077100064330020DC2F00203032002010B50378C5
:10772000023B082B4AD8DFE803F01E05124949380E
:1077300049493F00224B9B68002B3FD0007A00282C
:107740003CD0204A01211170BDE8104018471C4B65
:10775000DB68002B32D01B4A117879B300211170FD
:10776000BDE810401847184B1A784AB9144B1B69EA
:1077700013B114490A709847BDE81040FFF7B6BF2F
:10778000124B134801221A7004F0A2FA04F088FA8E
:10779000A0B1BDE8104016F0CFBB094B0D48996968
:1077A000102214F00DFDF3E7D0E90210FFF742FEBE
:1077B00008B116F0C1FB044B01221A7010BD00BFC6
:1077C000DC2F0020D82F0020D92F0020DA2F002016
:1077D000002E00203032002070B51C4A1C4E51682B
:1077E000044686B0106803AB03C31189927A1980EE
:1077F0009A700FCC35460FC594E8070085E807005E
:10780000B36903B3134B0093134A1449144803ABF1
:1078100014F04AFCA8B9134816F05CF80146104869
:1078200014F05CFC68B9104816F0C4F948B90E4869
:1078300016F0F2F901460A4814F050FC08B9FFF7B7
:1078400055FF06B070BD0720FBE700BF1804040019
:10785000DC2F00201D770200F82F00206433002069
:107860003032002018300020E031002010B5054CE7
:10787000226832B116F0A2FC002802DB2368984788
:10788000F8E710BDA4330020154B164A10B50C467E
:1078900018600121144813F0E5FF18B1134A4A217A
:1078A00016F057FB610C0023E00341F26F728B422C
:1078B00008BF824210D24FF47A72002317F068FD9D
:1078C00001460B48002213F0DFFF38B1BDE810403D
:1078D000064A4B2116F03DBB0521F2E710BD00BF63
:1078E000A43300206D78020048040400230404003F
:1078F000A833002070B5104C206808B916F01CFBA6
:107900004FF0A0450D4ED5F8043532685340C5F808
:1079100004352368013B236063B9094814F000F87B
:107920003268D5F8043523EA0203064A1268134385
:10793000C5F8043570BD00BFC8330020CC3300202B
:10794000D0330020F83300204FF0A04311B1C3F82A
:107950000C057047C3F8080570470000F8B52AB356
:10796000132923D9124B134C5200013A4FF0A04572
:107970001A602060D5F8043518400F4B4FF4FA76A2
:10798000186000274FF40040E0FB01674FF47A7263
:1079900000233046394617F0FBFC00220146074819
:1079A00013F072FF10B92368C5F80C35F8BD00BF9D
:1079B000C8330020CC330020F8330020D03300201F
:1079C00008B5054813F0ACFF044B1A684FF0A0430C
:1079D000C3F8082508BD00BFD0330020CC330020F9
:1079E00008B54FF0A04303224FF40031C3F84427F9
:1079F000C3F808154FF48021C3F84827C3F80815C9
:107A00004FF40021C3F84C27C3F80815C3F85027DA
:107A10004FF48012C3F808250548064A012113F0E7
:107A200021FF18B1BDE8084016F086BA08BD00BFB6
:107A30004C040400F5780200D8B10F4B0F4A1860CF
:107A40004FF0A0430020C3F83427C3F83827C3F809
:107A50003C27C3F840270A4B4FF00042C3F80423E9
:107A6000C3F87C01074BC02283F8062340221A602A
:107A700070470E20704700BFF03300200C00030059
:107A80000060004000E100E0F8B5134B134D144EC8
:107A9000144F0024C3F87C414FF0A04315F8011B9C
:107AA000D3F8102501238B40934310D03368D7F8C7
:107AB0000425991A48BFD11A43F23333994206D9A3
:107AC000D7F804353360084B20461B6898470134CB
:107AD000042CE1D1F8BD00BF006000405004040058
:107AE000F433002000100140F03300202DE9F04174
:107AF0000446CEB038B1424D2B685A0403D5414EEE
:107B00003368032B02DC4EB0BDE8F0813E4B1868B1
:107B10000DAB611E04F10F0C1F4611F8012F4FEA47
:107B2000121E02F00F0210F80EE083F800E0825CF3
:107B30005A70614503F10203EFD10023334887F8FF
:107B400020302F2117F0D6FE002846D02F212F48B5
:107B500017F0D0FE411CDFF8C4802D4AD8F8043558
:107B600001922C4A009202974222042006F08EF9DC
:107B70002B685B04C7D53368032BC4DD23482F2152
:107B800017F0B8FE002831D02F21204817F0B2FEA0
:107B9000411CE27B2068D8F804350B92A27B0A9244
:107BA000627B0992227B0892E27A0792A27A06927D
:107BB000627A0592227A0492E28852BA92B20392D1
:107BC000A28852BA00BA92B2CDE90102124A0092DA
:107BD0000420432206F05AF995E70C485C2117F07F
:107BE00089FE08B15C21B2E70849B4E707485C2187
:107BF00017F080FE08B15C21C7E70449C9E700BF60
:107C00003C2E0020382E0020402E0020540404007A
:107C10007C0404008E04040096040400001001405B
:107C200072DF704773DF704774DF70472DE9F041F2
:107C30002F4CA2B006460F46904600211022204647
:107C400017F086FD2B4A2C491378C3EB43152944C2
:107C500021602A49013303F001030D441F211370F1
:107C6000A180A1813C22002104A8A56017F070FD2D
:107C7000062301AA8DF813300E9201233C22002125
:107C800013A88DF80230ADF820308DF83C30ADF8F7
:107C90000060CDF824D0ADF80460ADF808800397FB
:107CA00017F056FD2246022352F8041B8DF84C3083
:107CB00004A800F0F5F908B116F03EF9104AA168E1
:107CC00013A800F0EDF908B116F036F90D4A08498D
:107CD0000D48FFF7A5FF082804D105490A480022EE
:107CE000FFF79EFF08B116F027F922B0BDE8F0813A
:107CF0003C340020FC330020FD3300204C340020B5
:107D000048340020102E00200C2E0020B0F5202F2B
:107D10000AD20A23B0FBF3F310B1012B38BF0123C1
:107D2000034A9381916070474FF6FF73F5E700BFF8
:107D3000102E002008B5064B01211878FFF772FFBE
:107D400008B116F0F9F8BDE80840002004F0C4BD01
:107D50000C2E002008B5054B1878FFF765FF18B109
:107D6000BDE8084016F0E8B808BD00BF0C2E0020A2
:107D700076DF70477ADF70477CDF704769DF7047D6
:107D800016F0DAB803F0A8BF07B503784BB94088FE
:107D90003B21FFF7EDFF08B303B05DF804EB16F0ED
:107DA000CBB8012B1AD1134B1B685B0416D5124BB1
:107DB0001B68032B12DD11482F2117F09BFD80B1AA
:107DC0002F210E4817F096FD411C0D4B0D4AD3F89C
:107DD000043500920420682206F058F803B05DF8DC
:107DE00004FB06485C2117F085FD08B15C21E8E73B
:107DF0000249EAE73C2E0020382E0020D604040079
:107E000000100140060504001FB500F047FC08B152
:107E100016F092F8002369460120009300F06EFBF3
:107E200008B116F089F80C22002101A817F090FC87
:107E3000BDF80430114823F47F7323F0030343F4A7
:107E4000887343F00103ADF8043000230293ADF8CA
:107E50000C3017F047FD009AADF80E0001A9412043
:107E6000FFF78CFF08B116F067F8684600F0AEFB2C
:107E700008B116F061F805B05DF804FBFC030400DE
:107E80001FB5112310488DF8043017F02BFD0E4953
:107E900082B201A8FFF770FF08B116F04DF8082272
:107EA0000DEB0200002117F053FC084A4FF0C87395
:107EB00002A8CDE90223FFF75DFF08B116F03CF8F8
:107EC00005B05DF804FB00BFFC0304007800C800A7
:107ED00010B58AB001AC08220021204617F038FC0A
:107EE000124A4FF0C873CDE9012300211C2203A8D8
:107EF00017F02EFC4FF4803340F6CD41CDE904134A
:107F000003238DF818300023ADF81A308DF81C309B
:107F1000074B089303A8074B0394099300F040FD17
:107F200008B116F009F80AB010BD00BF7800C8000B
:107F3000897D0200817D020070B5EFF3108672B674
:107F40000C4A946801239CB993600B4B0B4DD3F8FA
:107F5000801029401160C3F88050D3F8841051601C
:107F60004FF0FF32C3F88420047006B962B670BDCA
:107F70000370FAE7EC5C002000E100E0FC06FFBDC6
:107F800010B5084B9A685AB150B9EFF3108172B628
:107F9000054A1C6814605C685460986001B962B658
:107FA00010BD00BFEC5C002000E100E06DDF704719
:107FB00079DF70477DDF704764DF70472DE9F04F50
:107FC00085B000250E9CBDF83CB0B4F800A001912E
:107FD000074690461E46A9463A884A450DDC45B1FB
:107FE0002388013BA3EB0A039BB2FF2B3AD806F888
:107FF0000A30002005B0BDE8F08F7A6852F82900F9
:10800000039000220DF10B0103A8FFF7D5FF002814
:10801000F0D19DF80B20424521D12288002D14BFBC
:108020000020022002EB0801014459451ADC3DB949
:10803000013292B2019B2280B35422880132228005
:1080400022880DF10B01324403A8FFF7B5FF002889
:10805000D0D121889DF80B200A442280012509F106
:108060000109B9E70C20C5E72DE9F341089FBDF8E8
:1080700024801546CDE90078022204461E46FFF70B
:108080009DFF50B93346102229462046CDE9087895
:1080900002B0BDE8F041FFF791BF02B0BDE8F0814A
:1080A0002DE9F04F00231788138090F82D3085B00C
:1080B00006460D46144653B3082F01D80C2027E17D
:1080C00002A8FFF773FF002840F0228123880822CE
:1080D000EA54238801339BB21B222380EA54208870
:1080E000013080B2208006220DF10901284417F0EA
:1080F00021FB23889DF8082006339BB212F0FE0274
:1081000018BF01222380EA54238801332380B378E7
:10811000FBB123880433BB42D0D802A8FFF748FF45
:10812000002840F0F58023880322EA542388013395
:108130009BB219222380EA542388BDF8082001331A
:108140009BB2E9182380EA54120A4A70238802334A
:108150002380F2789AB12388D91CB942AED8022183
:10816000E954238801339BB201212380E9542388F9
:108170000B449BB22380EA5423880B44238072680B
:10818000AAB12388D91CB94298D8022192F90020BB
:10819000E954238801339BB20A212380E9542388C0
:1081A00001339BB22380EA5423880133238033892F
:1081B000002B40F0A180338A5BB1CDE900472B460C
:1081C0000722032106F11000FFF74EFF002840F0C0
:1081D0009F80338B5BB1CDE900472B4615221421DC
:1081E00006F11800FFF740FF002840F09180326A46
:1081F000002A40F09080D6F82480B8F1000F30D0EB
:10820000B8F804302188981C8A1C0244BA423FF610
:1082100055AFFE283FF652AF03336B54238801332A
:108220009BB2FF222380EA54238801339BB2238030
:10823000B8F80020EA54E918120A4A70208802307F
:1082400080B22080B8F804205AB1D8F8081000296C
:108250006BD0284417F06EFA2388B8F80420134432
:10826000238096F82C30002B40F09A80307800283C
:108270004ED03388012B58D0228802F1020CBC4525
:108280003FF61CAF012805D17378023313449F4297
:10829000FFF414AF023FBF1ABFB202A905EB0C00F6
:1082A000ADF80870FFF786FE90BB3178BDF8083056
:1082B000022900F0BA8072789A4202D3BB4240F29F
:1082C000B280012940F0B380974293B2C0F0AF80F2
:1082D000ADF808300821BDF80830FE2B3FF6EEAEB1
:1082E00022880133AB542288013292B22280A954F1
:1082F0002288134423800BE0CDE900472B46062259
:10830000022106F10800FFF7AFFE00283FF453AF4B
:1083100005B0BDE8F08FB4F800C00CF10603BB4215
:108320003FF6CCAE1188052901D80720F0E76FF49D
:10833000486E01EB0E039BB24FF27D3E7345F4D9BC
:108340005388052BF1D96FF44860181880B2704536
:10835000EBD94FF6FF70814203D0834201D099429E
:10836000E3D8052305F80C30238801339BB2122192
:108370002380E954238801339BB223801188E95478
:10838000E818090A4170238802339BB2238052887F
:10839000EA54E918120A4A702388023323802AE734
:1083A000B36A002BC1D04FF000094FF00C0A4FF018
:1083B000160B96F82C305FFA89F293427FF656AF8F
:1083C000B16A0AFB02F201EB0208B8F80430981C0B
:1083D000FE283FF673AE208803332B5423880133E5
:1083E0009BB2238005F803B0238801339BB223801E
:1083F0008A5AEA54E918120A4A702088023080B278
:108400002080B8F804205AB1D8F8081000298CD080
:10841000284417F08FF92388B8F8042013442380E8
:1084200009F10109C5E7092155E7BB42FBD9ADF8C0
:1084300008704FE701600B6843604A68934204BFCD
:10844000002343607047436843B1026891680B445E
:1084500043605268934204BF0023436070474BDF80
:10846000704700001FB50D4C01A8FFF7F8FF70B969
:10847000214602A8FFF7DEFF039B002BF4D00198F2
:10848000D3E90021904702A8FFF7DDFFF4E70528B4
:1084900001D015F051FD04B010BD00BF340504003B
:1084A00060DF704769DF704761DF704730B5114B9F
:1084B0001B78A9B0E3B1104D94240DF1020103A87B
:1084C000ADF80240FFF7F0FF70B9294601A8FFF7A9
:1084D000B1FF029B002BF0D003A8D3E90021904705
:1084E00001A8FFF7B0FFF4E7052801D015F024FD3F
:1084F00029B030BD8A34002040050400F0B506469E
:1085000085B00D4600295CD02F4B0B600C2200215A
:1085100001A817F01DF9012706232A68ADF80830D5
:1085200001A920208DF804608DF80670FFF7BAFFCE
:108530000C22002101A817F00BF900242A688DF8FD
:10854000057001A94020ADF80640FFF7ABFF0C22F3
:10855000214601A817F0FCF845232A68ADF806303B
:1085600001A923208DF80460FFF79CFF0C2221460F
:1085700001A817F0EDF82A688DF8044001A93846E3
:10858000FFF790FF0C22214601A817F0E1F84FF405
:10859000B0632A68019301A9A120FFF783FF0C2291
:1085A000214601A817F0D4F89DF804302A683B430F
:1085B00001A9A0208DF80430FFF774FF204605B014
:1085C000F0BD0E20FBE700BFF02D002008B5FFF73F
:1085D00067FF10B9014B01221A7008BD8A340020D0
:1085E00010DF704711DF704713B50446094968462C
:1085F000FFF720FF019808B902B010BDD0E90021B3
:108600002046904718B16846FFF71DFFF2E711209A
:10861000F2E700BF5005040013B504460749684659
:10862000FFF708FF019B0BB902B010BD2046D3E94C
:10863000002190476846FFF706FFF3E7680504004E
:10864000064B9A6822B11A6822F480021A607047B9
:10865000034B4FF48002C3F880207047EC5C00208D
:1086600000E100E00B4991F816335A09EC2313415D
:10867000DB0706D5084B9A683AB94FF480030B60C4
:10868000704742F2020015F057BC1A6842F48002AB
:108690001A60704700E100E0EC5C0020F7B5194F6C
:1086A0003C7864BB184E012520463570FFF79CFFCF
:1086B000112821D02046FFF7AFFF144B8DF803405F
:1086C000186801900DF10300FFF736FC104901A86E
:1086D000FFF786FF0446B0FA80F0400938709DF835
:1086E0000300FFF74DFC3CB90A4B34701C70FFF7D8
:1086F000B9FF2846FFF790FF204603B0F0BD0824DD
:10870000FAE700BF8C3400208B3400204C050400B5
:10871000218A02008D340020F7B5154F3B781BB33A
:10872000144E01203070FFF75FFF11284FF0000555
:108730001CD00220FFF770FF0DF107008DF80750E5
:10874000FFF7FAFBFFF74EFF04469DF807003D7068
:10875000FFF716FC2CB93470FFF772FF0320FFF708
:108760005BFF204603B0F0BD0824FAE72C46F8E78B
:108770008C3400208B34002007B508496846FFF789
:1087800059FE019B13B903B05DF804FBD3E9002047
:1087900090476846FFF757FEF3E700BF5C0504000B
:1087A000FFF7EABF75DF704776DF70477ADF704703
:1087B0007BDF7047034B1A8882420CBF18460020AB
:1087C000704700BFAC340020024B9B6903B11847CF
:1087D000704700BF9034002073B585B22846FFF77C
:1087E000E9FF044670B1164E027A337B9A420BD2EF
:1087F00000F10A012846FFF7D5FFE8B1112801D0A2
:10880000FFF7E2FF02B070BD00230372337C43B177
:108810003B212846FFF7C8FF30F0080301D0FFF7DF
:10882000D3FF7369002BEDD000228DF80420ADF842
:10883000065001A89847E5E7237A01332372E1E760
:108840009034002037B50B46497A0F4A71B9D2E906
:1088500001141D7A0246002D18BF2146586813F0F6
:1088600013F808B1FFF7B0FF03B030BD0021197253
:108870005369002BF8D00122ADF806008DF80420D2
:1088800001A89847F0E700BF903400204B88028889
:108890009A4213D842889A4210D380888A8840F23C
:1088A000F313984294BF031AC31A934206D800F2F6
:1088B000F310904234BF0020012070470020704721
:1088C00070B50388122B014659D004D8102B1ED046
:1088D000112B44D070BD502BFCD12F4BC288DB89AB
:1088E0009A42F7D1038A022BF4D186883046FFF7EB
:1088F00061FF05460028EDD001F1120000F08AF872
:1089000038BB686813F00CF80028E3D009E0C37B9B
:10891000012BDFD14FF6FF70FFF74CFF054620B962
:108920000420BDE87040FFF74FBF8E881B4A0680C9
:10893000002303721368C0F80A305368C0F80E3081
:1089400010310A30FFF7A2FF134B6872DB89002B4E
:10895000C0D129463046BDE87040FFF773BF80881C
:10896000FFF728FF04460028B4D0406812F0D8FF73
:1089700008B1FFF729FF4FF6FF732380AAE7868827
:108980003046FFF717FF05460028A3D008310A300C
:10899000FFF77CFF6872DCE790340020C0340020D1
:1089A000F8B5064648B305460FCD154F3C460FC4F3
:1089B00095E8070084E807003068124C3C60B0B1CD
:1089C000FFF7F4FEC0B93268136823605368636030
:1089D0000D480E4A4FF6FF7303800D4B40F8043FDD
:1089E000002112F03FFF002818BF032004E02046BA
:1089F000FFF7DEFE0028EBD0F8BD0E20FCE700BF3D
:108A000090340020C0340020AC340020D98702000C
:108A1000C8340020007800F001007047062070473D
:108A200030B5754B14461B6844F20102904287B082
:108A30000D4603F4804300F0A98022D8012844D0D9
:108A400041F20102904276D0002B58D06B4B1B684C
:108A5000002B54DD6A482F2116F04CFF002800F04F
:108A6000BF802F21664816F045FF411C654B664AC2
:108A7000D3F80435009201957B22012005F006FA17
:108A80003DE044F202029042DED1002B37D05B4B36
:108A90001B68002B33DD5A482F2116F02BFF0028CE
:108AA0006BD02F21564816F025FF411C554B2288CC
:108AB000D3F8043503926268CDE90152534A00921B
:108AC0000120692205F0E2F919E0C3B14B4B1B68A4
:108AD000002B14DD4A482F2116F00CFF10B32F2174
:108AE000474816F007FF411C464B494AD3F8043566
:108AF0000092CDE901546022012005F0C7F94FF042
:108B0000A0434FF4F012C3F81825C3F80C25EFF377
:108B1000108372B64DF6AD6C3E4A1378002B68D1C7
:108B200007B030BD36485C2116F0E4FE08B15C2188
:108B3000D6E73349D8E7002BE1D0304B1B68002B38
:108B4000DDDD2F482F2116F0D5FE68B12F212C48EE
:108B500016F0D0FE411C2B4B2F4AD3F8043500925F
:108B6000CDE901546322C7E725485C2116F0C2FE17
:108B700008B15C21EBE72249EDE721485C2116F0C2
:108B8000B9FE08B15C218DE71D498FE7002BB6D0F7
:108B90001A4B1B68002BB2DD19482F2116F0AAFED4
:108BA000A8B12F21164816F0A5FE411C154B2268CE
:108BB000D3F8043504926268CDE90252A2680192AA
:108BC000164A00920120732205F060F997E70C48DD
:108BD0005C2116F08FFE08B15C21E3E70849E5E768
:108BE00007485C2116F086FE08B15C213AE704498B
:108BF0003CE730BF91E700BF3C2E0020382E00201C
:108C0000740504000010014018060400D805040093
:108C10009C050400282E0020B6050400F70504007A
:108C200007B500230146ADF800306A46044B0193B6
:108C300044F20200FFF7F4FE03B05DF804FB00BF4E
:108C4000C308040001461022014816F073BD00BF9E
:108C5000E834002010B50C4C0C490822204616F0D0
:108C600069FD08220A49A01816F064FDA37903F0F3
:108C70000F0343F04003A371237A03F03F0363F033
:108C80007F03237210BD00BFE83400206000001095
:108C9000A400001000487047E83400200022064974
:108CA00013460132202A4B804B6001F8083BF8D173
:108CB000024A1360704700BFF8340020F8350020E6
:108CC000F0B50C4B0C4D1B68044620227BB1013BD8
:108CD00015F8330050B105EBC3067788A74202D1DF
:108CE00076688E4202D0013AF0D11046F0BD1F23C3
:108CF000EEE700BFF8350020F834002030B5094A0F
:108D0000094C136804EBC3051F2B69604FF0010188
:108D100004F83310194408BF0023688014BF1160A1
:108D2000136030BDF8350020F8340020C0F30C0388
:108D30008B42084438BFA0F50050C01A70470000AD
:108D4000F0B50D4B0D4A1E6800218E4212D01568F9
:108D500000230AE052F8044C04EBC30714F8334034
:108D6000844201D17868F0BD01339D42F2D10131D6
:108D70000832EAE70020F6E7843600208C3600202F
:108D800000B58DB048B9991C07D0012101A8CDE9E3
:108D900002328DF8041001F04FFA034B186803F00B
:108DA00093FF0DB05DF804FB9036002010B50378FA
:108DB000044613B97846FFF733FF607A431C01205D
:108DC0009840013810BD2DE9F0410E468EB0154691
:108DD0001C46074610B97846FFF722FF16B97846B9
:108DE000FFF71EFF636AA27802330593E378A2F1CE
:108DF0000800002B14BF012102210DF1040842429A
:108E00004241434604F10C0004F093F8A3788DF836
:108E10003430237BADF82050022B16FA85F5CDE9CE
:108E200006870B960C950FD1236913B97846FFF787
:108E3000F7FE23690993102305A8ADF8283004F044
:108E400074F80EB0BDE8F0810023F5E7B2F5C07FFD
:108E50002DE9F04781468846174602D97846FFF744
:108E6000DFFE244B00259A4693F848605EB93846E9
:108E700007F0A7FF702404FB05A4E06648B90024AE
:108E80002046BDE8F0870135042D03F17003EBD1D6
:108E9000F5E730224946204616F04CFCB8F1010FA8
:108EA000E664A4F84A701BD1134BA4F852601B7DF2
:108EB00084F8513084F85060D9F8283063656FF039
:108EC0000103A3620D4BA4F85860A363246401203E
:108ED00002F09EFA702303FB05A585F84880CFE7D2
:108EE0006FF00103A362064BA36584F86860054B2D
:108EF0002466EAE7AC360020943600205D96020036
:108F0000719C02005596020010B50446C06E07F031
:108F10005AFF04F1300003F001F994F84830022BB5
:108F200003D104F1500003F0F9F82046702200212B
:108F300016F00EFC002084F84800BDE8104002F056
:108F400067BA10B590F84830012B8CB0044602D0B7
:108F50007846FFF765FE01238DF80430636D0293B8
:108F600003F01CF9039001A801F066F92046FFF711
:108F7000CBFF0CB010BD10B50446808A02F0F0FCA7
:108F800001281CD1237BD3B194F91620002A18DBC9
:108F9000E27D5AB1022B12D094F90330002B10DB82
:108FA000A378002B0CBF0020072010BDE2780AB97F
:108FB000012B06D1237833B9A378042BF2E71020D4
:108FC000F3E70720F1E70020EFE700001FB50023DB
:108FD0000A468DF80F3028B3023008600DF10F01FA
:108FE000104603F0A4FF9DF80F30DBB1144B1B6853
:108FF0005B0717D5134B1B68032B13DD12482F217A
:1090000016F078FC98B12F210F4816F073FC411C24
:109010000E4B0F4AD3F804350092042040F215425B
:1090200004F034FF9DF80F0005B05DF804FB06481E
:109030005C2116F05FFC08B15C21E5E70249E7E737
:109040003C2E0020382E0020310604000010014084
:109050004E06040070B50446D4E906122378808ACF
:109060008CB0D3B1E38805F0CBFE054690B1A68A5B
:10907000E4692C22002101A816F06AFB04F0010427
:109080000F2301A88DF80430ADF80860ADF80A4050
:1090900001F0D2F828460CB070BD05F0ADFEE4E753
:1090A0002DE9F04F98461378D2F818A0F3B0064691
:1090B0000D46144623B1D1885046FFF737FE906124
:1090C000E378A278002BA2F108000DF10C0914BF7F
:1090D0000121022104F10C0742424B46424138462D
:1090E00003F027FFA3788DF83C30ADB2E81A80B2C8
:1090F000CDE90896E378C4F818A006440E964FF020
:10910000000912AEADF828000D96ADF83090002B96
:1091100065D04FF0100B04F1240A237BC4F824908F
:10912000022B02BF2369ADF830B00B93206A21797E
:10913000524611F0B1FF606A30BB237B022B05D190
:10914000E089394612F06CF80028E6D1374B1B68ED
:109150005B0741D5364B1B68052B3DDD35482F217C
:1091600016F0C8FB002858D02F21324816F0C2FB59
:10917000411C314B314AD3F804350092062040F2AD
:10918000017204F083FE27E007A9FFF71FFF002804
:10919000CCD02046FFF75EFFF0B9A1780B906D1A96
:1091A0008DF81C0097E80300A38AADF82A3001224D
:1091B0000CAB8DF8282083E80300A37D8DF84030A8
:1091C000236A0E9307A8636A0896ADF824500F939C
:1091D000CDF8448001F030F873B0BDE8F08F227B09
:1091E000012AB3D1A146E089B4F814A049F8243F7C
:1091F000494611F093FF606A07A9FFF7E7FE0028D0
:10920000C7D160624946504611F088FF606A07A9DD
:10921000FFF7DCFE002899D0BBE706485C2116F07A
:1092200069FB08B15C21A0E70249A2E73C2E0020BF
:10923000382E0020310604000010014061060400B1
:10924000C37D0A7830B5002B3DD0C37822F07F0271
:1092500003F07F031A430A700B78027803F07F0350
:1092600043EAC2130B70037863B38378083B5A4216
:109270005A414B7803F07F0343EAC2134B708A785C
:10928000C58802F00302C5F3861442EA850223F082
:109290007F032343D2B28A704B70CB78057A03F0F8
:1092A0001F03C5F3C10422F0030243EA451322431E
:1092B000DBB2CB708A70427A23F01F0302F01F02E8
:1092C0001343CB7030BDC47822F0400343EA8413CB
:1092D000DBB20B70027923F03F0302F03F0213432D
:1092E0000B70B9E72DE9F04F824689B00D4609B100
:1092F00000220A600AF10C039AF8504001930127FA
:109300004FF0000B9AF80900A04203D2002009B0E8
:10931000BDE8F08FDAF84C1007FA04F20A4264D183
:109320009AF81720019B8AF80840002A0CBF0C26E7
:10933000082684429AF80020029306FB04F908BF2D
:10934000BAF84A608DF818B008BFA6EB0906002AE3
:1093500014BF4FF004084FF0010806EB0802049216
:10936000DAF82820039202A8DAF82C20059203F0FC
:1093700082FF0028CBD1079A904454B99AF8532021
:109380003AB9DAF818208AF85370C2F30C02AAF836
:1093900006209AF817209AB99AF8522082B914B187
:1093A0007846FFF73DFCBAF84A109AF802208A1A6C
:1093B000DAF86C1053460846FFF705FD8AF852703C
:1093C00007995046FFF73CFFDAF86C1032464944E3
:1093D000404616F0AFF902A803F06EFF15B12A68F7
:1093E00001322A60621C8AF850200134E4B289E715
:1093F00038B590F84830012B044602D07846FFF784
:109400000FFC02F0CBFE237B074A012B05BFD2E9FC
:109410000315A37DD16805FB0311014404F130005D
:10942000BDE8384002F091BE94360020F0B5C37D0F
:1094300016468278002B324414BF4FF480734FF4E9
:10944000C0739342C7B00F467DD3424B002493F8BC
:109450004810012907D19D8A818A8D4203D1DD8977
:10946000C1898D4271D00134042C03F17003EED117
:109470000121FFF7EBFC0546002844D0324639466F
:10948000C06E16F057F9002304A928460493FFF78D
:1094900029FF30F00404064650D1049B13B128463E
:1094A000FFF7A6FF2C4B1B6813F004034FD02B4B88
:1094B0001B68032B27DDB5F84A00294B802805AA35
:1094C0001F6828BF802000231646834202F1020253
:1094D0001CD10022234806F813202F2116F00AFA87
:1094E00018B32F211F4816F005FA411C1E4B1F4AC6
:1094F000D3F8043501921E4A009202964FF4AC62F2
:10950000042004F0C3FC204647B0F0BDE96EC95CFE
:109510004FEA111C01F00F0117F80CC002F802CC41
:10952000795C02F8011C0133CFE70E485C2116F08C
:10953000E1F908B15C21D5E70A49D7E72846FFF7EA
:10954000E3FC3446DFE70924DDE70824DBE71C46BB
:10955000D9E700BFAC3600203C2E0020382E00207A
:10956000402E002031060400001001408A0604004D
:109570008E040400F0B50D4691B0044610B978464B
:10958000FFF74EFB94F84830022B18D1E188A06910
:10959000FFF7CCFB284AE16913680F0A0E06591C35
:1095A0001160264A361803F007034FEA031147F10A
:1095B000000702EB0313A08A5052C3E902672C2272
:1095C000002105A8666D16F0C3F8102305A88DF8D4
:1095D000143006968DF81C5000F02EFE2046FFF742
:1095E00093FC174B1B685B071BD5164B1B68032BA3
:1095F00017DD15482F2116F07DF9A0B12F21124853
:1096000016F078F9411C114BD3F80435029594F803
:10961000482001920E4A0092042040F2F31204F016
:1096200035FC11B0F0BD08485C2116F063F908B1B3
:109630005C21E4E70449E6E780360020003600209C
:109640003C2E0020382E002031060400001001407E
:109650009806040008460021FFF78CBF10B591F86A
:109660004830012B0C4602D07846FFF7D9FA94F81F
:1096700051305BB1013B84F85130002384F8503005
:10968000084BBDE81040186803F01EBB217B012980
:10969000204603D1BDE81040FFF76CBFBDE8104085
:1096A000FFF74FBC903600202DE9F04306468FB0FF
:1096B00010460F4615469846FFF7CCFC0446002896
:1096C0005ED195F80390B9F1000F40F0AA80062F03
:1096D00056D130787378820102F4FE5242EA930246
:1096E000604B1F4693F84810012928D1B3F814C0E5
:1096F000E9898C4523D1D988914220D1B3F858C04B
:10970000A98ABCF1000F01D08C4518D110F0800F50
:10971000D6F802204FF070033ED003FB0473A3F889
:109720005810702000FB047412BAE56C1543E56410
:10973000002A63D103212046FFF71CFF20E00134FB
:10974000042C03F17003CDD1474B1B685B0717D581
:10975000464B1B68012B13DD45482F2116F0CAF834
:1097600088B12F21424816F0C5F8411C414B424AAE
:10977000D3F804350092022040F2776204F086FBB1
:109780000FB0BDE8F0833A485C2116F0B3F808B199
:109790005C21E7E73649E9E703FB0473DB898B4289
:1097A000BFD0314B1B685A07EAD5304B1B68012BE1
:1097B000E6DD2F482F2116F09DF8B0B12F212C485F
:1097C00016F098F8411C70202A4BAA8AD3F8043569
:1097D000029200FB04740220E2890192274A00925F
:1097E00040F27B6204F052FBCAE721485C2116F08C
:1097F00081F808B15C21E2E71D49E4E72046FFF764
:10980000D5FA854203D12046FFF79BFBB8E700213C
:1098100084F850102046FFF765FD2046FFF7E8FD6D
:10982000AEE74846FFF78CFA02460028A8D0D5E9F3
:1098300003012B6A0B93AB8AADF8223009AB83E8A6
:109840000300AB7D8DF830302B788DF82030EB6A3B
:109850008DF81490CDE906670D93414605A8904711
:109860008EE700BFAC3600203C2E0020382E0020B2
:109870003106040000100140BB060400E9060400A4
:10988000F0B589B005460E460192FFF774FB044619
:1098900038B92B78019A3BB131462846FFF7C6FD0F
:1098A0000446204609B0F0BDE97DAB78019200295D
:1098B000134414BF0B210F218B4226D8013304938C
:1098C00005F10C030293AB6A03938DF81800EB6A61
:1098D000059302A803F0CFFC04460028E1D10799C4
:1098E00028464F1CFFF7ACFCEB7D019A3BB131469B
:1098F000384615F01FFF02A803F0DEFCD1E72B4627
:1099000039463046FFF75FFAF5E70924C9E700005A
:1099100010B54FF4E0720021134815F019FF002430
:1099200005F056FB114B12481C602146802215F0B1
:109930000FFF104B1049114A11489C75C3E90012E2
:1099400010494CF25032C3E902211A6140F6040278
:109950009A8203F09BF90C4B18600C4B0C481C606E
:10996000BDE8104005F044BCAC3600208036002035
:10997000003600209436002080969800F0490200BE
:109980006DA1020020A1070090360020843600203F
:10999000818D020005F028BA30B504468DB000284C
:1099A0005FD00369002B5CD0C369002B59D0856957
:1099B000002D56D05A788DF804201A780993838A9E
:1099C00082F001020B2B8DF80320027B09D90121C3
:1099D000022A8DF8001001D1234A927D5AB904223F
:1099E0000AE0C17A0029F2D1012A0CBF012200222B
:1099F0008DF8002031D1082213448DF802200B335A
:109A00000C22B3FBF2F3013B8DF8093000238DF8F3
:109A1000083094E8030000238DF8173003AB83E887
:109A200003002389ADF81430A37A8DF81630236A29
:109A30000A932046DF2308950B9311F091FC28B17F
:109A40002378012B14BFFF2320230B93A28A2169C3
:109A50006846FFF715FF0DB030BD04238DF80230C6
:109A6000D7E70E20F7E700BF9436002030B50A464E
:109A700091B00446002860D04368002B5DD0856912
:109A8000002D5AD003788DF8133000230D9383688E
:109A90000B2B94BF017B012101F001008DF8100018
:109AA00000208DF8120031B10733DB08013B8DF83F
:109AB00019308DF81800D4E9040101238DF82730FE
:109AC00007AB83E80300E389ADF82430237F8DF8EA
:109AD0002630236A0C95CDE90E23194B1B685B07D2
:109AE0001BD5184B1B68062B17DD17482F2115F0C7
:109AF00001FFC8B12F21144815F0FCFE411C134B87
:109B0000A269D3F80435029222780192104A009299
:109B1000072040F6030204F0B9F9D4E9011204A8C1
:109B2000FFF7AEFE11B030BD07485C2115F0E2FE34
:109B300008B15C21DFE70449E1E70E20F2E700BF4E
:109B40003C2E0020382E0020310604000010014079
:109B50002A07040070B5037B012B90B004460D4624
:109B600077D13D4B1B685B0718D53C4B1B68032B1B
:109B700014DD3B482F2115F0BDFE00285ED02F21BB
:109B8000374815F0B7FE411C364B374AD3F8043539
:109B90000092042040F2632204F078F904AE0B2214
:109BA0000021304615F0D4FD9DF81130E28808966A
:109BB00003F0030343EA82038DF811302B0E8DF876
:109BC00012302B0C8DF813306378022B0CBF8023DE
:109BD0000023C2F3861242EA03024FF00603099300
:109BE0004FF001038DF82C30A38AADF82E304FF0E2
:109BF00000036DBA8DF810200C93226A8DF81C308A
:109C00008DF82830E36AADF814500D920F931ED1F1
:109C10000DF10E0103A811F093FBBDF80C30ADF867
:109C20002A30A37D0BB1114B5B7D8DF838306FF07E
:109C3000010107A8FFF71AFF10B070BD08485C21AA
:109C400015F058FE08B15C219AE705499CE7E389C5
:109C5000E5E70020F0E700BF3C2E0020382E002072
:109C6000310604000010014055070400943600201E
:109C700010B591F84830022B0C4602D07846FEF71A
:109C8000CFFF022384F8683094F84830022B06D1C5
:109C9000E16C2046FFF75EFF08B984F8680010BD4C
:109CA0002DE9F04F0D469DB0174698460446002812
:109CB00000F05882002A00F0558221B9092630466A
:109CC0001DB0BDE8F08F1822394613A815F032FDFB
:109CD000237894F900100020DA0981428DF84020A1
:109CE000B4BF0422012295428DF84100E6D39DF8CD
:109CF0005760EEB103F07F0381428DF843308DF859
:109D000042002EDA6278A378920102F4FE5242EA0F
:109D10009302ADF84620DB00E27803F0180343EA33
:109D2000521302F01F028DF848308DF8492018E0D8
:109D3000C3F38010002903F03F038DF843008DF832
:109D4000443008DA94F90130002BB4BF082304230F
:109D50008DF84230D6E704231A4495428DF84230FC
:109D6000ACD30023199398F80030032B02D978461E
:109D7000FEF756FF98F80020CB4B10A853F822307E
:109D80001B93FFF7F8F80646002898D101460822F1
:109D900003A815F0DDFC788803A911F041FA28B179
:109DA0009DF8413043F001038DF84130D7E90312AB
:109DB000388905F053F8002855D19DF84130002B23
:109DC0003FF47DAF13F001031CBF049A14929DF879
:109DD0004020002A00F0B481BDF846101698FEF726
:109DE000A5FF179BBDF854C0B0494FEA036A4FEA7C
:109DF000132B1AEB000A4FF000074BF1000B0B88F6
:109E0000634506D1D1E902239B4508BF92453FF443
:109E100056AF0137082F01F11001F0D1A44B4FF0DC
:109E20000009184693F84820022A25D19A8A6245EB
:109E300022D1702303FB0909B9F80610D9F81800DC
:109E4000FEF774FFD9F81C100A0612184FEA112306
:109E500043F100035B4508BF524535D20521484612
:109E6000FFF788FB0FE09DF8413003F0FE038DF80B
:109E70004130002BA1D122E709F10109B9F1040F0A
:109E800003F17003CED1DDE91612BDF84630BDF8FE
:109E9000540005F00DF8002800F0C980DDE9161225
:109EA000BDF84630BDF8540005F038F800283FF4FE
:109EB00006AF10A8FEF77AFF014610A8FFF74AFE8A
:109EC00010A8FFF7C7F8FAE69B4508BF9245FFF4D4
:109ED000F6AE784B1B685B071CD5774B1B68032BD2
:109EE00018DD76482F2115F005FD002800F00E81C1
:109EF0002F21724815F0FEFC411C714B9DF8482043
:109F0000D3F8043501926F4A0092042040F2A33244
:109F100003F0BCFF99F84830022B02D07846FEF7D8
:109F20007FFEDFF8A8A1DAF800B002F037F90BEBFA
:109F3000000109F1300002F008F999F80C30012B0A
:109F40001AD199F86830BBB999F84830022B02D081
:109F50007846FEF765FEDAE901329AF8151002FB41
:109F6000013A02F01BF900EB0A0109F1500002F07E
:109F7000ECF8012389F868309DF84810D9F84C3086
:109F800001228A4013EA020A7FF499AE1343C9F80A
:109F90004C309DF8573099F80920002B14BF4FF032
:109FA000080E4FF00C0E8A42A5F104050EFB01FECF
:109FB00040F0B5800EEB0503A9F84A30D9F8182017
:109FC000169B9A420AD20DF14C0CBCE80F0009F125
:109FD0000C070FC79CE8030087E80300D9F86C0062
:109FE000211D2A46704415F0A5FB4846D9F84C407F
:109FF000FEF7DCFE84427FF462AED9F84C1048468E
:10A00000FFF7A8FD99F80130DA070CD599F8173059
:10A01000D9F86C00B9F84A10002B00F08C80434648
:10A020004A46FFF741FB4846FEF76EFF81E09DF888
:10A0300057209DF84930002A14BF4FF008094FF00F
:10A040000C0903FB099914BF4FF480734FF4C073DC
:10A0500099453DD9174B1B6859077FF530AE164B14
:10A060001B68002B7FF72BAE14482F2115F042FC04
:10A0700088B12F21114815F03DFC411C104B124AAC
:10A08000D3F804350092CDF8049040F27F320120DD
:10A0900003F0FCFE13E609485C2115F02BFC08B127
:10A0A0005C21E7E70549E9E78C070400003600205A
:10A0B000AC3600203C2E0020382E00203106040053
:10A0C0000010014079070400650704009436002061
:10A0D0004A46022110A8FEF7B9FE814600287FF407
:10A0E000F8AE014610A8FFF735FD2C22494605A819
:10A0F00015F02EFB10238DF8143005A80223CDF89F
:10A1000018908DF81C3000F097F8D8E516485C21BF
:10A1100015F0F0FB08B15C21EBE61349EDE6002BEE
:10A1200008BF0C27BD423FF449AF04214846FFF762
:10A1300021FA0026C3E543464A46FEF7B1FF72E71F
:10A14000002B3FF4BCAD9DF85730601C691E23B155
:10A15000434610AAFFF7A8FAB1E5434610AAFEF756
:10A160009FFFACE50E26AAE531060400F7B5184CB2
:10A1700000262546374695F84830012B0BD101A91A
:10A1800028460197FFF7AEF8042801D0019B13B1D0
:10A190002846FFF72DF90136042E05F17005EAD1A6
:10A1A000002594F84830022B0AD194F86830022B2D
:10A1B00006D1E16C2046FFF7CDFC08B984F86800B1
:10A1C0000135042D04F17004EBD1012003B0F0BD82
:10A1D000AC3600202DE9F8430F46064610B3144B69
:10A1E0001C689846E4B9254600F10409BD4208D12F
:10A1F000104BC3E900650123C8F800302046BDE8D4
:10A20000F88359F835306BB116F9353016F835004A
:10A21000002B09DB50B1FEF793FD38B90135E5E7B6
:10A220000424EBE70E24E9E70B24E7E70F24E5E736
:10A230008436002088360020F8B5074610B97846E5
:10A24000FEF7EEFC0F4E346894B10F4D01232B70D6
:10A2500023791BB954F8043C384698472468002CED
:10A26000F6D12B78022B03D13168064C09B929703D
:10A27000F8BD0B790E6813B1204603F08DFD314611
:10A28000F4E700BF703800206C38002010B5044699
:10A2900010B97846FEF7C4FC00232372211D024842
:10A2A000BDE8104003F057BD7038002010B50446DB
:10A2B00010B97846FEF7B4FC074A1378013B012B2E
:10A2C00004D8022313700123237210BD211D0348FB
:10A2D000BDE8104003F060BD6C38002070380020ED
:10A2E0000B888268D25A073222F003021344028894
:10A2F0009BB2043A934288BF00230B80704713B58A
:10A300008368C91AADF806100DF10601FFF7E8FFE2
:10A31000BDF806308068184402B010BD70B506461E
:10A3200015460C4611B97846FEF77AFC16B9784600
:10A33000FEF776FCB4F1005F24D94FF08053D3F8D8
:10A340000C3103F50023B4EB832F1ED26B1E234484
:10A35000B3F1005F26D94FF08052D2F80C2102F5FC
:10A360000022B3EB822F20D2042D02D87846FEF7CC
:10A3700057FC35800023043D7380B380B460258092
:10A38000A37070BDB4F5000F08D94FF08053D3F817
:10A390000C3103F50053B4EB832FD7D37846FEF787
:10A3A0003FFCD3E7B3F5000F08D94FF08052D2F845
:10A3B0000C2102F50052B3EB822FD5D37846FEF77D
:10A3C0002FFCD1E738B5044610B97846FEF728FCD3
:10A3D0006288A36813449B78012B02D17846FEF76C
:10A3E0001FFCEFF3108572B6A268A18811448B7828
:10A3F000032B0AD12046FFF782FFA368C31A6380AC
:10A400000023837005B962B638BD00239370638062
:10A41000A380F7E7F8B50E461546044610B978460E
:10A42000FEF7FEFB16B97846FEF7FAFB6288A368D2
:10A4300013449B78012B02D17846FEF7F1FB002DE7
:10A4400037D02388043B9BB29D4232D8EFF310876C
:10A4500072B66288A388E81D20F003009A4280B299
:10A4600004D29B1A984210DD042016E018D92188E6
:10A47000891A814209D29842F6D8032981BFA3687C
:10A480009B1804229A70002363806288A1688B184D
:10A490008D5201229A700020336007B962B6F8BD70
:10A4A000A26813449B78002BDED193706380A38055
:10A4B000EBE70920F3E7F8B50D461646044610B958
:10A4C0007846FEF7ADFB15B97846FEF7A9FBAB78E9
:10A4D000012B02D07846FEF7A3FB2B88B34202D2B1
:10A4E0007846FEF79DFB16B97846FEF799FBEFF329
:10A4F000108772B60223AB70E1182E802046FFF75A
:10A50000EFFE6288A38893421FBFA3689B180022B6
:10A510009A7007B962B6F8BD70B50D46044610B919
:10A520007846FEF77DFB15B97846FEF779FBEFF329
:10A53000108672B6A288A36813449A78042A06D1BA
:10A54000211D2046FFF7CCFEA288A36813449A7809
:10A55000022A05D0032A08D0052006B962B670BDCC
:10A5600003229A702B600020F7E77846FEF758FB2D
:10A57000F9E738B5044610B97846FEF751FBEFF31A
:10A58000108572B6A088A16801448B78042B03D192
:10A590002046FFF7B4FE01468878831E5842584192
:10A5A00005B962B638BD38B5044610B97846FEF72D
:10A5B00037FBEFF3108572B6A088A1680144887854
:10A5C000C31E012B05D9831E5842584105B962B6F6
:10A5D00038BD2046FFF793FE0146F0E7F8B50D467B
:10A5E000044610B97846FEF71BFB15B97846FEF70E
:10A5F00017FBEFF3108672B6AB78012B19D0032B43
:10A6000022D1A288A36813449D4202D07846FEF767
:10A6100007FB0027AF70211D2046FFF761FEA288CF
:10A62000A36813449B78042B00D1A78006B962B6B7
:10A63000F8BD6288A36813449D4202D07846FEF7B5
:10A64000EFFA0023AB70F1E77846FEF7E9FAEDE7A1
:10A6500010B5EFF3108472B68288816811448B784C
:10A66000042B02D1FFF74BFE01468878B0FA80F048
:10A67000400904B962B610BD037942799B1A03F50B
:10A680007F2303F6FF7300EB0330704710B50548D6
:10A6900084681C22002115F05BF82046BDE81040BC
:10A6A00004F06AB97438002070B5194CE36813B926
:10A6B0007846FEF7B5FA237E13B17846FEF7B0FA76
:10A6C0006368092B02D97846FEF7AAFA114D0026D5
:10A6D000636855F823309847022811D003280DD01D
:10A6E000012810D163680133092B636002D97846D1
:10A6F000FEF796FA237E002BEAD004E06660F9E7C5
:10A70000237E0BB1207070BDBDE87040FFF7BEBF67
:10A7100074380020F807040010B50388044613B904
:10A720007846FEF77DFA2088084B04EB800030EA7B
:10A73000030203D06288B2F5FE4F05D104EA03009C
:10A7400000F580500478204410BD00BF00F0FFFFEA
:10A7500070B504460D4647F6FE66FFF7DDFFA842DA
:10A7600007D2844205D24388013B9BB2B342F4D85E
:10A7700070BD0020FCE700000B78032B094B04BFE1
:10A7800000221A761A78012A03D11B7E43B9FFF7FB
:10A790008BBF022A04D10B78032B01D1FFF776BFC0
:10A7A000704700BF7438002010B50C4CE36818786F
:10A7B000002203F58051184404F0DEFC50B9E16832
:10A7C0000846FFF759FF814206D001F58051E1604C
:10A7D000032010BD0120FCE70220FAE774380020B6
:10A7E0001FB50A4B02221B688DF800200193084A0E
:10A7F0004FF4805369460120029300F0F3FFB0FA52
:10A8000080F0400905B05DF804FB00BF94380020DB
:10A81000903800201FB50123CDE902210190054A9F
:10A820008DF800306946184600F0DCFF05B05DF891
:10A8300004FB00BF903800202DE9F047254BD86875
:10A8400002794179013A91421F4603D1012058769D
:10A85000BDE8F08700F580531F491C781C440B6845
:10A8600013F8045F1D44FFF707FF6388013B9BB2A9
:10A8700047F6FE62934200F58056884604D920468A
:10A880003146FFF765FF0446DFF850A04FF001099D
:10A890002CB9B4FA84F464097C760120D8E7D8F89E
:10A8A00000106288284601F5805104F065FC0546D9
:10A8B0000028EED004225146204687F81890FFF772
:10A8C000A9FF28B920463146FFF742FF0446DFE7DB
:10A8D0000020BDE77438002094380020C40904002B
:10A8E00038B5104CE36818784FF6FF7203F58051C5
:10A8F000184404F041FC88B1E36819780B4498428D
:10A900000CD0657E0849094B0422002D08BF19466A
:10A91000FFF780FF20B90120207638BD0120FCE739
:10A920000020FAE774380020CC090400C8090400AC
:10A9300070B50C4D0C4EE96830680C780430224636
:10A94000FFF768FF58B93268EB6804F0FC04043480
:10A9500014446C611A7813442B61012070BD0020EF
:10A96000FCE700BF743800209438002008B5054B80
:10A97000054918680422FFF74DFFB0FA80F040093E
:10A9800008BD00BF943800208038002010B5074B68
:10A99000074C1968E06840F6FC720431FFF73AFF93
:10A9A00010B90120207610BD0020FCE7943800206B
:10A9B0007438002010B50C4CE1680846FFF75CFEC7
:10A9C00081420AD1094B0A4918680422FFF722FF85
:10A9D00040B901232376022010BD01F58051E160CA
:10A9E0000320F9E70020F7E77438002094380020AE
:10A9F000983800202DE9F74F324D2B6913B978466E
:10AA0000FEF70EF96B6913B97846FEF709F9DFF81E
:10AA1000B89047F6FE6A6B69D5E9030603EA0908B0
:10AA2000A8EB0308FFF728FE7388013B9BB2534550
:10AA300008F5805800F5805B05D930465946FFF788
:10AA400087FE064668B1344600275C4513D327BB12
:10AA5000012334B1618847F6FF72914201D0002B87
:10AA6000D9D001202AE020460192FFF755FE019A35
:10AA700004461746E9E7228807EB8202904509D988
:10AA800086EA040313EA090F04D16388013B9BB2F1
:10AA90005345E8D90FB90123DCE768693A463146E6
:10AAA000FFF7B8FE48B96A693A446A6114B9784652
:10AAB000FEF7B6F82C610023CBE7002003B0BDE819
:10AAC000F08F00BF7438002000F0FFFF1FB50A4B65
:10AAD0000222DB688DF800200193084A4FF480536E
:10AAE00069460120029300F07DFEB0FA80F0400933
:10AAF00005B05DF804FB00BF7438002090380020DA
:10AB00001FB540F6F8731B685A1C0CD1374B1A68F6
:10AB1000013202D01A68002A4CD14FF0805251699C
:10AB200013694B4303E0002BF7D0A3F58053304C5F
:10AB3000A3F5805323602F4B1B68DB0223D52E4BDC
:10AB40001B68062B1FDD2D482F2114F0D3FE002893
:10AB500032D02F21294814F0CDFE411C40F6F87266
:10AB6000274B1268D3F80435501C08BF1F4A2068D1
:10AB700008BF1268CDE90120224A0092072040F266
:10AB8000672203F083F9236819684B1E03332AD820
:10AB9000C1F30B033BBB1C4A1C48D160012111705F
:10ABA0001B491383936001330A2B0ED17846FEF7BD
:10ABB00037F80FE01B68B8E710485C2114F09AFEE4
:10ABC00008B15C21C6E70D49C8E751F8234084422B
:10ABD000E9D1536001200F4900F0F4FDFFF764FD57
:10ABE000012004B010BD0020FBE700BF14100010CE
:10ABF000943800203C2E0020382E00209C070400B2
:10AC000000100140C407040074380020CDAA0200DF
:10AC1000F807040079A7020010B5044610B9784679
:10AC2000FDF7FEFF094A107860B1E068D16843790A
:10AC3000A0EB0333994206D3FFF71EFD81428CBF80
:10AC40000020012010BD0020FCE700BF7438002068
:10AC5000024B1878003818BF012070477438002064
:10AC600038B50E4C2378054613B17846FDF7D8FF6A
:10AC70002B78032B02D07846FDF7D2FFEB68E36018
:10AC8000012000230649A56063602070238300F043
:10AC900099FDBDE83840FFF707BD00BF74380020BC
:10ACA00079A70200014B1868704700BF9438002054
:10ACB00010B5044610B97846FDF7B2FF63681BB1C2
:10ACC00023680BB1A36813B97846FDF7A9FFA36801
:10ACD0005A1E1A4202D07846FDF7A2FF0023C4E9AB
:10ACE000033310BD70B50E460446F0B18368F3B16E
:10ACF000EFF3108572B6D0E90331994203D105B95B
:10AD000062B605250FE04EB18368013B0B40D0E9E8
:10AD10000012304602FB031114F00CFD23690133CD
:10AD2000236135B962B6284670BD0E25FBE70925BB
:10AD3000F9E70025F7E70000024AD2F80034002BBB
:10AD4000FBD0704700E0014038B5C0F30B05EDB90A
:10AD5000F1B1104C0223C4F80435FFF7EDFF01F602
:10AD6000FF7121F47F6121F00F010144884206D177
:10AD70000023C4F80435FFF7DFFF284638BDC4F8C8
:10AD80000805FFF7D9FF00F58050EFE71025F4E73D
:10AD90000925F2E700E0014040EA010370B50646EC
:10ADA00098071ED1FAB112F003001CD10F4B940882
:10ADB0000122C3F80425FFF7BFFF0546A54206D1CF
:10ADC0000A4B0022C3F80425FFF7B6FF70BD51F807
:10ADD00025305A1C03D046F82530FFF7ADFF01356A
:10ADE000ECE71020F2E70920F0E700BF00E00140A7
:10ADF00041F2826398429DBF024B1878C0F3C000B5
:10AE0000012070472339002013B50190000C012860
:10AE10000C4602D07846FDF703FF084A084923682C
:10AE200013600B7843F001030B7083F00203C3F34C
:10AE300040030020137102B010BD00BF1C39002078
:10AE40002339002013B50190000C02280C4602D0D3
:10AE50007846FDF7E5FE084B22681A6022791A71E0
:10AE6000064A002058719871D871137843F0020394
:10AE7000137002B010BD00BF143900202339002028
:10AE800007B50190000C032802D07846FDF7C8FEF4
:10AE900003480522002103B05DF804EB14F058BC10
:10AEA0001C39002007B50190000C042802D0784618
:10AEB000FDF7B6FE03480822002103B05DF804EB5D
:10AEC00014F046BC1439002013B50190000C03287F
:10AED0000C4602D07846FDF7A3FE04490522204621
:10AEE00002B0BDE8104014F025BC00BF1C390020A2
:10AEF00007B50190000C032804D000917846FDF7B7
:10AF00008FFE00990648052214F014FC054A1378B8
:10AF1000002043F00103137003B05DF804FB00BF91
:10AF20001C3900202339002013B50190000C04289F
:10AF30000C4602D07846FDF773FE044908222046ED
:10AF400002B0BDE8104014F0F5BB00BF143900207A
:10AF500007B50190000C042804D000917846FDF755
:10AF60005FFE00990648082214F0E4FB054A1378B6
:10AF7000002043F00203137003B05DF804FB00BF30
:10AF8000143900202339002000B50A4B1A7B9B6836
:10AF90008DB0012A08BF03F1FF330493039002230D
:10AFA00001A88DF808208DF80430FFF745F90DB0A1
:10AFB0005DF804FBC8380020074A1378590709D503
:10AFC0000178122906D10549086805496FF3820303
:10AFD00048601370704700BF233900201C390020DF
:10AFE000C83800201FB5124C2378590602D4784681
:10AFF000FDF716FE23785A0717D40E4A526802F559
:10B000000052B2F1807F02920FD80B4A43F0040342
:10B0100012788DF80C2002A94FF44030237005F00F
:10B02000BDF810B17846FDF7FBFD04B010BD00BFC0
:10B0300023390020C8380020243900201FB5002300
:10B04000ADF80D300C4B9A6802920C4A1B7B8DF8C0
:10B050000C3013780133DBB202A94FF48020137057
:10B060008DF80F3005F09AF810B17846FDF7D8FD4D
:10B0700005B05DF804FB00BFC8380020243900206B
:10B0800007B54FF4403005F0DBF84FF4802005F0B1
:10B09000D7F814220021074814F05AFB064A137807
:10B0A00023F0600343F04003137003B05DF804EB3A
:10B0B000FFF798BFC83800202339002010B50C4C8A
:10B0C00014220021204614F043FB01F067F8094BDD
:10B0D000094A0A499A600022C3E9031258605A617A
:10B0E000074B6260197862F3C301197010BD00BF8D
:10B0F000C8380020A438002079B2020000879303EA
:10B100002339002037B5264D2B78DB062FD4254870
:10B11000254B036000F0DCFD2448254B036000F064
:10B12000D7FD2B7813F0200212D103F00303032B79
:10B13000204C1ED02260A26022732282FFF77EFF85
:10B14000236863602B7843F040032B70FFF74AFFBE
:10B150004FF4803005F074F84FF4003005F070F8CB
:10B16000154800F0B9FF2B7843F010032B7003B0A3
:10B1700030BD124B1A68A2601A79227398795979F6
:10B1800041EA00212182D9790D4B19700D4B1879B4
:10B19000884202D00AB92260D2E71B682360CFE759
:10B1A00023390020BC38002015B3020008390020E4
:10B1B000B9AF0200C8380020A4380020143900209C
:10B1C000243900201C390020034B187880F004003B
:10B1D000C0F38000704700BF2339002010B501F094
:10B1E000E5FC0D4A137BA3B9947B94B9108AFFF751
:10B1F000FFFD70B1012313739368148201339360D0
:10B20000FFF71CFF2046FFF7BFFE01F00FFD2046B1
:10B2100010BD0824F9E700BFC838002010B501F0C0
:10B22000C5FC144A547B9CB1917B09BB108AFFF783
:10B23000DFFD044660B1137B51732BB1012B0BD0A2
:10B240007846FDF7EDFC03E0FFF7C8FF0028F7D1D3
:10B2500001F0ECFC204610BD0846C2E90011117354
:10B260001182FFF791FEFFF7E9FEFFF7BBFEEFE764
:10B270000024EDE7C83800201FB5244C227B2AB1FA
:10B28000012A0FD07846FDF7CBFC1CE0208AFFF79F
:10B29000AFFDC0B1FFF7C2FF638A0BB1013B638210
:10B2A00004B010BD218A0846FFF7A2FD58B142F252
:10B2B000B013994288BF6273FFF7B0FF0028EBD14B
:10B2C000637B002BE8D1238A01339BB21E211846F1
:10B2D0002382B3FBF1F201FB12339BB2002BDBD1D3
:10B2E000A3680293237B8DF80C30094BADF80D0059
:10B2F0001B788DF80F3002A94FF4802004F04EFF28
:10B300000028C9D07846FDF78BFCC5E7C838002077
:10B310002439002010B50378042B0ED143681B7824
:10B320005BB11C4B4269197B047E69BB598AF9B930
:10B33000012C996802D08A4203D810BD4C1CA2424D
:10B3400018D92A318A42F8D8997B0029F5D1846826
:10B350009A60114A1A619981C3E90011FFF76EFEE4
:10B36000FFF740FE04F11000BDE81040FFF70CBEEF
:10B37000012CE2D1996801318A42DED101225A734F
:10B38000BDE81040FFF74ABF0129D6D1012CD4D027
:10B390009968F1E7C83800200000062D38B5184B31
:10B3A0001B785B06054626D5164CD4E900239A4245
:10B3B0001FD2207B144B1549012808BF0B469A4227
:10B3C00007D263682268403B9A4208D3FFF70AFE1F
:10B3D00005E001236373FFF721FF0028F1D0EFF3AD
:10B3E000108072B623685A1C22602B6028B962B69E
:10B3F00038BDFFF7F7FD0F20FAE70020F8E700BFA0
:10B4000023390020C8380020FFFF7F0000E0FF0044
:10B4100010B50C4A1368144628B101200A490344A8
:10B420008873136010BD13B97846FDF7F9FB2368E4
:10B43000013B2360002BF5D1034A9373BDE8104014
:10B44000FFF7ECBE9C380020C838002000B58DB056
:10B450000323ADF8080001A88DF8102003918DF8A2
:10B460000430FEF7E9FE0DB05DF804FB014B98686F
:10B47000704700BFC8380020034B98681B7B012B26
:10B4800008BF00F1FF307047C8380020044B9B68AC
:10B490005840C20748BF03F1FF331846704700BF4A
:10B4A000C8380020014B187B704700BFC838002007
:10B4B00070B50E4E337813F0200415D10C4D43F0C7
:10B4C000200333702973A8602C82FFF7B7FD204654
:10B4D000FFF75AFD337843F04003C5E90044337069
:10B4E000FFF780FD204670BD0820FCE723390020CF
:10B4F000C83800202DE9F3411D4CDFF87880002585
:10B500000221204602F0BEFAEFB201460026B9B988
:10B510006EB12046019102F01CFB0828019906D16A
:10B5200054F8043C1BB10A46384641469847013559
:10B53000032D04F1BC04E3D1012002B0BDE8F08189
:10B5400054F8043C1BB134F80C2C3846984734F8B6
:10B550000C3C02210133204624F80C3C02F0AEFAE8
:10B560000221204602F08EFA01360146CFE700BFE5
:10B570003C3900203008040038B5012104460C3065
:10B5800002F080FA054628B3164BC4F89C3000231D
:10B59000C4F8A03003786268012B07D0022B1BD0BF
:10B5A0007846FDF73DFB4FF4FA7307E081688B1A8C
:10B5B00099084FF4A9734B4303F5FA730A4A93426F
:10B5C00094BFC4F8A830C4F8A8200123C4F8AC4044
:10B5D00084F8B830284638BD83689B1A1A0B034B91
:10B5E0005343E9E711B6020060850100645E010083
:10B5F00010B50446FFF7C0FF48B104F19C0006F007
:10B6000089F820B17846BDE81040FDF709BB10BDB0
:10B610002DE9F74F494B1B7807460C463BB106F026
:10B62000AFF8002384F8B83003B0BDE8F08F01F123
:10B630000C09D1F8A8504846012102F023FA064629
:10B6400010B97846FDF7ECFADFF8F8A0A5F5FA781E
:10B650004FF4A97B00253378012BA8EB050506D014
:10B66000022B3BD07846FDF7DBFA00231FE063682E
:10B67000B268B5FBFBF5D21AAD00954228BF15465E
:10B6800025B901937846FDF7CBFA019BF168706804
:10B6900023F003032A4619441844FFF77DFB10B139
:10B6A0007846FDF7BDFA63681D446560B36862685B
:10B6B0009A422AD106F064F84846012102F0FEF9C8
:10B6C0000023636084F8B8301D4B186801F0FCFA61
:10B6D000204603B0BDE8F04FFFF78ABF6368B26849
:10B6E000B5FBFAF5D21A2D03954228BF154625B9A8
:10B6F00001937846FDF794FA019B706823F00303E9
:10B7000029461844FFF720FBC9E701F041F93378D7
:10B71000C51B48BF3D1A012B0BD0022B0CD078461D
:10B72000FDF77EFA00232B44434594D906F028F810
:10B73000CEE74FF4A973F6E75346F4E72C3900201F
:10B7400028390020645E010070B51B481B4C01F0D5
:10B750009DFA1B4B186004F11C0341F203060825F7
:10B76000636104F10C0004F118032361A681A57341
:10B7700002F0CBF904F1D803C4F8D03004F1C800CA
:10B7800004F1D403C4F8CC30A4F8C86084F8CA50DB
:10B7900002F0BBF904F5CA73C4F88C3104F5C87320
:10B7A000A4F8846184F88651C4F8883104F5C27025
:10B7B000BDE8704002F0A9B9F5B4020030390020AC
:10B7C00028390020022838B504460D4602D97846AB
:10B7D000FDF726FA0248BC2303FB0404A56038BD2C
:10B7E0003039002002282DE9F84F05460C469146D5
:10B7F00002D97846FDF714FA14B97846FDF710FA25
:10B800002378012B12D16368990702D07846FDF79F
:10B8100007FAE3689A0702D07846FDF701FAA368B1
:10B820009B0711D07846FDF7FBF90DE0022B0DD1F7
:10B830006368C3F30B0313B17846FDF7F1F9A3680E
:10B84000C3F30B03002BEDD1A36813B97846FDF7C2
:10B85000E7F9EFF3108872B6BC26234F6E4306F16A
:10B860000C0BBB440021584602F00CF9824690B301
:10B870000021584602F022F910222146504613F0CA
:10B8800059FFB9F1000F03D0BB195B88A9F800304C
:10B89000BC2000FB05756B8895F8B84001336B80C0
:10B8A00004BB124B1D78BDB9B819FFF765FEB8F19E
:10B8B000000F0ED162B6444640B106F19C003844F8
:10B8C00005F028FF10B17846FDF7AAF92046BDE83B
:10B8D000F88F2C46F0E70424B8F1000FF6D1A0460B
:10B8E0000020E7E70024F7E7303900202C3900205A
:10B8F00070B5EFF3108672B6144C236818BB13B9F9
:10B900007846FDF78DF92368013B236093B9104D0C
:10B9100095F8B83013B92846FFF76AFE95F87431E8
:10B9200013B90C48FFF764FE95F8303213B90A4892
:10B93000FFF75EFE2368094A003B18BF012313701E
:10B9400006B962B670BD01332360F3E7643B0020A3
:10B9500030390020EC390020A83A00202C39002092
:10B9600010B1024B800B185C704700BF4008040008
:10B9700012DF704713B501F015FD0446D8B1134B23
:10B980001B685B0617D5124B1B68012B13DD114892
:10B990002F2113F0AFFF80B12F210E4813F0AAFF23
:10B9A000411C0D4B0D4AD3F80435009201947522C9
:10B9B000022002F06BFA02B010BD06485C2113F0C1
:10B9C00099FF08B15C21E8E70249EAE73C2E002034
:10B9D000382E0020440804000010014060080400D4
:10B9E00070B58AB006F08CFB0446002834D00023E2
:10B9F0008DF8103006460FCE05AD0FC533682B60AD
:10BA0000627D052A0CD9207D00F00F03072B07D09B
:10BA100004AB063A04F11D0100F00F0005F000FA36
:10BA2000114B1A68AAB104AB0393237DC3F303033C
:10BA30008DF80430637D062B89BF063B00238DF80B
:10BA4000053004F11D0398BF8DF80530029301A85D
:10BA50009047204606F03EFB06F06CFB80F00100AC
:10BA6000C0B20AB070BD00BF703B002010B5114CD1
:10BA70002378022B8CB005D07846FDF7D1F8012051
:10BA80000CB010BDFFF7A0FB18B90B48FEF7FEFB8A
:10BA9000F5E706F001FB03232C22002101A8237007
:10BAA00013F056FE1D2301A88DF80430FEF7C4FBE9
:10BAB000E5E700BF6C3B00202C2E002000B50A4BB0
:10BAC0001A78042A8DB00CD105221A7000212C227C
:10BAD00001A813F03DFE1C2301A88DF80430FEF7E9
