:020000022000DC
:1070000000FD0320E9ED030011EE030013EE030081
:1070100015EE030017EE030019EE03000000000058
:107020000000000000000000000000001BEE030054
:107030001DEE0300000000001FEE030021EE030020
:1070400023EE030023EE030023EE030023EE0300F0
:1070500023EE030023EE0300898A020023EE0300DF
:1070600023EE030023EE0300CD25030023EE0300EF
:1070700023EE030023EE030023EE030023EE0300C0
:1070800023EE030031C403005DDE020023EE0300A3
:1070900001C5030023EE0300A197020023EE0300C5
:1070A00023EE030023EE030023EE030023EE030090
:1070B00023EE030023EE03000000000000000000A8
:1070C00023EE030023EE030023EE030023EE030070
:1070D00023EE030023EE030023EE030023EE030060
:1070E00023EE030023EE030023EE03000000000064
:1070F0000000000023EE03000000000023EE030068
:10710000000000000000000000000000000000007F
:10711000000000000000000000000000000000006F
:10712000000000000000000000000000000000005F
:10713000000000000000000000000000000000004F
:10714000000000000000000000000000000000003F
:10715000000000000000000000000000000000002F
:10716000000000000000000000000000000000001F
:10717000000000000000000000000000000000000F
:1071800000000000000000000000000000000000FF
:1071900000000000000000000000000000000000EF
:1071A00000000000000000000000000000000000DF
:1071B00000000000000000000000000000000000CF
:1071C00000000000000000000000000000000000BF
:1071D00000000000000000000000000000000000AF
:1071E000000000000000000000000000000000009F
:1071F000000000000000000000000000000000008F
:1072000010B5054C237833B9044B13B10448AFF3E0
:1072100000800123237010BDF82E00200000000024
:10722000B027040008B5034B1BB103490348AFF373
:10723000008008BD00000000FC2E0020B0270400E4
:10724000154B002B08BF134B9D46A3F5803A002138
:107250008B460F461348144A121A19F0EFF90F4BD8
:10726000002B00D098470E4B002B00D098470020F1
:10727000002104000D000D48002802D00C48AFF397
:10728000008019F08BF92000290000F083FF19F02D
:1072900071F900BF0000080000FD0320000000009D
:1072A00000000000F82E0020845D00200000000097
:1072B0000000000041DF704730B52D4B14461B68BD
:1072C000526887B00D4603F4804352B3F3B1294BA3
:1072D0001B68032B1ADD28482F2119F081FAB8B159
:1072E0002F21254819F07CFA411C244B6268D3F801
:1072F0000435049262880392228802926A8801927D
:107300001F4A00920420EA2207F0B2FD07B030BD08
:1073100019485C2119F064FA08B15C21E1E71649CB
:10732000E3E7002BF2D0134B1B68032BEEDD124872
:107330002F2119F055FA90B12F210F4819F050FA6A
:10734000411C0E4B2288D3F8043502926A880192C0
:107350000C4A00920420F02207F08AFDD6E7064886
:107360005C2119F03DFA08B15C21E6E70249E8E743
:107370004C2E0020482E0020780804000010014008
:10738000A60804001209040030B52D4B14461B68F2
:10739000526887B00D4603F4804352B3F3B1294BD2
:1073A0001B68032B1ADD28482F2119F019FAB8B1F0
:1073B0002F21254819F014FA411C244B6268D3F898
:1073C0000435049262880392228802926A880192AC
:1073D0001F4A00920420D92207F04AFD07B030BDB1
:1073E00019485C2119F0FCF908B15C21E1E7164964
:1073F000E3E7002BF2D0134B1B68032BEEDD1248A2
:107400002F2119F0EDF990B12F210F4819F0E8F96B
:10741000411C0E4B2288D3F8043502926A880192EF
:107420000C4A00920420DE2207F022FDD6E706482F
:107430005C2119F0D5F908B15C21E6E70249E8E7DB
:107440004C2E0020482E0020780804000010014037
:107450004A090400A8090400F0B5834D2B680928E7
:10746000044698BF0134590489B018D57F4B1B6876
:10747000032B14DD7E482F2119F0B2F9E0B12F2142
:107480007B4819F0ADF9411C7A4B7B4AD3F804359F
:10749000009201944FF4A272042007F0E9FC013C31
:1074A0000F2C2FD8DFE804F011205D5F2E2E2E2E3A
:1074B0002E616D787A7C88936D485C2119F090F983
:1074C00008B15C21DCE76A49DEE76C4B18884DF6B1
:1074D000EF0142F21072884294BF121852181A80BB
:1074E0009A7801329A700DE0644A138842F2107162
:1074F0008B4238BF0B46A3F51C53103B1380937887
:107500000133937005F03CFE5D4A136803F53713B1
:1075100003F5D863834207D25A498B7801338B70C5
:1075200056498B7801338B700023CDE906332B68E5
:10753000106003F48043102C00F2A582DFE814F001
:107540004A004A00AE00AE00E50010013B016601B2
:107550009101BC01BC0108020802080208023A02BB
:107560007502484BB2E7474ABFE7474A10884DF6D5
:10757000EF0142F21073884294BF1B185B1813800E
:10758000C0E7414A138842F210718B4238BF0B4664
:10759000A3F51C53103BF2E73C4AE7E73B4AF1E70F
:1075A0003A4A50884DF6EF0142F21073884294BF78
:1075B0001B185B185380A5E7344A538842F21071B8
:1075C0008B4238BF0B46A3F51C53103BF2E72D4B03
:1075D000002284E70BB3254B1B68032B1DDD2448D9
:1075E0002F2119F0FDF8002834D02F21204819F060
:1075F000F7F8411C1F4B079AD3F804350492069AFA
:1076000003921E4A9078029012880192204A0092BA
:1076100004204FF4CB7207F02BFC1E4B1E4C1E783F
:1076200016493420002306AA06FB00400DF04AFC50
:107630000828044600F29F82082800F29E82DFE8B4
:1076400010F03B029C029C029C0246029C029C029F
:107650007502460206485C2119F0C2F808B15C21A7
:10766000C4E70349C6E700BF4C2E0020482E002087
:107670007808040000100140D9090400862F00207A
:107680008C2F0020182F0020162F0020002E002005
:10769000EC090400142F00201C2F002003B39E4B84
:1076A0001B68032B1CDD9D482F2119F099F818B396
:1076B0002F219A4819F094F8411C994B079AD3F856
:1076C00004350492069A0392964A907802901288A2
:1076D0000192954A009204204FF4D07207F0C8FB43
:1076E000924B934C1E788F493420002306AA06FB48
:1076F00000400DF069FC9BE788485C2119F070F8A8
:1077000008B15C21D5E78549D7E7BBB1824B1B683F
:10771000032B13DD81482F2119F062F8B8B12F2116
:107720007E4819F05DF8411C7D4B824AD3F8043540
:107730000092042040F2AD1207F09AFB7B4B1878C0
:107740007B4B342200FB02300DF020FD70E77348C4
:107750005C2119F045F808B15C21E1E76F49E3E7E6
:10776000BBB16D4B1B68032B13DD6C482F2119F047
:1077700037F8B8B12F21694819F032F8411C684B2D
:107780006D4AD3F80435009204204FF4D97207F003
:107790006FFB664B1878664B342200FB02300DF00D
:1077A0001DFD45E75D485C2119F01AF808B15C2120
:1077B000E1E75A49E3E7BBB1574B1B68032B13DDE5
:1077C00056482F2119F00CF8B8B12F21534819F061
:1077D00007F8411C524B594AD3F804350092042053
:1077E00040F2B71207F044FB504B1878504B34224C
:1077F00000FB02300DF01AFD1AE748485C2118F032
:10780000EFFF08B15C21E1E74449E3E7BBB1424B3C
:107810001B68032B13DD41482F2118F0E1FFB8B19D
:107820002F213E4818F0DCFF411C3D4B444AD3F861
:107830000435009204204FF4DE7207F019FB3B4B35
:1078400018783B4B342200FB02300DF04FFCEFE682
:1078500032485C2118F0C4FF08B15C21E1E72F49F0
:10786000E3E7BBB12C4B1B68032B13DD2B482F2107
:1078700018F0B6FFB8B12F21284818F0B1FF411C0D
:10788000274B304AD3F804350092042040F2C1124D
:1078900007F0EEFA254B1878254B342200FB023016
:1078A0000DF04CFCC4E61D485C2118F099FF08B1AE
:1078B0005C21E1E71949E3E7D3B1174B1B68032BC0
:1078C00016DD16482F2118F08BFFE0B12F21134849
:1078D00018F086FF411C1C4A114B1288D3F804355E
:1078E00001921A4A0092042040F2C71207F0C0FA2F
:1078F0000E4B15491C780E4B3420002204FB00303F
:107900000DF0A0FB94E605485C2118F069FF08B172
:107910005C21DCE70149DEE7482E002078080400FE
:1079200000100140182F0020440A0400142F0020EA
:107930001C2F0020990A0400B40A0400D20A040093
:10794000EE0A04000B0B0400162F00202F0B04007E
:10795000E3B18D4B1B68032B18DD8C482F2118F0E9
:107960003FFFF0B12F21894818F03AFF411C884AA7
:10797000884B5088D3F80435029012880192864AC9
:10798000009204204FF4E97207F072FA834B8049A9
:107990001C78834B3420002204FB00300DF078FB70
:1079A00046E67A485C2118F01BFF08B15C21DAE753
:1079B0007649DCE703B3744B1B68032B1CDD73486B
:1079C0002F2118F00DFF38B32F21704818F008FF51
:1079D000411C704B079AD3F804350492069A03921F
:1079E000704A90780290128801926F4A00920420A7
:1079F0004FF4EC7207F03CFA684F694C3B78342640
:107A00007343E05A12F064FC3878664906AA00FB1A
:107A100006400DF095FA0BE65C485C2118F0E0FE9C
:107A200008B15C21D1E75949D3E75C4C2278013297
:107A3000D2B2022A28BF00222270002B3CD0524B27
:107A40001B68032B38DD51482F2118F0C9FE88B17F
:107A50002F214E4818F0C4FE411C4E4B2278D3F81B
:107A600004350192514A00924FF4F372042007F05A
:107A7000FFF921E045485C2118F0B2FE08B15C2115
:107A8000E7E74249E9E7BBB13F4B1B68032B13DD36
:107A90003E482F2118F0A4FE80B12F213B4818F05A
:107AA0009FFE411C3B4B424AD3F804350092042010
:107AB00040F2E91207F0DCF909B0F0BD33485C216F
:107AC00018F08EFE08B15C21E8E73049EAE72B6840
:107AD0005A041BD52C4B1B68032B17DD2B482F2179
:107AE00018F07EFEC8B12F21284818F079FE411CFD
:107AF000284B2A4AD3F804350294127801922D4A71
:107B00000092042040F2F51207F0B2F90622322169
:107B10004FF4F03000F022FFCEE71C485C2118F053
:107B20005FFE08B15C21DFE71849E1E72B685B04E1
:107B3000C2D5154B1B68032BBEDD14482F2118F04E
:107B40004FFE78B12F21114818F04AFE411C134A0C
:107B5000104B1278D3F804350192174A009240F284
:107B6000012283E709485C2118F03AFE08B15C2144
:107B7000E9E70649EBE71128A9D0044A40F20521BC
:107B8000204617F05CF997E7482E0020780804009B
:107B9000002E0020001001405D0B0400142F002077
:107BA0001C2F0020182F00208A0B0400D90B040082
:107BB000E00E0400FB0B04001E0C0400012A07B5B4
:107BC0002AD0022A50D0002A70D13C4B1B6859049D
:107BD00016D53B4B1B68032B12DD3A482F2118F0BA
:107BE000FFFD80B12F21374818F0FAFD411C364BBC
:107BF000364AD3F804350092C022042007F038F941
:107C000003B05DF804FB2F485C2118F0E9FD08B1D2
:107C10005C21E8E72B49EAE7062232214FF4F030F5
:107C200000F09CFE254B1B685A04E9D5244B1B68C9
:107C3000032BE5DD23482F2118F0D2FD58B12F2169
:107C4000204818F0CDFD411C1F4B214AD3F80435C4
:107C50000092C522D1E71B485C2118F0C1FD08B194
:107C60005C21EDE71749EFE7144B1B685B04C7D5B0
:107C7000134B1B68032BC3DD12482F2118F0B0FDF6
:107C800058B12F210F4818F0ABFD411C0E4B114A83
:107C9000D3F804350092C922AFE70A485C2118F0F6
:107CA0009FFD08B15C21EDE70649EFE7054ACD21CC
:107CB000032003B05DF804EB17F0C1B84C2E002090
:107CC000482E00207808040000100140480C0400F1
:107CD000680C0400880C040037B5244B1B685B0457
:107CE00017D5234B1B68032B13DD22482F2118F0D7
:107CF00077FD80B32F211F4818F072FD411C1E4BE9
:107D00001E4AD3F80435009204204FF4087207F09D
:107D1000AFF81B4C1B4D2563002301212046A362B5
:107D2000A3850DF09BF820B1124A40F2292117F0EB
:107D300086F80023144865660221E365A4F86030E4
:107D40000DF08CF880B10B4A40F2292103B0BDE858
:107D5000304017F074B807485C2118F041FD08B1B5
:107D60005C21C8E70349CAE703B030BD4C2E0020B0
:107D7000482E00207808040000100140AA0C0400DE
:107D80001C2F0020C40E0400502F002007B50378DC
:107D9000232B2FD1194B1B685B0417D5184B1B687D
:107DA000032B13DD17482F2118F01AFDC8B12F211E
:107DB000144818F015FD411C134B144AD3F8043530
:107DC0000092042040F2171207F052F80322C82153
:107DD0004FF4F03000F0C2FD03B05DF804EB00F0AA
:107DE000E3BB08485C2118F0FBFC08B15C21DFE72D
:107DF0000449E1E703B05DF804FB00BF4C2E00200E
:107E0000482E00207808040000100140CA0C04002D
:107E100010B5044600214FF4F03004EB840400F068
:107E200093FD62003221BDE810404FF4C03000F0F5
:107E300095BD00F0C5BD00001FB503A813F040FAC2
:107E4000144B1B685B0419D5134B1B68032B15DD02
:107E500012482F2118F0C4FC98B12F210F4818F0B8
:107E6000BFFC411C0E4BBDF80C20D3F80435019229
:107E70000C4A009204209B2206F0FAFF05B05DF840
:107E800004FB06485C2118F0ABFC08B15C21E5E777
:107E90000249E7E74C2E0020482E00207808040015
:107EA00000100140E30C040007B51D4B1B685B0488
:107EB00016D51C4B1B68032B12DD1B482F2118F015
:107EC0008FFC18B32F21184818F08AFC411C174B5F
:107ED000174AD3F8043500920420A02206F0C8FF08
:107EE00000F0CEFF00F0F4FFFFF7A6FF00F068FD02
:107EF00000214FF4F03000F027FD0422C8214FF498
:107F0000F03003B05DF804EB00F028BD06485C21BA
:107F100018F066FC08B15C21D5E70349D7E700BF3C
:107F20004C2E0020482E002078080400001001404C
:107F3000FA0C040007B5134B1B685B0416D5124BF3
:107F40001B68012B12DD11482F2118F049FC80B16C
:107F50002F210E4818F044FC411C0D4B0D4AD3F85C
:107F6000043500920220B22206F082FF03B05DF8D1
:107F700004FB06485C2118F033FC08B15C21E8E7FB
:107F80000249EAE74C2E0020482E00207808040021
:107F900000100140140D040070B51C4B1B685B04FD
:107FA00086B00D46144625D5194B1B68032B21DDE1
:107FB00018482F2118F014FCF0B12F21154818F0A3
:107FC0000FFC013069882678134D144A144B002E9B
:107FD00018BF2A46A588D3F8043504956488019112
:107FE000CDE902240F4A0092014640F20F1204200C
:107FF00006F03EFF06B070BD06485C2118F0F0FBAD
:1080000008B15C21DAE70348DCE700BF4C2E002012
:10801000482E0020780804003B0D0400330D0400B6
:10802000001001404B0D040030B5174B1B685B047A
:1080300085B00C4615461BD5144B1B68032B17DD6A
:1080400013482F2118F0CCFBA0B12F21104818F0B5
:10805000C7FB411C0F4B2A88D3F804350292628873
:1080600001920D4A0092042040F2051206F000FF32
:1080700005B030BD06485C2118F0B2FB08B15C21A8
:10808000E4E70349E6E700BF4C2E0020482E00201D
:108090007808040000100140930D040030B5164B21
:1080A0001B685B0485B00C4615461AD5134B1B683C
:1080B000032B16DD12482F2118F092FB98B12F21C7
:1080C0000F4818F08DFB411C0E4B2A88D3F804355D
:1080D0000292628801920C4A00920420FB2206F070
:1080E000C7FE05B030BD06485C2118F079FB08B129
:1080F0005C21E5E70249E7E74C2E0020482E0020EE
:108100007808040000100140C40D0400A0F1310300
:10811000082B07B505D8184603B05DF804EBFFF748
:108120009BB9A0F16103072B01D85738F4E7144B32
:108130001B685B0417D5134B1B68032B13DD124818
:108140002F2118F04DFB88B12F210F4818F048FB64
:10815000411C0E4B0E4AD3F804350092042040F225
:108160001A2206F085FE03B05DF804FB06485C2188
:1081700018F036FB08B15C21E7E70349E9E700BFE7
:108180004C2E0020482E00207808040000100140EA
:10819000E00E040000B5864C864A4FF4C0408DB016
:1081A000042106F049FE2368580419D5824B1B6848
:1081B000032B15DD81482F2118F012FB002800F059
:1081C000B9802F217D4818F00BFB411C7C4B7D4A68
:1081D000D3F804350092042040F24A2206F048FE0B
:1081E00014F0D6FA20B1754A4FF4137116F027FE39
:1081F00000F0F6FB744800F01FFC20B16F4A4FF40A
:10820000147116F01CFE00F0FFFD00F039FE00F0C6
:108210005FFE0021202203A818F010FA01238DF838
:108220000C3007238DF80F3006238DF81430674B80
:1082300007936749674B0B9303A800F077F920B3C6
:108240000B2840F0A680236859041ED55A4E326888
:10825000032A1ADD59482F2118F0C2FA002872D0DB
:108260002F21564818F0BCFA411C554D5A4AD5F8F2
:108270000435009204204FF40F7206F0F9FD2368D4
:108280005A0402D53368032B66DC6421534800F09E
:10829000FBFA4F4B197800297ED1102203A818F061
:1082A000CDF94F4B04934F4B05934F4B07934F4BD7
:1082B000089303A84E4B099300F08EFA20B13F4A71
:1082C00040F26D2116F0BBFD01F0E4FC00F00EFC65
:1082D00000F0A2F820B1394A40F2762116F0AFFD45
:1082E00023685B0418D5344B1B68032B14DD33481B
:1082F0002F2118F075FA002851D02F212F4818F09F
:108300006FFA411C2E4B3B4AD3F8043500920420EF
:108310004FF41E7206F0ACFD00214FF4F03000F077
:1083200013FB0222C8214FF4F03000F017FBFEF7D8
:10833000C1FFFCE721485C2118F052FA08B15C212A
:1083400040E71E4942E71D485C2118F049FA08B190
:108350005C2186E7194988E718482F2118F040FA70
:1083600070B12F21154818F03BFA411C224AD5F86C
:1083700004350092042040F23E2206F079FD84E7A5
:108380000E485C2118F02CFA08B15C21EAE70B4991
:10839000ECE716F047FD78E7FFF74EFD94E7074856
:1083A0005C2118F01DFA08B15C21A7E70349A9E791
:1083B0004C2E00200DEE0200482E0020780804000C
:1083C00000100140F20D0400597402008D7D02007E
:1083D000842F0020D97C0200240E04000D810200AD
:1083E000A97E0200117E0200337E02009B0E040073
:1083F00099120400E00E0400720E040010B5044649
:1084000007F09CFA38B123780E2B04D1BDE8104058
:10841000002004F0B9BC10BD08B513F0B7FF20B1BF
:108420000CF00AF808B10BF089FFBDE8084004F031
:10843000DDBB000070B5837DC27D86B043EA0223B8
:10844000ADF814300546032305A80E46ADF81630E6
:1084500012F002FF0446002845D1288A04AA2946C2
:1084600013F0DAF8044600283DD1BDF81010E88A70
:108470000DF11203324613F0DFFA0446002832D120
:10848000297ED5F8120001F0010104F011F810B1B5
:10849000784601F0C5FBBDF812000FF0CBFB044697
:1084A00008BB174B1B681B031DD5164B1B68062BFF
:1084B00019DD15482F2118F093F9B8B12F21124872
:1084C00018F08EF9411C2A7E104B02F00102D3F8FD
:1084D00004350292D5F8122001920D4A009207202D
:1084E000C62206F0C5FC204606B070BD06485C21D9
:1084F00018F076F908B15C21E1E70349E3E700BF32
:108500004C2E0020482E0020A9120400001001402B
:10851000C812040008B504F07FFF10F09DFF12F0B0
:10852000EBFDBDE8084003F0ABBD000073B50E469F
:108530000546A0B304F0ECFA044668BB12F07AFEDC
:1085400010F0EEFF28690FF045FB044620BB2B7F9F
:108550000193AB69009301466B69124859220FF0F1
:1085600007FE0446C0B92B6A03B1984708F07EFDA8
:1085700012F062FD054610F0EBFC0B2D01D00B282C
:1085800002D1FFF7C7FF0B2413F000FF054608B127
:108590000BF092FE06B13570204602B070BD0E247D
:1085A000FAE700BF902F002008B507F0C7F920B107
:1085B000BDE80840002004F0E7BBBDE808400148E2
:1085C00004F086BB042E002069DF704730B5394DBA
:1085D0002A7887B01AB1012803D0032862D007B0E7
:1085E00030BD002301A9019300F088FF08B116F007
:1085F00019FC0C2200210DEB020018F01FF8BDF849
:108600000C302D4823F47F7323F0030343F4887365
:1086100043F00103ADF80C3000230493ADF814309F
:1086200018F0D6F8019AADF8160003A94120FFF71B
:10863000CBFF08B116F0F6FB01A800F0C7FF08B1A8
:1086400016F0F0FB1D4C236803B19847012302A9E3
:108650000DF10200029313F0C1F908B116F0E2FB2C
:10866000BDF8020012F048FF0DF1010113F068F8A7
:1086700008B116F0D7FB0BF01FFE9DF8011000208B
:108680000CF080FA10B1784601F0CAFA04F0AEFAA4
:1086900008B116F0C7FB00232B706368002B9ED037
:1086A00098479CE700F0FAFF002898D016F0BAFB34
:1086B00095E700BFEA2F0020E8120400EC2F00200D
:1086C00008B503781C2B0CD1064B1B784BB101F07D
:1086D00023F808B116F0A6FBBDE80840024804F0F4
:1086E000F9BA08BDEA2F0020102E002010B5074966
:1086F000074814F0F9FC024638B9064906484969AA
:10870000BDE81040032314F008BD10BD0830002060
:1087100074330020EC2F00204032002010B5037885
:10872000023B082B4AD8DFE803F01E0512494938FE
:1087300049493F00224B9B68002B3FD0007A00281C
:108740003CD0204A01211170BDE8104018471C4B55
:10875000DB68002B32D01B4A117879B300211170ED
:10876000BDE810401847184B1A784AB9144B1B69DA
:1087700013B114490A709847BDE81040FFF7B6BF1F
:10878000124B134801221A7004F0A2FA04F088FA7E
:10879000A0B1BDE8104016F045BB094B0D489969E2
:1087A000102214F0FFFCF3E7D0E90210FFF742FEBD
:1087B00008B116F037FB044B01221A7010BD00BF40
:1087C000EC2F0020E82F0020E92F0020EA2F0020C6
:1087D000102E00204032002070B51C4A1C4E5168FB
:1087E000044686B0106803AB03C31189927A1980DE
:1087F0009A700FCC35460FC594E8070085E807004E
:10880000B36903B3134B0093134A1449144803ABE1
:1088100014F03CFCA8B9134816F04EF80146104875
:1088200014F04EFC68B9104816F0B6F948B90E4875
:1088300016F0E4F901460A4814F042FC08B9FFF7C3
:1088400055FF06B070BD0720FBE700BF041304000E
:10885000EC2F00201D870200083000207433002018
:108860004032002028300020F031002010B5054CA7
:10887000226832B116F018FC002802DB2368984702
:10888000F8E710BDB4330020154B164A10B50C465E
:1088900018600121144813F0D7FF18B1134A4A2178
:1088A00016F0CDFA610C0023E00341F26F728B42A7
:1088B00008BF824210D24FF47A72002317F0DEFC18
:1088C00001460B48002213F0D1FF38B1BDE810403B
:1088D000064A4B2116F0B3BA0521F2E710BD00BFDE
:1088E000B43300206D880200341304000F13040019
:1088F000B833002070B5104C206808B916F092FA11
:108900004FF0A0450D4ED5F8043532685340C5F8F8
:1089100004352368013B236063B9094813F0F2FF73
:108920003268D5F8043523EA0203064A1268134375
:10893000C5F8043570BD00BFD8330020DC330020FB
:10894000E0330020083400204FF0A04311B1C3F8F9
:108950000C057047C3F8080570470000F8B52AB346
:10896000132923D9124B134C5200013A4FF0A04562
:108970001A602060D5F8043518400F4B4FF4FA7692
:10898000186000274FF40040E0FB01674FF47A7253
:1089900000233046394617F071FC00220146074893
:1089A00013F064FF10B92368C5F80C35F8BD00BF9B
:1089B000D8330020DC33002008340020E0330020CE
:1089C00008B5054813F09EFF044B1A684FF0A0430A
:1089D000C3F8082508BD00BFE0330020DC330020C9
:1089E00008B54FF0A04303224FF40051C3F83427D9
:1089F000C3F808154FF48041C3F83827C3F80815A9
:108A00004FF40041C3F83C27C3F80815C3F84027CA
:108A10004FF48032C3F808250548064A012113F0B7
:108A200013FF18B1BDE8084016F0FCB908BD00BF3F
:108A300038130400F5880200D8B10F4B0F4A1860B4
:108A40004FF0A0430020C3F82C27C3F83027C3F809
:108A50006027C3F864270A4B4FF00042C3F8042391
:108A6000C3F87C01074BC02283F8062340221A601A
:108A700070470E20704700BF003400200C00030038
:108A80000060004000E100E0F8B5134B134D144EB8
:108A9000144F0024C3F87C414FF0A04315F8011B8C
:108AA000D3F8102501238B40934310D03368D7F8B7
:108AB0000425991A48BFD11A43F23333994206D993
:108AC000D7F804353360084B20461B6898470134BB
:108AD000042CE1D1F8BD00BF006000403C1304004D
:108AE0000434002000100140003400202DE9F04142
:108AF0000446CEB038B1424D2B685A0403D5414EDE
:108B00003368032B02DC4EB0BDE8F0813E4B1868A1
:108B10000DAB611E04F10F0C1F4611F8012F4FEA37
:108B2000121E02F00F0210F80EE083F800E0825CE3
:108B30005A70614503F10203EFD10023334887F8EF
:108B400020302F2117F04CFE002846D02F212F482F
:108B500017F046FE411CDFF8C4802D4AD8F80435D2
:108B600001922C4A009202974222042006F080F9DA
:108B70002B685B04C7D53368032BC4DD23482F2142
:108B800017F02EFE002831D02F21204817F028FEA4
:108B9000411CE27B2068D8F804350B92A27B0A9234
:108BA000627B0992227B0892E27A0792A27A06926D
:108BB000627A0592227A0492E28852BA92B20392C1
:108BC000A28852BA00BA92B2CDE90102124A0092CA
:108BD0000420432206F04CF995E70C485C2117F07D
:108BE000FFFD08B15C21B2E70849B4E707485C2102
:108BF00017F0F6FD08B15C21C7E70449C9E700BFDB
:108C00004C2E0020482E0020502E0020401304003F
:108C1000681304007A13040082130400001001405A
:108C200072DF704773DF704774DF70472DE9F041E2
:108C30002F4CA2B006460F46904600211022204637
:108C400017F0FCFC2B4A2C491378C3EB431529443D
:108C500021602A49013303F001030D441F211370E1
:108C6000A180A1813C22002104A8A56017F0E6FCA8
:108C7000062301AA8DF813300E9201233C22002115
:108C800013A88DF80230ADF820308DF83C30ADF8E7
:108C90000060CDF824D0ADF80460ADF808800397EB
:108CA00017F0CCFC2246022352F8041B8DF84C30FE
:108CB00004A800F0F5F908B116F0B4F8104AA1685C
:108CC00013A800F0EDF908B116F0ACF80D4A084908
:108CD0000D48FFF7A5FF082804D105490A480022DE
:108CE000FFF79EFF08B116F09DF822B0BDE8F081B5
:108CF0004C3400200C3400200D3400205C34002063
:108D000058340020202E00201C2E0020B0F5202FEB
:108D10000AD20A23B0FBF3F310B1012B38BF0123B1
:108D2000034A9381916070474FF6FF73F5E700BFE8
:108D3000202E002008B5064B01211878FFF772FF9E
:108D400008B116F06FF8BDE80840002004F0B6BD89
:108D50001C2E002008B5054B1878FFF765FF18B1E9
:108D6000BDE8084016F05EB808BD00BF1C2E00200C
:108D700076DF70477ADF70477CDF704769DF7047C6
:108D800016F050B803F0A8BF07B503784BB9408878
:108D90003B21FFF7EDFF08B303B05DF804EB16F0DD
:108DA00041B8012B1AD1134B1B685B0416D5124B2B
:108DB0001B68032B12DD11482F2117F011FD80B124
:108DC0002F210E4817F00CFD411C0D4B0D4AD3F816
:108DD000043500920420682206F04AF803B05DF8DA
:108DE00004FB06485C2117F0FBFC08B15C21E8E7B6
:108DF0000249EAE74C2E0020482E0020C21304004E
:108E000000100140F21304001FB500F047FC08B148
:108E100016F008F8002369460120009300F06EFB6D
:108E200008B115F0FFFF0C22002101A817F006FC85
:108E3000BDF80430114823F47F7323F0030343F497
:108E4000887343F00103ADF8043000230293ADF8BA
:108E50000C3017F0BDFC009AADF80E0001A94120BE
:108E6000FFF78CFF08B115F0DDFF684600F0AEFBA0
:108E700008B115F0D7FF05B05DF804FBE812040057
:108E80001FB5112310488DF8043017F0A1FC0E49CE
:108E900082B201A8FFF770FF08B115F0C3FF0822E6
:108EA0000DEB0200002117F0C9FB084A4FF0C87310
:108EB00002A8CDE90223FFF75DFF08B115F0B2FF6C
:108EC00005B05DF804FB00BFE81204007800C8009C
:108ED00010B58AB001AC08220021204617F0AEFB85
:108EE000124A4FF0C873CDE9012300211C2203A8C8
:108EF00017F0A4FB4FF4803340F6CD41CDE90413C5
:108F000003238DF818300023ADF81A308DF81C308B
:108F1000074B089303A8074B0394099300F040FD07
:108F200008B115F07FFF0AB010BD00BF7800C8007F
:108F3000898D0200818D020070B5EFF3108672B644
:108F40000C4A946801239CB993600B4B0B4DD3F8EA
:108F5000801029401160C3F88050D3F8841051600C
:108F60004FF0FF32C3F88420047006B962B670BDBA
:108F70000370FAE7FC5C002000E100E0FC06FFBDA6
:108F800010B5084B9A685AB150B9EFF3108172B618
:108F9000054A1C6814605C685460986001B962B648
:108FA00010BD00BFFC5C002000E100E06DDF7047F9
:108FB00079DF70477DDF704764DF70472DE9F04F40
:108FC00085B000250E9CBDF83CB0B4F800A001911E
:108FD000074690461E46A9463A884A450DDC45B1EB
:108FE0002388013BA3EB0A039BB2FF2B3AD806F878
:108FF0000A30002005B0BDE8F08F7A6852F82900E9
:10900000039000220DF10B0103A8FFF7D5FF002804
:10901000F0D19DF80B20424521D12288002D14BFAC
:109020000020022002EB0801014459451ADC3DB939
:10903000013292B2019B2280B354228801322280F5
:1090400022880DF10B01324403A8FFF7B5FF002879
:10905000D0D121889DF80B200A442280012509F1F6
:109060000109B9E70C20C5E72DE9F341089FBDF8D8
:1090700024801546CDE90078022204461E46FFF7FB
:109080009DFF50B93346102229462046CDE9087885
:1090900002B0BDE8F041FFF791BF02B0BDE8F0813A
:1090A0002DE9F04F00231788138090F82D3085B0FC
:1090B00006460D46144653B3082F01D80C2027E16D
:1090C00002A8FFF773FF002840F0228123880822BE
:1090D000EA54238801339BB21B222380EA54208860
:1090E000013080B2208006220DF10901284417F0DA
:1090F00097FA23889DF8082006339BB212F0FE02EF
:1091000018BF01222380EA54238801332380B378D7
:10911000FBB123880433BB42D0D802A8FFF748FF35
:10912000002840F0F58023880322EA542388013385
:109130009BB219222380EA542388BDF8082001330A
:109140009BB2E9182380EA54120A4A70238802333A
:109150002380F2789AB12388D91CB942AED8022173
:10916000E954238801339BB201212380E9542388E9
:109170000B449BB22380EA5423880B4423807268FB
:10918000AAB12388D91CB94298D8022192F90020AB
:10919000E954238801339BB20A212380E9542388B0
:1091A00001339BB22380EA5423880133238033891F
:1091B000002B40F0A180338A5BB1CDE900472B46FC
:1091C0000722032106F11000FFF74EFF002840F0B0
:1091D0009F80338B5BB1CDE900472B4615221421CC
:1091E00006F11800FFF740FF002840F09180326A36
:1091F000002A40F09080D6F82480B8F1000F30D0DB
:10920000B8F804302188981C8A1C0244BA423FF600
:1092100055AFFE283FF652AF03336B54238801331A
:109220009BB2FF222380EA54238801339BB2238020
:10923000B8F80020EA54E918120A4A70208802306F
:1092400080B22080B8F804205AB1D8F8081000295C
:109250006BD0284417F0E4F92388B8F804201344AD
:10926000238096F82C30002B40F09A80307800282C
:109270004ED03388012B58D0228802F1020CBC4515
:109280003FF61CAF012805D17378023313449F4287
:10929000FFF414AF023FBF1ABFB202A905EB0C00E6
:1092A000ADF80870FFF786FE90BB3178BDF8083046
:1092B000022900F0BA8072789A4202D3BB4240F28F
:1092C000B280012940F0B380974293B2C0F0AF80E2
:1092D000ADF808300821BDF80830FE2B3FF6EEAEA1
:1092E00022880133AB542288013292B22280A954E1
:1092F0002288134423800BE0CDE900472B46062249
:10930000022106F10800FFF7AFFE00283FF453AF3B
:1093100005B0BDE8F08FB4F800C00CF10603BB4205
:109320003FF6CCAE1188052901D80720F0E76FF48D
:10933000486E01EB0E039BB24FF27D3E7345F4D9AC
:109340005388052BF1D96FF44860181880B2704526
:10935000EBD94FF6FF70814203D0834201D099428E
:10936000E3D8052305F80C30238801339BB2122182
:109370002380E954238801339BB223801188E95468
:10938000E818090A4170238802339BB2238052886F
:10939000EA54E918120A4A702388023323802AE724
:1093A000B36A002BC1D04FF000094FF00C0A4FF008
:1093B000160B96F82C305FFA89F293427FF656AF7F
:1093C000B16A0AFB02F201EB0208B8F80430981CFB
:1093D000FE283FF673AE208803332B5423880133D5
:1093E0009BB2238005F803B0238801339BB223800E
:1093F0008A5AEA54E918120A4A702088023080B268
:109400002080B8F804205AB1D8F8081000298CD070
:10941000284417F005F92388B8F804201344238062
:1094200009F10109C5E7092155E7BB42FBD9ADF8B0
:1094300008704FE701600B6843604A68934204BFBD
:10944000002343607047436843B1026891680B444E
:1094500043605268934204BF0023436070474BDF70
:10946000704700001FB50D4C01A8FFF7F8FF70B959
:10947000214602A8FFF7DEFF039B002BF4D00198E2
:10948000D3E90021904702A8FFF7DDFFF4E70528A4
:1094900001D015F0C7FC04B010BD00BF20140400BB
:1094A00060DF704769DF704761DF704730B5114B8F
:1094B0001B78A9B0E3B1104D94240DF1020103A86B
:1094C000ADF80240FFF7F0FF70B9294601A8FFF799
:1094D000B1FF029B002BF0D003A8D3E900219047F5
:1094E00001A8FFF7B0FFF4E7052801D015F09AFCBA
:1094F00029B030BD9A3400202C140400F0B5064683
:1095000085B00D4600295CD02F4B0B600C2200214A
:1095100001A817F093F8012706232A68ADF8083050
:1095200001A920208DF804608DF80670FFF7BAFFBE
:109530000C22002101A817F081F800242A688DF878
:10954000057001A94020ADF80640FFF7ABFF0C22E3
:10955000214601A817F072F845232A68ADF80630B5
:1095600001A923208DF80460FFF79CFF0C222146FF
:1095700001A817F063F82A688DF8044001A938465D
:10958000FFF790FF0C22214601A817F057F84FF47F
:10959000B0632A68019301A9A120FFF783FF0C2281
:1095A000214601A817F04AF89DF804302A683B4389
:1095B00001A9A0208DF80430FFF774FF204605B004
:1095C000F0BD0E20FBE700BF002E002008B5FFF71E
:1095D00067FF10B9014B01221A7008BD9A340020B0
:1095E00010DF704711DF704713B50446094968461C
:1095F000FFF720FF019808B902B010BDD0E90021A3
:109600002046904718B16846FFF71DFFF2E711208A
:10961000F2E700BF3C14040013B50446074968464E
:10962000FFF708FF019B0BB902B010BD2046D3E93C
:10963000002190476846FFF706FFF3E75414040043
:10964000064B9A6822B11A6822F480021A607047A9
:10965000034B4FF48002C3F880207047FC5C00206D
:1096600000E100E00B4991F816335A09EC2313414D
:10967000DB0706D5084B9A683AB94FF480030B60B4
:10968000704742F2020015F0CDBB1A6842F4800226
:109690001A60704700E100E0FC5C0020F7B5194F4C
:1096A0003C7864BB184E012520463570FFF79CFFBF
:1096B000112821D02046FFF7AFFF144B8DF803404F
:1096C000186801900DF10300FFF736FC104901A85E
:1096D000FFF786FF0446B0FA80F0400938709DF825
:1096E0000300FFF74DFC3CB90A4B34701C70FFF7C8
:1096F000B9FF2846FFF790FF204603B0F0BD0824CD
:10970000FAE700BF9C3400209B340020381404008A
:10971000219A02009D340020F7B5154F3B781BB30A
:10972000144E01203070FFF75FFF11284FF0000545
:109730001CD00220FFF770FF0DF107008DF80750D5
:10974000FFF7FAFBFFF74EFF04469DF807003D7058
:10975000FFF716FC2CB93470FFF772FF0320FFF7F8
:109760005BFF204603B0F0BD0824FAE72C46F8E77B
:109770009C3400209B34002007B508496846FFF759
:1097800059FE019B13B903B05DF804FBD3E9002037
:1097900090476846FFF757FEF3E700BF4814040000
:1097A000FFF7EABF75DF704776DF70477ADF7047F3
:1097B0007BDF7047034B1A8882420CBF184600209B
:1097C000704700BFBC340020024B9B6903B11847AF
:1097D000704700BFA034002073B585B22846FFF75C
:1097E000E9FF044670B1164E027A337B9A420BD2DF
:1097F00000F10A012846FFF7D5FFE8B1112801D092
:10980000FFF7E2FF02B070BD00230372337C43B167
:109810003B212846FFF7C8FF30F0080301D0FFF7CF
:10982000D3FF7369002BEDD000228DF80420ADF832
:10983000065001A89847E5E7237A01332372E1E750
:10984000A034002037B50B46497A0F4A71B9D2E9E6
:1098500001141D7A0246002D18BF2146586813F0E6
:1098600005F808B1FFF7B0FF03B030BD0021197251
:109870005369002BF8D00122ADF806008DF80420C2
:1098800001A89847F0E700BFA03400204B88028869
:109890009A4213D842889A4210D380888A8840F22C
:1098A000F313984294BF031AC31A934206D800F2E6
:1098B000F310904234BF0020012070470020704711
:1098C00070B50388122B014659D004D8102B1ED036
:1098D000112B44D070BD502BFCD12F4BC288DB899B
:1098E0009A42F7D1038A022BF4D186883046FFF7DB
:1098F00061FF05460028EDD001F1120000F08AF862
:1099000038BB686812F0FEFF0028E3D009E0C37B93
:10991000012BDFD14FF6FF70FFF74CFF054620B952
:109920000420BDE87040FFF74FBF8E881B4A0680B9
:10993000002303721368C0F80A305368C0F80E3071
:1099400010310A30FFF7A2FF134B6872DB89002B3E
:10995000C0D129463046BDE87040FFF773BF80880C
:10996000FFF728FF04460028B4D0406812F0CAFF71
:1099700008B1FFF729FF4FF6FF732380AAE7868817
:109980003046FFF717FF05460028A3D008310A30FC
:10999000FFF77CFF6872DCE7A0340020D0340020A1
:1099A000F8B5064648B305460FCD154F3C460FC4E3
:1099B00095E8070084E807003068124C3C60B0B1BD
:1099C000FFF7F4FEC0B93268136823605368636020
:1099D0000D480E4A4FF6FF7303800D4B40F8043FCD
:1099E000002112F031FF002818BF032004E02046B8
:1099F000FFF7DEFE0028EBD0F8BD0E20FCE700BF2D
:109A0000A0340020D0340020BC340020D9970200BC
:109A1000D8340020007800F001007047062070471D
:109A200030B5754B14461B6844F20102904287B072
:109A30000D4603F4804300F0A98022D8012844D0C9
:109A400041F20102904276D0002B58D06B4B1B683C
:109A5000002B54DD6A482F2116F0C2FE002800F0CA
:109A6000BF802F21664816F0BBFE411C654B664A3D
:109A7000D3F80435009201957B22012005F0F8F916
:109A80003DE044F202029042DED1002B37D05B4B26
:109A90001B68002B33DD5A482F2116F0A1FE002849
:109AA0006BD02F21564816F09BFE411C554B228847
:109AB000D3F8043503926268CDE90152534A00920B
:109AC0000120692205F0D4F919E0C3B14B4B1B68A2
:109AD000002B14DD4A482F2116F082FE10B32F21EF
:109AE000474816F07DFE411C464B494AD3F80435E1
:109AF0000092CDE901546022012005F0B9F94FF040
:109B0000A0434FF4F032C3F81825C3F80C25EFF347
:109B1000108372B64DF6AD6C3E4A1378002B68D1B7
:109B200007B030BD36485C2116F05AFE08B15C2102
:109B3000D6E73349D8E7002BE1D0304B1B68002B28
:109B4000DDDD2F482F2116F04BFE68B12F212C4868
:109B500016F046FE411C2B4B2F4AD3F804350092D9
:109B6000CDE901546322C7E725485C2116F038FE91
:109B700008B15C21EBE72249EDE721485C2116F0B2
:109B80002FFE08B15C218DE71D498FE7002BB6D071
:109B90001A4B1B68002BB2DD19482F2116F020FE4E
:109BA000A8B12F21164816F01BFE411C154B226848
:109BB000D3F8043504926268CDE90252A26801929A
:109BC000164A00920120732205F052F997E70C48DB
:109BD0005C2116F005FE08B15C21E3E70849E5E7E2
:109BE00007485C2116F0FCFD08B15C213AE7044906
:109BF0003CE730BF91E700BF4C2E0020482E0020EC
:109C0000601404000010014004150400C414040092
:109C100088140400382E0020A2140400E314040069
:109C200007B500230146ADF800306A46044B0193A6
:109C300044F20200FFF7F4FE03B05DF804FB00BF3E
:109C4000AF17040001461022014816F0E9BC00BF1E
:109C5000F834002010B50C4C0C490822204616F0B0
:109C6000DFFC08220A49A01816F0DAFCA37903F0F9
:109C70000F0343F04003A371237A03F03F0363F023
:109C80007F03237210BD00BFF83400206000001075
:109C9000A400001000487047F83400200022064954
:109CA00013460132202A4B804B6001F8083BF8D163
:109CB000024A1360704700BF0835002008360020B4
:109CC000F0B50C4B0C4D1B68044620227BB1013BC8
:109CD00015F8330050B105EBC3067788A74202D1CF
:109CE00076688E4202D0013AF0D11046F0BD1F23B3
:109CF000EEE700BF083600200835002030B5094ADD
:109D0000094C136804EBC3051F2B69604FF0010178
:109D100004F83310194408BF0023688014BF116091
:109D2000136030BD0836002008350020C0F30C0356
:109D30008B42084438BFA0F50050C01A704700009D
:109D4000F0B50D4B0D4A1E6800218E4212D01568E9
:109D500000230AE052F8044C04EBC30714F8334024
:109D6000844201D17868F0BD01339D42F2D10131C6
:109D70000832EAE70020F6E7943600209C360020FF
:109D800000B58DB048B9991C07D0012101A8CDE9D3
:109D900002328DF8041001F04FFA034B186803F0FB
:109DA00085FF0DB05DF804FBA036002010B50378E8
:109DB000044613B97846FFF733FF607A431C01204D
:109DC0009840013810BD2DE9F0410E468EB0154681
:109DD0001C46074610B97846FFF722FF16B97846A9
:109DE000FFF71EFF636AA27802330593E378A2F1BE
:109DF0000800002B14BF012102210DF1040842428A
:109E00004241434604F10C0004F085F8A3788DF834
:109E10003430237BADF82050022B16FA85F5CDE9BE
:109E200006870B960C950FD1236913B97846FFF777
:109E3000F7FE23690993102305A8ADF8283004F034
:109E400066F80EB0BDE8F0810023F5E7B2F5C07FFB
:109E50002DE9F04781468846174602D97846FFF734
:109E6000DFFE244B00259A4693F848605EB93846D9
:109E700007F099FF702404FB05A4E06648B90024AC
:109E80002046BDE8F0870135042D03F17003EBD1C6
:109E9000F5E730224946204616F0C2FBB8F1010F23
:109EA000E664A4F84A701BD1134BA4F852601B7DE2
:109EB00084F8513084F85060D9F8283063656FF029
:109EC0000103A3620D4BA4F85860A363246401202E
:109ED00002F09EFA702303FB05A585F84880CFE7C2
:109EE0006FF00103A362064BA36584F86860054B1D
:109EF0002466EAE7BC360020A43600205DA60200F6
:109F000071AC020055A6020010B50446C06E07F001
:109F10004CFF04F1300003F0F3F894F84830022BC2
:109F200003D104F1500003F0EBF820467022002129
:109F300016F084FB002084F84800BDE8104002F0D1
:109F400067BA10B590F84830012B8CB0044602D0A7
:109F50007846FFF765FE01238DF80430636D0293A8
:109F600003F00EF9039001A801F066F92046FFF70F
:109F7000CBFF0CB010BD10B50446808A02F0F0FC97
:109F800001281CD1237BD3B194F91620002A18DBB9
:109F9000E27D5AB1022B12D094F90330002B10DB72
:109FA000A378002B0CBF0020072010BDE2780AB96F
:109FB000012B06D1237833B9A378042BF2E71020C4
:109FC000F3E70720F1E70020EFE700001FB50023CB
:109FD0000A468DF80F3028B3023008600DF10F01EA
:109FE000104603F096FF9DF80F30DBB1144B1B6851
:109FF0005B0717D5134B1B68032B13DD12482F216A
:10A0000016F0EEFB98B12F210F4816F0E9FB411C2A
:10A010000E4B0F4AD3F804350092042040F215424B
:10A0200004F026FF9DF80F0005B05DF804FB06481C
:10A030005C2116F0D5FB08B15C21E5E70249E7E7B2
:10A040004C2E0020482E00201D1504000010014059
:10A050003A15040070B50446D4E906122378808AC4
:10A060008CB0D3B1E38805F0BDFE054690B1A68A59
:10A07000E4692C22002101A816F0E0FA04F00104A2
:10A080000F2301A88DF80430ADF80860ADF80A4040
:10A0900001F0D2F828460CB070BD05F09FFEE4E751
:10A0A0002DE9F04F98461378D2F818A0F3B0064681
:10A0B0000D46144623B1D1885046FFF737FE906114
:10A0C000E378A278002BA2F108000DF10C0914BF6F
:10A0D0000121022104F10C0742424B46424138461D
:10A0E00003F019FFA3788DF83C30ADB2E81A80B2C6
:10A0F000CDE90896E378C4F818A006440E964FF010
:10A10000000912AEADF828000D96ADF83090002B86
:10A1100065D04FF0100B04F1240A237BC4F824907F
:10A12000022B02BF2369ADF830B00B93206A21796E
:10A13000524611F0A3FF606A30BB237B022B05D18E
:10A14000E089394612F05EF80028E6D1374B1B68EB
:10A150005B0741D5364B1B68052B3DDD35482F216C
:10A1600016F03EFB002858D02F21324816F038FB5D
:10A17000411C314B314AD3F804350092062040F29D
:10A18000017204F075FE27E007A9FFF71FFF002802
:10A19000CCD02046FFF75EFFF0B9A1780B906D1A86
:10A1A0008DF81C0097E80300A38AADF82A3001223D
:10A1B0000CAB8DF8282083E80300A37D8DF8403098
:10A1C000236A0E9307A8636A0896ADF824500F938C
:10A1D000CDF8448001F030F873B0BDE8F08F227BF9
:10A1E000012AB3D1A146E089B4F814A049F8243F6C
:10A1F000494611F085FF606A07A9FFF7E7FE0028CE
:10A20000C7D160624946504611F07AFF606A07A9DB
:10A21000FFF7DCFE002899D0BBE706485C2116F06A
:10A22000DFFA08B15C21A0E70249A2E74C2E00202A
:10A23000482E00201D150400001001404D1504009B
:10A24000C37D0A7830B5002B3DD0C37822F07F0261
:10A2500003F07F031A430A700B78027803F07F0340
:10A2600043EAC2130B70037863B38378083B5A4206
:10A270005A414B7803F07F0343EAC2134B708A784C
:10A28000C58802F00302C5F3861442EA850223F072
:10A290007F032343D2B28A704B70CB78057A03F0E8
:10A2A0001F03C5F3C10422F0030243EA451322430E
:10A2B000DBB2CB708A70427A23F01F0302F01F02D8
:10A2C0001343CB7030BDC47822F0400343EA8413BB
:10A2D000DBB20B70027923F03F0302F03F0213431D
:10A2E0000B70B9E72DE9F04F824689B00D4609B1F0
:10A2F00000220A600AF10C039AF8504001930127EA
:10A300004FF0000B9AF80900A04203D2002009B0D8
:10A31000BDE8F08FDAF84C1007FA04F20A4264D173
:10A320009AF81720019B8AF80840002A0CBF0C26D7
:10A33000082684429AF80020029306FB04F908BF1D
:10A34000BAF84A608DF818B008BFA6EB0906002AD3
:10A3500014BF4FF004084FF0010806EB0802049206
:10A36000DAF82820039202A8DAF82C20059203F0EC
:10A3700074FF0028CBD1079A904454B99AF853201F
:10A380003AB9DAF818208AF85370C2F30C02AAF826
:10A3900006209AF817209AB99AF8522082B914B177
:10A3A0007846FFF73DFCBAF84A109AF802208A1A5C
:10A3B000DAF86C1053460846FFF705FD8AF852702C
:10A3C00007995046FFF73CFFDAF86C1032464944D3
:10A3D000404616F025F902A803F060FF15B12A687F
:10A3E00001322A60621C8AF850200134E4B289E705
:10A3F00038B590F84830012B044602D07846FFF774
:10A400000FFC02F0BDFE237B074A012B05BFD2E9FA
:10A410000315A37DD16805FB0311014404F130004D
:10A42000BDE8384002F083BEA4360020F0B5C37DFD
:10A4300016468278002B324414BF4FF480734FF4D9
:10A44000C0739342C7B00F467DD3424B002493F8AC
:10A450004810012907D19D8A818A8D4203D1DD8967
:10A46000C1898D4271D00134042C03F17003EED107
:10A470000121FFF7EBFC0546002844D0324639465F
:10A48000C06E16F0CDF8002304A928460493FFF708
:10A4900029FF30F00404064650D1049B13B128462E
:10A4A000FFF7A6FF2C4B1B6813F004034FD02B4B78
:10A4B0001B68032B27DDB5F84A00294B802805AA25
:10A4C0001F6828BF802000231646834202F1020243
:10A4D0001CD10022234806F813202F2116F080F902
:10A4E00018B32F211F4816F07BF9411C1E4B1F4A41
:10A4F000D3F8043501921E4A009202964FF4AC62E2
:10A50000042004F0B5FC204647B0F0BDE96EC95CFC
:10A510004FEA111C01F00F0117F80CC002F802CC31
:10A52000795C02F8011C0133CFE70E485C2116F07C
:10A5300057F908B15C21D5E70A49D7E72846FFF764
:10A54000E3FC3446DFE70924DDE70824DBE71C46AB
:10A55000D9E700BFBC3600204C2E0020482E00203A
:10A56000502E00201D150400001001407615040037
:10A570007A130400F0B50D4691B0044610B9784640
:10A58000FFF74EFB94F84830022B18D1E188A06900
:10A59000FFF7CCFB284AE16913680F0A0E06591C25
:10A5A0001160264A361803F007034FEA031147F1FA
:10A5B000000702EB0313A08A5052C3E902672C2262
:10A5C000002105A8666D16F039F8102305A88DF84E
:10A5D000143006968DF81C5000F02EFE2046FFF732
:10A5E00093FC174B1B685B071BD5164B1B68032B93
:10A5F00017DD15482F2116F0F3F8A0B12F211248CE
:10A6000016F0EEF8411C114BD3F80435029594F87E
:10A61000482001920E4A0092042040F2F31204F006
:10A6200027FC11B0F0BD08485C2116F0D9F808B13C
:10A630005C21E4E70449E6E790360020103600206C
:10A640004C2E0020482E00201D1504000010014053
:10A650008415040008460021FFF78CBF10B591F85F
:10A660004830012B0C4602D07846FFF7D9FA94F80F
:10A6700051305BB1013B84F85130002384F85030F5
:10A68000084BBDE81040186803F010BB217B01297E
:10A69000204603D1BDE81040FFF76CBFBDE8104075
:10A6A000FFF74FBCA03600202DE9F04306468FB0DF
:10A6B00010460F4615469846FFF7CCFC0446002886
:10A6C0005ED195F80390B9F1000F40F0AA80062FF3
:10A6D00056D130787378820102F4FE5242EA930236
:10A6E000604B1F4693F84810012928D1B3F814C0D5
:10A6F000E9898C4523D1D988914220D1B3F858C03B
:10A70000A98ABCF1000F01D08C4518D110F0800F40
:10A71000D6F802204FF070033ED003FB0473A3F879
:10A720005810702000FB047412BAE56C1543E56400
:10A73000002A63D103212046FFF71CFF20E00134EB
:10A74000042C03F17003CDD1474B1B685B0717D571
:10A75000464B1B68012B13DD45482F2116F040F8AE
:10A7600088B12F21424816F03BF8411C414B424A28
:10A77000D3F804350092022040F2776204F078FBAF
:10A780000FB0BDE8F0833A485C2116F029F808B113
:10A790005C21E7E73649E9E703FB0473DB898B4279
:10A7A000BFD0314B1B685A07EAD5304B1B68012BD1
:10A7B000E6DD2F482F2116F013F8B0B12F212C48D9
:10A7C00016F00EF8411C70202A4BAA8AD3F80435E3
:10A7D000029200FB04740220E2890192274A00924F
:10A7E00040F27B6204F044FBCAE721485C2115F08B
:10A7F000F7FF08B15C21E2E71D49E4E72046FFF7D7
:10A80000D5FA854203D12046FFF79BFBB8E700212C
:10A8100084F850102046FFF765FD2046FFF7E8FD5D
:10A82000AEE74846FFF78CFA02460028A8D0D5E9E3
:10A8300003012B6A0B93AB8AADF8223009AB83E896
:10A840000300AB7D8DF830302B788DF82030EB6A2B
:10A850008DF81490CDE906670D93414605A8904701
:10A860008EE700BFBC3600204C2E0020482E002072
:10A870001D15040000100140A7150400D5150400A3
:10A88000F0B589B005460E460192FFF774FB044609
:10A8900038B92B78019A3BB131462846FFF7C6FDFF
:10A8A0000446204609B0F0BDE97DAB78019200294D
:10A8B000134414BF0B210F218B4226D8013304937C
:10A8C00005F10C030293AB6A03938DF81800EB6A51
:10A8D000059302A803F0C1FC04460028E1D10799C2
:10A8E00028464F1CFFF7ACFCEB7D019A3BB131468B
:10A8F000384615F095FE02A803F0D0FCD1E72B46B0
:10A9000039463046FFF75FFAF5E70924C9E700004A
:10A9100010B54FF4E0720021134815F08FFE0024AB
:10A9200005F048FB114B12481C602146802215F0AF
:10A9300085FE104B1049114A11489C75C3E900125D
:10A9400010494CF25032C3E902211A6140F6040268
:10A950009A8203F08DF90C4B18600C4B0C481C606C
:10A96000BDE8104005F036BCBC3600209036002013
:10A9700010360020A436002080969800F04902008E
:10A980006DB1020020A10700A036002094360020FF
:10A99000819D020005F01ABA30B504468DB000283A
:10A9A0005FD00369002B5CD0C369002B59D0856947
:10A9B000002D56D05A788DF804201A780993838A8E
:10A9C00082F001020B2B8DF80320027B09D90121B3
:10A9D000022A8DF8001001D1234A927D5AB904222F
:10A9E0000AE0C17A0029F2D1012A0CBF012200221B
:10A9F0008DF8002031D1082213448DF802200B334A
:10AA00000C22B3FBF2F3013B8DF8093000238DF8E3
:10AA1000083094E8030000238DF8173003AB83E877
:10AA200003002389ADF81430A37A8DF81630236A19
:10AA30000A932046DF2308950B9311F083FC28B17D
:10AA40002378012B14BFFF2320230B93A28A2169B3
:10AA50006846FFF715FF0DB030BD04238DF80230B6
:10AA6000D7E70E20F7E700BFA436002030B50A462E
:10AA700091B00446002860D04368002B5DD0856902
:10AA8000002D5AD003788DF8133000230D9383687E
:10AA90000B2B94BF017B012101F001008DF8100008
:10AAA00000208DF8120031B10733DB08013B8DF82F
:10AAB00019308DF81800D4E9040101238DF82730EE
:10AAC00007AB83E80300E389ADF82430237F8DF8DA
:10AAD0002630236A0C95CDE90E23194B1B685B07C2
:10AAE0001BD5184B1B68062B17DD17482F2115F0B7
:10AAF00077FEC8B12F21144815F072FE411C134B8C
:10AB0000A269D3F80435029222780192104A009289
:10AB1000072040F6030204F0ABF9D4E9011204A8BF
:10AB2000FFF7AEFE11B030BD07485C2115F058FEAE
:10AB300008B15C21DFE70449E1E70E20F2E700BF3E
:10AB40004C2E0020482E00201D150400001001404E
:10AB50001616040070B5037B012B90B004460D4619
:10AB600077D13D4B1B685B0718D53C4B1B68032B0B
:10AB700014DD3B482F2115F033FE00285ED02F2135
:10AB8000374815F02DFE411C364B374AD3F80435B3
:10AB90000092042040F2632204F06AF904AE0B2212
:10ABA0000021304615F04AFD9DF81130E2880896E4
:10ABB00003F0030343EA82038DF811302B0E8DF866
:10ABC00012302B0C8DF813306378022B0CBF8023CE
:10ABD0000023C2F3861242EA03024FF006030993F0
:10ABE0004FF001038DF82C30A38AADF82E304FF0D2
:10ABF00000036DBA8DF810200C93226A8DF81C307A
:10AC00008DF82830E36AADF814500D920F931ED1E1
:10AC10000DF10E0103A811F085FBBDF80C30ADF865
:10AC20002A30A37D0BB1114B5B7D8DF838306FF06E
:10AC3000010107A8FFF71AFF10B070BD08485C219A
:10AC400015F0CEFD08B15C219AE705499CE7E38940
:10AC5000E5E70020F0E700BF4C2E0020482E002042
:10AC60001D1504000010014041160400A436002008
:10AC700010B591F84830022B0C4602D07846FEF70A
:10AC8000CFFF022384F8683094F84830022B06D1B5
:10AC9000E16C2046FFF75EFF08B984F8680010BD3C
:10ACA0002DE9F04F0D469DB0174698460446002802
:10ACB00000F05882002A00F0558221B9092630465A
:10ACC0001DB0BDE8F08F1822394613A815F0A8FC76
:10ACD000237894F900100020DA0981428DF8402091
:10ACE000B4BF0422012295428DF84100E6D39DF8BD
:10ACF0005760EEB103F07F0381428DF843308DF849
:10AD000042002EDA6278A378920102F4FE5242EAFF
:10AD10009302ADF84620DB00E27803F0180343EA23
:10AD2000521302F01F028DF848308DF8492018E0C8
:10AD3000C3F38010002903F03F038DF843008DF822
:10AD4000443008DA94F90130002BB4BF08230423FF
:10AD50008DF84230D6E704231A4495428DF84230EC
:10AD6000ACD30023199398F80030032B02D978460E
:10AD7000FEF756FF98F80020CB4B10A853F822306E
:10AD80001B93FFF7F8F80646002898D101460822E1
:10AD900003A815F053FC788803A911F033FA28B101
:10ADA0009DF8413043F001038DF84130D7E903129B
:10ADB000388905F045F8002855D19DF84130002B21
:10ADC0003FF47DAF13F001031CBF049A14929DF869
:10ADD0004020002A00F0B481BDF846101698FEF716
:10ADE000A5FF179BBDF854C0B0494FEA036A4FEA6C
:10ADF000132B1AEB000A4FF000074BF1000B0B88E6
:10AE0000634506D1D1E902239B4508BF92453FF433
:10AE100056AF0137082F01F11001F0D1A44B4FF0CC
:10AE20000009184693F84820022A25D19A8A6245DB
:10AE300022D1702303FB0909B9F80610D9F81800CC
:10AE4000FEF774FFD9F81C100A0612184FEA1123F6
:10AE500043F100035B4508BF524535D20521484602
:10AE6000FFF788FB0FE09DF8413003F0FE038DF8FB
:10AE70004130002BA1D122E709F10109B9F1040FFA
:10AE800003F17003CED1DDE91612BDF84630BDF8EE
:10AE9000540004F0FFFF002800F0C980DDE916121D
:10AEA000BDF84630BDF8540005F02AF800283FF4FC
:10AEB00006AF10A8FEF77AFF014610A8FFF74AFE7A
:10AEC00010A8FFF7C7F8FAE69B4508BF9245FFF4C4
:10AED000F6AE784B1B685B071CD5774B1B68032BC2
:10AEE00018DD76482F2115F07BFC002800F00E813C
:10AEF0002F21724815F074FC411C714B9DF84820BD
:10AF0000D3F8043501926F4A0092042040F2A33234
:10AF100003F0AEFF99F84830022B02D07846FEF7D6
:10AF20007FFEDFF8A8A1DAF800B002F029F90BEBF8
:10AF3000000109F1300002F0FAF899F80C30012B09
:10AF40001AD199F86830BBB999F84830022B02D071
:10AF50007846FEF765FEDAE901329AF8151002FB31
:10AF6000013A02F00DF900EB0A0109F1500002F07C
:10AF7000DEF8012389F868309DF84810D9F84C3084
:10AF800001228A4013EA020A7FF499AE1343C9F8FA
:10AF90004C309DF8573099F80920002B14BF4FF022
:10AFA000080E4FF00C0E8A42A5F104050EFB01FEBF
:10AFB00040F0B5800EEB0503A9F84A30D9F8182007
:10AFC000169B9A420AD20DF14C0CBCE80F0009F115
:10AFD0000C070FC79CE8030087E80300D9F86C0052
:10AFE000211D2A46704415F01BFB4846D9F84C40F9
:10AFF000FEF7DCFE84427FF462AED9F84C1048467E
:10B00000FFF7A8FD99F80130DA070CD599F8173049
:10B01000D9F86C00B9F84A10002B00F08C80434638
:10B020004A46FFF741FB4846FEF76EFF81E09DF878
:10B0300057209DF84930002A14BF4FF008094FF0FF
:10B040000C0903FB099914BF4FF480734FF4C073CC
:10B0500099453DD9174B1B6859077FF530AE164B04
:10B060001B68002B7FF72BAE14482F2115F0B8FB7F
:10B0700088B12F21114815F0B3FB411C104B124A27
:10B08000D3F804350092CDF8049040F27F320120CD
:10B0900003F0EEFE13E609485C2115F0A1FB08B1B0
:10B0A0005C21E7E70549E9E778160400103600203F
:10B0B000BC3600204C2E0020482E00201D15040018
:10B0C000001001406516040051160400A43600204B
:10B0D0004A46022110A8FEF7B9FE814600287FF4F7
:10B0E000F8AE014610A8FFF735FD2C22494605A809
:10B0F00015F0A4FA10238DF8143005A80223CDF81A
:10B1000018908DF81C3000F097F8D8E516485C21AF
:10B1100015F066FB08B15C21EBE61349EDE6002B68
:10B1200008BF0C27BD423FF449AF04214846FFF752
:10B1300021FA0026C3E543464A46FEF7B1FF72E70F
:10B14000002B3FF4BCAD9DF85730601C691E23B145
:10B15000434610AAFFF7A8FAB1E5434610AAFEF746
:10B160009FFFACE50E26AAE51D150400F7B5184CA7
:10B1700000262546374695F84830012B0BD101A90A
:10B1800028460197FFF7AEF8042801D0019B13B1C0
:10B190002846FFF72DF90136042E05F17005EAD196
:10B1A000002594F84830022B0AD194F86830022B1D
:10B1B00006D1E16C2046FFF7CDFC08B984F86800A1
:10B1C0000135042D04F17004EBD1012003B0F0BD72
:10B1D000BC3600202DE9F8430F46064610B3144B49
:10B1E0001C689846E4B9254600F10409BD4208D11F
:10B1F000104BC3E900650123C8F800302046BDE8C4
:10B20000F88359F835306BB116F9353016F835003A
:10B21000002B09DB50B1FEF793FD38B90135E5E7A6
:10B220000424EBE70E24E9E70B24E7E70F24E5E726
:10B230009436002098360020F8B5074610B97846B5
:10B24000FEF7EEFC0F4E346894B10F4D01232B70C6
:10B2500023791BB954F8043C384698472468002CDD
:10B26000F6D12B78022B03D13168064C09B929702D
:10B27000F8BD0B790E6813B1204603F07FFD31460F
:10B28000F4E700BF803800207C38002010B5044669
:10B2900010B97846FEF7C4FC00232372211D024832
:10B2A000BDE8104003F049BD8038002010B50446C9
:10B2B00010B97846FEF7B4FC074A1378013B012B1E
:10B2C00004D8022313700123237210BD211D0348EB
:10B2D000BDE8104003F052BD7C38002080380020CB
:10B2E0000B888268D25A073222F003021344028884
:10B2F0009BB2043A934288BF00230B80704713B57A
:10B300008368C91AADF806100DF10601FFF7E8FFD2
:10B31000BDF806308068184402B010BD70B506460E
:10B3200015460C4611B97846FEF77AFC16B97846F0
:10B33000FEF776FCB4F1005F24D94FF08053D3F8C8
:10B340000C3103F50023B4EB832F1ED26B1E234474
:10B35000B3F1005F26D94FF08052D2F80C2102F5EC
:10B360000022B3EB822F20D2042D02D87846FEF7BC
:10B3700057FC35800023043D7380B380B460258082
:10B38000A37070BDB4F5000F08D94FF08053D3F807
:10B390000C3103F50053B4EB832FD7D37846FEF777
:10B3A0003FFCD3E7B3F5000F08D94FF08052D2F835
:10B3B0000C2102F50052B3EB822FD5D37846FEF76D
:10B3C0002FFCD1E738B5044610B97846FEF728FCC3
:10B3D0006288A36813449B78012B02D17846FEF75C
:10B3E0001FFCEFF3108572B6A268A18811448B7818
:10B3F000032B0AD12046FFF782FFA368C31A63809C
:10B400000023837005B962B638BD00239370638052
:10B41000A380F7E7F8B50E461546044610B97846FE
:10B42000FEF7FEFB16B97846FEF7FAFB6288A368C2
:10B4300013449B78012B02D17846FEF7F1FB002DD7
:10B4400037D02388043B9BB29D4232D8EFF310875C
:10B4500072B66288A388E81D20F003009A4280B289
:10B4600004D29B1A984210DD042016E018D92188D6
:10B47000891A814209D29842F6D8032981BFA3686C
:10B480009B1804229A70002363806288A1688B183D
:10B490008D5201229A700020336007B962B6F8BD60
:10B4A000A26813449B78002BDED193706380A38045
:10B4B000EBE70920F3E7F8B50D461646044610B948
:10B4C0007846FEF7ADFB15B97846FEF7A9FBAB78D9
:10B4D000012B02D07846FEF7A3FB2B88B34202D2A1
:10B4E0007846FEF79DFB16B97846FEF799FBEFF319
:10B4F000108772B60223AB70E1182E802046FFF74A
:10B50000EFFE6288A38893421FBFA3689B180022A6
:10B510009A7007B962B6F8BD70B50D46044610B909
:10B520007846FEF77DFB15B97846FEF779FBEFF319
:10B53000108672B6A288A36813449A78042A06D1AA
:10B54000211D2046FFF7CCFEA288A36813449A78F9
:10B55000022A05D0032A08D0052006B962B670BDBC
:10B5600003229A702B600020F7E77846FEF758FB1D
:10B57000F9E738B5044610B97846FEF751FBEFF30A
:10B58000108572B6A088A16801448B78042B03D182
:10B590002046FFF7B4FE01468878831E5842584182
:10B5A00005B962B638BD38B5044610B97846FEF71D
:10B5B00037FBEFF3108572B6A088A1680144887844
:10B5C000C31E012B05D9831E5842584105B962B6E6
:10B5D00038BD2046FFF793FE0146F0E7F8B50D466B
:10B5E000044610B97846FEF71BFB15B97846FEF7FE
:10B5F00017FBEFF3108672B6AB78012B19D0032B33
:10B6000022D1A288A36813449D4202D07846FEF757
:10B6100007FB0027AF70211D2046FFF761FEA288BF
:10B62000A36813449B78042B00D1A78006B962B6A7
:10B63000F8BD6288A36813449D4202D07846FEF7A5
:10B64000EFFA0023AB70F1E77846FEF7E9FAEDE791
:10B6500010B5EFF3108472B68288816811448B783C
:10B66000042B02D1FFF74BFE01468878B0FA80F038
:10B67000400904B962B610BD037942799B1A03F5FB
:10B680007F2303F6FF7300EB0330704710B50548C6
:10B6900084681C22002114F0D1FF2046BDE8104030
:10B6A00004F05CB98438002070B5194CE36813B914
:10B6B0007846FEF7B5FA237E13B17846FEF7B0FA66
:10B6C0006368092B02D97846FEF7AAFA114D0026C5
:10B6D000636855F823309847022811D003280DD00D
:10B6E000012810D163680133092B636002D97846C1
:10B6F000FEF796FA237E002BEAD004E06660F9E7B5
:10B70000237E0BB1207070BDBDE87040FFF7BEBF57
:10B7100084380020E416040010B50388044613B9E9
:10B720007846FEF77DFA2088084B04EB800030EA6B
:10B73000030203D06288B2F5FE4F05D104EA03008C
:10B7400000F580500478204410BD00BF00F0FFFFDA
:10B7500070B504460D4647F6FE66FFF7DDFFA842CA
:10B7600007D2844205D24388013B9BB2B342F4D84E
:10B7700070BD0020FCE700000B78032B094B04BFD1
:10B7800000221A761A78012A03D11B7E43B9FFF7EB
:10B790008BBF022A04D10B78032B01D1FFF776BFB0
:10B7A000704700BF8438002010B50C4CE36818784F
:10B7B000002203F58051184404F0D0FC50B9E16830
:10B7C0000846FFF759FF814206D001F58051E1603C
:10B7D000032010BD0120FCE70220FAE78438002096
:10B7E0001FB50A4B02221B688DF800200193084AFE
:10B7F0004FF4805369460120029300F0F3FFB0FA42
:10B8000080F0400905B05DF804FB00BFA4380020BB
:10B81000A03800201FB50123CDE902210190054A7F
:10B820008DF800306946184600F0DCFF05B05DF881
:10B8300004FB00BFA03800202DE9F047254BD86855
:10B8400002794179013A91421F4603D1012058768D
:10B85000BDE8F08700F580531F491C781C440B6835
:10B8600013F8045F1D44FFF707FF6388013B9BB299
:10B8700047F6FE62934200F58056884604D920467A
:10B880003146FFF765FF0446DFF850A04FF001098D
:10B890002CB9B4FA84F464097C760120D8E7D8F88E
:10B8A00000106288284601F5805104F057FC0546D7
:10B8B0000028EED004225146204687F81890FFF762
:10B8C000A9FF28B920463146FFF742FF0446DFE7CB
:10B8D0000020BDE784380020A4380020B018040000
:10B8E00038B5104CE36818784FF6FF7203F58051B5
:10B8F000184404F033FC88B1E36819780B4498428B
:10B900000CD0657E0849094B0422002D08BF19465A
:10B91000FFF780FF20B90120207638BD0120FCE729
:10B920000020FAE784380020B8180400B418040096
:10B9300070B50C4D0C4EE96830680C780430224626
:10B94000FFF768FF58B93268EB6804F0FC04043470
:10B9500014446C611A7813442B61012070BD0020DF
:10B96000FCE700BF84380020A438002008B5054B50
:10B97000054918680422FFF74DFFB0FA80F040092E
:10B9800008BD00BFA43800209038002010B5074B38
:10B99000074C1968E06840F6FC720431FFF73AFF83
:10B9A00010B90120207610BD0020FCE7A43800204B
:10B9B0008438002010B50C4CE1680846FFF75CFEA7
:10B9C00081420AD1094B0A4918680422FFF722FF75
:10B9D00040B901232376022010BD01F58051E160BA
:10B9E0000320F9E70020F7E784380020A43800207E
:10B9F000A83800202DE9F74F324D2B6913B978464E
:10BA0000FEF70EF96B6913B97846FEF709F9DFF80E
:10BA1000B89047F6FE6A6B69D5E9030603EA0908A0
:10BA2000A8EB0308FFF728FE7388013B9BB2534540
:10BA300008F5805800F5805B05D930465946FFF778
:10BA400087FE064668B1344600275C4513D327BB02
:10BA5000012334B1618847F6FF72914201D0002B77
:10BA6000D9D001202AE020460192FFF755FE019A25
:10BA700004461746E9E7228807EB8202904509D978
:10BA800086EA040313EA090F04D16388013B9BB2E1
:10BA90005345E8D90FB90123DCE768693A463146D6
:10BAA000FFF7B8FE48B96A693A446A6114B9784642
:10BAB000FEF7B6F82C610023CBE7002003B0BDE809
:10BAC000F08F00BF8438002000F0FFFF1FB50A4B45
:10BAD0000222DB688DF800200193084A4FF480535E
:10BAE00069460120029300F07DFEB0FA80F0400923
:10BAF00005B05DF804FB00BF84380020A0380020AA
:10BB00001FB540F6F8731B685A1C0CD1374B1A68E6
:10BB1000013202D01A68002A4CD14FF0805251698C
:10BB200013694B4303E0002BF7D0A3F58053304C4F
:10BB3000A3F5805323602F4B1B68DB0223D52E4BCC
:10BB40001B68062B1FDD2D482F2114F049FE00280D
:10BB500032D02F21294814F043FE411C40F6F872E0
:10BB6000274B1268D3F80435501C08BF1F4A2068C1
:10BB700008BF1268CDE90120224A0092072040F256
:10BB8000672203F075F9236819684B1E03332AD81E
:10BB9000C1F30B033BBB1C4A1C48D160012111704F
:10BBA0001B491383936001330A2B0ED17846FEF7AD
:10BBB00037F80FE01B68B8E710485C2114F010FE5E
:10BBC00008B15C21C6E70D49C8E751F8234084421B
:10BBD000E9D1536001200F4900F0F4FDFFF764FD47
:10BBE000012004B010BD0020FBE700BF14100010BE
:10BBF000A43800204C2E0020482E00208816040077
:10BC000000100140B016040084380020CDBA0200B4
:10BC1000E416040079B7020010B5044610B978465E
:10BC2000FDF7FEFF094A107860B1E068D1684379FA
:10BC3000A0EB0333994206D3FFF71EFD81428CBF70
:10BC40000020012010BD0020FCE700BF8438002048
:10BC5000024B1878003818BF012070478438002044
:10BC600038B50E4C2378054613B17846FDF7D8FF5A
:10BC70002B78032B02D07846FDF7D2FFEB68E36008
:10BC8000012000230649A56063602070238300F033
:10BC900099FDBDE83840FFF707BD00BF843800209C
:10BCA00079B70200014B1868704700BFA438002024
:10BCB00010B5044610B97846FDF7B2FF63681BB1B2
:10BCC00023680BB1A36813B97846FDF7A9FFA368F1
:10BCD0005A1E1A4202D07846FDF7A2FF0023C4E99B
:10BCE000033310BD70B50E460446F0B18368F3B15E
:10BCF000EFF3108572B6D0E90331994203D105B94B
:10BD000062B605250FE04EB18368013B0B40D0E9D8
:10BD10000012304602FB031114F082FC2369013348
:10BD2000236135B962B6284670BD0E25FBE70925AB
:10BD3000F9E70025F7E70000024AD2F80034002BAB
:10BD4000FBD0704700E0014038B5C0F30B05EDB9FA
:10BD5000F1B1104C0223C4F80435FFF7EDFF01F6F2
:10BD6000FF7121F47F6121F00F010144884206D167
:10BD70000023C4F80435FFF7DFFF284638BDC4F8B8
:10BD80000805FFF7D9FF00F58050EFE71025F4E72D
:10BD90000925F2E700E0014040EA010370B50646DC
:10BDA00098071ED1FAB112F003001CD10F4B940872
:10BDB0000122C3F80425FFF7BFFF0546A54206D1BF
:10BDC0000A4B0022C3F80425FFF7B6FF70BD51F8F7
:10BDD00025305A1C03D046F82530FFF7ADFF01355A
:10BDE000ECE71020F2E70920F0E700BF00E0014097
:10BDF00041F2826398429DBF024B1878C0F3C000A5
:10BE0000012070473339002013B50190000C012840
:10BE10000C4602D07846FDF703FF084A084923681C
:10BE200013600B7843F001030B7083F00203C3F33C
:10BE300040030020137102B010BD00BF2C39002058
:10BE40003339002013B50190000C02280C4602D0B3
:10BE50007846FDF7E5FE084B22681A6022791A71D0
:10BE6000064A002058719871D871137843F0020384
:10BE7000137002B010BD00BF2439002033390020F8
:10BE800007B50190000C032802D07846FDF7C8FEE4
:10BE900003480522002103B05DF804EB14F0CEBB8B
:10BEA0002C39002007B50190000C042802D07846F8
:10BEB000FDF7B6FE03480822002103B05DF804EB4D
:10BEC00014F0BCBB2439002013B50190000C0328EA
:10BED0000C4602D07846FDF7A3FE04490522204611
:10BEE00002B0BDE8104014F09BBB00BF2C3900200D
:10BEF00007B50190000C032804D000917846FDF7A7
:10BF00008FFE00990648052214F08AFB054A137833
:10BF1000002043F00103137003B05DF804FB00BF81
:10BF20002C3900203339002013B50190000C04286F
:10BF30000C4602D07846FDF773FE044908222046DD
:10BF400002B0BDE8104014F06BBB00BF24390020E4
:10BF500007B50190000C042804D000917846FDF745
:10BF60005FFE00990648082214F05AFB054A137830
:10BF7000002043F00203137003B05DF804FB00BF20
:10BF8000243900203339002000B50A4B1A7B9B6806
:10BF90008DB0012A08BF03F1FF33049303900223FD
:10BFA00001A88DF808208DF80430FFF745F90DB091
:10BFB0005DF804FBD8380020074A1378590709D5E3
:10BFC0000178122906D10549086805496FF38203F3
:10BFD00048601370704700BF333900202C390020AF
:10BFE000D83800201FB5124C2378590602D4784661
:10BFF000FDF716FE23785A0717D40E4A526802F549
:10C000000052B2F1807F02920FD80B4A43F0040332
:10C0100012788DF80C2002A94FF44030237005F0FF
:10C02000AFF810B17846FDF7FBFD04B010BD00BFBE
:10C0300033390020D8380020343900201FB50023C0
:10C04000ADF80D300C4B9A6802920C4A1B7B8DF8B0
:10C050000C3013780133DBB202A94FF48020137047
:10C060008DF80F3005F08CF810B17846FDF7D8FD4B
:10C0700005B05DF804FB00BFD8380020343900203B
:10C0800007B54FF4403005F0CDF84FF4802005F0AF
:10C09000C9F814220021074814F0D0FA064A137890
:10C0A00023F0600343F04003137003B05DF804EB2A
:10C0B000FFF798BFD83800203339002010B50C4C5A
:10C0C00014220021204614F0B9FA01F059F8094B66
:10C0D000094A0A499A600022C3E9031258605A616A
:10C0E000074B6260197862F3C301197010BD00BF7D
:10C0F000D8380020B438002079C2020000879303AA
:10C100003339002037B5264D2B78DB062FD4254850
:10C11000254B036000F0DCFD2448254B036000F054
:10C12000D7FD2B7813F0200212D103F00303032B69
:10C13000204C1ED02260A26022732282FFF77EFF75
:10C14000236863602B7843F040032B70FFF74AFFAE
:10C150004FF4803005F066F84FF4003005F062F8D7
:10C16000154800F0ABFF2B7843F010032B7003B0A1
:10C1700030BD124B1A68A2601A79227398795979E6
:10C1800041EA00212182D9790D4B19700D4B1879A4
:10C19000884202D00AB92260D2E71B682360CFE749
:10C1A00033390020CC38002015C302001839002094
:10C1B000B9BF0200D8380020B4380020243900204C
:10C1C000343900202C390020034B187880F004000B
:10C1D000C0F38000704700BF3339002010B501F074
:10C1E000D7FC0D4A137BA3B9947B94B9108AFFF74F
:10C1F000FFFD70B1012313739368148201339360C0
:10C20000FFF71CFF2046FFF7BFFE01F001FD2046AF
:10C2100010BD0824F9E700BFD838002010B501F0A0
:10C22000B7FC144A547B9CB1917B09BB108AFFF781
:10C23000DFFD044660B1137B51732BB1012B0BD092
:10C240007846FDF7EDFC03E0FFF7C8FF0028F7D1C3
:10C2500001F0DEFC204610BD0846C2E90011117352
:10C260001182FFF791FEFFF7E9FEFFF7BBFEEFE754
:10C270000024EDE7D83800201FB5244C227B2AB1DA
:10C28000012A0FD07846FDF7CBFC1CE0208AFFF78F
:10C29000AFFDC0B1FFF7C2FF638A0BB1013B638200
:10C2A00004B010BD218A0846FFF7A2FD58B142F242
:10C2B000B013994288BF6273FFF7B0FF0028EBD13B
:10C2C000637B002BE8D1238A01339BB21E211846E1
:10C2D0002382B3FBF1F201FB12339BB2002BDBD1C3
:10C2E000A3680293237B8DF80C30094BADF80D0049
:10C2F0001B788DF80F3002A94FF4802004F040FF26
:10C300000028C9D07846FDF78BFCC5E7D838002057
:10C310003439002010B50378042B0ED143681B7804
:10C320005BB11C4B4269197B047E69BB598AF9B920
:10C33000012C996802D08A4203D810BD4C1CA2423D
:10C3400018D92A318A42F8D8997B0029F5D1846816
:10C350009A60114A1A619981C3E90011FFF76EFED4
:10C36000FFF740FE04F11000BDE81040FFF70CBEDF
:10C37000012CE2D1996801318A42DED101225A733F
:10C38000BDE81040FFF74ABF0129D6D1012CD4D017
:10C390009968F1E7D83800200000062D38B5184B11
:10C3A0001B785B06054626D5164CD4E900239A4235
:10C3B0001FD2207B144B1549012808BF0B469A4217
:10C3C00007D263682268403B9A4208D3FFF70AFE0F
:10C3D00005E001236373FFF721FF0028F1D0EFF39D
:10C3E000108072B623685A1C22602B6028B962B68E
:10C3F00038BDFFF7F7FD0F20FAE70020F8E700BF90
:10C4000033390020D8380020FFFF7F0000E0FF0014
:10C4100010B50C4A1368144628B101200A49034498
:10C420008873136010BD13B97846FDF7F9FB2368D4
:10C43000013B2360002BF5D1034A9373BDE8104004
:10C44000FFF7ECBEAC380020D838002000B58DB026
:10C450000323ADF8080001A88DF8102003918DF892
:10C460000430FEF7E9FE0DB05DF804FB014B98685F
:10C47000704700BFD8380020034B98681B7B012B06
:10C4800008BF00F1FF307047D8380020044B9B688C
:10C490005840C20748BF03F1FF331846704700BF3A
:10C4A000D8380020014B187B704700BFD8380020D7
:10C4B00070B50E4E337813F0200415D10C4D43F0B7
:10C4C000200333702973A8602C82FFF7B7FD204644
:10C4D000FFF75AFD337843F04003C5E90044337059
:10C4E000FFF780FD204670BD0820FCE733390020AF
:10C4F000D83800202DE9F3411D4CDFF87880002565
:10C500000221204602F0B0FAEFB201460026B9B986
:10C510006EB12046019102F00EFB0828019906D168
:10C5200054F8043C1BB10A46384641469847013549
:10C53000032D04F1BC04E3D1012002B0BDE8F08179
:10C5400054F8043C1BB134F80C2C3846984734F8A6
:10C550000C3C02210133204624F80C3C02F0A0FAE6
:10C560000221204602F080FA01360146CFE700BFE3
:10C570004C3900201C17040038B5012104460C304A
:10C5800002F072FA054620B3164BC4F89C30002323
:10C59000C4F8A03003786268012B07D0022B1AD0B0
:10C5A0007846FDF73DFB4FF4FA7306E081688B1A7D
:10C5B000990829234B4303F5FA730B4A934294BF1E
:10C5C000C4F8A830C4F8A8200123C4F8AC4084F80B
:10C5D000B830284638BD83689B1A1A0B034B534367
:10C5E000E9E700BF11C6020060850100084C0100A8
:10C5F00010B50446FFF7C0FF48B104F19C0006F0F7
:10C600007BF820B17846BDE81040FDF709BB10BDAE
:10C610002DE9F74F494B1B7807460C463BB106F016
:10C62000A1F8002384F8B83003B0BDE8F08F01F121
:10C630000C09D1F8A8504846012102F015FA064627
:10C6400010B97846FDF7ECFADFF8F8A0A5F5FA780E
:10C650004FF0290B00253378012BA8EB050506D0F8
:10C66000022B3BD07846FDF7DBFA00231FE063681E
:10C67000B268B5FBFBF5D21AAD00954228BF15464E
:10C6800025B901937846FDF7CBFA019BF1687068F4
:10C6900023F003032A4619441844FFF77DFB10B129
:10C6A0007846FDF7BDFA63681D446560B36862684B
:10C6B0009A422AD106F056F84846012102F0F0F9D4
:10C6C0000023636084F8B8301D4B186801F0EEFA5F
:10C6D000204603B0BDE8F04FFFF78ABF6368B26839
:10C6E000B5FBFAF5D21A2D03954228BF154625B998
:10C6F00001937846FDF794FA019B706823F00303D9
:10C7000029461844FFF720FBC9E701F033F93378D5
:10C71000C51B48BF3D1A012B0BD0022B0BD078460E
:10C72000FDF77EFA00232B44434594D906F01AF80E
:10C73000CEE72923F7E75346F5E700BF3C39002051
:10C7400038390020084C010070B51B481B4C01F023
:10C750008FFA1B4B186004F11C0341F203060825F5
:10C76000636104F10C0004F118032361A681A57331
:10C7700002F0BDF904F1D803C4F8D03004F1C800C8
:10C7800004F1D403C4F8CC30A4F8C86084F8CA50CB
:10C7900002F0ADF904F5CA73C4F88C3104F5C8731E
:10C7A000A4F8846184F88651C4F8883104F5C27015
:10C7B000BDE8704002F09BB9F5C40200403900208A
:10C7C00038390020022838B504460D4602D978468B
:10C7D000FDF726FA0248BC2303FB0404A56038BD1C
:10C7E0004039002002282DE9F84F05460C469146B5
:10C7F00002D97846FDF714FA14B97846FDF710FA15
:10C800002378012B12D16368990702D07846FDF78F
:10C8100007FAE3689A0702D07846FDF701FAA368A1
:10C820009B0711D07846FDF7FBF90DE0022B0DD1E7
:10C830006368C3F30B0313B17846FDF7F1F9A368FE
:10C84000C3F30B03002BEDD1A36813B97846FDF7B2
:10C85000E7F9EFF3108872B6BC26234F6E4306F15A
:10C860000C0BBB440021584602F0FEF8824690B300
:10C870000021584602F014F910222146504613F0C8
:10C88000CFFEB9F1000F03D0BB195B88A9F80030C7
:10C89000BC2000FB05756B8895F8B84001336B80B0
:10C8A00004BB124B1D78BDB9B819FFF765FEB8F18E
:10C8B000000F0ED162B6444640B106F19C003844E8
:10C8C00005F01AFF10B17846FDF7AAF92046BDE839
:10C8D000F88F2C46F0E70424B8F1000FF6D1A046FB
:10C8E0000020E7E70024F7E7403900203C3900202A
:10C8F00070B5EFF3108672B6144C236818BB13B9E9
:10C900007846FDF78DF92368013B236093B9104DFC
:10C9100095F8B83013B92846FFF76AFE95F87431D8
:10C9200013B90C48FFF764FE95F8303213B90A4882
:10C93000FFF75EFE2368094A003B18BF012313700E
:10C9400006B962B670BD01332360F3E7743B002083
:10C9500040390020FC390020B83A00203C39002042
:10C9600010B1024B800B185C704700BF2C170400FD
:10C9700012DF704713B501F007FD0446D8B1134B21
:10C980001B685B0617D5124B1B68012B13DD114882
:10C990002F2113F025FF80B12F210E4813F020FF27
:10C9A000411C0D4B0D4AD3F80435009201947522B9
:10C9B000022002F05DFA02B010BD06485C2113F0BF
:10C9C0000FFF08B15C21E8E70249EAE74C2E00209E
:10C9D000482E002030170400001001404C170400BE
:10C9E00070B58AB006F07EFB0446002834D00023E0
:10C9F0008DF8103006460FCE05AD0FC533682B609D
:10CA0000627D052A0CD9207D00F00F03072B07D08B
:10CA100004AB063A04F11D0100F00F0005F0F2F935
:10CA2000114B1A68AAB104AB0393237DC3F303032C
:10CA30008DF80430637D062B89BF063B00238DF8FB
:10CA4000053004F11D0398BF8DF80530029301A84D
:10CA50009047204606F030FB06F05EFB80F00100B8
:10CA6000C0B20AB070BD00BF803B002010B5114CB1
:10CA70002378022B8CB005D07846FDF7D1F8012041
:10CA80000CB010BDFFF7A0FB18B90B48FEF7FEFB7A
:10CA9000F5E706F0F3FA03232C22002101A8237006
:10CAA00013F0CCFD1D2301A88DF80430FEF7C4FB64
:10CAB000E5E700BF7C3B00203C2E002000B50A4B80
:10CAC0001A78042A8DB00CD105221A7000212C226C
:10CAD00001A813F0B3FD1C2301A88DF80430FEF764
