:020000022000DC
:1060000000FD002001B8030029B803002BB80300ED
:106010002DB803002FB8030031B8030000000000C2
:1060200000000000000000000000000033B8030082
:1060300035B803000000000037B8030039B803008A
:106040003BB803003BB803003BB803003BB8030078
:106050003BB803003BB80300D97802003BB803000B
:106060003BB803003BB80300D1A603003BB80300D4
:106070003BB803003BB803003BB803003BB8030048
:106080003BB80300451903001D6203003BB8030041
:10609000151A03003BB80300BD7D02003BB80300A6
:1060A0003BB803003BB803003BB803003BB8030018
:1060B0003BB803003BB803000000000000000000F4
:1060C0003BB803003BB803003BB803003BB80300F8
:1060D0003BB803003BB803003BB8030000000000DE
:1060E00000000000000000000000000000000000B0
:1060F00000000000000000000000000000000000A0
:10610000000000000000000000000000000000008F
:10611000000000000000000000000000000000007F
:10612000000000000000000000000000000000006F
:10613000000000000000000000000000000000005F
:10614000000000000000000000000000000000004F
:10615000000000000000000000000000000000003F
:10616000000000000000000000000000000000002F
:10617000000000000000000000000000000000001F
:10618000000000000000000000000000000000000F
:1061900000000000000000000000000000000000FF
:1061A00000000000000000000000000000000000EF
:1061B00000000000000000000000000000000000DF
:1061C00000000000000000000000000000000000CF
:1061D00000000000000000000000000000000000BF
:1061E00000000000000000000000000000000000AF
:1061F000000000000000000000000000000000009F
:1062000010B5054C237833B9044B13B10448AFF3F0
:1062100000800123237010BDA82E00200000000084
:1062200090F0030008B5034B1BB103490348AFF3DB
:10623000008008BD00000000AC2E002090F003009C
:10624000154B002B08BF134B9D46A3F5803A002148
:106250008B460F461348144A121A16F0FBFE0F4BDA
:10626000002B00D098470E4B002B00D09847002001
:10627000002104000D000D48002802D00C48AFF3A7
:10628000008016F097FE2000290001F00FF816F0AC
:106290007DFE00BF0000080000FD0020000000009F
:1062A00000000000A82E00205C5600200000000026
:1062B0000000000041DF704738B5174A1748002139
:1062C00002F0E4FD20B1164A4FF4E57115F0C3FA6F
:1062D000144D124C2988208809F042F820B1104A48
:1062E00040F2CB1115F0B7FA2988208809F0A4F8FC
:1062F00020B10B4A4FF4E67115F0ADFA2088062163
:1063000009F004F930B1BDE83840054A40F2CD113A
:1063100015F0A1BA38BD00BF296302004432002045
:1063200090D20300C42E00202DE9F0417B4D02786D
:106330002B680A2AC6B0044603F4804321D00B2AF6
:106340004CD0042A40F0C180BBB1754B1B68032BB5
:1063500013DD74482F2116F04FFF002835D02F2170
:10636000704816F049FF411C6F4B704AD3F8043552
:1063700000920420FC2210F0CBFE6D4B00221A701C
:1063800017E0B3B1664B1B68032B12DD65482F2164
:1063900016F032FF80B12F21624816F02DFF411C0C
:1063A000614B644AD3F8043500920420F82210F0BF
:1063B000AFFE46B0BDE8F0815A485C2116F01CFFE4
:1063C00008B15C21E8E75749EAE756485C2116F036
:1063D00013FF08B15C21C3E75249C5E71BB1504E1A
:1063E0003368032B0FDC207A534D616800EB0010FB
:1063F0002844102216F020FE237A03EB03131D44D9
:1064000001232B74D5E74D4B4268D3F800C005AB90
:10641000501E1F460F3210F8011F4FEA111E01F0E7
:106420000F011CF80EE083F800E01CF80110597011
:10643000824203F10203EED100233A4887F820306C
:106440002F2116F0D9FE70B32F21364816F0D4FE56
:10645000411CDFF8D4803A4AD8F804350192394A11
:106460000092029740F20112042010F051FE2B68B6
:106470005B04B8D53368032BB5DD2A482F2116F00D
:10648000BBFEC8B12F21274816F0B6FE411C227A68
:10649000D8F8043501922C4A009204204FF48172FE
:1064A00010F036FE9FE71F485C2116F0A5FE08B1EC
:1064B0005C21CAE71B49CCE71A485C2116F09CFE18
:1064C00008B15C21DFE71749E1E7002B3FF471AF2A
:1064D000134B1B68032B7FF76CAF12482F2116F06C
:1064E0008BFE88B12F210F4816F086FE411C0E4B03
:1064F0002278D3F804350192144A009204204FF414
:10650000847210F005FE54E706485C2116F074FE14
:1065100008B15C21E7E70349E9E700BF1C2E002032
:10652000182E002090D2030000100140DAD20300A0
:10653000BB320020B8D2030088320020202E002079
:10654000F6D2030006D303000ED303001DD30300CD
:106550002DE9F041244D254F254CDFF8A48086B06D
:1065600000263B68B34202D806B0BDE8F081288817
:1065700004A90AF073FA20B122464FF4897115F08C
:106580006AF99DF81030012B02D078460BF080FD9F
:10659000184B1B685B041BD5174B1B68032B17DDBF
:1065A0002F21204616F028FEA8B12F21204616F0F4
:1065B00023FE411C2A88D8F804350292BDF8122027
:1065C00001920E4A0092042040F2151210F0A0FD34
:1065D00001360235C5E75C21204616F00DFE08B1F4
:1065E0005C21E3E72146E5E7C62E0020E02E0020EF
:1065F00090D203001C2E0020182E00202BD3030065
:10660000001001402DE9F0411C4A8AB003AC064657
:106610000F4602F11003A04610685168254603C5D5
:1066200008329A422C46F7D10022154BADF81C20B7
:10663000ADF81E20ADF820209DF824201B881149BC
:106640001148ADF8223022F003028DF8242002F028
:1066500071FF18B10D4A9E2115F0FDF80C48009706
:1066600043460522314602F067FF18B1074A9F21D1
:1066700015F0F1F80AB0BDE8F08100BF45D3030082
:10668000F02D0020E62E00200432002090D20300DE
:10669000D03000202DE9F7439D4C2378062B00F2E3
:1066A000C183DFE813F00700070016023B02E20295
:1066B00033039A030D2815DC431C16DB012301303C
:1066C00003FA00F044F6010318420ED003B0BDE80F
:1066D000F083042809D8DFE810F024005100A1005D
:1066E000FF00440131380428F3D98A4B1B68580451
:1066F000ECD5894B1B68032BE8DD88482F2116F069
:106700007BFD002800F0DC812F21844816F074FD09
:10671000411C834B834AD3F8043500924FF4BD7279
:106720001CE0814B1B68042B25D97A4B1B685F0446
:10673000CCD5794B1B68032BC8DD78482F2116F088
:106740005BFD78B12F21754816F056FD411C744B46
:10675000764AD3F8043500924FF49472042010F076
:10676000D7FCB3E76D485C2116F046FD08B15C210B
:10677000E9E76A49EBE701232370A7E7654B6A4A1B
:106780001B68126803F480432AB3BBB1624B1B68D9
:10679000032B13DD61482F2116F02EFD90B12F2120
:1067A0005E4816F029FD411C5D4B614AD3F8043563
:1067B000009204204FF49A7210F0AAFCFFF7C8FE72
:1067C0000323D9E755485C2116F016FD08B15C217A
:1067D000E6E75249E8E7002B3FF478AF4E4B1B68E1
:1067E000032B7FF773AF4D482F2116F005FD60B1E5
:1067F0002F214A4816F000FD411C494B4D4AD3F861
:10680000043500924FF49D72A8E744485C2116F0CD
:10681000F3FC08B15C21ECE74049EEE7464B1B78FE
:10682000002B34D003220021444816F013FC4448C6
:1068300002F06CFB054640B3364B1B685E047FF5E7
:1068400045AF354B1B68002B7FF740AF33482F21F6
:1068500016F0D2FC80B12F21304816F0CDFC411C3F
:106860002F4B384AD3F80435009201954FF4A372A8
:10687000012010F04DFC29E728485C2116F0BCFCF3
:1068800008B15C21E8E72549EAE7042374E7214BD6
:106890001B685C047FF51AAF1F4B1B68032B7FF747
:1068A00015AF1E482F2116F0A7FC60B12F211B4801
:1068B00016F0A2FC411C1A4B234AD3F8043500926F
:1068C00040F24F124AE715485C2116F095FC08B1DA
:1068D0005C21ECE71149EEE70E4B1B6858047FF58D
:1068E000F5AE0D4B1B68032B7FF7F0AE0B482F2145
:1068F00016F082FC60B32F21084816F07DFC411C85
:10690000074B124AD3F8043500924FF4AA7225E7D8
:10691000BB3200201C2E0020182E002090D2030035
:1069200000100140E9D80300E02E002056D30300F8
:1069300066D50300A0D30300BC32002088320020BB
:1069400044320020EDD3030019D4030055D40300D2
:10695000A1485C2116F050FC08B15C21CCE79E49AF
:10696000CEE79E4B1B68042B24D99D4B1B68590412
:106970007FF5ACAE9B4B1B68032B7FF7A7AE964809
:106980002F2116F039FC60B12F21934816F034FC0A
:10699000411C954B954AD3F8043500924FF4AD72E3
:1069A000DCE68D485C2116F027FC08B15C21ECE7A1
:1069B0008949EEE78E4E8A4FDFF82882DFF8289269
:1069C0000025337C33B32378052B1CD03B6805228C
:1069D00022705A041ED5D8F80030032B1ADD7E48E9
:1069E0002F2116F009FC00283AD02F217A4816F002
:1069F00003FC411C7F4AD9F80435009204204FF46F
:106A0000B37210F085FB3B685B0403D5D8F8003007
:106A1000032B2EDC0135032D06F11106D1D123788D
:106A2000052B3FF453AE6E4B1B685C047FF54EAEF6
:106A30006C4B1B68032B7FF749AE67482F2116F07C
:106A4000DBFB002833D02F21634816F0D5FB411C17
:106A5000654B694AD3F80435009240F26F127DE627
:106A60005D485C2116F0C8FB08B15C21BEE75A49BD
:106A7000C0E759482F2116F0BFFB78B12F215648A7
:106A800016F0BAFB411C5D4AD9F804350092019515
:106A900040F26912042010F03BFBBBE74E485C213A
:106AA00016F0AAFB08B15C21E9E74B49EBE74A483D
:106AB0005C2116F0A1FB08B15C21C5E74649C7E798
:106AC00045485C2116F098FB08B15C211DE642495F
:106AD0001FE6434B1B6859047FF5F8AD414B1B681B
:106AE000032B7FF7F3AD3C482F2116F085FB60B1F7
:106AF0002F21394816F080FB411C3B4B404AD3F80C
:106B0000043500924FF4C07228E633485C2116F039
:106B100073FB08B15C21ECE72F49EEE7A0F13001EF
:106B200009292F4E78D82D4B1B682F38984273DCDB
:106B3000344B89B2188808F007FA054628B3336841
:106B40005A0440D5274B1B68002B3CDD22482F21DF
:106B500016F052FB80B12F211F4816F04DFB411C4F
:106B6000214B294AD3F804350092019540F28B124B
:106B7000012010F0CDFA26E017485C2116F03CFB0E
:106B800008B15C21E8E71449EAE7204B01221A70BA
:106B900033685B0417D5134B1B68032B13DD0E48BA
:106BA0002F2116F029FB80B12F210B4816F024FB72
:106BB000411C0D4B164AD3F80435009204204FF4C3
:106BC000C87210F0A5FA0023D6E503485C2116F040
:106BD00013FBF8B15C21E8E790D20300E02E00201F
:106BE0001C2E0020182E00200010014056D3030058
:106BF0008832002015D60300A8D4030099D40300DE
:106C0000E8D403004432002015D50300BC32002034
:106C10003FD503008649CCE733685F0417D5854B21
:106C20001B68032B13DD82482F2116F0E5FA98B17B
:106C30002F217F4816F0E0FA411C7F4B7F4AD3F8A2
:106C40000435009204204FF4CB7210F061FA03B0C7
:106C5000BDE8F043FFF77CBC75485C2116F0CCFA28
:106C600008B15C21E5E77249E7E7342829D1744887
:106C700002F06EF905460028A5D0724B1B685E0431
:106C8000A1D56C4B1B68002B9DDD69482F2116F0A8
:106C9000B3FA68B12F21664816F0AEFA411C664B74
:106CA000694AD3F804350092019540F2A1125FE7DA
:106CB0005F485C2116F0A0FA08B15C21EBE75C4963
:106CC000EDE7604B1B6858047FF500AD594B1B681E
:106CD000032B7FF7FBAC56482F2116F08DFA60B1DD
:106CE0002F21534816F088FA411C534B574AD3F8CA
:106CF0000435009240F2A71230E54D485C2116F0B1
:106D00007BFA08B15C21ECE74949EEE7303802280C
:106D10000AD84F4B00EB00101844037C23B1042128
:106D2000FFF770FC062327E5464E3368590418D553
:106D3000404B1B68032B14DD3D482F2116F05CFAF5
:106D4000002838D02F213A4816F056FA411C3A4B09
:106D5000404AD3F80435009204204FF4DA7210F060
:106D6000D7F93B4FDFF8CC80314CDFF8CC900025D1
:106D70003B7CD3B133685A0417D5D8F80030032BC5
:106D800013DD2F21204616F037FAE8B12F212046D7
:106D900016F032FA411C304AD9F8043500920195B8
:106DA00040F2B912042010F0B3F90135032D07F1B8
:106DB0001107DDD18AE41E485C2116F01DFA08B1E6
:106DC0005C21C0E71A49C2E75C21204616F014FA9C
:106DD00008B15C21DBE72146DDE71A4B1B685B0449
:106DE0007FF574AC134B1B68032B7FF76FAC104817
:106DF0002F2116F001FA60B12F210D4816F0FCF991
:106E0000411C0D4B154AD3F8043500924FF4E07243
:106E1000A4E407485C2116F0EFF908B15C21ECE727
:106E20000349EEE7784603B0BDE8F0430BF030B914
:106E300090D20300182E0020001001404CD5030012
:106E4000443200201C2E00208DD50300BAD503004B
:106E50008832002000D6030099D4030037D60300FF
:106E60002DE9F0430378C7B004460C2B17D8DFE8B0
:106E700013F00D0019003E00160016001600160053
:106E8000AD0116002F0166001600E701A84D297814
:106E9000012904D10430FFF7B5FB02232B7047B062
:106EA000BDE8F083A34B1B685904F8D5A24B1B68BF
:106EB000032BF4DDA1482F2116F09EF970B12F218C
:106EC0009E4816F099F9411C9D4B9E4AD3F8043513
:106ED0000092AF22042010F01BF9E0E797485C21F4
:106EE00016F08AF908B15C21EAE79449ECE7914B86
:106EF0001B685A0416D5904B1B68032B12DD8F4874
:106F00002F2116F079F988B12F218C4816F074F9E9
:106F1000411C8B4B8C4AD3F804350092B3220420D9
:106F200010F0F6F8824B00221A70B8E783485C2113
:106F300016F062F908B15C21E7E78049E9E77D4F87
:106F4000DFF830923B6813F4804F23D07A4E3368D9
:106F5000032B1FDD79482F2116F04EF900286AD047
:106F60002F21764816F048F9411C754DB9F80020DC
:106F7000D5F804350292E268D28A0192734A0092EF
:106F80000420B82210F0C4F83B685B0402D53368D3
:106F9000032B59DC6E4DDFF8E08129686D4E08EB5C
:106FA0004101308809F0F4FC18B1644ABC2114F0A6
:106FB00052FC2B68684AE068B9F80010C08A0133B7
:106FC00002EB4303A2680AF065F818B15B4ABE21E0
:106FD00014F041FC3B685F041ED5574B1B68032B24
:106FE0001ADD56482F2116F007F9002867D02F2107
:106FF000524816F001F9411C2A68514B38F812200A
:10700000D3F804350292E268D28A0192534A009280
:107010000420C22210F07CF82B68514A01331288F8
:107020002B603388C82113444FF4F01004223380BE
:1070300000F0F4FB33E741485C2116F0DDF808B1BD
:107040005C218EE73D4990E7464BA268D3F800C02B
:1070500005AB501E1E460F3210F8011F4FEA111EDD
:1070600001F00F011CF80EE083F800E01CF801109D
:107070005970824203F10203EED100232F4886F8B3
:1070800020302F2116F0B8F880B12F212B4816F0B0
:10709000B3F8411C344AD5F804350192334A0092C2
:1070A0000296BA22042010F033F873E723485C21DB
:1070B00016F0A2F808B15C21E8E72049EAE71F488A
:1070C0005C2116F099F808B15C2191E71B4993E720
:1070D000102340680022012102F05AFA154B0546A0
:1070E00000284DD01B6858047FF5D9AE124B1B68A1
:1070F000002B7FF7D4AE11482F2116F07DF878B120
:107100002F210E4816F078F8411C0D4B184AD3F881
:10711000043500920195D52201200FF0F9FFBEE65B
:1071200006485C2116F068F840B35C21E9E700BF2F
:10713000BB3200201C2E0020182E002090D203000D
:107140000010014069D603008ED60300AED60300BE
:10715000E02E0020F02D0020D22E0020EAD60300E1
:10716000E42E0020202E0020E2D6030006D30300E8
:107170001CD70300DE2E0020C62E00204249C4E7A3
:10718000424A1B68217A118059047FF588AE404B32
:107190001B68032B7FF783AE3B482F2116F02CF89A
:1071A00058B12F21384816F027F8411C394B3A4A7C
:1071B000D3F804350092DB228CE633485C2116F0CC
:1071C0001BF808B15C21EDE72F49EFE7334B05AD24
:1071D00003F11006186859682A4603C20833B342FF
:1071E0001546F7D16068102205A902F0DDF918B143
:1071F000254AE42114F02FFB294B1B685A047FF524
:107200004EAE234B1B68032B7FF749AE1E482F2140
:1072100015F0F2FF58B12F211B4815F0EDFF411C6E
:107220001C4B204AD3F804350092E52252E616485A
:107230005C2115F0E1FF08B15C21EDE71249EFE7B1
:10724000174B1B685B047FF56DAE114B1B68032B5E
:107250007FF768AE0C482F2115F0CEFF58B12F21D3
:10726000094815F0C9FF411C0A4B0F4AD3F80435F1
:107270000092EA2253E604485C2115F0BDFF08B1F4
:107280005C21EDE70049EFE790D20300E42E0020F7
:10729000182E00200010014050D70300ADD7030086
:1072A0001C2E00206DD7030092D7030080B5AC4C94
:1072B000AC4A92B004214FF4C0400FF00DFF236898
:1072C0005E0419D5A84B1B68032B15DDA7482F2199
:1072D00015F092FF002800F075812F21A34815F0CA
:1072E0008BFF411CA24BA34AD3F804350092042023
:1072F0004FF4FA720FF00CFF0AF0D4FC20B19B4A55
:107300004FF4FB7114F0A7FA00F0BAFA00F0B6FBE4
:107310000021202209A815F09DFE01238DF82430BC
:1073200007238DF8273006238DF82C300DF10F013F
:10733000914B119309A800F0BFF930B30B2840F02E
:10734000708123685D0420D5874E3268032A1CDDD6
:1073500086482F2115F050FF002800F03C812F2196
:10736000824815F049FF411C814D844AD5F8043507
:10737000009204204FF4EF720FF0CAFE2368580405
:1073800003D53368032B00F32F819DF80F303BBBEF
:10739000CDE90533CDE90733794B1868049004A88B
:1073A00009F0B2FA20B1714A40F2EB1114F053FA2D
:1073B000744A7549002009F0A9FC20B16B4A4FF4CA
:1073C000F67114F048FA6F49704B098805AA00203D
:1073D00009F00CFF20B1654A40F2ED1114F03BFAC0
:1073E0006B48642100F0B0F96A4A1068516809AB33
:1073F00003C31189927A19809A70674B0093674A88
:107400006749684809AB02F068F818B1574A8D21FE
:1074100014F021FA644803F059FC0146614802F077
:1074200075F818B1514A8E2114F015FA5F4801F031
:10743000B1FD01465B4802F069F818B14B4A8F2153
:1074400014F009FA544802F029F918B1474A90217A
:1074500014F001FA564D0AF055FE00F06FFA0623BB
:1074600054482B60294609F053FB20B13F4A40F2B3
:10747000062114F0F0F92B68C3B14E4A013B09A96B
:1074800032F8130009F0EAFA20B1384A40F20B2131
:1074900014F0E1F99DF82430012B02D078460AF06F
:1074A000F7FDBDF82630444A103313802368590491
:1074B00023D52D4E3268032A1FDD2C482F2115F0CD
:1074C0009BFE002800F0B3802F21284815F094FE81
:1074D000411C394A264F1288D7F804350192374AA1
:1074E0000092042040F213220FF012FE23685A0487
:1074F00003D53368032B00F3A38000F0CFF820B14D
:107500001A4A40F2162114F0A6F923685B0419D533
:10751000154B1B68032B15DD14482F2115F06CFE4D
:10752000002800F0AC802F21104815F065FE411CAA
:107530000F4B234AD3F80435009204204FF406720F
:107540000FF0E6FD00214FF4F01000F05DF902228B
:10755000C8214FF4F01000F061F9FEF7ABFEFCE734
:107560001C2E0020AD700300182E002090D20300C6
:1075700000100140BED70300B962020002D8030028
:10758000CAD80300DE2E0020D9D80300C42E002064
:1075900095660200CED80300616E0200E62E002040
:1075A00004320020D0300020082F00204432002078
:1075B000E02E0020C62E0020F02D002079D80300F8
:1075C000E9D8030032485C2115F016FE08B15C21B1
:1075D00084E62F4986E62E485C2115F00DFE08B1A1
:1075E0005C21BDE62A49BFE629482F2115F004FE9B
:1075F00070B12F21264815F0FFFD411C254AD5F812
:1076000004350092042040F2DF120FF081FDBCE649
:107610001F485C2115F0F0FD08B15C21EAE71C4928
:10762000ECE71B4A4FF4F27114F015F9ADE6184877
:107630005C2115F0E1FD08B15C2146E7144948E7FB
:1076400013482F2115F0D8FD80B12F21104815F0D7
:10765000D3FD411C2A68D7F8043501920E4A0092E6
:1076600004204FF405720FF053FD46E708485C21F3
:1076700015F0C2FD08B15C21E8E70549EAE70448D6
:107680005C2115F0B9FD08B15C214DE700494FE7D9
:1076900090D2030050D80300A4D803000DF0CCBC56
:1076A00008B50EF0ADF807F0DDFA09F08FF8BDE887
:1076B00008400CF045BF000073B50E46054688B380
:1076C0000DF04CFC044650BB09F00CF907F012FB1E
:1076D000286905F0C1FE044608BB2B7F0193AB6906
:1076E000009301466B6910484FF6FF7206F05CF993
:1076F0000446A0B92B6A03B1984711F0E7FD09F0E1
:1077000015F8054607F030F80B2D01D00B2802D1F3
:10771000FFF7C6FF0B240AF0C3F806B1307020460D
:1077200002B070BD0E24FAE7C032002010B5054C3F
:10773000226832B114F0C4F9002802DB23689847AC
:10774000F8E710BD18330020154B164A10B50C464B
:107750001860012114480AF001FB18B1134A4A21AC
:1077600014F079F8610C0023E00341F26F728B4250
:1077700008BF824210D24FF47A72002315F08AFAC1
:1077800001460B4800220AF0FBFA38B1BDE8104070
:10779000064A4B2114F05FB80521F2E710BD00BF87
:1077A000183300202D770200D8DA0300B5DA030081
:1077B0001C33002070B5104C206808B914F03EF856
:1077C0004FF0A0450D4ED5F8043532685340C5F84A
:1077D00004352368013B236063B909480AF01CFBA8
:1077E0003268D5F8043523EA0203064A12681343C7
:1077F000C5F8043570BD00BF3C3300204033002085
:10780000443300206C3300204FF0A04311B1C3F883
:107810000C057047C3F8080570470000F8B52AB397
:10782000132923D9124B134C5200013A4FF0A045B3
:107830001A602060D5F8043518400F4B4FF4FA76E3
:10784000186000274FF40040E0FB01674FF47A72A4
:1078500000233046394615F01DFA0022014607483C
:107860000AF08EFA10B92368C5F80C35F8BD00BFD0
:107870003C330020403300206C3300204433002090
:1078800008B54FF0A04303224FF40031C3F844275A
:10789000C3F808154FF48021C3F84827C3F808152A
:1078A0004FF40021C3F84C27C3F80815C3F850273C
:1078B0004FF48012C3F808250548064A01210AF052
:1078C0004DFA18B1BDE8084013F0B8BF08BD00BFBD
:1078D000DCDA0300B5770200F8B5134B134D144EF4
:1078E000144F0024C3F87C414FF0A04315F8011B4E
:1078F000D3F8102501238B40934310D03368D7F879
:107900000425991A48BFD11A43F23333994206D954
:10791000D7F804353360084B20461B68984701347C
:10792000042CE1D1F8BD00BF00600040E0DA0300A4
:107930006833002000100140643300202DE9F0413D
:107940000446CEB038B1424D2B685A0403D5414E9F
:107950003368032B02DC4EB0BDE8F0813E4B186863
:107960000DAB611E04F10F0C1F4611F8012F4FEAF9
:10797000121E02F00F0210F80EE083F800E0825CA5
:107980005A70614503F10203EFD10023334887F8B1
:1079900020302F2115F030FC002846D02F212F4811
:1079A00015F02AFC411CDFF8C4802D4AD8F80435B4
:1079B00001922C4A00920297422204200FF0A8FB69
:1079C0002B685B04C7D53368032BC4DD23482F2104
:1079D00015F012FC002831D02F21204815F00CFCA6
:1079E000411CE27B2068D8F804350B92A27B0A92F6
:1079F000627B0992227B0892E27A0792A27A06922F
:107A0000627A0592227A0492E28852BA92B2039282
:107A1000A28852BA00BA92B2CDE90102124A00928B
:107A2000042043220FF074FB95E70C485C2115F00D
:107A3000E3FB08B15C21B2E70849B4E707485C21E1
:107A400015F0DAFB08B15C21C7E70449C9E700BFBC
:107A50001C2E0020182E0020202E0020E4DA030027
:107A60000CDB030006D303001EDB03000010014003
:107A700060DF704769DF70470DF03CBB10B588B020
:107A800000F04AF908B113F0D9FE2B4B0393039B86
:107A900004930C22002105A815F0DCFA0023049AB7
:107AA0008DF8143005A90120FFF7E4FF08B113F0A9
:107AB000C5FE0C22002105A815F0CCFAF823049A83
:107AC000059305A9A120FFF7D5FF08B113F0B6FE75
:107AD00004A8FFF7CDFF039B049A9A4204461CD0EA
:107AE000164B1B685B0418D5154B1B68012B14DD66
:107AF00014482F2115F080FBA8B12F21114815F053
:107B00007BFB411C104B049AD3F8043501920F4AB9
:107B100000920220AB220FF0FBFA14B1204613F0C2
:107B20008DFE08B010BD07485C2115F065FB08B15B
:107B30005C21E3E70349E5E7F02D00201C2E00203F
:107B4000182E00205EDB0300001001408EDB0300D6
:107B500070B5EFF3108672B60C4A946801239CB995
:107B600093600B4B0B4DD3F8801029401160C3F884
:107B70008050D3F8841051604FF0FF32C3F8842056
:107B8000047006B962B670BD0370FAE7D4550020E0
:107B900000E100E0FC06FFBD10B5084B9A685AB141
:107BA00050B9EFF3108172B6054A1C6814605C6826
:107BB0005460986001B962B610BD00BFD455002072
:107BC00000E100E001600B6843604A68934204BF33
:107BD000002343607047436843B1026891680B44D7
:107BE00043605268934204BF0023436070474BDFF9
:107BF000704700001FB50D4C01A8FFF7F8FF70B9E2
:107C0000214602A8FFF7DEFF039B002BF4D001986A
:107C1000D3E90021904702A8FFF7DDFFF4E705282C
:107C200001D013F00BFE04B010BD00BFC8DB030091
:107C300061DF704730B5114B1B7891B0E3B1104D47
:107C400034240DF1020103A8ADF80240FFF7F0FF64
:107C500070B9294601A8FFF7B5FF029B002BF0D0B1
:107C600003A8D3E90021904701A8FFF7B4FFF4E788
:107C7000052801D013F0E2FD11B030BD70330020B3
:107C8000D4DB030010DF704713B50446094968468A
:107C9000FFF798FF019808B902B010BDD0E90021A4
:107CA0002046904718B16846FFF795FFF2E711208C
:107CB000F2E700BFE4DB030013B50446074968465A
:107CC000FFF780FF019B0BB902B010BD2046D3E93E
:107CD000002190476846FFF77EFFF3E7FCDB0300D7
:107CE0000B4991F816335A09EC231341DB0706D5EB
:107CF000084B9A683AB94FF480030B60704742F220
:107D0000020013F09BBD1A6842F480021A607047AB
:107D100000E100E0D4550020F7B5194F3C7864BB72
:107D2000184E012520463570FFF7AEFF112821D0EF
:107D30002046FFF7C1FF144B8DF8034018680190EF
:107D40000DF10300FFF704FF104901A8FFF79AFFA8
:107D50000446B0FA80F0400938709DF80300FFF740
:107D60001BFF3CB90A4B34701C70FFF7B9FF284663
:107D7000FFF7A2FF204603B0F0BD0824FAE700BFDA
:107D80007233002071330020E0DB0300911E0300FA
:107D90007333002007B508496846FFF713FF019BBE
:107DA00013B903B05DF804FBD3E90020904768469F
:107DB000FFF711FFF3E700BFF0DB0300FFF7EABFB7
:107DC00013B5154B1B689B04044619D5134B1B6850
:107DD000012B15DD12482F2115F00EFA98B12F2135
:107DE0000F4815F009FA411C0E4B227ED3F80435DA
:107DF00001920D4A009202204FF4B0720FF088F900
:107E0000207E02B010BD06485C2115F0F5F908B1DE
:107E10005C21E5E70249E7E71C2E0020182E002030
:107E200008DC0300001001403FDC03001FB5002305
:107E3000024601A8CDE9013303938DF80410904761
:107E400005B05DF804FB00007FB5067E4B68042E8C
:107E50005D6804460ED12B78002B36D003690221D1
:107E6000DB6804309847E06B3146FFF7DFFF012005
:107E700004B070BD164B1B689B041BD5154B1B68CB
:107E8000032B17DD14482F2115F0B6F9A0B12F21CF
:107E9000114815F0B1F9411C104B227ED3F804357E
:107EA00002922A7801920E4A0092042040F2862221
:107EB0000FF02EF9207EDBE707485C2115F09CF9D6
:107EC00008B15C21E4E70449E6E70220D0E700BFFF
:107ED0001C2E0020182E002008DC0300001001409A
:107EE0006ADC030073B5047E4B68022C5E680546AD
:107EF00043D0032C7AD0012C744B40F0C0801B6817
:107F0000327803F40053FAB1012A42D0D3B1704B56
:107F10001B68042B16DD6F482F2115F06DF9002822
:107F20005BD02F216B4815F067F9411C6A4B327802
:107F3000D3F804350192694A0092052040F2BB1241
:107F40000FF0E6F82C7E18E0BBB1614B1B68042BE8
:107F500013DD60482F2115F04FF988B12F215D48BE
:107F600015F04AF9411C5C4B5D4AD3F80435009288
:107F7000052040F2B3120FF0CBF8204602B070BDDE
:107F800054485C2115F038F908B15C21E7E7514904
:107F9000E9E7BBB14E4B1B68042B13DD4D482F2185
:107FA00015F02AF980B12F214A4815F025F9411C16
:107FB000494B4C4AD3F804350092052040F2B712E1
:107FC0000FF0A6F80224D8E742485C2115F014F916
:107FD00008B15C21E8E73F49EAE73E485C2115F03B
:107FE0000BF908B15C219DE73A499FE73378052BEF
:107FF0001DD801A252F823F0238002001180020054
:108000001B800200278002002B800200C57F020037
:10801000C06B0621FFF70AFFD4E70821E86BFFF7E2
:1080200005FF0124A9E70521F8E70921F6E7274B19
:108030001B689A04F5D5264B1B68032BF1DD2548F8
:108040002F2115F0D9F888B12F21224815F0D4F846
:10805000411C214B3278D3F804350192224A009218
:10806000042040F2DF120FF053F8DAE719485C21E0
:1080700015F0C2F808B15C21E7E71649E9E71B688B
:108080009B047FF55FAF124B1B68032B7FF75AAF42
:1080900010482F2115F0B0F878B12F210D4815F0B8
:1080A000ABF8411C0C4B3278D3F8043501920B4AE3
:1080B000009204204FF4F27242E706485C2115F06A
:1080C0009BF808B15C21E9E70249EBE71C2E002090
:1080D000182E002008DC030000100140BCDC030067
:1080E0008FDC0300A8DC0300D1DC030073B5047E41
:1080F000052C054653D14B685E683478032C5ED856
:10810000DFE804F0022D595B414B1B68990417D539
:10811000404B1B68042B13DD3F482F2115F06CF8F2
:10812000A0B12F213C4815F067F8411C3B4B3C4A5D
:10813000D3F80435009205204FF4C6720EF0E8FF24
:108140000021E86BFFF772FE012428E032485C2131
:1081500015F052F808B15C21E4E72F49E6E72C4B13
:108160001B689A0417D52B4B1B68042B13DD2A4878
:108170002F2115F041F8A8B12F21274815F03CF820
:10818000411C264B274AD3F804350092052040F2C3
:1081900091120EF0BDFFE86B0121FFF747FE20466C
:1081A00002B070BD1C485C2115F026F808B15C21B6
:1081B000E3E71949E5E70221C3E70321C1E7144BCF
:1081C0001B689B04C0D5134B1B68012BBCDD1248F8
:1081D0002F2115F011F888B12F210F4815F00CF858
:1081E000411C0E4B3278D3F8043501920E4A0092AE
:1081F000022040F2A1120EF08BFFA5E706485C2199
:1082000014F0FAFF08B15C21E7E70349E9E700BF92
:108210001C2E0020182E002008DC03000010014056
:10822000F1DC030013DD030037DD030010B5037E2E
:10823000042B044610D8022B10D903690221043004
:10824000DB689847E06B0421FFF7F0FDE06B0A2143
:10825000FFF7ECFD012010BD052BF7D0784609F0A3
:1082600017FFF7E770B515464FF6FF760C4A038502
:1082700040F20123018446844262438504460CF0A7
:108280003FFF2586E062668604F11C0007F00AFCC9
:1082900020B17846BDE8704009F0FABE70BD00BF5D
:1082A0007533002037B5037E022B04460D4614D1EA
:1082B0008B88412B02D9784609F0EAFEAA881B4830
:1082C000A91D14F0B9FE2046AB8848F260021221C5
:1082D000FFF7C8FF042003B030BD154B1B689B049B
:1082E00019D5144B1B68012B15DD13482F2114F0F1
:1082F00083FF90B12F21104814F07EFF411C0F4BDB
:10830000227ED3F8043501920D4A0092022040F2F9
:10831000D9220EF0FDFE207EDDE707485C2114F037
:108320006BFF08B15C21E6E70349E8E775330020FD
:108330001C2E0020182E002008DC03000010014035
:1083400053DD030013B5037E012B044609D100233E
:1083500048F2670248F26401FFF784FF052002B08B
:1083600010BD144B1B689B0419D5134B1B68012BC4
:1083700015DD12482F2114F03FFF90B12F210F4837
:1083800014F03AFF411C0E4B227ED3F804350192C3
:108390000C4A0092022040F27D120EF0B9FE207EBF
:1083A000DDE706485C2114F027FF08B15C21E6E711
:1083B0000249E8E71C2E0020182E002008DC0300EC
:1083C000001001406FDD030013B5037E012B04464E
:1083D00009D1002348F2670248F26501FFF742FF26
:1083E000052002B010BD144B1B689B0419D5134B1C
:1083F0001B68012B15DD12482F2114F0FDFE90B1F2
:108400002F210F4814F0F8FE411C0E4B227ED3F8AA
:10841000043501920C4A009202204FF4B7720EF01C
:1084200077FE207EDDE706485C2114F0E5FE08B10A
:108430005C21E6E70249E8E71C2E0020182E002008
:1084400008DC0300001001408DDD030010B5037E41
:10845000012B044611D10A2380F840301022043148
:10846000084814F0E9FD2046102348F2630248F260
:108470006201FFF7F7FE032010BD784609F008FE01
:10848000207EF9E77533002013B5037E022B0446E6
:108490000CD11B4B0A791A7048F26101012348F292
:1084A0006302FFF7DFFE032002B010BD154B1B680F
:1084B0009B0419D5144B1B68012B15DD13482F2184
:1084C00014F09AFE90B12F21104814F095FE411C33
:1084D0000F4B227ED3F8043501920E4A00920220FF
:1084E00040F23E220EF014FE0120DDE707485C2139
:1084F00014F082FE08B15C21E6E70449E8E700BF1A
:10850000753300201C2E0020182E002008DC0300EC
:1085100000100140AADD03002DE9F041374D2B7812
:1085200096B0044653B90123354E364F2B7036486A
:1085300004A90BF037FE20B100232B7016B0BDE864
:10854000F08133689A041AD5304B1B68042B16DD72
:108550002F482F2114F050FE00283DD02F212C4809
:1085600014F04AFE411C9DF81020D7F80435019202
:10857000284A0092052040F2ED220EF0C9FD9DF838
:108580001020254B04A953F8223020469847237E1B
:1085900083428046CBD033689B041AD51B4B1B68A3
:1085A000042B16DD1A482F2114F026FEE8B12F21E6
:1085B000174814F021FE411C227ED7F804350192A1
:1085C000164A0092CDF8088040F2F72205200EF0FE
:1085D0009FFD84F81880AAE70D485C2114F00CFE7A
:1085E00008B15C21BBE70A49BDE709485C2114F0EA
:1085F00003FE08B15C21DBE70549DDE774330020A9
:108600001C2E002000100140B8330020182E00203E
:1086100008DC0300D4DD0300DCDF0300E0DD030041
:1086200030B5154695B00C4611B9784609F030FDC5
:10863000012D2BD0022D64D0002D40F08780454BBA
:108640001B68990452D5444B1B68042B4EDD4348EC
:108650002F2114F0D1FD80B12F21404814F0CCFD22
:10866000411C3F4B228CD3F8043501923D4A0092C5
:108670000520E9220EF04CFD38E038485C2114F06A
:10868000BBFD08B15C21E8E73449EAE7314B1B68E0
:108690009A0418D5304B1B68012B14DD2F482F216D
:1086A00014F0AAFD20B32F212C4814F0A5FD411C85
:1086B0002B4B228CD3F8043501922B4A00920220D6
:1086C000EE220EF025FD0021482202A814F0C2FC83
:1086D0000D2326488DF8083002A90BF03BFD10B1A0
:1086E000784609F0D5FC2046FFF716FF15B030BDDF
:1086F0001A485C2114F080FD08B15C21D4E71749C9
:10870000D6E7144B1B689B04F0D5134B1B68012B59
:10871000ECDD12482F2114F06FFD70B12F210F48AE
:1087200014F06AFD411C0E4B228CD3F804350192E3
:108730000F4A00920220F6229CE708485C2114F0C0
:108740005BFD08B15C21EAE70449ECE7784609F0F3
:108750009FFCCBE71C2E0020182E002008DC030015
:1087600000100140F7DD030012DE0300B8330020E3
:1087700038DE030030B50D4693B0044610B9784694
:1087800009F086FC48220021684614F063FC0723A8
:10879000694606488DF800308DF804500BF0DAFC7D
:1087A000201FFFF7B9FE13B030BD00BFB833002063
:1087B00030B50C4693B0054600B111B9784609F0C2
:1087C00067FC2B7D012B13D10B232146102201A81E
:1087D0008DF8003014F030FC064869460BF0BAFC06
:1087E000044610B9281FFFF797FE204613B030BD8E
:1087F0000824FAE7B833002030B50C4693B0D0B166
:10880000C9B10C200D4D8DF800000DF10600ADF83A
:10881000042014F011FC2B682278094883F84020CA
:1088200069460BF097FC044610B92868FFF774FE00
:10883000204613B030BD0E24FAE700BF5C340020A0
:10884000B833002008B506F071FB30F0040304D003
:108850007846BDE8084009F01BBC08BD70B5037E32
:10886000022B88B004460D4625D0042B3E4B1B68D6
:1088700055D19A0418D53D4B1B68042B14DD3C4898
:108880002F2114F0B9FC002833D02F21384814F0E0
:10889000B3FC411C374B384AD3F80435009205200D
:1088A0004FF424720EF034FC208807F0C7F810B1A2
:1088B000784609F0EDFB6B685B681B7813BB2F4BA8
:1088C000049303AB05932E4B06930CF019FC26463C
:1088D00003236968079004AA36F8040B8DF80C305E
:1088E000FFF7B0FF236930465B689847022008B065
:1088F00070BD1F485C2114F07FFC08B15C21C5E706
:108900001B49C7E71F4B2A791A702046012348F2FA
:10891000630248F26101FFF7A5FC0320E7E79B042F
:1089200017D5124B1B68032B13DD11482F2114F0B0
:1089300063FC80B12F210E4814F05EFC411C0D4BEE
:10894000114AD3F804350092042040F2AF220EF011
:10895000DFFB207ECBE706485C2114F04DFC08B11C
:108960005C21E8E70249EAE71C2E0020182E0020CF
:1089700008DC03000010014059DE03006080FFFFA7
:10898000010000027533002067DE0300F0B58BB0F4
:10899000434B0693044605AB0793424B08930D46A1
:1089A0000CF0AEFB237E0990022B01D0042B4FD19B
:1089B0006B685E6894F8403032789A422BD23A4B1A
:1089C0001B689A041CD5394B1B68032B18DD3848EB
:1089D0002F2114F011FCA8B12F21354814F00CFC04
:1089E000411C344B94F84020D3F80435029232787D
:1089F0000192314A009204204FF416720EF088FB67
:108A0000207E23E02A485C2114F0F6FB08B15C21AB
:108A1000E3E72749E5E7208807F010F820B10528AB
:108A200002D0784609F034FB27460023696837F8FE
:108A3000040B8DF8143006AAFFF704FF6A68236957
:108A400012891B6838463146984702200BB0F0BDAA
:108A5000154B1B689B04D3D5144B1B68032BCFDD30
:108A600013482F2114F0C8FB88B12F21104814F0AF
:108A7000C3FB411C0F4B227ED3F8043501920F4AF1
:108A8000009204204FF41B720EF042FBB8E7084836
:108A90005C2114F0B1FB08B15C21E7E70449E9E788
:108AA0006080FFFF010000021C2E0020182E002015
:108AB00008DC0300001001409ADE0300C5DE03005D
:108AC000F0B54B685D68037E022B8BB004460F4601
:108AD00047D8002B6FD04D4B069305AB07934C4BFB
:108AE00008930CF00DFB264640F2051309907968B7
:108AF00036F8040BADF8143006AAFFF7A3FE2B7866
:108B0000012B3AD0226947D9023B022B39D9D368CD
:108B1000022130469847E06B0421FFF787F93D4B6F
:108B20001B689A0436D53C4B1B68012B32DD3B4851
:108B30002F2114F061FB002834D02F21374814F086
:108B40005BFB411C364B227ED3F8043502922A7817
:108B50000192344A009202204FF409720EF0D8FAC2
:108B600018E0033B012B26D8008806F067FF002899
:108B7000B1D0784609F08CFAADE7E06B0721FFF73A
:108B800055F923696978DB6830469847E06B042122
:108B9000FFF74CF9012003E0304693689847022024
:108BA0000BB0F0BD1D485C2114F026FB08B15C2120
:108BB000C4E71A49C6E7174B1B689B041BD5164B25
:108BC0001B68012B17DD15482F2114F015FBA0B1F0
:108BD0002F21124814F010FB411C114B227ED3F8B8
:108BE000043502922A7801920F4A0092022040F244
:108BF0002A220EF08DFA207ED2E708485C2114F07C
:108C0000FBFA08B15C21E4E70449E6E76380FFFF73
:108C1000020000021C2E0020182E002008DC030099
:108C200000100140F2DE030015DF030070B58AB0CA
:108C30002C4B069302AB044607932B4B08930D462F
:108C40000CF05EFA237E69680990012B4E6816D1FC
:108C5000002320888DF8083006AA337C8DF809306F
:108C6000FFF7F0FD0B238DF80C30337C8DF81430BA
:108C70000496E36B03A89847207E0AB070BD1B4B97
:108C80001B689B0419D51A4B1B68032B15DD19486B
:108C90002F2114F0B1FAE0B12F21164814F0ACFAEC
:108CA000411C154B227ED3F804350192134A0092E1
:108CB00004204FF4A9720EF02BFA01238DF808302E
:108CC0006968337C20888DF8093006AAFFF7BAFD61
:108CD000D2E708485C2114F08FFA08B15C21DCE788
:108CE0000449DEE76D80FFFF020000021C2E002019
:108CF000182E002008DC03000010014041DF0300B3
:108D0000F0B50C469FB0154612B9784609F0C0F987
:108D10005B4B01AA03F1280718685968164603C679
:108D20000833BB423246F7D11B8833802188122991
:108D300009D108238DF830302389013B9BB2402BA9
:108D400014D91FB0F0BD0022062000FB02F301AED3
:108D5000F65A8E4239D11EAA1344228933F8721C66
:108D60009142EED113F8703C8DF830304FF6FF761B
:108D70002888ADF80060694606F000F940B9BDF8F2
:108D80000000B04204D001A907F068FE00284DD0D1
:108D90004FF6FF73ADF806302388122B3CD8102B0A
:108DA00040D904238DF8003048F26003ADF8043058
:108DB000344BCDF808D003930CF0A2F901AA04902B
:108DC00021462888FFF73EFDBBE70132072ABCD1C8
:108DD000B7E7A3F50043603B0C2B23D801A252F860
:108DE00023F000BF438D0200258E0200258E020075
:108DF000438D0200258E0200258E0200258E020082
:108E0000438D0200258E0200258E0200518E020045
:108E1000258E02006B8E020003F5FF42203292B2D3
:108E20000C2AD6D9784609F033F98AE7BDF806202E
:108E3000E3899A42ACD114480D940CA90BF08AF93D
:108E400010B1784609F024F92846FFF765FB78E76A
:108E500005238DF8003048F26703ADF80430CDF8F3
:108E600008D00123ADF80C30A6E70623ADF800309A
:108E700048F26303ADF80430CDF808D00223F1E7DF
:108E800066DF030001000002B833002030B50D4654
:108E900087B0044640B33AB3144BC2631860144819
:108EA00002238360134B0360482343600BF038F9BF
:108EB000114B0093114B02930723CDE90334214654
:108EC00000236846ADF80450059305F02DFF48B91E
:108ED0002388A3830A4BA3630A4B6363012323768E
:108EE000094B187007B030BD0E20FBE75C34002042
:108EF000B8330020CC330020FFFF0480A4DF030040
:108F000021860200008793037433002030B50546A4
:108F100093B0B0B1037E012B15D1482200216846E1
:108F200014F098F8022309488DF8003069460BF0D8
:108F300011F9044610B92846FFF7EEFA204613B09F
:108F400030BD0E24FAE70824F8E700BFB83300204C
:108F500030B5054693B0B0B1037E012B15D1482240
:108F60000021684614F076F8032309488DF8003094
:108F700069460BF0EFF8044610B92846FFF7CCFA23
:108F8000204613B030BD0E24FAE70824F8E700BFEE
:108F9000B833002010B5044610B9784609F078F8C7
:108FA00004232372014BE360201D10BD90DF0300FA
:108FB00000B5036993F80B2189B05AB1002283F8F8
:108FC0000B21022201938DF80020DB688DF8081038
:108FD0006846984709B05DF804FB10B5046994F839
:108FE0000B31012B88B010D18DF800306846E36852
:108FF0000194984794F83111A06804F1F50200F04B
:1090000077FB20B9032384F80B3108B010BDA068AA
:10901000836802211B699847F7E71FB5044600F1F2
:10902000D50100F1A5036A4600F08CFCA0686946F2
:1090300000F094FB10B90F2384F80B3104B010BD7D
:1090400030B590F80C3189B00446032B35D8DFE8F1
:1090500003F02B251A0200F1C505294600F050FD4A
:1090600005238DF80030B4F8063101945BBAADF8F1
:1090700008300395102384F80B316846E36898475D
:10908000002009B030BD06238DF80030B0F806315D
:1090900001905BBAADF808300B23ECE707238DF89D
:1090A000003001900C23E6E710220021C53013F0B8
:1090B000D1FF2046FFF7B1FFE3E70320E1E710B55A
:1090C00088B0044600F0BEFD88B10A2384F80B3155
:1090D0000B238DF800306369039304F118030293A6
:1090E0006846E36801949847002008B010BD04F179
:1090F0005801204600F0E8FC0028F6D12046FFF792
:109100009FFFF2E710B5046994F80B31062B88B085
:109110001DD194F808315BB108238DF80030092384
:1091200084F80B310194E3686846984708B010BD95
:109130002169A06800F000FB18B9082384F80B31FE
:10914000F4E7A068836802211B699847EEE7072BC4
:10915000ECD12046FFF7B3FFE8E70000F0B50D467D
:1091600004690E78A9B01146284600F0B3FA08B198
:10917000092E04D9A068836802211B6914E194F8C0
:109180000B1194F80901324600F06AFD48BB8D4B83
:109190001B681B07EED58C4B1B68042BEADD8B4844
:1091A0002F2114F029F898B12F21884814F024F8C1
:1091B000411C94F80B21864BD3F80435CDE90162AC
:1091C000844A0092052040F235120DF0A1FFD1E74C
:1091D0007E485C2114F010F808B15C21E5E77B497A
:1091E000E7E72B78013B082BC4D801A252F823F003
:1091F00015920200759102007D920200A592020074
:10920000AD920200D1920200759102008793020094
:10921000AD9302000B22691C04F1F60013F00CFF61
:10922000042384F80B3109238DF87C306B788DF89A
:10923000843020946A88130A43EA0223ADF885300B
:109240002B798DF887306B798DF88830AB798DF874
:109250008930B5F80720130A43EA0223ADF88A30B3
:109260006B7A8DF88C306A89130A43EA0223ADF8D1
:109270008D30E3681FA8984729B0F0BD691C0846E7
:10928000059100F015FC059900283FF473AF4022CA
:1092900004F1180013F0D0FE2046FFF710FF00285D
:1092A000EAD067E72046FFF7B8FEF8E7691C10220E
:1092B00004F1E50013F0C0FEA06804F1A50100F080
:1092C0005FFA00287FF456AF112384F80B31D3E7FF
:1092D0001022691C04F1B50013F0AEFE204600F028
:1092E00051FC00283FF446AF07AD0BAE04F1780304
:1092F0002A46314620460FAF00F086FB072304F5CF
:109300008C71102238468DF8583013F095FED4F841
:109310002A31B4F82E211BBACDF84F30130A43EA94
:109320000223B4F82821ADF85330130A43EA02238C
:10933000ADF84C3094F830312197C3F30002C3F3F9
:10934000400343EA42038DF84E301923ADF88830CC
:109350000DF1590325930DF17203269300232393F6
:10936000ADF890301FA80823CDE91F658DF89C301B
:109370000CF0ADFFA06816A900F014FA00287FF4E5
:10938000F9AE1323A1E70A238DF87C3004F17803AA
:10939000219304F58C7320942293E3681FA89847C7
:1093A000A06883681B690021984765E70C238DF846
:1093B0007C306B7820948DF88430E3681FA8984740
:1093C000D8E600BF1C2E0020182E002014E0030059
:1093D0000010014038E0030070B50E46194690F8C1
:1093E0000B310446B3B985680B48E86084F809314D
:1093F00084F8312104F58C70192213F01DFEAB683E
:10940000064ADB6831462846984710B9012384F89C
:109410000B3170BD0820FCE75CE00300008793037C
:1094200037B5044690F80B01042837D1012907D03D
:10943000102B01D813B919B109202DE00029FBD058
:1094400094F8100184F80C11012908BF102300F0D2
:10945000010088BF8DF8042084F8072184F80631C4
:1094600084F8080198BF00234FF002058DF8020030
:109470008DF80310A06898BFADF8043004F1F50230
:10948000694688BF8DF80530ADF8005000F044F90A
:1094900010B9062384F80B3103B030BD0820FBE778
:1094A00090F80B310B3B012B01D8FFF7B6BD08201C
:1094B000704700790B79C31A58425841704710B56C
:1094C000431E00F11002073013F8011F12F8014D7E
:1094D0001C7083421170F7D110BD38B5049D88B15E
:1094E00081B17AB173B16DB190F80B4164B9C0E943
:1094F0000351426119460B2200F20D1013F09CFD3E
:10950000204638BD0E20FCE70820FAE738B50D46A6
:10951000044650B149B1064A0DF09CFD20B92C61BA
:109520002A7963681343636038BD0E20FCE700BFEF
:10953000B394020000F058BAF7B50E469DF82070BB
:109540001D46044600B3F9B1F3B11B8AB3F5805F41
:1095500002D30B2003B0F0BDE88A01920BF03EFC71
:109560000128F6D12368019A4BB9A36073B12B4649
:109570003146204603B0BDE8F040FFF72DBF197912
:10958000B942F2D01B68EFE70E20E3E70620E1E7DF
:1095900010B490F809411CB95DF8044BFFF740BFC7
:1095A00008205DF8044B7047F8B50E461546044692
:1095B00000286FD000296DD0102A6DD890F80631A0
:1095C000934269D190F80C31012B0DD1C53013F0C5
:1095D00033FD94F809312A4631462046002B55D1F7
:1095E000BDE8F840FFF75CBF90F80921DAB9022B1B
:1095F00021D190F80731032B1DD82946304600F0C1
:10960000FFFAC0B104F1C50704223146384613F011
:1096100013FD0C22002104F1C90013F01BFD384694
:10962000FFF74DFFD5E7012A05D1032B03D190F8B1
:109630000731022BE0E794F80931EBB994F80C31CB
:10964000022B01D00820F8BD94F80731042BF9D182
:109650002946304600F0C4FA0028F3D004F1C507CB
:109660002A463146384613F0E7FC05F1C500C5F13E
:10967000100200212044D0E7012BE3D194F80C31F3
:10968000032BDFD194F80731032BE0E7BDE8F84066
:1096900008F0FCBB0E20D6E70920D4E708B518B1C6
:1096A00000F0F2F8002008BD0E20FCE770B504467B
:1096B00016460D4611B9784608F0EAFC14B978460A
:1096C00008F0E6FCA3683246294620461B68BDE840
:1096D0007040184748B10378092B05D8034AD35C7A
:1096E0005B1A584258417047002070476CE00300F5
:1096F00013B5002304468DF8051010460DF1050141
:1097000001228DF8043013F097FC022201A92046B3
:10971000FFF7CCFF02B010BD38B5054610460C4629
:10972000052201310C3013F087FC21462846062221
:10973000BDE83840FFF7BABF10B592B00323044626
:1097400040220DF105008DF8043013F075FC412224
:1097500001A92046FFF7AAFF12B010BD10B50523DE
:1097600086B0044610220DEB03008DF8043013F090
:1097700063FC112201A92046FFF798FF06B010BD37
:1097800010B586B00623044610220DF105008DF8B1
:10979000043013F051FC112201A92046FFF786FF87
:1097A00006B010BD2222FFF781BF70B506468AB011
:1097B00014460D4609B3084613F016FD6A4681B2F9
:1097C00028460CF0EEFD042269460DF1220013F04C
:1097D00033FC162564BAADF8204008F093FC102243
:1097E00001460DEB020013F027FC2B4604AA0021D2
:1097F00030460EF0DCFD0AB070BD1225EAE700002D
:10980000F0B50F4689B01546044610B9784608F001
:109810003FFC15B9784608F03BFC07F0FB03122B20
:1098200025D1184E326812B320220021684613F069
:1098300011FC1022214601A8079513F0FDFB2B789F
:109840005A1E534253410021162F8DF814308DF8C3
:1098500000100ED10123042204F112010DF11600B3
:109860008DF8153013F0E8FB33686846984709B067
:10987000F0BD04220DF116008DF8151013F0EAFB6F
:10988000F2E700BF6034002010B5044610B97846F6
:1098900008F0FEFB014B1C6010BD00BF60340020CF
:1098A0000A78034B82B000201A7002B0704700BFE4
:1098B00065340020024B1B780B7082B002B07047F9
:1098C00065340020024B82B000221A7002B070474B
:1098D0006534002073B505460A4E68460C460BF009
:1098E00051FF002324219C4201D802B070BD1DF815
:1098F0000300B0FBF1F201FB1202D2B2B25CEA54F7
:109900000133F0E78EE0030037B50D46042104462D
:109910000DEB01000BF036FF094B019953F82520A0
:10992000B1FBF2F302FB131304221BBA0DEB02018D
:1099300004F10C00019313F07FFB03B030BD00BFB6
:10994000B4E003002DE9F0410446ACB00E461746E2
:1099500000F1F501112207A81D4613F06DFB94F8E4
:10996000093104F118084022A3BB21690DF12D0033
:1099700013F062FB402241460DF16D0013F05CFBD9
:10998000324607A891210CF00CFD0DF10C080423C0
:109990003246009304F15800124BCDF80480202188
:1099A0000CF015FD284610210BF0ECFE2946102284
:1099B00007A813F041FB04F1C50110220BA813F016
:1099C0003BFB3B46202207A940460CF07EFC2CB016
:1099D000BDE8F08141460DF12D0013F02DFB21690A
:1099E0004022C9E776E0030013B50446019113F065
:1099F0004DF801990246204613F04CF8012814BF97
:109A00000320002002B010BD2DE9F043044697B0BA
:109A10000D46174600F1D50110220AA81E4613F084
:109A20000BFB94F8093104F1B50904F1A5081022E3
:109A30008BBB41460EA813F0FFFA1022494612A82C
:109A400013F0FAFA02AA0AA830210CF0AAFC583442
:109A50000195042502AA2046124B009520210CF006
:109A6000B6FC06ABCDE9005302AA0F4B20462021DD
:109A70000CF0ADFC0DF11B010D22384613F0DCFAA1
:109A8000CDE90056094B02AA202120460CF09FFC8C
:109A900017B0BDE8F08349460EA813F0CDFA1022A6
:109AA0004146CCE77BE0030080E0030085E0030053
:109AB00010B5044612F0EAFF0146204613F0D0F834
:109AC000003818BF012010BD73B500F11806044618
:109AD00030460D46FFF7ECFF10B9784608F0D8FA8B
:109AE0006169019112F0D2FF019903462A4630467E
:109AF00013F010F800280CBF0320002002B070BD46
:109B000037B590F80631013B072B04460D4602D9C4
:109B1000784608F0BDFA10220021284613F09AFA80
:109B200094F80C31022B03D0032B14D003B030BDBA
:109B300094F80731032B08D014D9042BF6D194F8EC
:109B400006112846FFF7C6FEF0E794F806112846EE
:109B5000FFF7DAFEEAE794F80731022BF5D001D9D6
:109B6000032BEBE701210DF1070094F806410BF000
:109B700009FE9DF80720B2FBF4F304FB1323013325
:109B8000EB73D3E730B593B002AD042304460093E2
:109B900000F1D502114B0195202158300CF017FC33
:109BA00004F1B50110220AA813F046FA04F1C50128
:109BB00010220EA813F040FA06AB0AA9284620226C
:109BC0000CF083FB102204F1E50106A813F026FA3D
:109BD000B0FA80F0400913B030BD00BF76E003005A
:109BE0000144884201D10120704710F8013BA3F1E4
:109BF0003002092AF5D9413B192BF2D900207047D0
:109C0000082937B505460C4602D9784608F040FACF
:109C1000042229460DEB020013F00EFA044B53F810
:109C20002400019B984294BF0020012003B030BD66
:109C3000B4E00300024B014618680FF005BC00BFFA
:109C40008AE0030007B50DF10700FFF7F3FF10B13D
:109C5000784608F01DFA9DF8070003B05DF804FB94
:109C60000A4B5B5C60B923F0800342F040018B42F9
:109C700004D0092A14BF002001207047012070473A
:109C800023F0400342F080008342F3E7D8E0030072
:109C9000D1F8B83108461B69012100F5D870184782
:109CA000F8B5114E3368044613B9784608F0F0F958
:109CB000EFF3108772B63568A5420BD1D4F8C431E2
:109CC000336007B962B6F8BD13B9784608F0E0F919
:109CD000D5F8C451D5F8C431A342F5D1D4F8C43174
:109CE000C5F8C431EDE700BF6834002010B5044664
:109CF00010B9784608F0CCF9A4F5D87494F8A130DE
:109D0000012B09D12046FFF7CBFF204610F063FB63
:109D1000002084F8A10010BD0820FCE72DE9F041E7
:109D20008846911C054616461F4610F094FA0446D4
:109D300000B3731C437429238374324641461330A5
:109D400013F07AF92771EFF3108772B6D5F8A8618E
:109D50000136731CC5F8A86102D1784608F098F95D
:109D600007B962B628462660214610F0B0FA0020F6
:109D7000BDE8F0810420FBE700B5D0F89C3089B045
:109D80001BBA00934FF43063ADF804308DF8061021
:109D9000062307226946FFF7C1FF09B05DF804FBFF
:109DA00000B5D0F89C3089B01BBA00938DF8041030
:109DB0000123062269468DF80530FFF7AFFF09B091
:109DC0005DF804FB00B5D0F89C3089B01BBA009355
:109DD0004FF4E063ADF80430062201236946FFF733
:109DE0009DFF09B05DF804FB2DE9F04190F8E030EB
:109DF000022B88B0044602D0784608F049F994F85E
:109E0000E330002B3BD194F8A130032B02D07846ED
:109E100008F03EF994F8E030022B02D0784608F0C2
:109E200037F994F8E130D4F89C1094F8A3208DF819
:109E30000420142B09BA1D46009128BF1425991C33
:109E40001722B1FBF2F194F8E2208DF80820890086
:109E50001B028DF805102A4604F1E4010DF10900FA
:109E6000ADF8063013F0E8F8012305F10902694660
:109E70002046FFF753FFA8B9012384F8E33094F894
:109E8000E3707D1E05EB4503C5EBC305ADB24FF096
:109E9000170894F8E160B31CB3FBF8F30133DBB2AD
:109EA000BB4202D808B0BDE8F08105F11401D4F836
:109EB0009C3089B2761AB6B21BBA172E009394F86A
:109EC000A3308DF8043028BF1726BB00E43143F0DF
:109ED0000203324621440DF106008DF8053013F0DF
:109EE000ABF80123B21D69462046FFF717FF17356F
:109EF000ADB20028D6D194F8E330013384F8E330D2
:109F00000137C6E770B590F8A130023B022B04463A
:109F10000D4602D9784608F0BBF82046FFF7C0FE90
:109F200094F8A030012B02D0784608F0B1F8204612
:109F300010F051FA002384F8E030A4F8A03004F1C6
:109F4000C0000BF0D1FAD4F8BC31294604F5D87022
:109F5000DB68BDE87040184738B50D46044610B9B7
:109F6000784608F095F8022D02D9784608F090F866
:109F7000A4F5D87494F8A13013F0FB0F16D0023B6F
:109F8000012B02D9784608F083F894F8A130022B0F
:109F900002D1204610F01FFA29462046FFF7ECFEBA
:109FA00028B9042384F8A13084F8A45038BD294688
:109FB0002046BDE83840FFF7A5BF10B504460BF0BA
:109FC000D3FAD4F8DC10014404F1C000BDE810401D
:109FD0000BF0A1BA13B50446EFF3108272B6174B1B
:109FE0001968C0F8C411186002B962B6144B1B6836
:109FF0001B0718D5134B1B68032B14DD12482F21A8
:10A0000013F0FAF888B12F210F4813F0F5F8411C2E
:10A010000E4B0F4AD3F80435009201944FF4CB72E3
:10A0200004200DF075F802B010BD07485C2113F054
:10A03000E3F808B15C21E7E70349E9E76834002069
:10A040001C2E0020182E0020EEE00300001001401E
:10A0500011E1030037B591F8A130032B05460C46FA
:10A060004ED191F8E030022B4AD1D1F8D8301B1AEA
:10A07000002B14DA01212046FFF77EFE48B90423A5
:10A0800084F8A130012384F8A430C4F8B40003B0EC
:10A0900030BD1D4BC4F8B430C4F8D850F7E71B4BA3
:10A0A0001B681B071AD51A4B1B68042B16DD1948B1
:10A0B0002F2113F0A1F8D0B12F21164813F09CF8EE
:10A0C000411C154B94F8E420D3F804350192134A4F
:10A0D000009205204FF470720DF01AF8002320460C
:10A0E00084F8E33003B0BDE83040FFF77DBE094897
:10A0F0005C2113F081F808B15C21DEE70549E0E757
:10A100000023C4F8B430C2E740420F001C2E0020E8
:10A11000182E0020EEE00300001001403DE1030096
:10A12000F0B50F4689B01646054610B9784607F0D7
:10A13000AFFFA5F5D87494F8A020012A03D194F8B4
:10A14000A130002B5DD10023012AC4F8DC60C4F8E3
:10A15000CC3084F8E03084F8A33084F8A23084F85E
:10A16000A130C4F8A83113D0012384F8A030264BC5
:10A17000C4F8B030254BC4F8C8302549C4F8B840FD
:10A18000C4F8D0408023A5F18802204610F04AF997
:10A19000A5F58A76304604210BF0F4FA002384F802
:10A1A000A330802384F8A23033681BBA00931022B6
:10A1B0004FF4407339460DF10600ADF8043012F04B
:10A1C0003BFFFF23162269462046FFF7A7FD064600
:10A1D000A0B90BF0C9F90F490144A5F1F0000BF04B
:10A1E0009AF93C21204610F0C9F8204610F016F8E4
:10A1F0002046FFF7EFFE022384F8A130304609B075
:10A20000F0BD0826FAE700BF55A00200919C0200AD
:10A2100019A2020000879303D0F8A8318B4206D11F
:10A22000012380F8AC31024B18680BF01FBF704758
:10A23000F42D002038B5124B1C6800250CB9012004
:10A2400038BD94F8AC3193B194F8A12094F8E03083
:10A2500084F8AC51042A0DD1022B03D104F1A800DB
:10A260000BF042F994F8A4102046FFF74BFED4F807
:10A27000C441E3E7022BFAD12046FFF7B5FDF6E72C
:10A28000683400202DE9F0410E46174698460546F1
:10A2900010B9784607F0FCFEA5F5D87494F8A02014
:10A2A000012A03D194F8A130002B50D10023012AB8
:10A2B000C4F8DC80C4F8CC3084F8E03084F8A330F3
:10A2C00084F8A23084F8A130C4F8A83113D0012357
:10A2D00084F8A0301F4BC4F8B0301F4BC4F8C8300E
:10A2E0001E49C4F8B840C4F8D0408023A5F18802C4
:10A2F000204610F097F80023802284F8A320C4F8A9
:10A300009C3084F8A2303A4631462046FFF74DFA99
:10A31000054610B9784607F0BBFEFF232B714FF0BE
:10A32000FF332B604FF4FA61204610F027F82946DE
:10A3300020460FF0CCFF20460FF070FF2046FFF7BD
:10A3400049FE012384F8A1300020BDE8F0810820F7
:10A35000FBE700BF55A00200919C020019A2020079
:10A3600030B5064C0022FF23914202DCD843C0B234
:10A3700030BD855C6B400132E35CF5E7BFE3030071
:10A38000F0B50B78012B95B005460C4602D0784607
:10A3900007F07EFE271D61783846FFF7E1FFA378BE
:10A3A000834224D195F8A21028460026FFF7F8FC36
:10A3B000E67095F8A220531C03F07F0322F07F0281
:10A3C000134385F8A23062780192394603A812F04F
:10A3D00033FE28462670FFF7F0FDD5F8BC31019A10
:10A3E0001B6803A905F5D870984715B0F0BD002388
:10A3F0002370FAE72DE9FF4188461446054610B957
:10A40000784607F045FE14B9784607F041FE2B6800
:10A410001BBAEFF3108172B6A44E34686CB901B95F
:10A4200062B6687900F00303032B00F29C80DFE83A
:10A4300013F00B005801D7016202D4F89C2093421C
:10A44000EDD0D4F8C441E9E7002C00F08C8094F8FA
:10A45000A130032B40F0878094F8E020002A40F0E0
:10A460008E802A7994F8A2309A4230D1EB881B0A68
:10A4700084F8E13017220233B3FBF2F30133DBB28D
:10A48000072B07D9022104F5D87004B0BDE8F041CC
:10A49000FFF762BD2B7A84F8E230A8F109080123A6
:10A4A00084F8E03084F8E330424605F1090104F114
:10A4B000E40012F0C1FD94F8E130984553D104F165
:10A4C000E001204604B0BDE8F041FFF759BF784BEA
:10A4D0001B6803F0080328D2BBB1764B1B68042B22
:10A4E00013DD75482F2112F087FEA8B12F21724885
:10A4F00012F082FE411C714B714AD3F80435009270
:10A5000040F2CE2205200CF003FE2979204604B04B
:10A51000BDE8F041FFF744BC67485C2112F06CFED7
:10A5200008B15C21E3E76449E5E7E3B1614B1B68EF
:10A53000012B18DD60482F2112F05EFEB0B12F21F3
:10A540005D4812F059FE411C5C4B94F8A220D3F8F0
:10A55000043502922A7901925A4A009240F2D3229B
:10A5600002200CF0D5FD04B0BDE8F08152485C211A
:10A5700012F042FE08B15C21E2E74F49E4E74C4BA0
:10A580001B68022A03F0080373D1297994F8A220EA
:10A59000914220D2002BB8D0464B1B68042BB4DD6F
:10A5A00045482F2112F028FE60B12F21424812F0B9
:10A5B00023FE411C414B424AD3F80435009240F23D
:10A5C000DA229FE73C485C2112F016FE08B15C21BC
:10A5D000ECE73949EEE725D9002BC4D0354B1B6891
:10A5E000012BC0DD34482F2112F006FE88B12F2147
:10A5F000314812F001FE411C304B94F8A220D3F8F0
:10A60000043502922A7901922E4A009240F2DF220A
:10A61000A6E729485C2112F0EFFD08B15C21E7E7CD
:10A620002549E9E7002B9ED0224B1B68042B9ADDBD
:10A6300021482F2112F0E0FD90B12F211E4812F089
:10A64000DBFD411C1D4B94F8A220D3F80435029287
:10A650002A7901921C4A0092052040F2E32280E709
:10A6600015485C2112F0C8FD08B15C21E6E71249EB
:10A67000E8E7002B3FF477AF0E4B1B68012B7FF709
:10A6800072AF0D482F2112F0B7FD08B32F210A48F1
:10A6900012F0B2FD411C094B0C4AD3F8043500926C
:10A6A0004FF43A7202200CF033FD5CE7683400206E
:10A6B0001C2E0020182E0020EEE0030000100140A8
:10A6C00051E10300A1E10300EBE1030024E20300F8
:10A6D000AC485C2112F090FD08B15C21D7E7A94994
:10A6E000D9E7002C3FF43FAF94F8A130032B7FF45F
:10A6F0003AAFA54B94F8E0201B68022A03F0080348
:10A700004BD1297994F8A320914246D1D3B19F4BE4
:10A710001B68032B16DD9B482F2112F06DFD98B3AB
:10A720002F21984812F068FD411C994B94F8E420C1
:10A73000D3F804350192974A0092042040F2233264
:10A740000CF0E6FC002504F1A800C4F8B4500AF0AF
:10A75000CBFE20460FF03FFE94F8A32084F8E05093
:10A76000531C03F07F0322F07F02134384F8A330CD
:10A770002046FFF722FCD4F8BC315B6804F5D870A2
:10A7800004B0BDE8F04118477E485C2112F034FD6A
:10A7900008B15C21C5E77B49C7E7002B3FF4E3AE76
:10A7A0007A4B1B68012B7FF7DEAE76482F2112F023
:10A7B00023FD60B12F21734812F01EFD411C744B24
:10A7C000754AD3F80435009240F235326AE76D4895
:10A7D0005C2112F011FD08B15C21ECE76949EEE75C
:10A7E000002C3FF4C0AE94F8A130032B7FF4BBAE35
:10A7F00094F8E060297994F8A230012E4CD18B4274
:10A8000025D194F8E33080080341DA073FF5ABAE79
:10A810001727013807FB0040A8F10602A91DF830F0
:10A8200012F00AFC6B7994F8E3209B0806FA03F314
:10A83000134394F8E1200232B2FBF7F70137DBB2A1
:10A84000FFB284F8E330BE400133B34236E64E4BEC
:10A850001B681B077FF587AE4C4B1B68012B7FF7EE
:10A8600082AE48482F2112F0C7FC60B12F21454825
:10A8700012F0C2FC411C464B484AD3F80435009202
:10A8800040F20D320EE73F485C2112F0B5FC08B1F2
:10A890005C21ECE73B49EEE78B423FF637AEBFF475
:10A8A00062AE394B1B681F077FF55DAE374B1B68E7
:10A8B000012B7FF758AE33482F2112F09DFC88B151
:10A8C0002F21304812F098FC411C314B94F8A22003
:10A8D000D3F8043502922A790192314A009240F26B
:10A8E00019323DE627485C2112F086FC08B15C2154
:10A8F000E7E72449E9E78008012853D0022800F05F
:10A90000B280002840F01481B8F1160F7FF42BAE0E
:10A9100007F0F8FB10220146A81D12F07FFB00286B
:10A920007FF421AE002C40F02D81EFF3108372B63E
:10A93000346824B9002B7FF416AE62B613E694F89F
:10A94000A120012A00F01C81D4F8C441F1E70D4890
:10A950005C2112F051FC08B15C2136E1094938E173
:10A960000023C4F89C30FEE5032B7FF4FCAD94F883
:10A97000E030002B7FF4F7AD204604B0BDE8F04195
:10A98000FFF720BAEEE003001C2E0020182E002056
:10A990000010014056E2030071E2030091E203005F
:10A9A000C2E20300002C3FF4DEADB8F1060F7FF4E5
:10A9B000DAAD94F8A130914D022B2AD120460FF048
:10A9C0000AFD142120460FF0D9FC2B681D0740F129
:10A9D0000A818B4B1B68032B40F3058189482F218B
:10A9E00012F00AFC60B12F21864812F005FC411CD0
:10A9F000854B864AD3F80435009240F27332EFE07B
:10AA000080485C2112F0F8FB08B15C21ECE77D493D
:10AA1000EEE72B6818077FF5A6AD794B1B68012B75
:10AA20007FF7A1AD77482F2112F0E6FB90B12F21DF
:10AA3000744812F0E1FB411C734B94F8A120D3F849
:10AA400004350192724A009240F27B3202200CF0EF
:10AA50005FFB88E56B485C2112F0CEFB08B15C21FE
:10AA6000E6E76849E8E7002C3FF47DADB8F1070F51
:10AA70007FF479AD94F8A130604E023B012B30D8C1
:10AA800094F8E030022B03D104F1A8000AF02CFD69
:10AA9000A9792046FFF736FA336819077FF563ADC9
:10AAA000574B1B68032B7FF75EAD56482F2112F0E2
:10AAB000A3FB68B12F21534812F09EFB411C524B5F
:10AAC000544AD3F804350092042040F28D32EAE56E
:10AAD0004C485C2112F090FB08B15C21EBE749493E
:10AAE000EDE733681A077FF53EAD454B1B68012B38
:10AAF0007FF739AD43482F2112F07EFB78B12F212B
:10AB0000404812F079FB411C3F4B94F8A120D3F848
:10AB100004350192404A009240F2923296E7394859
:10AB20005C2112F069FB08B15C21E9E73549EBE7EC
:10AB3000324B1B681B077FF516AD314B1B68012B91
:10AB40007FF711AD2F482F2112F056FB78B12F213E
:10AB50002C4812F051FB411C6A792B4B9208D3F818
:10AB6000043501922D4A009240F297326EE7254853
:10AB70005C2112F041FB08B15C21E9E72149EBE7D8
:10AB800003B962B694F8A130012B7FF4EDAE2B68C7
:10AB90001BBA2046C4F89C3014210FF0EFFB20466E
:10ABA000FFF710F900287FF4DBAE144B1B681E077B
:10ABB00019D5134B1B68032B15DD12482F2112F0FA
:10ABC0001BFB00283FF4C3AE2F210E4812F014FBEC
:10ABD000411C0D4B0D4AD3F80435009240F2563219
:10ABE00004200CF095FA032384F8A1302046FFF7E7
:10ABF000E4F9D4F8BC319B68C0E500BF1C2E0020EE
:10AC0000182E0020EEE003000010014008E30300CE
:10AC10001EE303004FE3030065E3030098E3030032
:10AC20002DE9F843A0F5D874074694F8A130032B1A
:10AC30008846164640D1412A40D810F8D05C002DF5
:10AC40003ED12046FFF7B9F90AF08EFC1722B31C5B
:10AC5000B3FBF2F30133DAB2236F534303F5F4137A
:10AC6000184A03F59063C11847F8FC3C8146C4F8C4
:10AC7000B020A7F584700AF04EFC134B4B4447F804
:10AC8000D83C022384F8E0303146C4F8B84084F858
:10AC9000E35084F8E1604046FFF762FB324684F8F7
:10ACA000E2004146A7F1CC0012F0C6F92046FFF7BA
:10ACB0009BF82846BDE8F8830820FBE70920F9E760
:10ACC0001120F7E755A0020080C3C90138B504463A
:10ACD00010B9784607F0DCF9084D2B68013303D131
:10ACE00007480BF0A5F92860012384F8B431054B1F
:10ACF000C4F8B83104F5D87038BD00BFF42D002079
:10AD000035A20200C0E403002DE9F04F0C4689B0E3
:10AD1000064600B111B9784607F0BAF92388192B15
:10AD200002D8784607F0B4F94FF6FF724FF42013BB
:10AD3000CDE905230025012305A90A223046ADF8F7
:10AD40001C30ADF8005012F077F90A2323800DF182
:10AD50000601284604F016FC10B1784607F098F971
:10AD60000DF10701002004F019FC10B1784607F03E
:10AD70008FF90DF10201002004F0F8FB10B17846C4
:10AD800007F086F9BDF80230ADF804300DF10C097A
:10AD900003236A4649460020ADF8003004F048FC21
:10ADA00010B1784607F074F9208804220DEB0201F7
:10ADB000304412F041F927889DF806300437BFB2BD
:10ADC00027805BB14FF00008BDF800A045464FF664
:10ADD000FF7BD04515D323881D4425809DF807307F
:10ADE00063B12088BDF80080002706443D464FF639
:10ADF000FF7A47451ED323881D44258009B0BDE84E
:10AE0000F08F39F8180002A904F0D4FB10B178468D
:10AE100007F03EF9BDF808305B4508D1E819022279
:10AE20000DF10A01304412F007F90235ADB208F114
:10AE30000108CEE739F8170002A904F0BBFB10B1F6
:10AE4000784607F025F9BDF8083053450ED00222A8
:10AE500002A9701912F0F0F8A81C02220DF10A01E3
:10AE600016FA80F012F0E8F80435ADB20137C0E709
:10AE7000024B1B6803B11847704700BF6C340020B9
:10AE800013B5044601A805F073FDBDF80430181B86
:10AE900018BF4FF0FF3080B202B010BD37B5044686
:10AEA0000DF020FE0546002301A8009305F060FD8B
:10AEB000288A694606F03EFB30B9009B6360BDF806
:10AEC0000430238003B030BD0520FBE707B5002028
:10AED00001A90EF098FF10B1784607F0D9F8BDF837
:10AEE00006000A23B0FBF3F09DF80530013B03F0A8
:10AEF0000703013843EAC00003B05DF804FB1FB547
:10AF00000193BDF81830ADF80020ADF808304FF6C9
:10AF1000FF724FF40073ADF80220ADF80A306A46B4
:10AF2000079B039304F002F805B05DF804FB0000F2
:10AF30001FB5044603910AF0E3F8084B0399186023
:10AF4000074B01221A7000230190009348F24A0235
:10AF50002046FFF7D4FF04B010BD00BF74340020BA
:10AF600070340020F0B50B89032B87B006460C46E1
:10AF700026D14D68AB78012B22D800278DF80C70B4
:10AF80002B88ADF80D3002238DF80F300AF0B8F899
:10AF900004230190009348F2480203AB2146304657
:10AFA000FFF7ADFF0822394604A812F053F81E231C
:10AFB0008DF810302B88ADF8143004A8FFF758FF37
:10AFC00007B0F0BD10B586B0044603918DF814208B
:10AFD000ADF815300AF094F803230190009303991B
:10AFE00005AB48F244022046FFF789FF06B010BDCA
:10AFF000F0B50C460988A1F500411B3987B005461C
:10B0000017461E46102936D8DFE801F0090909095C
:10B01000350909093535353535354D356400092291
:10B02000002103A812F016F823888DF80C60A3F510
:10B0300000431B3B072B32D8DFE803F004042B044A
:10B04000311F1F1F63681A88ADF80D205A88ADF8AC
:10B050000F205B68CDF81130002F14BF072609269A
:10B060000AF04EF8CDE9006003AB48F21F0221461A
:10B070002846FFF744FF07B0F0BD636833F8122B92
:10B08000ADF80D2000228DF80F208DF810201B68E0
:10B09000E0E7636833F8022BADF80D20F7E7784658
:10B0A00006F0F6FFD8E70522002103A811F0D2FF31
:10B0B00063688DF80C601A88ADF80D205B88ADF8D8
:10B0C0000F300AF01DF805230093019003AB48F2FE
:10B0D0002A02CCE70722002103A811F0BBFF636816
:10B0E0008DF80C601A88ADF80D209A88ADF8112003
:10B0F0005B88ADF80F300AF003F807230093019046
:10B1000003AB48F22C02B2E730B585B004460D46D9
:10B11000002303A90120ADF808300EF074FE10B131
:10B12000784606F0B5FF9DF80C308DF808309DF894
:10B130000D309DF80920013B63F302028DF80920D0
:10B14000BDF80E20142A04D19DF8093013F007032E
:10B1500005D00A23B2FBF3F3013B03F01F039DF874
:10B16000092063F3C7028DF8092009F0C9FF022303
:10B170000190009348F2280202AB29462046FFF7CF
:10B18000BEFE05B030BD7FB50B89022B05460E46CD
:10B190003ED14C682378012B3AD803F001038DF897
:10B1A00004306378C3F3020301338DF8053063780C
:10B1B00083B3DB08013303EB83035B00142B38BF3D
:10B1C000142301A90120ADF806300EF00BFE10B1DA
:10B1D000784606F05DFF31462846FFF795FF0822C6
:10B1E00000210DEB020011F035FF08238DF8083027
:10B1F00023788DF80C306378C3F302038DF80D309B
:10B20000637802A8C3F3C4038DF80E30FFF730FE55
:10B2100004B070BD1423D1E730B589B00446ADF851
:10B2200017309DF8343003910020002B8DF8140066
:10B230000C98ADF8152014BF07250925CDF8190085
:10B2400009F05EFF0399CDE9005005AB48F21F02FB
:10B250002046FFF754FE09B030BDF0B50F89012F2D
:10B2600087B005460C461FD14E683378012B1BD89A
:10B2700002238DF80C3009F043FF03ABCDE90070D9
:10B2800048F2140221462846FFF739FE0822002121
:10B2900004A811F0DFFE06238DF8103033788DF806
:10B2A000143004A8FFF7E4FD07B0F0BD10B586B078
:10B2B000CDE902138DF814209DF80E30BDF80C2056
:10B2C000ADF8152004468DF8173009F019FF042356
:10B2D00001900093029905AB48F203022046FFF764
:10B2E0000EFE06B010BD0000F0B50C8924F002047B
:10B2F000A4B287B007460D464CBB4E68308809F0B3
:10B300006DFD012823D13388ADF80830114B1A8820
:10B310009B78ADF80A208DF80C3009F0F1FE05237A
:10B320000190009348F22E0202AB29463846FFF7FF
:10B33000E6FD0822214604A811F08CFE2C238DF88E
:10B3400010303388ADF8143004A8FFF791FD07B032
:10B35000F0BD00BF7BE503002DE9F0430B89022B14
:10B3600085B007460C463CD14B68B3F80090C9F352
:10B370000B0005F047FCA38C8342064634D14B46B4
:10B380000C2221463846FFF71DFE2AE038F815004A
:10B3900005F04CFC28F815000135029BAB42F5D8AE
:10B3A00031E038F8150004F0A1F910B1784606F044
:10B3B0006FFE0135029BAB42F3D84B46002221467B
:10B3C0003846FFF7FFFD082200210DEB020011F0C7
:10B3D00041FE172302A88DF80830ADF80C60FFF786
:10B3E00047FD05B0BDE8F0834FF6FF739842E4D007
:10B3F0000DF10408012302AA4146029306F016F853
:10B4000005460028C9D0304605F0D6FF054600287D
:10B41000D0D00F28B3D04B460422B2E72DE9FF412C
:10B420000B89122B07460D462ED1D1F80480082235
:10B4300044460DEB0200002134F8026B11F00AFEC5
:10B440002A8848F240039A42C6F30B061FD12146D0
:10B450000DF10602304605F059FC152304460F2C69
:10B460008DF80830BDF80630ADF80C3096BF0D4BA6
:10B4700010221A5DB8F8003029463846FFF7A2FDC1
:10B4800014B902A8FFF7F4FC04B0BDE8F08130461F
:10B4900005F0B8FB2146ADF8060005F0DBFC1623ED
:10B4A0000446DCE77EE503007FB503230DF10602C9
:10B4B00002A90546ADF8063003F016FF062826D08F
:10B4C00010B1784606F0E4FD0024BDF80620A3B2D2
:10B4D0009A4202D8002004B070BDA3B204AA5E0054
:10B4E00002EB4303284633F8081C03F0D1FE10B1E9
:10B4F000784606F0CDFD04AB1E4436F8080C05F086
:10B50000DBFA10B1784606F0C3FD0134DDE7082010
:10B51000E1E72DE9F0438DB01C461546804689468B
:10B52000092200210DF1250011F094FD00230DF1F9
:10B530000B0120468DF82030ADF8215003F0D2FFEA
:10B5400010B1784606F0A4FD9DF826309DF80B203A
:10B5500003F00F0343EA021305A920468DF82630B5
:10B5600004F028F810B1784606F092FDBDF814609A
:10B57000BDF816304FF6FF7296420DF10E012046CF
:10B580000EBFADF82A30ADF82C30ADF82A6003F0CC
:10B59000F5FC10B1784606F07BFDBDF80E004FF6C5
:10B5A000FF73984218D100238DF823308DF8243092
:10B5B0004FF6FF739E420CBF0C260E2609F0A0FD2D
:10B5C00008ABCDE9006048F2190249464046FFF752
:10B5D00096FC0DB0BDE8F08306A905F03FFA10B166
:10B5E000784606F055FDBDF81A30ADF8233004A9B1
:10B5F000204603F03BFF05280546D4D000283FD164
:10B60000BDF810000DF1120105F024FB05280746D6
:10B6100004D18DF823508DF82450C9E70028C7D1F4
:10B620009DF812308DF825309DF8133003F00F028D
:10B630009DF8263023F00F0313430DF12701204618
:10B640008DF8263003F07EFF0122394603A811F061
:10B6500001FD0DF10D0203A9204603F0DDFC9DF86C
:10B660000C209DF80D3002A943EA821320468DF884
:10B67000283003F0BBFC9DF808308DF8293097E79F
:10B68000784606F005FD93E7F0B50B89032B87B0EC
:10B6900006460D4619D14F6804238DF80C303B88BF
:10B6A000ADF80D3000238DF80F303888C0F30B0053
:10B6B00005F0A8FA0DF10B01044605F0BBFBD0B96B
:10B6C000BB78022B03D0032B36D007B0F0BD9DF81A
:10B6D0000B305A1E012AF8D8012B06D1204605F05E
:10B6E00003FC10B1784606F0D3FC00238DF80C3033
:10B6F00002238DF80F3009F003FD0423019000931D
:10B70000294603AB48F217023046FFF7F8FB9DF8D5
:10B710000C100029D9D1082204A811F09BFC272382
:10B720008DF8103004A89DF80F308DF81430ADF866
:10B730001640FFF79DFBC8E79DF80B30032BC4D0E4
:10B7400033B1204605F0F4FB10B1784606F0A0FCBA
:10B7500000238DF80C30CCE770B50E89012E86B031
:10B7600005460C4621D14B6818788DF80F0003F080
:10B7700091FE0146C8B9082204A811F06BFC04230D
:10B780008DF8103004A89DF80F308DF81430FFF7B5
:10B790006FFB09F0B5FC0DF10F03CDE9006048F235
:10B7A0000E0221462846FFF7AAFB06B070BD10B571
:10B7B00086B0044603910DF075FB8DF8140009F076
:10B7C0009FFC012301900093039905AB48F20B0203
:10B7D0002046FFF794FB06B010BD70B50B89092B0E
:10B7E0008CB006460D4661D14C682388ADF81C30FC
:10B7F000A3782BB1102B5BD8013B012202FA03F393
:10B800000893E37843B1112B9DBF03F1FF3301226D
:10B8100002FA03F34FF0FF33099323798DF82830B0
:10B82000B4F8053003F00F03ADF82A30B4F8073050
:10B83000ADF82C30B4F8070005F0E4F94FF6FF73CB
:10B8400098423CD104238DF810302388ADF8113094
:10B85000E3788DF81430A3788DF8133023798DF8C0
:10B860001530B4F8053003F00F03ADF81630B4F816
:10B870000730ADF8183009F043FC0A23019000931B
:10B88000294604AB06223046FFF739FB9DF810101D
:10B8900061B908220DEB020011F0DCFB29238DF8C1
:10B8A000083002A807AB0393FFF7E2FA0CB070BDB3
:10B8B000FF2B4FF6FF7318BF4FF0FF33A0E707A829
:10B8C0000DF014F900280CBF00230F23BBE7000084
:10B8D00013B50378012B03D00E2B12D002B010BD8C
:10B8E000124B42681B689A42F8D1114C2378012B05
:10B8F000F4D1FBF7D5FE0CF071F950B90223237097
:10B90000ECE70B4C2378022BE8D10CF067F9002808
:10B91000E4D008220021684611F09CFB23236846EE
:10B920008DF80030FFF7A4FA0023E8E77434002014
:10B930007034002030B50B89012B87B005460C46CA
:10B940003FD14A688DF80C301378C3F302030133FA
:10B950008DF80D301378DA080A2302FB0333142B19
:10B96000B8BF142303A90020ADF80E300EF03AFA48
:10B9700010B1784606F08CFBFFF7A8FA8DF80800A6
:10B9800009F0BEFB01230190009348F2250202ABAF
:10B9900021462846FFF7B3FA0822002104A811F037
:10B9A00059FB2E238DF810309DF8083004A8C3F3FE
:10B9B0000202C3F3C4038DF814208DF81530FFF78D
:10B9C00057FA07B030BD70B50E8986B005460C46F3
:10B9D000D6B9FFF77BFA8DF80C0009F091FB012333
:10B9E0000190009348F2250203AB21462846FFF759
:10B9F00086FA0822314604A811F02CFB2D2304A856
:10BA00008DF81030FFF734FA06B070BDF0B50E892E
:10BA1000022E87B005460C4622D14F68082200212D
:10BA200004A811F017FB1D238DF810303B88ADF8EA
:10BA3000143000238DF80C303B88ADF80D308DF8B4
:10BA40000F6009F05DFB042301900093284603ABCF
:10BA500048F248022146FFF752FA04A8FFF708FA15
:10BA600007B0F0BD13B50C8964B9FFF74DFB082290
:10BA70002146684611F0EEFA072368468DF800303B
:10BA8000FFF7F6F902B010BDF0B51F460B880C4663
:10BA9000164623F0020148F21802914287B005468B
:10BAA00001D0032B2CD10E22002102A811F0D2FAD2
:10BAB00023888DF8087048F21802934209D048F2A2
:10BAC0001A0293421ED0032B20D1636833F8092B4E
:10BAD00002E0636833F8022BADF809201B68CDF84B
