:020000022000DC
:1060000000FD00206D9D0300959D0300979D0300FA
:10601000999D03009B9D03009D9D030000000000CF
:106020000000000000000000000000009F9D030031
:10603000A19D030000000000A39D0300A59D030097
:10604000A79D0300A79D0300A79D0300A79D030034
:10605000A79D0300A79D03006D6C0200A79D030090
:10606000A79D0300A79D030069860300A79D030069
:10607000A79D0300A79D0300A79D0300A79D030004
:10608000A79D030055950300B5410300A79D03009C
:1060900025960300A79D030051710200A79D0300F0
:1060A000A79D0300A79D0300A79D0300A79D0300D4
:1060B000A79D0300A79D0300000000000000000052
:1060C000A79D0300A79D0300A79D0300A79D0300B4
:1060D000A79D0300A79D0300A79D030000000000EB
:1060E00000000000000000000000000000000000B0
:1060F00000000000000000000000000000000000A0
:10610000000000000000000000000000000000008F
:10611000000000000000000000000000000000007F
:10612000000000000000000000000000000000006F
:10613000000000000000000000000000000000005F
:10614000000000000000000000000000000000004F
:10615000000000000000000000000000000000003F
:10616000000000000000000000000000000000002F
:10617000000000000000000000000000000000001F
:10618000000000000000000000000000000000000F
:1061900000000000000000000000000000000000FF
:1061A00000000000000000000000000000000000EF
:1061B00000000000000000000000000000000000DF
:1061C00000000000000000000000000000000000CF
:1061D00000000000000000000000000000000000BF
:1061E00000000000000000000000000000000000AF
:1061F000000000000000000000000000000000009F
:1062000010B5054C237833B9044B13B10448AFF3F0
:1062100000800123237010BDB02E0020000000007C
:10622000F4D2030008B5034B1BB103490348AFF395
:10623000008008BD00000000B42E0020F4D203004E
:10624000154B002B08BF134B9D46A3F5803A002148
:106250008B460F461348144A121A15F04BF90F4B90
:10626000002B00D098470E4B002B00D09847002001
:10627000002104000D000D48002802D00C48AFF3A7
:10628000008015F0E7F82000290000F065F915F00E
:10629000CDF800BF0000080000FD00200000000055
:1062A00000000000B02E0020B858002000000000C0
:1062B0000000000041DF7047F0B54FF0A0434FF4FD
:1062C00000320024C3F80825C3F80C458268EBB0FF
:1062D000117D92F90D300691D17C0591917C04914C
:1062E000517C0391117C0291D17B01910178009145
:1062F00009AE52682A490546304615F0BDF9294BCA
:106300001B685B0428D5284B1B68032B24DD6878A9
:10631000264B802829AA1F6828BF802023461446C0
:10632000834202F1020222D10022214804F8132004
:106330002F2115F0D1F948B32F211D4815F0CCF9C4
:10634000411C1C4B1C4AD3F804350092CDE9016472
:10635000612204200EF0A8FE4FF0A0434FF400325B
:10636000C3F80C250022C3F808256BB0F0BD69689E
:10637000C95C4FEA111C01F00F0117F80CC002F8BC
:1063800002CC795C02F8011C0133C9E708485C21A2
:1063900015F0A2F908B15C21CFE70549D1E700BFAC
:1063A000A9BE0300202E00201C2E0020242E002039
:1063B00088BE030000100140F0BE030007B503785B
:1063C000232B2ED1184B1B685B0416D5174B1B686B
:1063D000032B12DD16482F2115F07EF9C0B12F21B5
:1063E000134815F079F9411C124B134AD3F80435C0
:1063F0000092042096220EF057FE0322C8214FF48B
:10640000F01000F0C5FB03B05DF804EB00F0D6BA65
:1064100007485C2115F060F908B15C21E0E7044908
:10642000E2E703B05DF804FB202E00201C2E0020C4
:1064300088BE030000100140F8BE030010B50446FA
:1064400000214FF4F01004EB840400F097FB62008D
:106450003221BDE810404FF4C01000F099BB00F0AD
:10646000C9BB00001FB503A803F0FCFD144B1B685B
:106470005B0419D5134B1B68032B15DD12482F2124
:1064800015F02AF998B12F210F4815F025F9411C74
:106490000E4BBDF80C20D3F8043501920C4A009243
:1064A0000420B5220EF000FE05B05DF804FB06489E
:1064B0005C2115F011F908B15C21E5E70249E7E735
:1064C000202E00201C2E002088BE0300001001405A
:1064D00011BF030007B51B4B1B685B0416D51A4B95
:1064E0001B68032B12DD19482F2115F0F5F8F8B1C0
:1064F0002F21164815F0F0F8411C154B154AD3F81A
:10650000043500920420BA220EF0CEFDFFF7AAFF58
:1065100000F070FB00214FF4F01000F02FFB04227C
:10652000C8214FF4F01003B05DF804EB00F030BB6D
:1065300006485C2115F0D0F808B15C21D9E7034981
:10654000DBE700BF202E00201C2E002088BE0300A9
:106550000010014028BF030000B58DB013F0AAF968
:1065600018B19E4AE52113F02CFC9D4C00F052FB23
:106570009C4A04214FF480400EF07AFD23685D04AC
:1065800018D5994B1B68032B14DD94482F2115F067
:10659000A3F8002800F0D9802F21904815F09CF82E
:1065A000411C924B924AD3F8043500920420E92210
:1065B0000EF07AFD00F02CFC0021242203A814F038
:1065C00099FF01238DF80C3007238DF80F30062337
:1065D0008DF814308749884B079303A800F0B4F96D
:1065E00028B30B2840F0DF80236858041FD57E4E67
:1065F0003268032A1BDD79482F2115F06DF8002839
:1066000000F0AC802F21754815F066F8411C774DDD
:106610007A4AD5F8043500920420CF220EF044FDCA
:106620002368590403D53368032B00F3A080744812
:106630000CF004FD734A74484023002111F0BEFEA3
:1066400023685A0418D5684B1B68032B14DD634874
:106650002F2115F041F8002800F0AA802F215F4873
:1066600015F03AF8411C614B684AD3F804350092A2
:106670000420EF220EF018FD5E4B1978002940F03F
:10668000A080102203A814F035FF614B0493614BE6
:106690000593614B0793614B089303A8604B0993E3
:1066A00000F006FA20B14D4A4FF4807113F089FBD7
:1066B000092011F065FC544811F07CFD524812216C
:1066C00011F095FD054650B156491222113014F0D3
:1066D00003FFFF234C482B71294611F0C4FD09F03C
:1066E000B5FC00F0F5FA00F0B1F820B13B4A4FF4E8
:1066F000877113F066FB23685B0418D53A4B1B685F
:10670000032B14DD35482F2114F0E6FF00285BD061
:106710002F21324814F0E0FF411C344B424AD3F899
:106720000435009204204FF488720EF0BDFC002165
:106730004FF4F01000F022FA0222C8214FF4F010BA
:1067400000F026FAFFF7B6FDFCE724485C2114F0C0
:10675000C3FF08B15C2120E7204922E71F485C21E4
:1067600014F0BAFF08B15C214DE71C494FE71B4804
:106770002F2114F0B1FF68B12F21184814F0ACFF9D
:10678000411C2A4AD5F8043500920420D0220EF08C
:106790008BFC4CE711485C2114F09EFF08B15C2192
:1067A000EBE70E49EDE70D4AD52113F00AFB3EE772
:1067B0000A485C2114F090FF08B15C214FE70749BB
:1067C00051E7FFF74FFE73E704485C2114F084FFA4
:1067D00008B15C219DE701499FE700BF88BE030027
:1067E000202E0020455003001C2E002000100140E8
:1067F00042BF0300A82F0020BD6302006DBF03004D
:10680000B9620200CC2E00200C2F0020E4BF030050
:10681000D56402003D6402005F640200FEBF030015
:1068200050C003003EC0030016C00300BBBF0300FE
:1068300010B504460FF09EF938B123780E2B04D121
:10684000BDE8104000200CF055BC10BD0CF092BB10
:1068500070B5837DC27D86B043EA0223ADF8143063
:106860000546012305A80E46ADF8163003F0C6FB19
:106870000446002845D1288A04AA294603F0A2FD2F
:10688000044600283DD1BDF81010E88A0DF112032E
:10689000324603F09DFF0446002832D1297ED5F808
:1068A000120001F001010BF0DFFF10B1784604F097
:1068B0003DFDBDF8120007F027F9044608BB174B51
:1068C0001B681B031DD5164B1B68062B19DD1548CD
:1068D0002F2114F001FFB8B12F21124814F0FCFE53
:1068E000411C2A7E104B02F00102D3F804350292BB
:1068F000D5F8122001920D4A00920720C6220EF010
:10690000D3FB204606B070BD06485C2114F0E4FEBF
:1069100008B15C21E1E70349E3E700BF202E002036
:106920001C2E002060C00300001001407FC0030047
:1069300008B50CF031FF01F039FD03F09DFABDE818
:1069400008400BF079BD000073B50E46054688B3CC
:106950000CF0A2FA044650BB03F03EFB01F060FDD0
:10696000286907F0A1F8044608BB2B7F0193AB69A7
:10697000009301466B6910484FF6FF7207F044FB25
:106980000446A0B92B6A03B1984710F06BFC03F0E2
:1069900013FA054601F076FA0B2D01D00B2802D12F
:1069A000FFF7C6FF0B2404F0B3FB06B1307020469E
:1069B00002B070BD0E24FAE7AC2F002008B50FF02E
:1069C000D9F820B1BDE8084000200CF093BBBDE829
:1069D000084001480CF02ABBF02D002010B50749F3
:1069E000074807F005FF024638B9064906484969D5
:1069F000BDE81040012307F014BF10BD2430002073
:106A000040330020083000200C32002010B50378FD
:106A1000023B082B2CD8DFE803F01B05102B2B2C96
:106A20002B2B38001E4B9B6813B3007A00B31D4A12
:106A300001211170BDE810401847194BDB68BBB14C
:106A4000184A1178A1B100211170BDE81040184713
:106A5000154B1A78124B42B91B6913B111490A70D0
:106A60009847BDE81040FFF7B9BF5B68002BECD139
:106A700010BD0B4B0D489969102207F017FF002835
:106A8000F6D0BDE8104013F08FB9D0E90210FFF73F
:106A9000DFFE08B113F088F9034B01221A70E7E713
:106AA0000830002004300020053000200C32002087
:106AB00070B5164A164E5168044686B0106803AB8E
:106AC00003C31189927A19809A700FCC35460FC58D
:106AD00094E8070085E80700B369A3B10D4B009364
:106AE0000D4A0E490E4803AB07F054FE48B90D4855
:106AF00009F066FA01460A4807F066FE08B9FFF792
:106B00006DFF06B070BD0720FBE700BF9FC003000C
:106B1000083000200D6A020024300020403300209D
:106B20000C3200204430002070B5104C206808B9A9
:106B300013F03AF94FF0A0450D4ED5F80435326800
:106B40005340C5F804352368013B236063B9094805
:106B500012F06AFF3268D5F8043523EA0203064AC8
:106B600012681343C5F8043570BD00BF80330020A0
:106B70008433002088330020B03300204FF0A0433E
:106B800011B1C3F80C057047C3F808057047000041
:106B9000F8B52AB3132923D9124B134C5200013AEA
:106BA0004FF0A0451A602060D5F8043518400F4B0F
:106BB0004FF4FA76186000274FF40040E0FB0167BD
:106BC0004FF47A7200233046394614F0B3FA0022AB
:106BD0000146074812F0DCFE10B92368C5F80C35F1
:106BE000F8BD00BF8033002084330020B033002084
:106BF0008833002008B5054812F016FF044B1A68C8
:106C00004FF0A043C3F8082508BD00BF883300201B
:106C10008433002008B54FF0A04303224FF4003125
:106C2000C3F84427C3F808154FF48021C3F8482758
:106C3000C3F808154FF40021C3F84C27C3F8081512
:106C4000C3F850274FF48012C3F808250548064AB8
:106C5000012112F08BFE18B1BDE8084013F0A4B872
:106C600008BD00BFACC00300296B0200F8B5134B90
:106C7000134D144E144F0024C3F87C414FF0A04331
:106C800015F8011BD3F8102501238B40934310D036
:106C90003368D7F80425991A48BFD11A43F2333321
:106CA000994206D9D7F804353360084B20461B6853
:106CB00098470134042CE1D1F8BD00BF00600040CA
:106CC000B0C00300AC33002000100140A833002006
:106CD0002DE9F0410446CEB038B1424D2B685A043C
:106CE00003D5414E3368032B02DC4EB0BDE8F08182
:106CF0003E4B18680DAB611E04F10F0C1F4611F8D6
:106D0000012F4FEA121E02F00F0210F80EE083F876
:106D100000E0825C5A70614503F10203EFD1002369
:106D2000334887F820302F2114F0D6FC002846D0B5
:106D30002F212F4814F0D0FC411CDFF8C4802D4ACD
:106D4000D8F8043501922C4A00920297422204207E
:106D50000EF0AAF92B685B04C7D53368032BC4DD9A
:106D600023482F2114F0B8FC002831D02F212048CF
:106D700014F0B2FC411CE27B2068D8F804350B9279
:106D8000A27B0A92627B0992227B0892E27A0792A6
:106D9000A27A0692627A0592227A0492E28852BA24
:106DA00092B20392A28852BA00BA92B2CDE901021D
:106DB000124A0092042043220EF076F995E70C481F
:106DC0005C2114F089FC08B15C21B2E70849B4E702
:106DD00007485C2114F080FC08B15C21C7E7044936
:106DE000C9E700BF202E00201C2E0020242E0020EA
:106DF000B4C00300DCC00300F0BE0300EEC003001B
:106E00000010014060DF704769DF70470CF010B977
:106E100010B588B000F04AF908B112F0C5FF2B4B4D
:106E20000393039B04930C22002105A814F062FB3A
:106E30000023049A8DF8143005A90120FFF7E4FF20
:106E400008B112F0B1FF0C22002105A814F052FB8A
:106E5000F823049A059305A9A120FFF7D5FF08B1EF
:106E600012F0A2FF04A8FFF7CDFF039B049A9A42F9
:106E700004461CD0164B1B685B0418D5154B1B68C9
:106E8000012B14DD14482F2114F026FCA8B12F216A
:106E9000114814F021FC411C104B049AD3F804351E
:106EA00001920F4A00920220AB220EF0FDF814B1BD
:106EB000204612F079FF08B010BD07485C2114F09D
:106EC0000BFC08B15C21E3E70349E5E7F02D002066
:106ED000202E00201C2E00202EC103000010014097
:106EE0005EC1030070B5EFF3108672B60C4A946869
:106EF00001239CB993600B4B0B4DD3F880102940B4
:106F00001160C3F88050D3F8841051604FF0FF3205
:106F1000C3F88420047006B962B670BD0370FAE746
:106F20003058002000E100E0FC06FFBD10B5084B22
:106F30009A685AB150B9EFF3108172B6054A1C68CD
:106F400014605C685460986001B962B610BD00BFFF
:106F50003058002000E100E001600B6843604A689F
:106F6000934204BF002343607047436843B1026803
:106F700091680B4443605268934204BF002343600E
:106F800070474BDF704700001FB50D4C01A8FFF79D
:106F9000F8FF70B9214602A8FFF7DEFF039B002B24
:106FA000F4D00198D3E90021904702A8FFF7DDFF54
:106FB000F4E7052801D012F0F7FE04B010BD00BFC1
:106FC00098C1030061DF704730B5114B1B7891B059
:106FD000E3B1104D34240DF1020103A8ADF80240D5
:106FE000FFF7F0FF70B9294601A8FFF7B5FF029B34
:106FF000002BF0D003A8D3E90021904701A8FFF7A8
:10700000B4FFF4E7052801D012F0CEFE11B030BD78
:10701000B4330020A4C1030010DF704713B5044649
:1070200009496846FFF798FF019808B902B010BDFA
:10703000D0E900212046904718B16846FFF795FF38
:10704000F2E71120F2E700BFB4C1030013B5044614
:1070500007496846FFF780FF019B0BB902B010BDDE
:107060002046D3E9002190476846FFF77EFFF3E70B
:10707000CCC103000B4991F816335A09EC23134194
:10708000DB0706D5084B9A683AB94FF480030B60CA
:10709000704742F2020012F087BE1A6842F4800282
:1070A0001A60704700E100E030580020F7B5194F32
:1070B0003C7864BB184E012520463570FFF7AEFFC3
:1070C000112821D02046FFF7C1FF144B8DF8034053
:1070D000186801900DF10300FFF704FF104901A8A3
:1070E000FFF79AFF0446B0FA80F0400938709DF827
:1070F0000300FFF71BFF3CB90A4B34701C70FFF70D
:10710000B9FF2846FFF7A2FF204603B0F0BD0824D0
:10711000FAE700BFB6330020B5330020B0C103004A
:107120002DB10200B733002007B508496846FFF7C4
:1071300013FF019B13B903B05DF804FBD3E90020F2
:1071400090476846FFF711FFF3E700BFC0C1030097
:10715000FFF7EABF38B5827802F003030446032B39
:1071600023D8DFE803F002141A1E9308154A1648C4
:10717000126813440268A3600021F2B195685D1B98
:10718000002D17DAD9B91146E160046038BD02F06C
:10719000FC0303EB92035B00E8E79208642353438C
:1071A000E4E7920841F27073F9E7784604F0BEF81C
:1071B0000023DBE71146D268DFE70029E4D0CC608A
:1071C000E260E3E7D0330020D8330020032808B57D
:1071D00003D8044B53F8200008BD784604F0A6F805
:1071E0000020F9E7D8C103002DE9F041584D2B7874
:1071F000ABB1584B584E5F680CF082F904463078BA
:10720000FFF7E4FF3278554B2044C01B002A42D1DF
:107210004CF2503290423ED91A6801321A60DFF8BF
:107220004C81D8F80020002A00F089804A4E9378DB
:10723000307803F003038342374666DD474B94689A
:107240001B68E31A464C5C43FFF7C0FFD8F80030D8
:10725000B4FBF0F09B78C3F3010403F00303022BAB
:1072600020D0032B31D0012B47D10A22B0FBF2F3FF
:1072700002FB1300002840D10CF042F900F5742104
:1072800001F5107134702B78002B50D0BDE8F0411F
:1072900030480CF00CB91A683149B0FBF1F01044D9
:1072A0001860BCE7337863B96422B0FBF2F302FBE9
:1072B000130010BB0CF024F92A49022301443B704F
:1072C000E1E7012B19D10A22EFE7337863B941F2E4
:1072D0007072B0FBF2F302FB130070B90CF010F9FE
:1072E000214903230144EAE7012B02D14FF416722E
:1072F000EFE7022B01D13C22EBE70CF001F9044649
:107300003878FFF763FF2118BDE70CF0F9F8D8F8DB
:1073100000300446987800F00300FFF757FFD8F8D4
:1073200000309B78C3F3010321183370ABE70948A1
:10733000012341602B70BDE8F0410CF07FB82B7841
:1073400023B1BDE8F04103480CF09AB8BDE8F081E4
:10735000D4330020B8330020D5330020D0330020B0
:10736000A0860100809698000046C323D8330020F1
:107370002DE9F341244B1B78032B2AD8DFE803F0D7
:10738000021B1F23214A136801331360204B214E37
:107390001E4D00221A70B04634683CB1A3682A68BA
:1073A00093421AD02A689B1A002B16DBFFF71CFFAA
:1073B00002B0BDE8F081154A13680A33E5E7134AC5
:1073C00013686433E1E7114A136803F5BB531033C4
:1073D000DBE7784603F0AAFFD8E72788E368C8F818
:1073E000003001A900233846019301F0E7FC10B1F9
:1073F000784603F09BFF384663680199984720461A
:10740000FFF7A8FEC8E700BFD5330020D033002027
:10741000D4330020D833002010B5084C18220021A6
:10742000204614F067F8064B064AA3600023136059
:10743000054A1360054A137010BD00BFB833002021
:1074400071730200D0330020D8330020D4330020E1
:1074500008B5054B1B7813B104480CF011F8BDE8D2
:107460000840FFF7D9BF00BFD4330020B833002055
:10747000F8B50D461646044610B9784603F056FF97
:10748000124F0CF031FD3B6800220BB1A34215D125
:1074900005F0030545EA8605A5709BB1DB6882B956
:1074A0003B602EB12046FFF755FE3B689C4201D160
:1074B000FFF79AFEBDE8F8400CF056BD1A46DB68AF
:1074C000E3E7D360002EF5D0ECE700BFD83300200F
:1074D0000A4B93F8390093F85D2080F00100404298
:1074E00080B24AB14FF6FF72904204D0586D1B6BC8
:1074F000C01AC00F70470120704700BFDC33002066
:1075000038B5154C242303FB0043054693F8393066
:1075100013B9784603F00AFFB4F8603013B978461F
:1075200003F004FF242202FB0543002183F83910F5
:10753000B4F86030013B9BB2A4F860301BB94FF641
:10754000FF73A4F8623002FB0544A06A10F07BFCD4
:107550000023A36238BD00BFDC3300202DE9F843CF
:107560002D4DB5F86030064613B9784603F0DEFEBF
:10757000294C06F57A79002794F839301FFA87F8F4
:107580003BB3236BA3EB0903002B22DAA38DA26A82
:1075900004F11801404600F0EFFE10280CD8DFE897
:1075A00000F00E0B0B0B0E150B150E150B0B0B0B2A
:1075B0000B0E15000127DFE7784603F0B7FE94F8BD
:1075C0003830013BDBB284F83830EBB94046FFF786
:1075D00097FF2434002FEDD0FFF77AFFB5F8603025
:1075E000A5F86200ABB1012802D9784603F09EFEEF
:1075F000B5F86230242202FB03531B6B9A1B48BF71
:10760000F21AEA60BDE8F883D4E90C32134423632C
:10761000DFE7EB60F6E700BFDC33002010B5064C77
:1076200064220021204613F065FF044BA3604FF64F
:10763000FF73A4F8623010BDDC3300205D750200DA
:107640002DE9F0470128BDF820A0064688461746D8
:10765000994602D9784603F069FEB8F1000F02D1CD
:10766000784603F063FE17B9784603F05FFE98F89A
:1076700000305B0702D1784603F058FEB9F1000FE5
:1076800002D1784603F052FEBAF1000F02D17846DB
:1076900003F04CFE274C242303FB064393F83930B8
:1076A00013B13046FFF72CFF0BF02AFF844697E812
:1076B0000F00242505FB064505F1180E8EE80F0086
:1076C000C5F82890A5F82CA098F80030C3F3020361
:1076D00085F8383098F80000C3084CF2503003FBAE
:1076E0000000012385F83930B4F8603068636044E5
:1076F00001332863A4F86030FFF7EAFEB4F8623083
:10770000984201D1864213D14FF6FF739842A4F8F4
:10771000620002D1784603F009FEB4F862300548F1
:10772000242202FB0344216BBDE8F0470BF0BFBEEF
:10773000BDE8F087DC3300204A09012301F01F0176
:1077400003FA01F150F82230194214BF0120002041
:1077500070474FF6FF72B2EB104F82B083B215D173
:1077600013F47F4007D003F44043B3F5004F14BF38
:107770000020012006E023F07F022AB97F3B18BFDA
:107780000123184602B070470346FAE723F03F038F
:10779000C02BECE701289FBF054B382202FB0030CD
:1077A00090F8340094BF00F001000020704700BF43
:1077B00084340020C0F30F43A3F540539BB2012B48
:1077C00013B512D80B4A107810F004000FD10A4AF2
:1077D000096802EBC304C943616012F8331021F059
:1077E000060102F8331002B010BD0520FBE70020AF
:1077F000F9E700BFF6340020F834002013B50190FB
:10780000000C01280C4602D0784603F08FFD0123BE
:1078100063800223A380238002B010BD13B50190C2
:10782000000C01280C4602D0784603F07FFD6388E7
:10783000012B0DD1A388022B0AD12388022B07D15B
:10784000044A137843F001031370002002B010BD06
:107850000B20FBE7F634002037B5C0F30F44A4F546
:107860004054A4B2012C01900D4602D9784603F091
:107870005DFD044B03EBC4046368DB432B6003B082
:1078800030BD00BFF834002070B51C460B89B3F53D
:10789000BE7F0546164606D3092323602068B0FA4A
:1078A00080F0400970BDFFF775FF28B10C48382300
:1078B00003FB050083890BB10523EEE73EB98288FF
:1078C0004FF6FF739A4206D0C2889A4203D00868E6
:1078D000FFF73FFF08B90723DFE70023DDE700BF1D
:1078E0008434002037B5040CB4F5805F01900D4658
:1078F00002D0784603F01AFD064BA4F58054A4B2DA
:107900000621022201FB0431284603B0BDE83040C5
:1079100013F0E2BD6E34002037B5C0F30F44A4F578
:107920000054A4B2012C01900D4602D9784603F010
:10793000FDFC054B3821142201FB0431284603B01D
:10794000BDE8304013F0C8BD84340020F7B5C0F363
:107950000F43A3F500539BB2012B019024D8154887
:10796000007810F004061DD13820134D8F89434351
:10797000EC18A08987421AD10888EB5A984216D190
:1079800048886388984212D1CA89E3899A420ED105
:107990001422204613F0A0FD94F8343023F006039F
:1079A00084F83430002000E0052003B0F0BD0B2047
:1079B000FBE700BFF63400208434002010B50E4CE5
:1079C00070220021204613F095FD062200210B486D
:1079D00013F090FD10220021094813F08BFD094A95
:1079E000E2604FF0FF3101236160A384E1636264D0
:1079F000A4F85C3010BD00BF843400206E34002039
:107A0000F8340020FFFF02002DE9F04FD5B0814689
:107A100007A80F4615461C46BDF8786102F022FB08
:107A2000724B382202FB0932918904910498BDF807
:107A30001E10814205D84FF0100A504655B0BDE8DF
:107A4000F08FBDF81C1005910DF12008002D00F0FD
:107A50009A80D5E90301B5F81EB0B5F824A02D7FB2
:107A600088E8030045B1382000FB093999F8115026
:107A7000FF2D04BF5E4B1D7814B9784603F056FC09
:107A800016B9784603F052FC0DF128092422002192
:107A9000484613F02FFD504610AA594603F0D0F87F
:107AA00082460028C9D1DDE9043298E80300134476
:107AB000A9F80830BB7A89F80B30FB7A89F80C30CA
:107AC00089E80300FB6889F80A5051464846C9F81E
:107AD0001040A9F81460C9F820300BF0A5FA8246CE
:107AE0000028AAD1434B1A6812F4005F9946A4D02B
:107AF000414B1A68042A98469FDD40482F2113F015
:107B0000EBFD00284FD02F213C4813F0E5FD411C30
:107B10003B4D3A88D5F8043501923A4A0092052047
:107B200040F2A9120DF0C0FAD9F800309B0484D5B8
:107B3000D8F80030042B80DD334B802E196828BF25
:107B4000802613ABA0191F46844203F1020333D1F0
:107B500000232A4807F816302F2113F0BDFD002816
:107B600038D02F21254813F0B7FD411C274AD5F8FE
:107B700004350192264A009202974FF4D5720520EF
:107B80000DF092FA59E7D088B2F804B0414602F0FD
:107B9000E1FA40BBB8F80220002A3FF44CAF134B87
:107BA0004FF6FF7A5FE715485C2113F095FD08B1A9
:107BB0005C21A9E71149ABE714F8012B4FEA121C2D
:107BC00002F00F0211F80CC003F802CC8A5C03F833
:107BD000012CB9E709485C2113F07EFD08B15C2156
:107BE000C0E70649C2E74FF0050A26E784340020C3
:107BF000FC2D0020202E00201C2E0020E8C10300B8
:107C00000010014004C20300242E002018C203000B
:107C1000F0BE0300000CB0F5805F82B00FD10B4BBB
:107C2000187810F004000CD1094B09881A88914289
:107C300009D15A7922F006025A7102B07047052024
:107C4000FBE70020F9E70B20F7E700BFF634002040
:107C50006E34002007B5104B1B785B0709D40F4A20
:107C600012F8303043F0040302F8303003B05DF80E
:107C700004FB00F540500223ADF80430ADF80600D7
:107C800001980FF0CBFB0028F0D0784603B05DF8E8
:107C900004EB03F04BBB00BFF6340020F8340020A7
:107CA00007B5124B1B7813F0040F114B08D113F8D2
:107CB000302042F0020203F8302003B05DF804FBEC
:107CC00003EBC003022200F540505B68ADF80420CE
:107CD000ADF80600DB430198009369460FF04CFBBA
:107CE0000028EAD0784603F021FBE6E7F6340020CE
:107CF000F834002007B5134B13491B7813F0040F19
:107D00000BD1382303FB001090F8343043F002030A
:107D100080F8343003B05DF804FB0223ADF8043082
:107D200000F50053ADF80630382303FB001101982D
:107D30000FF022FB0028EDD0784603B05DF804EB8D
:107D400003F0F4BAF63400208434002007B50C4B5D
:107D50001B785B0707D40B4A537943F00203537136
:107D600003B05DF804FB074907480FF005FB002846
:107D7000F6D0784603B05DF804EB03F0D7BA00BF45
:107D8000F63400206E340020020000104A094FF043
:107D9000FF3301F01F0103FA01F150F822301940BE
:107DA00009D04B420B4005495943C90E044B585C5E
:107DB00000EB421070471820704700BF31B57C07B8
:107DC000A0C203002DE9F04F85B08146DDF8388070
:107DD00092461F460D4611B9784603F0A7FA03AB49
:107DE000524629464846FFF74FFD18B9039805B09B
:107DF000BDE8F08F69882B884FF6FF7291422FD132
:107E0000FF2B8CBF4FF0020B4FF0010B2E895E440D
:107E1000B6B2304610F015F8044680B369882B8856
:107E20002A784FF6FF7081421DD06170090A2270D6
:107E3000A1702A89696804EB0B0013F04DFB0096D2
:107E40002346524629464846FFF7DEFD039018B9FF
:107E500017B1B8F1000F0ED120460FF0F4FFC5E7BF
:107E60004FF0030BD2E713F47F4F1DBF1B0A2370A3
:107E700062702270DDE73C60A8F80060B7E704207C
:107E8000B5E700002DE9F04F504E337813F00207AC
:107E900085B003D00B2005B0BDE8F08F13F0010FC3
:107EA0004B4C18D0A0464FF6FF79BB46B8F80C30C3
:107EB0004B450CD0B8F8060048455ED1B8F80E50D6
:107EC000022D5FD1382303FB074383F812B008F17A
:107ED0003808002F4FD033783E4D43F00403337001
:107EE0002B7813F0040064D1990701D5FFF7D8FE71
:107EF0002B7823F006032B702B7A5A075DD50120CF
:107F0000FFF7A8FE2B7A23F006032B72324D6B7914
:107F1000980701D5FFF71AFF6B7923F002036B7105
:107F200094F83430990702D50020FFF7E3FE94F867
:107F3000343023F0020384F8343094F86C309A071C
:107F400002D50120FFF7D6FE94F86C3023F002032F
:107F500084F86C303378DB0735D420480290022354
:107F600002A9ADF80C300FF007FA10B1784603F013
:107F7000DDF905208FE7012798E702F087F8002850
:107F80009CD087E7134B03EBC50504350021284639
:107F9000FFF7FCFE1828824694D01FFA8AF002F000
:107FA000BDF800287FF476AF0AF101011729EED958
:107FB00088E70020FFF74EFE9AE79F07A2D5012031
:107FC000FFF76EFE9EE7002065E700BFF634002055
:107FD00084340020F83400206E34002002000100B8
:107FE0002DE9F04F00F114048FB00546204603F050
:107FF0006BF800278146002874D04FF6FF73ADF868
:1080000032302B7D012B70D10DA802F02BF8EF8AB6
:10801000BDF83430FF1ABFB2CA46524C4FF0000BC5
:10802000BAF1000F74D0A689F21B5642564194F85B
:108030003430E98B03F0010304F108000A93FFF7E1
:108040007BFB29880B90A28D68884FF00008904533
:108050006ED34FF00008CDF82480434B1B689B047F
:1080600023D5424B1B68062B1FDD41482F2113F0FF
:1080700033FB00286DD02F213D4813F02DFB411C10
:108080003C4B099AD3F8043506920B9ACDE9046269
:108090000A9A03926288029222880192364A0092DA
:1080A000072040F224420CF0FFFF0A9BB3B1AEB1AF
:1080B0000B9B9BB1099B8BB12B7D012B1FFA8BF086
:1080C00005D1226B0990294600F0FCFF0998A36AAC
:1080D000226B03EBC80329465B6898473834BBF131
:1080E000000F12D00FB0BDE8F08FEA8A4FF6FB7395
:1080F0009A4291D80DF13201204602F087F810B172
:10810000784603F013F9BA4687E74FF0010B87E78B
:10811000E08901280AD8194BBDF8321003EBC000E2
:108120000430FFF709FB00F0010680E75046FAE74C
:10813000A36A03EBC80C33F838308B4203D1BCF888
:108140000230834202D008F1010880E7CDF8249084
:1081500083E707485C2113F0BFFA08B15C218BE785
:1081600003498DE784340020202E00201C2E00209F
:10817000E8C103000010014020C20300F8340020D1
:108180002DE9F0410268137803F0C0018029D0B0D6
:10819000044600F0A68000F295801D0640F19B8009
:1081A00000252E46624F3B68980419D5614B1B6829
:1081B000042B15DD60482F2113F08EFA002800F003
:1081C00094802F215C4813F087FA411C5B4B5C4A7A
:1081D000D3F8043500920196FD2205200CF064FFCF
:1081E000E06902F081F88046A06902F069F84FF674
:1081F000FF739D422268ADF81460ADF816507DD132
:10820000B6F5807F34BF012302234FF6FF7113447C
:108210008D42A288069373D1FF2E8CBF02210121CB
:10822000521A217A8DF820106189ADF82210E16888
:108230000991217C8DF82810618AADF82A106169B6
:108240000B9194F820108DF83010616A0D91396807
:10825000ADF8328092B28904ADF81C20ADF8380038
:108260002AD534490968042926DD3649802A0D6853
:1082700028BF80220FA99E180C46B34201F10201CB
:1082800040D100232C4804F812302F2113F024FA97
:10829000002843D02F21284813F01EFA411C274BF9
:1082A000294AD3F804350192284A009202944FF4E7
:1082B0008A7205200CF0F8FE05A8FFF791FE50B079
:1082C000BDE8F081C0297FF46BAF55789EB29378FA
:1082D00045EA032566E77F2B9EB2F0D04FF6FF7587
:1082E00060E7567846EA0326F8E713485C2113F066
:1082F000F3F908B15C2165E70F4967E7032384E7D9
:1083000003218DE713F8010B070900F00F00EF5D63
:1083100001F8027C285C01F8010CAEE706485C21FC
:1083200013F0DAF908B15C21B5E70349B7E700BFFC
:10833000202E00201C2E0020E8C103000010014068
:1083400075C20300242E002088C20300F0BE030083
:10835000037813B1142B03D070470430FFF710BF1C
:10836000C388022B01BF034A137843F00203137042
:10837000704700BFF6340020F0B5074685B01546BB
:108380001E4681B17AB173B103AB0022FFF77CFACC
:1083900010B9039805B0F0BD00962B460022384670
:1083A000FFF732FBF6E70E20F4E7000007B500F018
:1083B000CBFEFFF74DF8FFF701FB164A137823F0C9
:1083C00007031370144B18680FF028F81348019036
:1083D0000FF024F843F20103ADF8063001980FF0D6
:1083E0001DF84FF48053ADF8063001980FF016F8E1
:1083F0004FF40053ADF8063001980FF00FF842F239
:108400000103ADF80630019803B05DF804EB0FF0FE
:1084100005B800BFF634002090C20300020000300F
:1084200008B5FFF7CBFA0848084B03600AF0FEFDD9
:1084300000F07CFEFEF7F0FFFFF7F0F8044A137837
:1084400023F00703137008BD783400205183020025
:10845000F63400202DE9F0410D460446002800F0D6
:10846000BE80002900F0BB80C3681BB18368002B6D
:1084700000F0B5804FF6FF732B80E3681BB9A3684B
:10848000002B40F0AE80A688002E40F0AC8002F0B9
:108490003FFE10B10F20BDE8F081564BA0880622A8
:1084A00002FB00329178D278D14219466AD1D4E9E0
:1084B00002870026B74240F08B802A884E4E4FF646
:1084C000FF739A4243D196F8343013F0010305D07C
:1084D00096F86C30DB0700F18A80012338222B806C
:1084E00002FB03634FF6FF70D8802B8802FB036307
:1084F00098802B88A78802FB03639F812B8867885D
:1085000002FB03635F802B8827885343F7522B8835
:1085100002FB036250742288A38882424FF0060255
:1085200002FB03130BBF9A78DA78013201320CBFD9
:108530009A70DA702B88382202FB036393F8342098
:1085400042F0010283F834202888FFF7D3FB2A8801
:108550002169382303FB0262002011632A88A16885
:1085600003FB026291622A88E16803FB0262918543
:108570002A88616903FB026291612A8803FB026613
:10858000B28288E71C4B2288B3F80CC06788844508
:1085900007D1B3F802C0BC4503D1B3F800C094457D
:1085A0000CD0B3F84460864281D1588FB8427FF432
:1085B0007EAF188F90427FF47AAF0126382202FBFB
:1085C00006332E8093F83430DA077FF570AF61E719
:1085D00058F83600FFF7BDF838B101366AE70E20CB
:1085E00059E7092057E7052055E7072053E70420FE
:1085F00051E700BF6E34002084340020F0B50646F9
:1086000085B00F4619B30DF10A030022009303ABA6
:10861000ADF80A20FFF7D6FB054688B90D49039B44
:10862000382272438818C07C40070CD002F1130432
:10863000BDF80A20009221443A463046FFF700F880
:10864000284605B0F0BD18460FF0FDFBF8E70E25F3
:10865000F6E700BF8434002013B514460A4639B14A
:1086600034B1002300932146FFF7ACFB02B010BDEC
:108670000E20FBE710B50446FFF78CF870B1172900
:108680000ED8084A382303FB0423DA888A4203D031
:10869000D9802046FFF72EFB002000E0052010BD0A
:1086A0000720FCE78434002010B5044651B1FFF7E1
:1086B00071F848B10548382303FB04040020E3881F
:1086C0000B8010BD0E20FCE70520FAE78434002063
:1086D000012838B51BD80F4B382202FB003292F824
:1086E0003440E40713D5D27C01F0070402F00705FB
:1086F000A54204D1C1F3C404B4EBD20F05D0382293
:1087000002FB0033D974FFF7F5FA002000E00520E2
:1087100038BD00BF8434002069B101280DD8084B52
:10872000382202FB003090F83430DB0705D5C37CDB
:108730000B70002070470E2070470520704700BF67
:108740008434002038B50446154699B192B1FFF73C
:1087500021F888B10A48382303FB040083696BB110
:10876000837CC3F301030B70837CC3F385032B70FD
:10877000002038BD0E20FCE70520FAE70620F8E7C8
:10878000843400202DE9F3410DF107020DF10601BB
:108790000546FFF7D7FF10B1784602F0C7FD294E16
:1087A0009DF80770382303FB05633C46B3F824802B
:1087B0009DF80630032B23D8DFE803F005021A1ECC
:1087C00007EB87046400B4FBF8F23F2A1CD8002FA3
:1087D00035D0012A38BF0122D2B20027382000FB51
:1087E000056039461430FEF743FE02B0BDE8F08163
:1087F000642417FB04F4E6E741F270747C43E2E77B
:10880000784602F093FDDEE740F276239A4205D8DF
:108810000A230127B2FBF3F2D2B2DFE741F69C0351
:108820009A4295BF642341F27073B2FBF3F2B2FB3C
:10883000F3F299BFD2B20227D2B20327CEE73A466B
:10884000CCE700BF84340020012810B50FD80B4AB4
:10885000382404FB002393F83420D20707D59A6903
:108860003AB141B19984FFF78DFF002010BD05207A
:10887000FCE70620FAE70720F8E700BF8434002071
:10888000012838B5044625D81548382303FB0403CE
:1088900093F83450ED071DD59D69EDB13F2A1DD8E1
:1088A00003291BD89B7CB2EB930F03D103F0030386
:1088B0008B420DD0382303FB040001F0030343EA8D
:1088C000820181742046FFF75DFF2046FFF712FA10
:1088D000002000E0052038BD0620FCE70720FAE76D
:1088E0008434002038B5044602F012FC28BB204630
:1088F000FEF750FF18B3144D382202FB0452D28900
:10890000022A18D111490B7813F0010203D00B7A17
:10891000DA0716D4012223F0040343F0010301F81F
:108920003230382303FB045390B2D881FFF7B8F9F3
:108930002046FFF7DFF9002038BD0F20FCE70520B7
:10894000FAE70420F8E700BF84340020F834002060
:108950002DE9F04104460E46FEF71CFFF0B1134826
:10896000382303FB0404E789022F1AD017291AD8E9
:10897000DFF83C80FD00043508EB0500FEF7DCFE67
:1089800050B9012303FA06F658F805303846334348
:1089900048F80530FFF784F9002000E00520BDE825
:1089A000F0810620FBE70720F9E700BF84340020B0
:1089B000F8340020F8B504460D46FEF7EBFED8B1BA
:1089C0001048382303FB0404E689022E16D0172929
:1089D00016D80D4FF40004343819FEF7ADFE50B12F
:1089E000012303FA05F53B59304623EA05033B51C1
:1089F000FFF756F90020F8BD0520FCE70620FAE74E
:108A00000720F8E784340020F83400202DE9F843EB
:108A1000064615460F4641B33AB3FEF7BBFE30B3E8
:108A20001648382303FB0606F389022B21D00024C5
:108A3000DFF84C90B5F800802C80F08901280ED822
:108A400009EBC00021460430FEF776FE38B12B88D2
:108A5000984510D927F813402B8801332B80013417
:108A6000182CEAD10020BDE8F8830E20FBE7052092
:108A7000F9E70620F7E70920F5E700BF8434002076
:108A8000F83400202DE9F04107460E46FEF782FE3D
:108A9000C0B1082919D83825DFF834807D4308355E
:108AA00008EB0500FEF748FE50B9012303FA06F66D
:108AB00058F805303846334348F80530FFF71AF9BF
:108AC000002000E00520BDE8F0810720FBE700BFA3
:108AD00084340020F8B506460D46FEF75BFEA8B1CB
:108AE000082915D838240B4F744308343819FEF779
:108AF00023FE50B1012303FA05F53B59304623EA22
:108B000005033B51FFF7F6F80020F8BD0520FCE710
:108B10000720FAE7843400202DE9F0410646154687
:108B20000F46F9B1F2B1FEF735FEE8B11048B5F8DD
:108B300000803823002403FB06062C8008362146DB
:108B40003046FEF7F9FD38B12B8898450ED927F845
:108B500013402B8801332B800134082CEFD10020E7
:108B6000BDE8F0810E20FBE70520F9E70920F7E7D3
:108B70008434002010B50446FEF70CFE70B10829BD
:108B80000ED8084A382303FB04239A888A4203D06C
:108B900099802046FFF7AEF8002000E0052010BDC8
:108BA0000720FCE78434002010B5044651B1FEF7DD
:108BB000F1FD48B10548382303FB04040020A388D5
:108BC0000B8010BD0E20FCE70520FAE7843400205E
:108BD000030605D4012803D0024B1870002070470B
:108BE00007207047FC2D0020014B1878704700BF0C
:108BF000FC2D002010B50446FEF7CCFD60B1074AFD
:108C0000382303FB04231A7C8A4203D019742046BC
:108C1000FFF770F8002000E0052010BD843400202C
:108C200010B5044651B1FEF7B5FD48B105483823EB
:108C300003FB04040020237C0B7010BD0E20FCE716
:108C40000520FAE78434002010B50446FEF7A2FDA3
:108C500080B181F080037E2B0ED9084A382303FBB4
:108C600004235A7C8A4203D059742046FFF742F805
:108C7000002000E0052010BD0720FCE78434002020
:108C800010B5044651B1FEF785FD48B105483823BB
:108C900003FB04040020637C0B7010BD0E20FCE776
:108CA0000520FAE78434002021B128B9034B1B8842
:108CB0000B8070470E207047052070476E340020EF
:108CC00021B128B9034B9B780B7070470E20704779
:108CD000052070476E34002021B128B9034BDB78A2
:108CE0000B7070470E207047052070476E340020CF
:108CF00010B5044669B1FEF74DFD60B1074A38234F
:108D000003FB04F013185B884B80135A0B80002080
:108D100010BD0E20FCE70520FAE700BF84340020D8
:108D200037B501910AB310B1052003B030BD4FF63D
:108D3000FF7313800E4BBDF804009989BDF80640FF
:108D400029B95D88A54202D11D8885420AD0B3F8B1
:108D500044100029E8D1598FA142E5D11B8F8342ED
:108D6000E2D1012111800020DFE70E20DDE700BF06
:108D70008434002070B5C1B1BAB1C0B90E4B1588AA
:108D800010801488AC4214D293F83460F60706D5EC
:108D90009E8926B921F814001488013414803833D0
:108DA00008B1002070BD0120EBE70E20FAE7052096
:108DB000F8E70920F6E700BF8434002010B5044628
:108DC00051B1FEF7E7FC48B10548382303FB040422
:108DD0000020236B0B6010BD0E20FCE70520FAE796
:108DE0008434002070B50646FEF7D4FCE0B1382587
:108DF00075430E4C002205F11400114620442C440A
:108E0000FEF736FB304600F0E5F9E08801F05EF948
:108E100000254FF0FF333046636065746582A575A9
:108E2000FEF768FF284670BD0520FCE7843400206B
:108E3000082837B505461CD80DF106010020FFF7BC
:108E4000B3FE28B9BDF80630AB4201D1FFF7CAFF27
:108E50000DF106010120FFF7A7FE044658B9BDF841
:108E60000630AB4202D10120FFF7BCFF204603B021
:108E700030BD0724FAE70024F8E700002DE9F04FA1
:108E80005B4DB5F8703085B0074613B9784602F0EF
:108E90004DFA4FF6FF73564CDFF864A1DFF864B16A
:108EA000A5F8723007F57A794FF0000894F8403051
:108EB000CBB1236BA3EB0903002B1BDA002384F84F
:108EC0004030B5F87030013BA5F87030208B03A915
:108ED000FFF774FF10B1784602F028FA636B03992C
:108EE000208B012298472C34B8F1000F52D14FF05B
:108EF0000108DBE7A36BA3EB0902002A65DAA5F8FA
:108F00007280208B04F11C01FFF778FB0646E8B164
:108F1000DAF800309B0417D5DBF80030042B13DDA2
:108F200034482F2112F0D8FBE8B12F21314812F03C
:108F3000D3FB411C304B314AD3F8043500920196E3
:108F4000802205200CF0B0F8082E15D1D4E90E23AC
:108F50001A445B00A263E363226BA36BD31A002B5A
:108F6000C1DAA263BFE723485C2112F0B5FB08B168
:108F70005C21DBE71F49DDE7042E01D00F2E20D155
:108F80002C2303FB0858D8F8383003F51C43403332
:108F9000C8F83830B5F870303BB3B5F87230012BF3
:108FA00002D9784602F0C2F9B5F872302C2202FBE1
:108FB00003539B6BDA1B48BFFA1AEA6005B0BDE8A1
:108FC000F08F784602F0B2F9C6E7B5F872204FF696
:108FD000FF718A4206D02C2101FB0252926B9B1A30
:108FE000002B80DAA5F872807DE7EB60E6E700BF32
:108FF0000C350020C0C2030000100140E5C2030090
:10900000202E00201C2E002038B52C4C2C2303FBD6
:109010000043054693F8403013B9784602F086F9CC
:10902000B4F8703013B9784602F080F92C2202FBB4
:109030000542002382F84030B4F87030013B9BB207
:10904000A4F87030A3B3B4F87230AB4235D1926B50
:109050001B4B134494F84020EAB1A26BD11A0029AB
:10906000B8BF13464FF6FF72B8BF002294F86C10D9
:10907000A1B1616ECB1A002B10DA0123A4F8723073
:10908000B4F872300D482C2202FB0344A16BBDE8FA
:1090900038400AF00CBA4FF6FF72E7E74FF6FF735D
:1090A0009A42A4F87220EBD1784602F03FF9E7E744
:1090B000BDE8384001480AF0E3B938BD0C3500205E
:1090C000008793030128F8B504460E46174602D9D7
:1090D000784602F02BF90AF007FF134B93F8402073
:1090E00012B11A8BA2421DD093F86C20B2B1B3F822
:1090F0004420A24212D101202C2505FB00353388E3
:10910000AA8D9A420AD1EA8D73889A4206D1FFF756
:109110007BFF6B6B0022394620469847BDE8F8403C
:109120000AF022BF0020E7E70C35002010B5044C00
:1091300074220021204612F0DDF9024BA36010BD1D
:109140000C3500207D8E020073B51F4C0AF0CCFE5A
:10915000B4F870302BB100232046A4F870300AF028
:109160008FF994F840307BB1258B1848666B00214D
:109170002C2212F0BFF901A92846FFF71FFEF0B913
:10918000019902222846B04794F86C309BB1B4F89C
:1091900044500F48246E00212C2212F0ABF901A993
:1091A0002846FFF70BFE10B1784602F0BFF8019990
:1091B00002222846A0470AF0D7FE02B070BD7846CA
:1091C00002F0B4F8DCE700BF0C35002024350020A5
:1091D00050350020012873B504462DD8174D0AF0EC
:1091E00083FE95F8403013B12B8BA34220D095F825
:1091F0006C30FBB1B5F84430A3421BD10126304698
:10920000FFF702FF01A92046FFF7D8FD10B178460D
:1092100002F08CF82C2303FB065520466B6B01995A
:109220000222984700240AF09FFE204602B070BD3B
:109230000026E4E70524F6E70524F6E70C350020D0
:109240004A09012301F01F0103FA01F150F822300D
:10925000194214BF0120002070474A09012301F080
:109260001F0103FA01F150F822300B4340F822307D
:10927000704700000F28014602D80248FFF7E0BF00
:109280000020704780350020103881B2072902D8AD
:109290000248FFF7D5BF0020704700BF8835002087
:1092A00010B50446FFF7E6FF28B92046FFF7ECFFAC
:1092B00000F0010010BD0120FAE700002DE9F047A1
:1092C0004FF6FF73DFF84080DFF840900B800746D1
:1092D0000D4600241E464FF0AC0A21464046FFF7DB
:1092E000AFFF40B10AFB04F333F80930BB4206D1AB
:1092F0002C80BDE8F0872B88B34208BF2C80013456
:10930000042CEAD10020F4E7B8370020BC37002055
:109310002DE9F0474FF6FF73DFF84080DFF840900B
:109320000B8007460D4600241E464FF02A0A2146B0
:109330004046FFF785FF40B10AFB04F333F80930DC
:10934000BB4206D12C80BDE8F0872B88B34208BF12
:109350002C800134082CEAD10020F4E7CC35002021
:10936000D035002013B50190000C01280C4602D026
:10937000784601F0DBFF042323800123A380082328
:10938000638023811023E38002B010BD13B50190E8
:10939000000C01280C4602D0784601F0C7FF238854
:1093A000042B13D1A388012B10D16388082B0DD176
:1093B0002389082B0AD1E388102B07D1044A13789C
:1093C00043F001031370002002B010BD0B20FBE737
:1093D000B437002037B5C0F30F44A4F58054A4B2CD
:1093E0000F2C01900D4602D9784601F09FFF0748E7
:1093F0002146FFF725FF10B9784601F097FF044B8F
:1094000033F824302B8003B030BD00BF80350020FE
:109410008C35002038B5044610B9784601F086FF37
:109420000A4B002293F8645090B203F122011DB15F
:109430008C420AD003F143018C4206D00132042A47
:1094400003F1AC03EED14FF6FF7038BDBC370020FE
:1094500013B50190000C02280C4602D0784601F0AA
:1094600065FF074B1B68DB0702D4784601F05EFFFF
:1094700004490422204602B0BDE8104012F02CB886
:1094800084350020A437002037B5C0F30F44A4F57D
:109490000054A4B2072C01900D4602D9784601F081
:1094A00045FF0A482146FFF7CBFE10B9784601F088
:1094B0003DFF0749142303FB041110220431284601
:1094C00003B0BDE8304012F007B800BF8835002077
:1094D0006C3A002073B5040CB4F5A04F01900D4612
:1094E00002D0784601F022FFA4F5A044A4B20C48B3
:1094F0002146FFF7A5FE10B9784601F017FF1621A7
:10950000084E4C43A11D10223144281D11F0E4FFE8
:10951000325B2A8033195B886B8002B070BD00BF5C
:109520002037002024370020F8B5A1F110041426BC
:109530000B4F66430546301D29461022384411F072
:10954000CBFFB91928460BF0DDFC10B1784601F0CD
:10955000EDFE21460348BDE8F840FFF77EBE00BFA0
:109560006C3A00208835002073B5040CA4F5005334
:109570000E4699B2072901900CD80848FFF760FE03
:1095800030B9A4F5FF51103989B23046FFF7CCFF4E
:10959000002000E0052002B070BD00BF883500202B
:1095A000F7B5C0F30F44A4F54054A4B2032C0190C6
:1095B0000D4602D9784601F0B9FE00212422284642
:1095C00011F098FF12482146FFF73AFE10B978468D
:1095D00001F0ACFEAC230F4E5C433719335B2B809C
:1095E00097F86430AB70A11C10223144E81C11F0D4
:1095F00073FF97F864304BB112341022311905F122
:10960000130003B0BDE8F04011F066BF03B0F0BD39
:10961000B8370020BC37002073B5C0F30F44A4F561
:109620008044A4B2072C01900D4602D9784601F07F
:109630007DFE00212622284611F05CFF12482146BB
:10964000FFF7FEFD10B9784601F070FE2A210F4E9B
:109650004C43A11D10223144681D11F03DFF325BC7
:109660002A8033195A886A809B7D2B714BB119343B
:109670001022311905F1150002B0BDE8704011F05B
:109680002BBF02B070BD00BFCC350020D03500200C
:109690002DE9F0411E4CAC255543164605F16803F3
:1096A000621923440F469367804610B9194B012273
:1096B0001A7005F12201214438460BF0EAFB10B183
:1096C000784601F033FE05F17C01214438460BF069
:1096D000F1FB10B1784601F029FEA81C3946102292
:1096E0002044123511F0F8FE10220021601911F00B
:1096F00001FFAC237343E21824F80380002382F8AF
:10970000643031460448BDE8F041FFF7A6BD00BF14
:10971000BC370020A2370020B837002037B5C0F38F
:109720000F4404F540540190A4B20D46224631F88E
:10973000030BFFF7ADFF074AAB78AC2101FB042414
:10974000054A84F864301378002043F00403137052
:1097500003B030BDBC370020B43700202DE9F843FA
:109760002A255D43144C91468046A81D10220F46C1
:10977000204449461E4611F0AFFE05F119000021B4
:1097800010222044053511F0B5FE611948460BF052
:1097900077FB10B1784601F0C9FD2A237343E21824
:1097A000002111719175578024F8038031460348D8
:1097B000BDE8F843FFF751BDD0350020CC3500207F
:1097C000F7B5C0F30F44A4F58044A4B2072C019070
:1097D0000D462DD817482146FFF732FD10B1002065
:1097E00003B0F0BD144F698828882A2623466A1DD5
:1097F0006643FFF7B3FF2B79BA199375002BEED0B0
:10980000153506F1190029461022384411F064FE7E
:1098100006F11801394428460BF032FB10B17846A6
:1098200001F084FD2A2303FB04742379E375D6E752
:109830000520D5E7CC350020D03500202DE9F341B7
:109840000190000C00F50054A4B2072C0D4632D94B
:1098500000F5805084B2072C2FD80126194A1378BE
:1098600043F0040313706988288823462A1DFFF7F4
:1098700075FF2A27144B6743DA1998469675F6B197
:10988000143507F1190029461022184411F024FE5E
:1098900007F11801414428460BF0F2FA10B178465E
:1098A00001F044FD2A2303FB048400202379E3759F
:1098B00002B0BDE8F0810026D0E70520F8E7304689
:1098C000F6E700BFB4370020D035002073B5064658
:1098D00010460C461546FFF7B3FC10B9784601F068
:1098E00025FD01232644ADF80430ADF8066001984B
:1098F0000DF094FD10B1784601F018FD62090123C6
:1099000004F01F0403FA04F455F8223023EA040398
:1099100045F8223002B070BD2DE9F0474FF6FF73D5
:10992000DFF84C80DFF84C900B8007460D46002492
:109930004FF0140A21464046FFF782FC064650B914
:109940002A884FF6FF739A4200D12C800134082CEC
:10995000F0D1002608E0102239460AFB049011F0ED
:10996000ADFD0028F2D12C803046BDE8F08700BF65
:1099700088350020703A002008B528B9784601F0F3
:10998000D5FC4FF6FF700BE0064B9842F9D303F578
:1099900001729042F5D8C01AAC23B0FBF3F080B24C
:1099A00008BD00BF3038002008B528B9784601F05E
:1099B000BDFC4FF6FF7008BD0A4B984209D303F572
:1099C0009372904205D8C01A2A23B0FBF3F080B2FC
:1099D000F1E7054A4FF6FF73904214BF184608207E
:1099E000E9E700BFD43500202837002013B50190E7
:1099F000000C022804D00091784601F097FC0099F1
:109A0000074C2368DB0707D40648042211F064FDE5
:109A1000236843F001032360002002B010BD00BFA3
:109A200084350020A4370020F7B5C0F30F44A4F517
:109A30004054A4B2032C01900E4629D81548214663
:109A4000FFF7FEFB10B1002003B0F0BD3146224607
:109A500031F8030B104FFFF71BFEAC225443B378D1
:109A60003A1982F86430002BEDD0133604F112005D
:109A7000314610223844433411F02EFD3919304656
:109A80000BF007FA0028DED0784601F04FFCDAE749
:109A90000520D9E7B8370020BC37002037B50023B0
:109AA000054610460C46ADF80030FFF7C9FB10B96B
:109AB000784601F03BFC60190123ADF80430ADF8A5
:109AC0000600019869460DF057FC10B1784601F088
:109AD0002DFC03B030BD00002DE9F84F814615463E
:109AE000884600294BD009F017F90228074648D0CC
:109AF00000F0FD03012B44D14FF6FF74DFF890B066
:109B0000224B0026A24654450BD118463146FFF79A
:109B100097FB1E4B28B9B4B20136102EF3D10022A8
:109B200005E03BF826204A45F6D1B4B201220DB932
:109B3000032F26D19AB94FF6FF739C4223D0144BC2
:109B4000124823F8249003EB840321465A80FFF740
:109B500084FB0E4A21464FF48050FFF79FFF0C4BC9
:109B6000A8F80040A4001C442DB9E3780133E37049
:109B70000020BDE8F88FA3780133A370F8E70E202A
:109B8000F7E71020F5E70420F3E700BF8035002059
:109B90008C3500202DE9F3414FF6FF780D46144631
:109BA000ADF80680074650B349B30DF10601FFF743
:109BB000B3FEBDF8063003F11006B6B260B94345F6
:109BC0001FD031463846FFF7AFFC0F4ABDF80610EC
:109BD0004FF40050FFF762FFBDF806300B4A2E80AD
:109BE000142101FB032334B9DA780132DA70002042
:109BF00002B0BDE8F0819A7801329A70F7E70E2042
:109C0000F6E70420F4E700BF883500206C3A002016
:109C100038B50446FFF72EFB80B1154B03EB8402E9
:109C2000907848B9D57845B923F82450114A21468F
:109C30004FF48050FFF74AFE002038BD2046FFF762
:109C400023FB80B1A4F110010B4889B214224A43CE
:109C50008418A378002BEFD1E47834B98452074AF2
:109C60004FF40050E6E70520E7E71846E5E700BFB8
:109C70008C350020803500206C3A0020883500208B
:109C800041090B4A00F01F0052F821204FF0FF332A
:109C90008340134009D05A421A40064B5343DB0E0F
:109CA000054AD05C00EB411070470420704700BFAC
:109CB000B837002031B57C078AC303004FF6FF7325
:109CC0000B80084B1B6813F0010307D0064B1B8861
:109CD000834205D108230B800120704708220A80A7
:109CE0000020704720370020243700202DE9F34161
:109CF0000190000CB0F5A04F1AD10F4E346814F04B
:109D0000010417D10D4D0F88B1F8028010220431E3
:109D1000A81D11F0E1FB012321463046AB80A5F8D8
:109D200002802F80FFF799FA204602B0BDE8F0814B
:109D30000524F9E70024F7E7203700202437002026
:109D400073B5C0F30F44A4F58054A4B20F2C019056
:109D50000E4611D80A482146FFF772FA50B9094B4E
:109D6000328823F8242003EB8403214658800448DA
:109D7000FFF773FA002000E0052002B070BD00BFBD
:109D8000803500208C3500200388012B12D14388B8
:109D9000A3F54052032A04D814290BD1A3F5C043DC
:109DA00007E0A3F58042072A04D82429F4D1A3F5BB
:109DB000A0434380704700007FB52B4A137813F00F
:109DC00002044ED1D90712D4284A1068516812896A
:109DD00001AB03C301A94FF001101A800DF0CCFABA
:109DE00010B1784601F0A2FA052004B070BD13F05E
:109DF0000400FAD064F3820313701D4D0123ADF803
:109E0000043021462846FFF71BFA68B1A6B206F5D2
:109E10004053ADF8063001980DF000FB2A4631465C
:109E20004FF44050FFF73AFE0134042CE9D1114DB4
:109E3000002421462846FFF703FA68B1A6B206F5CA
:109E40008043ADF8063001980DF0E8FA2A46314615
:109E50004FF48040FFF722FE0134082CE9D10020A6
:109E6000C3E70B20C1E700BFB437002058C303008D
:109E7000B8370020CC35002037B50023494A1946B1
:109E80000133102BD170917002F10402F8D100233C
:109E9000454A1C460133082BD470947002F1140219
:109EA000F8D104220021414811F024FB04220021B2
:109EB0003F4811F01FFB042200213E4811F01AFB1D
:109EC000042200213C4811F015FB042200213B48EC
:109ED00011F010FB00210422394811F00BFB394B23
:109EE000394A1C805C80394B1C70137823F00303C3
:109EF0001370374B18680DF091FA364B18680DF057
:109F00008DFA0123ADF804304FF4805441F210056E
:109F1000ADF8064001340198A4B20DF07FFAAC42CE
:109F2000F6D14FF4005442F20805ADF80640013472
:109F30000198A4B20DF072FAAC42F6D14FF440533E
:109F4000ADF8063001980DF069FA43F20103ADF85F
:109F5000063001980DF062FA43F20203ADF80630C4
:109F600001980DF05BFA43F20303ADF80630019857
:109F70000DF054FA4FF4804444F20805ADF8064061
:109F800001340198A4B20DF049FAAC42F6D14FF475
:109F9000A043ADF80630019803B0BDE830400DF0A5
:109FA0003DBA00BF8C3500206C3A0020843500207B
:109FB0008035002088350020B8370020CC350020BF
:109FC00020370020A4370020B4370020A23700201B
:109FD00062C3030066C30300054808B5054B036070
:109FE00009F024F8044A137823F00303137008BD22
:109FF000A83700200DA70200B437002070B5044632
:10A0000010B9784601F092F9144E356815F0010543
:10A0100021D1638813B90B25284670BD208808F02C
:10A020007BFE0128F7D1208863881844013880B26C
:10A0300008F072FE0128EED13368094843F00103AD
:10A0400021460422336011F047FA324629460220A5
:10A05000FFF724FDE0E70F25DEE700BF8435002091
:10A06000A437002010B5044610B9784601F05EF917
:10A0700020460349BDE81040042211F02DBA00BF6C
:10A08000A43700200122FFF727BD000010B50446C9
:10A09000FFF706F978B10F2C89BF08480848103C33
:10A0A00014238CBF03FB040400EB84040020A3787A
:10A0B0000133A37010BD0520FCE700BF6C3A0020FF
:10A0C0008C3500200122FFF765BD000010B5044665
:10A0D000FFF7D0F850B10C4B03EB84039A78013AA8
:10A0E0009A702046BDE81040FFF792BD2046FFF76A
:10A0F000CBF830B1054AA4F11003142101FB03236E
:10A10000ECE7052010BD00BF8C3500206C3A002024
:10A110000022FFF7E1BC0022FFF73CBD10B504466A
:10A12000FFF7BEF878B10F2C89BF08480848103CEB
:10A1300014238CBF03FB040400EB84040020E378A9
:10A140000133E37010BD0520FCE700BF6C3A00202E
:10A150008C35002070B506460D4601B3FFF78AF82E
:10A16000044658B1104B33F826206A8033F8260095
:10A1700008F0D2FD28700020686070BD3046FFF7FF
:10A1800083F870B11420103E084B464320469A5B7A
:10A190006A8004361E4402236E602B70EDE70E20A9
:10A1A000EBE70520E9E700BF8C3500206C3A002082
:10A1B00013B50446FFF774F808B369462046FFF765
:10A1C000C9FFC0B99DF80030032B0BD10D4B03EB39
:10A1D0008403DA789AB1013ADA702046FFF718FD65
:10A1E00002B010BD022B08D1074AA4F110031421BC
:10A1F00001FB0323EDE70020F2E70F20F0E7052045
:10A20000EEE700BF8C3500206C3A00202DE9F743C3
:10A210000C46054600283CD000293AD0408808F07A
:10A220007BFD022824D000F0FD00012833D14FF639
:10A23000FF73DFF86880DFF868906F88238000255F
:10A240001E4629464046FEF7FBFF40B139F825304F
:10A25000BB4208D12580002003B0BDE8F0832388ED
:10A26000B34208BF25800135102DEAD10520F3E760
:10A2700068684FF6FF73ADF8063050B10DF1060176
:10A28000FFF74AFB0028F1D0BDF8063010332380D9
:10A29000E1E70E20E0E71020DEE700BF8035002078
:10A2A0008C35002007B50DF10601FFF707F820B146
:10A2B000BDF8060003B05DF804FB4FF6FF70F9E748
:10A2C00008B1FFF7A7B84FF6FF70704707B50DF15B
:10A2D0000601FFF71DF820B1BDF8060003B05DF8D8
:10A2E00004FB4FF6FF70F9E708B1FFF75DBB4FF6CF
:10A2F000FF70704738B504460D4669B107280DD880
:10A3000001460748FEF79CFF40B12A204443054B15
:10A310001B5B2B80002038BD0E20FCE70520FAE7F0
:10A32000CC350020D0350020082870B504460D46F5
:10A330003CD8002938D0082821D001461C48FEF717
:10A340007FFF002832D01B4E2A2303FB04635B8867
:10A35000032B02D9784600F0E9FF2A2303FB0463AC
:10A3600015485988FEF76CFF10B9784600F0DEFFFB
:10A370002A2000FB046463882B80002070BD0F4BF3
:10A380001B68DB0712D50E4C6388032B02D9784675
:10A3900000F0CCFF61880848FEF752FF0028EAD1A0
:10A3A000784600F0C3FFE6E70E20E7E70520E5E783
:10A3B000CC350020D0350020B837002020370020D1
:10A3C00024370020F0B50646C7B015460C460029D4
:10A3D00071D0002A6FD0B0F5805F6ED21146FEF7C3
:10A3E0006DFF2A88074670B13748AC2303FB020093
:10A3F00021461022023011F061F800280CBF032022
:10A400000F2047B0F0BD4FF6FF739A4257D0214658
:10A410003046FFF73DF92D4A29884FF44050FFF7A9
:10A420003DFB294B2988AC2202FB013130468C319F
:10A4300008F00AFE264B186810F48020E1D0254B66
:10A440001B68062B3DDD244B186805AB611E1D46BD
:10A450000F3411F8012F160902F00F02865D1E70ED
:10A46000825C5A708C4203F10203F2D100231B4834
:10A4700085F820302F2111F02FF998B12F2117489E
:10A4800011F02AF9411C164B164AD3F804350192F3
:10A49000154A0092072002954FF413620AF004FE59
:10A4A0000020AEE70D485C2111F016F908B15C21DF
:10A4B000E5E70A49E7E70E20A3E70720A1E7042024
:10A4C0009FE738469DE700BFBC370020B837002023
:10A4D000202E00201C2E0020242E002007C3030065
:10A4E0000010014031C30300F0BE0300032838B55B
:10A4F00004460D460DD801460748FEF7A1FE40B1BF
:10A500000648AC2303FB0404002094F864302B704D
:10A5100038BD0520FCE700BFB8370020BC3700205D
:10A520002DE9F04105460F4600294ED003284ED8AC
:10A5300001462848FEF784FE002848D0264BAC246C
:10A540006C431A191E4692F8642072B1012A02D097
:10A550000820BDE8F08104F11200102239461844A9
:10A5600010F0ACFF0028F4D0F2E704F11208984490
:10A5700039461022404610F0AFFF04F14301314448
:10A5800038460AF086FC10B1784600F0CFFE04F1A0
:10A590009401314440460AF08DFC10B1784600F039
:10A5A000C5FEAC236B43F118012281F8642004F14D
:10A5B000A401F05A314408F025F94FF44050054AFF
:10A5C0002946FFF76BFA0020C3E70E20C1E70520FC
:10A5D000BFE700BFB8370020BC370020032810B504
:10A5E00004461DD801461048FEF72AFEC0B10F48A8
:10A5F000AC236343C11891F86420012A12D10222CE
:10A6000081F8642003F1A4010144C05A08F0FAF86B
:10A610004FF44050044A2146FFF740FA002010BD95
:10A620000520FCE70820FAE7B8370020BC370020F7
:10A6300003282DE9F04107465CD801462F48FEF774
:10A64000FFFD002856D02E4EAC247C4306EB0408B8
:10A6500098F86430002B4FD004F11201A01C314453
:10A660001022304410F038FF04F1430104F12200BD
:10A6700031442122304410F02FFF04F1940104F101
:10A680007C0031441822304410F026FF002504F1EC
:10A690008C01305B88F864502A46314408F0B2F8E7
:10A6A0002C46184E184DA04621462846FEF7C8FDF8
:10A6B00090B17388BB420FD1B37D6BB1122206F10A
:10A6C0001701301D10F008FF86F816802A46A1B247
:10A6D0004FF48040FFF7E2F90134082C06F12A0616
:10A6E000E2D14FF44050054A3946FFF7D7F9002030
:10A6F000BDE8F0810520FBE70820F9E7B837002026
:10A70000BC370020D0350020CC35002070B5037850
:10A71000042B02D0142B20D070BDD0E90146457E19
:10A720002046FFF729F94FF6FF729042F4D020340B
:10A73000A642F1D10D4AAC2101FB002393F864300D
:10A740002DB1012BE8D1BDE87040FFF747BF002BCA
:10A75000E2D0BDE87040FFF76BBFC388012B01BF9B
:10A76000034A137843F002031370D5E7BC37002087
:10A77000B43700202DE9F0470D46064600B3F9B185
:10A780000024DFF84480DFF844900F680C604FF03D
:10A79000AC0A21464046FEF753FD58B12B689F4254
:10A7A00010D00AFB04F232F8092026F813202B6897
:10A7B00001332B600134042CEBD10020BDE8F0877D
:10A7C0000E20FBE70920F9E7B8370020BC3700204E
:10A7D0002DE9F04F8246C7B00F4699461446002A2D
:10A7E00000F08280002B7FD008F096FA0128834683
:10A7F0007CD1032F7CD842483946FEF721FD002842
:10A8000076D00DF112015046FFF758FA8046002825
:10A8100070D1BDF812504FF6FF739D426CD0083DC9
:10A820001626384B6E43B01D10222146184410F0F6
:10A8300053FE344B34489A192946A2F804B0578085
:10A8400023F806A0FEF709FDBDF812102E4A0839BC
:10A850004FF4A04089B2FFF721F9BDF81230A9F8F2
:10A8600000302A4B186810F4802031D0284B1B6828
:10A87000062B43DD274B186805AB611E1D460F34C0
:10A8800011F8012F160902F00F02865D1E70825C1E
:10A890005A708C4203F10203F2D100231E4885F85E
:10A8A00020302F2110F018FFA8B12F211A4810F0E6
:10A8B00013FF411C194B1A4AD3F804350192194A67
:10A8C0000092072002954FF423620AF0EDFB00206E
:10A8D00047B0BDE8F08F10485C2110F0FDFE08B1D4
:10A8E0005C21E3E70C49E5E70E20F1E71020EFE7F4
:10A8F0000520EDE70F20EBE70420E9E74046E7E716
:10A90000B83700202437002020370020202E0020D8
:10A910001C2E0020242E002007C30300001001403D
:10A920003EC30300F0BE03002DE9F0410646C6B069
:10A9300088461D461446002A72D0002B70D0032989
:10A9400070D83C48FEF77CFC00286BD0B6F5805FE1
:10A950006AD229463046FEF7DBFC2B88074678B1E1
:10A9600035482A2202FB030021461022063010F04F
:10A97000A5FD00280CBF03200F2046B0BDE8F081E4
:10A980004FF6FF72934251D0224641463046FEF7C1
:10A99000E5FE4FF48040294A2988FFF77FF8284BCD
:10A9A000186810F48020E8D0264B1B68062B3FDD8A
:10A9B000254B186805AB611E1D460F3411F8012F99
:10A9C000160902F00F02865D1E70825C5A708C427E
:10A9D00003F10203F2D100231C4885F820302F2117
:10A9E00010F07AFE98B12F21184810F075FE411C26
:10A9F000174B184AD3F804350192174A00920720E2
:10AA0000029540F67F220AF04FFB0020B5E70F4881
:10AA10005C2110F061FE08B15C21E5E70B49E7E736
:10AA20000E20AAE70520A8E70720A6E70420A4E750
:10AA30003846A2E7B8370020D0350020CC350020BA
:10AA4000202E00201C2E0020242E002007C30300EF
:10AA5000001001404BC30300F0BE0300F8B50446EC
:10AA60000E4600293ED007283ED801461F48FEF773
:10AA7000E7FB002838D01E481E492A2565434319A4
:10AA8000AC275A8807FB0212074692F86420012A75
:10AA900001D00820F8BD05F119010844997D31B1B4
:10AAA0001022314610F00AFD0028F3D0F1E79A7524
:10AAB00031461022183510F00FFD791930460AF092
:10AAC000DFF910B1784600F031FC2A2303FB047350
:10AAD0004FF480401A79DA752146044AFEF7DEFF0A
:10AAE0000020D7E70E20D5E70520D3E7CC3500209E
:10AAF000D0350020BC370020072807B501460ED806
:10AB000001900848FEF79CFB48B14FF48040054A8D
:10AB10000199FEF7DBFE002003B05DF804FB052081
:10AB2000FAE700BFCC3500200328F8B504463BD82F
:10AB300001461F48FEF784FB002835D00020FFF7B0
:10AB40009FF80025042827D1012D2FD0194E1A4F28
:10AB5000002529463846FEF773FB48B17388A342A7
:10AB600006D1A8B2FFF7C8FF10B1784600F0DEFBAF
:10AB70000135082D06F12A06EBD1AC230F4A6343B9
:10AB8000D35A0BB90E4A13704FF44050084A21466D
:10AB9000FEF79CFE0020F8BD0130032805F10105F9
:10ABA000D2D8FFF76DF8CDE70520F4E70F20F2E7E4
:10ABB000B8370020D0350020CC350020BC3700202D
:10ABC000A23700202DE9F047064614460F4651B340
:10ABD0004AB3032829D801461648FEF731FB20B3B3
:10ABE0000025DFF85480DFF854A0D4F800902560E9
:10ABF00029465046FEF724FB68B1B8F80230B3424C
:10AC000009D12368994512D0B8F8002027F81320FD
:10AC10002368013323600135082D08F12A08E7D1A4
:10AC20000020BDE8F0870E20FBE70520F9E70920AA
:10AC3000F7E700BFB8370020D0350020CC35002022
:10AC400070B504460E461546002A44D0082944D85B
:10AC50000BBF2448244800213146FEF7F1FA0028B2
:10AC60003BD04FF6FF739C4207D1082E17BF1F4AF7
:10AC70001F4B2A2303FB06235C88032C2FD81D4877
:10AC80002146FEF7DDFA50B3082E1B4A20D02A23B6
:10AC900003FB06F1AC2303FB042393F86430022B7F
:10ACA000124B13D15818807D80B117311944696057
:10ACB000AC2303FB04F0131893F86430022B0CBF91
:10ACC0004330223010442860002070BD0431EDE78D
:10ACD0000A4B6B60ECE70E20F7E70520F5E708204C
:10ACE000F3E700BF20370020CC350020D03500200E
:10ACF00024370020B8370020BC3700202837002038
:10AD000038B50D46FFF7CEFA044675B103280ED8C4
:10AD100001460848FEF794FA48B10749AC2000FB09
:10AD2000041422342C60002038BD0E20FCE70520DE
:10AD3000FAE700BFB8370020BC3700202DE9F84300
:10AD4000804617460E4611B9784600F0EFFA17B95B
:10AD5000784600F0EBFA306808F07F0820BB00244A
:10AD6000002333603B601B4BDFF86C90AC2505FB88
:10AD70000435A3B2032B15D821464846FEF760FAE6
:10AD800028B395F8641095F8222005F12203D1B17B
:10AD9000904595F8430005F143010ED1804514D14B
:10ADA00033603960BDE8F883FEF734FB4FF6FF737C
:10ADB0009842D4D0441CA4B2D2E7804507D1316078
:10ADC00000233B60EEE7904501D13360F8E7AC35F6
:10ADD0000134CEE7BC370020B83700202DE9F0471A
:10ADE00004460F46154612B9784600F09FFA14B98A
:10ADF000784600F09BFA2046FFF762FA4FF6FF73A1
:10AE00009842804603D100232B60BDE8F087286874
:10AE1000E8B1FEF7C9FD441C0F48DFF840A02A2620
:10AE200006FB04068146072CEDD821465046FEF766
:10AE300007FA70B1738843450BD173797B409B0649
:10AE400007D12A2000FB049004302860DDE7044687
:10AE5000E2E701342A36E6E7D0350020CC35002081
:10AE600038B504460D4611B9784600F05FFA34B1A2
:10AE7000044830F8043BA3420CBF044600242C6075
:10AE800038BD00BF243700202DE9F0470546904625
:10AE90000E4611B9784600F049FAB8F1000F02D118
:10AEA000784600F043FA3068002852D0FEF764FD7F
:10AEB00000F1010A284FDFF8A890AC2404FB0A74C3
:10AEC00041E051464846FEF7BBF9C8B394F86430F8
:10AED00053B955B1082204F18C01284610F0EEFA5E
:10AEE000B0FA80F35B0901E0E5B9012343B31B4BE2
:10AEF0001B781BB3AC2303FB0AF3FB5AB3FA83F3AF
:10AF00005B09AC2000FB0AFA07EB0A020AF1740A9B
:10AF1000574482F87430376092F8643088F8003013
:10AF2000BDE8F087082204F18C01284610F0C6FA2B
:10AF30000028DAD0082204F1A401CEE70123E0E7DB
:10AF40000AF1010AAC34BAF1030FBAD90023336015
:10AF5000E6E78246AEE700BFBC370020A2370020FC
:10AF6000B83700202DE9F74304460D4607F0D4FE1C
:10AF7000022856D0032816D0012824D1444B1B6840
:10AF800013F001031FD0434B1A8894421BD35B88F4
:10AF900013449C424FF0000315DA6C8028706B60FC
:10AFA00003B0BDE8F0834FF6FE7300219C426C8035
:10AFB0002870696009D04FF6FF76B4422FD0231D68
:10AFC0009BB2012B0CD80020EAE701A901200CF06C
:10AFD000E6FE10B1784600F0A9F99DF80400DFE71D
:10AFE0002D4FDFF8BC900D46B046464511D129469D
:10AFF0004846FEF725F960B9AEB20135102D07F1CC
:10B000000407F2D10BF036FD43881B1B5842584110
:10B01000C6E73B88A342F0D1FB78002BEDD001209E
:10B02000BEE76868E8B94FF6FF73ADF80430BDF8C5
:10B030000460DFF87080194F072E4FF6FF7394BF3E
:10B0400001360026ADF804304FF01409082EBAD0AE
:10B0500031464046FEF7F4F848B9ADF804600136D1
:10B06000F4E701A9FEF758FC0028DCD0DFE709FB74
:10B0700006F3DA5BA242F2D1FA18D278002AA2D003
:10B08000043302221F446C802A706F6088E700BF7F
:10B0900084350020A43700208C3500206C3A002035
:10B0A000803500208835002038B50C46054600B1B3
:10B0B00011B9784600F03AF9024B1A882A805B8869
:10B0C000238038BDA437002007B50378022B0AD0AF
:10B0D00003F0FD03012B17D140886946FFF742FFBB
:10B0E00003B05DF804FB40686946FEF715FC0028D4
:10B0F000F6D0BDF80030054A142101FB0323D878AF
:10B10000003818BF0120EBE70020E9E76C3A002087
:10B1100007B501A8FEF7A6FFBDF80400003818BF68
:10B12000012003B05DF804FB0620704730B5754B75
:10B1300014461B6844F20102904287B00D4603F4A6
:10B14000804300F0A98022D8012844D041F20102B6
:10B15000904276D0002B58D06B4B1B68002B54DDEF
:10B160006A482F2110F0B8FA002800F0BF802F2184
:10B17000664810F0B1FA411C654B664AD3F80435B5
:10B18000009201957B22012009F08EFF3DE044F200
:10B1900002029042DED1002B37D05B4B1B68002BA4
:10B1A00033DD5A482F2110F097FA00286BD02F2159
:10B1B000564810F091FA411C554B2288D3F80435BB
:10B1C00003926268CDE90152534A0092012069223C
:10B1D00009F06AFF19E0C3B14B4B1B68002B14DD6B
:10B1E0004A482F2110F078FA10B32F21474810F069
:10B1F00073FA411C464B494AD3F804350092CDE915
:10B2000001546022012009F04FFF4FF0A0434FF49A
:10B21000F012C3F81825C3F80C25EFF3108372B6AB
:10B220004DF6AD6C3E4A1378002B68D107B030BDA7
:10B2300036485C2110F050FA08B15C21D6E733495A
:10B24000D8E7002BE1D0304B1B68002BDDDD2F4809
:10B250002F2110F041FA68B12F212C4810F03CFA50
:10B26000411C2B4B2F4AD3F804350092CDE90154F1
:10B270006322C7E725485C2110F02EFA08B15C2153
:10B28000EBE72249EDE721485C2110F025FA08B1EF
:10B290005C218DE71D498FE7002BB6D01A4B1B6848
:10B2A000002BB2DD19482F2110F016FAA8B12F217A
:10B2B000164810F011FA411C154B2268D3F80435DA
:10B2C00004926268CDE90252A2680192164A009285
:10B2D0000120732209F0E8FE97E70C485C2110F08A
:10B2E000FBF908B15C21E3E70849E5E707485C2181
:10B2F00010F0F2F908B15C213AE704493CE730BFAD
:10B3000091E700BF202E00201C2E0020AAC30300BE
:10B31000001001404EC403000EC40300D2C303005A
:10B32000FD2D0020ECC303002DC4030007B500234E
:10B330000146ADF800306A46044B019344F2020026
:10B34000FFF7F4FE03B05DF804FB00BFEFCE03008F
:10B350002DE9F04F0C4689B0064600B111B9784688
:10B36000FFF7E4FF2388152B02D87846FFF7DEFFAE
:10B370004FF6FF724FF42013CDE90523002501237A
:10B3800005A90A223046ADF81C30ADF8045010F083
:10B39000A3F80A2323800DF10E012846FDF790FC47
:10B3A00010B17846FFF7C2FF0DF10F010020FDF745
:10B3B00093FC10B17846FFF7B9FF0DF106010020AC
:10B3C000FDF772FC10B17846FFF7B0FFBDF806300C
:10B3D000ADF80C300DF10809022301AA49460020FE
:10B3E000ADF80430FDF7C6FC10B17846FFF79EFFBC
:10B3F0002088042203A9304410F06EF827889DF8B5
:10B400000E300437BFB227805BB14FF00008BDF8A3
:10B4100004A045464FF6FF7BD04515D323881D4435
:10B4200025809DF80F3063B12088BDF80480002787
:10B4300006443D464FF6FF7A47451ED323881D44F8
:10B44000258009B0BDE8F08F39F8180004A9FDF790
:10B450004FFC10B17846FFF769FFBDF810305B452F
:10B4600008D1E81902220DF11201304410F034F82D
:10B470000235ADB208F10108CEE739F8170004A98A
:10B48000FDF736FC10B17846FFF750FFBDF81030DD
:10B4900053450ED0022204A9701910F01DF8A81C03
:10B4A00002220DF1120116FA80F010F015F80435A1
:10B4B000ADB20137C0E70000024B1B6803B118476B
:10B4C000704700BF0C3B002013B5044601A8FEF7EF
:10B4D000C9FDBDF80430181B18BF4FF0FF3080B213
:10B4E00002B010BD37B504460BF0C8FA054600237C
:10B4F00001A80093FEF7B6FD288A6946FFF700FC15
:10B5000030B9009B6360BDF80430238003B030BDC8
:10B510000520FBE707B5002001A90CF040FC10B1A5
:10B520007846FFF703FFBDF806000A23B0FBF3F0EF
:10B530009DF80530013B03F00703013843EAC000E2
:10B5400003B05DF804FB1FB50193BDF81830ADF8EA
:10B550000020ADF808304FF6FF724FF40073ADF8DD
:10B560000220ADF80A306A46079B0393FDF774F892
:10B5700005B05DF804FB00001FB50446039107F019
:10B5800065FD084B03991860074B01221A700023D0
:10B590000190009348F24A022046FFF7D4FF04B01E
:10B5A00010BD00BF143B0020103B0020F0B50B89FC
:10B5B000032B87B006460C4626D14D68AB78012B8D
:10B5C00022D800278DF80C702B88ADF80D3002239F
:10B5D0008DF80F3007F03AFD04230190009348F2F4
:10B5E000480203AB21463046FFF7ADFF082239463B
:10B5F00004A80FF07FFF1E238DF810302B88ADF8C4
:10B60000143004A8FFF758FF07B0F0BD10B586B09E
:10B61000044603918DF81420ADF8153007F016FD9F
:10B62000032301900093039905AB48F2440220469E
:10B63000FFF789FF06B010BDF0B50C460988A1F5EB
:10B6400000411B3987B0054617461E46102936D8DB
:10B65000DFE801F0090909093509090935353535EA
:10B6600035354D3564000922002103A80FF042FF53
:10B6700023888DF80C60A3F500431B3B072B32D8C1
:10B68000DFE803F004042B04311F1F1F63681A88CE
:10B69000ADF80D205A88ADF80F205B68CDF8113059
:10B6A000002F14BF0726092607F0D0FCCDE9006063
:10B6B00003AB48F21F0221462846FFF744FF07B0BC
:10B6C000F0BD636833F8122BADF80D2000228DF821
:10B6D0000F208DF810201B68E0E7636833F8022B19
:10B6E000ADF80D20F7E77846FFF720FED8E70522F2
:10B6F000002103A80FF0FEFE63688DF80C601A8825
:10B70000ADF80D205B88ADF80F3007F09FFC0523E6
:10B710000093019003AB48F22A02CCE707220021F4
:10B7200003A80FF0E7FE63688DF80C601A88ADF887
:10B730000D209A88ADF811205B88ADF80F3007F026
:10B7400085FC07230093019003AB48F22C02B2E77B
:10B7500030B585B004460D46002303A90120ADF89D
:10B7600008300CF01CFB10B17846FFF7DFFD9DF8A8
:10B770000C308DF808309DF80D309DF80920013B04
:10B7800063F302028DF80920BDF80E20142A04D1BB
:10B790009DF8093013F0070305D00A23B2FBF3F339
:10B7A000013B03F01F039DF8092063F3C7028DF8E6
:10B7B000092007F04BFC02230190009348F2280275
:10B7C00002AB29462046FFF7BEFE05B030BD7FB56F
:10B7D0000B89022B05460E463ED14C682378012B7F
:10B7E0003AD803F001038DF804306378C3F3020301
:10B7F00001338DF80530637883B3DB08013303EB45
:10B8000083035B00142B38BF142301A90120ADF87A
:10B8100006300CF0B3FA10B17846FFF787FD3146D9
:10B820002846FFF795FF082200210DEB02000FF0DC
:10B8300061FE08238DF8083023788DF80C3063788A
:10B84000C3F302038DF80D30637802A8C3F3C40379
:10B850008DF80E30FFF730FE04B070BD1423D1E731
:10B8600030B589B00446ADF817309DF834300391F7
:10B870000020002B8DF814000C98ADF8152014BF93
:10B8800007250925CDF8190007F0E0FB0399CDE95C
:10B89000005005AB48F21F022046FFF754FE09B0E6
:10B8A00030BDF0B50F89012F87B005460C461FD17A
:10B8B0004E683378012B1BD802238DF80C3007F02B
:10B8C000C5FB03ABCDE9007048F2140221462846BF
:10B8D000FFF739FE0822002104A80FF00BFE062313
:10B8E0008DF8103033788DF8143004A8FFF7E4FD9C
:10B8F00007B0F0BD10B586B0CDE902138DF8142065
:10B900009DF80E30BDF80C20ADF8152004468DF8DA
:10B91000173007F09BFB042301900093029905ABBD
:10B9200048F203022046FFF70EFE06B010BD0000ED
:10B93000F0B50C8924F00204A4B287B007460D4686
:10B940004CBB4E68308807F0E7F9012823D13388D3
:10B95000ADF80830114B1A889B78ADF80A208DF8A5
:10B960000C3007F073FB05230190009348F22E0280
:10B9700002AB29463846FFF7E6FD0822214604A817
:10B980000FF0B8FD2C238DF810303388ADF814304B
:10B9900004A8FFF791FD07B0F0BD00BF0EC503007E
:10B9A0002DE9F0470B89022B86B007460C4638D1AB
:10B9B0004B68B3F80090C9F30B00FEF773FCA38C3F
:10B9C0008342064630D14B460C2221463846FFF7CB
:10B9D0001DFE26E0BAF80000FEF778FC01352AF8D3
:10B9E000020B30E038F81500FDF722FA10B1784666
:10B9F000FFF79CFC0135019BAB42F3D84B4600227C
:10BA000021463846FFF702FE0822002140460FF08B
:10BA100071FD172340468DF80830ADF80C60FFF734
:10BA20004BFD06B0BDE8F0874FF6FF7398420DF16D
:10BA30000808E3D0082301AA41460193FFF7C2F8A2
:10BA4000054618B9C246019BAB42C3D83046FFF742
:10BA50006BF805460028CED00F28B4D04B46042200
:10BA6000B3E700002DE9FF410B89122B07460D4675
:10BA70002ED1D1F80480082244460DEB02000021AB
:10BA800034F8026B0FF036FD2A8848F240039A42E0
:10BA9000C6F30B061FD121460DF106023046FEF714
:10BAA00091FC152304460F2C8DF80830BDF80630A4
:10BAB000ADF80C3096BF0D4B10221A5DB8F800306F
:10BAC00029463846FFF7A2FD14B902A8FFF7F4FC97
:10BAD00004B0BDE8F0813046FEF7E4FB2146ADF846
