:020000022000DC
:1070000000FD0320890D0400B10D0400B30D040040
:10701000B50D0400B70D0400B90D04000000000018
:10702000000000000000000000000000BB0D040094
:10703000BD0D040000000000BF0D0400C10D0400E0
:10704000C30D0400C30D0400C30D0400C30D0400F0
:10705000C30D0400C30D0400B5830200C30D04007A
:10706000C30D0400C30D040041230300C30D04003D
:10707000C30D0400C30D0400C30D0400C30D0400C0
:10708000C30D040075C2030055DB0200C30D0400EC
:1070900045C30300C30D040025930200C30D040083
:1070A000C30D0400C30D0400C30D0400C30D040090
:1070B000C30D0400C30D0400000000000000000028
:1070C000C30D0400C30D0400C30D0400C30D040070
:1070D000C30D0400C30D0400C30D0400C30D040060
:1070E000C30D0400C30D0400C30D04000000000024
:1070F00000000000C30D040000000000C30D0400E8
:10710000000000000000000000000000000000007F
:10711000000000000000000000000000000000006F
:10712000000000000000000000000000000000005F
:10713000000000000000000000000000000000004F
:10714000000000000000000000000000000000003F
:10715000000000000000000000000000000000002F
:10716000000000000000000000000000000000001F
:10717000000000000000000000000000000000000F
:1071800000000000000000000000000000000000FF
:1071900000000000000000000000000000000000EF
:1071A00000000000000000000000000000000000DF
:1071B00000000000000000000000000000000000CF
:1071C00000000000000000000000000000000000BF
:1071D00000000000000000000000000000000000AF
:1071E000000000000000000000000000000000009F
:1071F000000000000000000000000000000000008F
:1072000010B5054C237833B9044B13B10448AFF3E0
:1072100000800123237010BDE02F0020000000003B
:10722000004C040008B5034B1BB103490348AFF3FE
:10723000008008BD00000000E42F0020004C040086
:10724000154B002B08BF134B9D46A3F5803A002138
:107250008B460F461348144A121A1BF0D1FC0F4BF1
:10726000002B00D098470E4B002B00D098470020F1
:10727000002104000D000D48002802D00C48AFF397
:1072800000801BF06DFC2000290000F0BFFA1BF00D
:1072900053FC00BF0000080000FD032000000000B8
:1072A00000000000E02F0020386D002000000000EA
:1072B0000000000041DF704710B50D200C4600F0C3
:1072C000C1FF207010BD000013B5164B1B685B0496
:1072D0000C4617D5144B1B68032B13DD13482F21C5
:1072E0001BF060FDA8B12F2110481BF05BFD411C75
:1072F0000F4B104AD3F804350092019472220420F7
:1073000007F066FC21460D2002B0BDE8104000F0F9
:10731000A5BF06485C211BF045FD08B15C21E3E7F1
:107320000249E5E7302F00202C2F0020572E0400C3
:1073300000100140822E040007B5174B1B685B0448
:1073400016D5164B1B68032B12DD15482F211BF099
:1073500029FDC0B12F2112481BF024FD411C114B07
:10736000114AD3F8043500920420922207F030FC31
:107370000322C8214FF4F03000F086FF03B05DF81F
:1073800004EB00F08FBD06485C211BF00BFD08B13B
:107390005C21E0E70249E2E7302F00202C2F00209B
:1073A000572E0400001001409A2E040037B5574CA8
:1073B0002368451C580417D5554B1B68032B13DD58
:1073C00054482F211BF0EEFC58B32F2151481BF0DD
:1073D000E9FC411C504B514AD3F804350092019509
:1073E000AD22042007F0F4FB012D23D0042D53D04F
:1073F00023685B0476D5464B1B68032B72DD45483A
:107400002F211BF0CFFC002877D02F2141481BF003
:10741000C9FC411C404B424AD3F804350092CF22AC
:107420005DE03C485C211BF0BDFC08B15C21CDE770
:107430003849CFE72368590416D5354B1B68032B11
:1074400012DD34482F211BF0ADFCE0B12F21314873
:107450001BF0A8FC411C304B324AD3F80435009293
:107460000420B52207F0B4FB0D2000F0EBFE80F005
:107470000100C1B20D2000F0F1FE2B4803B0BDE8C1
:10748000304000F0EBBB23485C211BF08BFC08B1C3
:107490005C21DCE71F49DEE700F002FD40B10DF0A2
:1074A000F7F900F0ADFC03B0BDE83040FFF744BF92
:1074B00023685A0416D5164B1B68032B12DD15489A
:1074C0002F211BF06FFC78B12F2112481BF06AFCB2
:1074D000411C114B154AD3F804350092C9220420EF
:1074E00007F076FB03B030BD0A485C211BF05AFC64
:1074F00008B15C21E9E70749EBE706485C211BF08E
:1075000051FC08B15C2181E7024983E7302F00205C
:107510002C2F0020572E040000100140B32E040031
:1075200068300400C62E0400002E0020D42E040073
:107530000378232B01D1FFF7FFBE704713B52B4C07
:107540002268520418D52A4B1B68032B14DD2948E6
:107550002F211BF027FC002836D02F2125481BF0B7
:1075600021FC411C244B254AD3F804350092042009
:107570004FF4847207F02CFB2148002100F088FBB7
:1075800018B11C4A8A2119F02AFC23685B0419D51A
:10759000174B1B68032B15DD16482F211BF002FC2F
:1075A000D8B12F2113481BF0FDFB411C144A124B8C
:1075B0001288D3F804350192124A009204208B22DB
:1075C00007F006FB02B010BD0A485C211BF0EAFB85
:1075D00008B15C21C2E70749C4E706485C211BF0FB
:1075E000E1FB08B15C21DDE70249DFE7302F002035
:1075F0002C2F0020572E0400001001400B2F0400F8
:10760000002E00202B2F040010B5044600214FF45B
:10761000F03004EB840400F02DFE62003221BDE85E
:1076200010404FF4C03000F02FBE00F05FBE0000ED
:107630001FB503A813F0DCFB144B1B685B0419D5C2
:10764000134B1B68032B15DD12482F211BF0AAFBDF
:1076500098B12F210F481BF0A5FB411C0E4BBDF824
:107660000C20D3F8043501920C4A00920420F22237
:1076700007F0AEFA05B05DF804FB06485C211BF08C
:1076800091FB08B15C21E5E70249E7E7302F0020D4
:107690002C2F0020572E040000100140472F04001B
:1076A00007B51D4B1B685B0416D51C4B1B68032BD1
:1076B00012DD1B482F211BF075FB18B32F21184832
:1076C0001BF070FB411C174B174AD3F8043500928E
:1076D0000420F72207F07CFA01F094F901F0BAF9DE
:1076E000FFF7A6FF00F002FE00214FF4F03000F09B
:1076F000C1FD0422C8214FF4F03003B05DF804EB63
:1077000000F0C2BD06485C211BF04CFB08B15C21B7
:10771000D5E70349D7E700BF302F00202C2F0020EA
:10772000572E0400001001405E2F040030B5154BA9
:107730001B685B0485B00C46154618D5124B1B68B8
:10774000032B14DD11482F211BF02CFB88B12F21B6
:107750000E481BF027FB411C0D4B0E4AD3F8043595
:107760000092CDE901458322042007F031FA05B0EB
:1077700030BD06485C211BF015FB08B15C21E7E732
:107780000249E9E7302F00202C2F0020572E04005B
:1077900000100140782F040007B53138032804D8C1
:1077A00003B05DF804EBFFF701BE134B1B685B04ED
:1077B00016D5124B1B68032B12DD11482F211BF02D
:1077C000F1FA80B12F210E481BF0ECFA411C0D4B51
:1077D0000D4AD3F8043500920420DD2207F0F8F9B1
:1077E00003B05DF804FB06485C211BF0DBFA08B12E
:1077F0005C21E8E70249EAE7302F00202C2F002027
:10780000572E0400001001406830040000B5854E7A
:10781000854A4FF410308DB0052107F0BDF933686B
:10782000580419D5814B1B68032B15DD80482F2187
:107830001BF0B8FA002800F0B3802F217C481BF021
:10784000B1FA411C7B4B7C4AD3F8043500920420EA
:107850004FF4947207F0BCF914F0BCFE20B1744AE6
:107860004FF4957119F0BBFA00F050FD734800F029
:1078700079FD20B16E4A4FF4977119F0B0FA01F01A
:1078800085F801F0BFF801F0E5F80021202203A8F7
:107890001BF0B6F901238DF80C3007238DF80F305B
:1078A00006238DF81430664B07936649664B0B939D
:1078B00003A800F0B1FA20B30B2840F0A080336891
:1078C00059041ED5594D2A68032A1ADD58482F211C
:1078D0001BF068FA00286CD02F2155481BF062FA83
:1078E000411C544C594AD4F804350092042040F20B
:1078F0001B1207F06DF933685A0402D52B68032B6D
:1079000060DC5348642100F03DFC4E4B1B78002B9B
:107910007BD1504D0FCD03AC0FC495E8070084E830
:10792000070003A800F0D6FB20B1414A4FF4A6712E
:1079300019F055FA01F070FF00F06EFD00F0E0F96B
:1079400020B13B4A40F2551119F049FA33685B0403
:1079500018D5364B1B68032B14DD35482F211BF03F
:1079600021FA002854D02F2131481BF01BFA411C6A
:10797000304B394AD3F804350092042040F25712B4
:1079800007F026F900214FF4F03000F073FC0222DA
:10799000C8214FF4F03000F077FCFFF78BFCFCE7D8
:1079A00023485C211BF0FEF908B15C2146E7204921
:1079B00048E71F485C211BF0F5F908B15C218CE712
:1079C0001B498EE71A482F211BF0ECF970B12F21CB
:1079D00017481BF0E7F9411C204AD4F804350092FF
:1079E00004204FF48E7207F0F3F88AE710485C2108
:1079F0001BF0D8F908B15C21EAE70D49ECE70C4A25
:107A000040F2211119F0EBF97BE7FFF711FE91E746
:107A100007485C211BF0C6F908B15C21A4E70449C2
:107A2000A6E700BF302F00206DEB02002C2F0020B6
:107A3000572E0400001001409F2F0400AD73020078
:107A400031750200FC2F00203D750200CE2F04008E
:107A50009977020048300400683004001C300400AC
:107A600037B51C4B1B685B040446154616D51A4BEC
:107A70001B68032B12DD19482F211BF093F9F8B175
:107A80002F2116481BF08EF9411C154B154AD3F8CF
:107A9000043500920420692207F09AF8A36B04F1E0
:107AA00040012046984794F840302B7094F84230BB
:107AB0006B7004F1480000F03BFE686003B030BD1D
:107AC00006485C211BF06EF908B15C21D9E7034937
:107AD000DBE700BF302F00202C2F0020A93104004D
:107AE00000100140CC310400F0B51D462B4B1B6843
:107AF00085B05B040A9E0446174619D5284B1B68BF
:107B0000032B15DD27482F211BF04CF9002834D01A
:107B10002F2124481BF046F9411C234B3A78D3F817
:107B200004350192214A009204207C2207F050F88B
:107B3000A36B0DF10F0120469847002384F8E43031
:107B40003A789DF80F1084F84220914223D084F8AF
:107B500064302D232366CDB9A567A56504F14800DF
:107B6000A56D00F0C9FD36B194F84030337094F83B
:107B700042307370756005B0F0BD0A485C211BF09F
:107B800011F908B15C21C4E70649C6E76B68A36731
:107B90002B68A365E2E71D46E5E700BF302F002014
:107BA0002C2F0020A931040000100140D73104001F
:107BB00037B510F8073C0446A0F14805DBB910F8CA
:107BC000063CC3B150F8143C012100F8081C0BB16D
:107BD000284698470023ADF8023014F8083C8DF889
:107BE000003014F8063C8DF801306946236A019391
:107BF00028460FF0A5FF54F80C3C23B114F8062CCE
:107C0000216A2846984703B030BD37B510F8061CE6
:107C100010F8083C8B420446A0F1480514D050F8F7
:107C2000143C00F8081C0BB12846984714F8083C8F
:107C30008DF8003014F8063C8DF8013069460023B9
:107C4000284601930FF07CFF54F80C3C23B114F844
:107C5000062C216A2846984703B030BD13B5044668
:107C6000483000F057FDA36B04F1400120469847CF
:107C700094F8403084F842308DF800308DF80130AF
:107C800069460023204601930FF05AFF02B010BD51
:107C900010B5044608B90E2010BD0F4BC362836BAC
:107CA000002BF8D0436B13B9C36B002BF3D02046E5
:107CB0000FF01EFF0028EFD1084BA064C4E9133079
:107CC000074B636504F148000123C4F8D000E36565
:107CD000BDE8104000F046BDE8310400B17B020071
:107CE0000B7C020010B5044607F0D8FC38B12378AD
:107CF0000E2B04D1BDE81040002004F0B9BE10BD29
:107D000008B514F065FA20B10CF050FA08B10CF087
:107D1000CFF918F06DFABDE8084004F081BD00000D
:107D200070B5837DC27D86B043EA0223ADF814307E
:107D30000546012305A80E46ADF8163013F024F8C9
:107D40000446002845D1288A04AA294613F00CFAD3
:107D5000044600283DD1BDF81010E88A0DF1120349
:107D6000324613F06DFC0446002832D1297ED5F846
:107D7000120001F0010104F0B5F910B1784601F0EC
:107D800011FDBDF812000FF0DFFA044608BB174BD7
:107D90001B681B031DD5164B1B68062B19DD1548E8
:107DA0002F211AF0FFFFB8B12F2112481AF0FAFF65
:107DB000411C2A7E104B02F00102D3F804350292D6
:107DC000D5F8122001920D4A00920720C62206F033
:107DD000FFFE204606B070BD06485C211AF0E2FFA7
:107DE00008B15C21E1E70349E3E700BF302F002041
:107DF0002C2F0020F0310400001001400F3204004D
:107E000008B505F07DF911F025F912F0F5FEBDE891
:107E1000084003F04FBF000073B50E46054600282A
:107E20003AD004F08FFC044698BB12F08FFF11F09B
:107E300059F928690FF058FA044650BB2B7F01937B
:107E4000AB69009301466B69144859220FF0FCFCA2
:107E50000446F0B92B6A03B1984708F0C1FF12F04D
:107E60006BFE054610F078FE0B2D01D00B2802D1D9
:107E7000FFF7C6FF0B2414F0ABF9054608B10CF070
:107E8000D5F818F017F910B1784601F08BFC06B15F
:107E90003570204602B070BD0E24FAE72030002075
:107EA00014F096B908B507F0F9FB20B1BDE8084019
:107EB000002004F0DDBDBDE80840014804F022BD0B
:107EC000E82E002069DF704730B5394D2A7887B039
:107ED0001AB1012803D0032862D007B030BD0023B7
:107EE00001A9019301F0CCF808B118F06BFF0C2246
:107EF00000210DEB02001AF083FEBDF80C302D4876
:107F000023F47F7323F0030343F4887343F00103E6
:107F1000ADF80C3000230493ADF814301AF03AFF9A
:107F2000019AADF8160003A94120FFF7CBFF08B175
:107F300018F048FF01A801F00BF908B118F042FF52
:107F40001D4C236803B19847012302A90DF10200DB
:107F5000029313F047FB08B118F034FFBDF802009C
:107F600013F062F80DF1010113F092F908B118F065
:107F700029FF0CF05BF89DF8011000200CF0BCFC10
:107F800010B1784601F00EFC04F04AFC08B118F07C
:107F900019FF00232B706368002B9ED098479CE745
:107FA00001F03EF9002898D018F00CFF95E700BFCB
:107FB0007A3000202F3204007C30002008B503788E
:107FC0001C2B0CD1064B1B784BB101F067F908B1A3
:107FD00018F0F8FEBDE80840024804F095BC08BD62
:107FE0007A300020F42E002010B50749074814F01D
:107FF000A7FF024638B9064906484969BDE810405E
:10800000032314F0B6BF10BD9830002004340020C4
:108010007C300020D032002010B50378023B082BC2
:108020004AD8DFE803F01E051249493849493F00A4
:10803000224B9B68002B3FD0007A00283CD0204A7E
:1080400001211170BDE8104018471C4BDB68002B64
:1080500032D01B4A117879B300211170BDE810406D
:108060001847184B1A784AB9144B1B6913B11449B5
:108070000A709847BDE81040FFF7B6BF124B13488F
:1080800001221A7004F03EFC04F024FCA0B1BDE80B
:10809000104018F097BE094B0D489969102214F052
:1080A000ADFFF3E7D0E90210FFF73AFE08B118F090
:1080B00089FE044B01221A7010BD00BF7C300020E5
:1080C00078300020793000207A300020F42E002013
:1080D000D032002070B51C4A1C4E5168044686B050
:1080E000106803AB03C31189927A19809A700FCC80
:1080F00035460FC594E8070085E80700B36903B368
:10810000134B0093134A1449144803AB14F0EAFECE
:10811000A8B9134816F0FCFA0146104814F0FCFE0A
:1081200068B9104816F064FC48B90E4816F092FC85
:1081300001460A4814F0F0FE08B9FFF755FF06B0F3
:1081400070BD0720FBE700BF403204007C300020F8
:10815000198002009830002004340020D032002022
:10816000B83000208032002010B5054C226832B1B2
:1081700018F06AFF002802DB23689847F8E710BD73
:1081800044340020154B164A10B50C4618600121E6
:10819000144814F07BFA18B1134A4A2118F01FFE54
:1081A000610C0023E00341F26F728B4208BF8242F0
:1081B00010D24FF47A7200231AF03EFB01460B48AE
:1081C000002214F075FA38B1BDE81040064A4B2180
:1081D00018F005BE0521F2E710BD00BF44340020B1
:1081E00069810200703204004B32040048340020E0
:1081F00070B5104C206808B918F0E4FD4FF0A045A8
:108200000D4ED5F8043532685340C5F8043523685F
:10821000013B236063B9094814F096FA3268D5F837
:10822000043523EA0203064A12681343C5F80435ED
:1082300070BD00BF683400206C3400207034002012
:10824000983400204FF0A043D3F80425012303FA0B
:1082500000F010420CBF184600207047012303FABB
:1082600000F04FF0A04311B1C3F80C057047C3F8FC
:10827000080570474FF0A04311B1C3F80C057047D3
:10828000C3F8080570470000F8B52AB3132923D9AD
:10829000124B134C5200013A4FF0A0451A60206077
:1082A000D5F8043518400F4B4FF4FA7618600027C4
:1082B0004FF40040E0FB01674FF47A720023304630
:1082C00039461AF0B9FA00220146074814F0F0F9CD
:1082D00010B92368C5F80C35F8BD00BF683400201C
:1082E0006C340020983400207034002008B5054814
:1082F00014F02AFA044B1A684FF0A043C3F808257B
:1083000008BD00BF703400206C34002008B54FF069
:10831000A04303224FF40051C3F83427C3F80815D3
:108320004FF48041C3F83827C3F808154FF40041D3
:10833000C3F83C27C3F80815C3F840274FF4803230
:10834000C3F808250548064A012114F09FF918B121
:10835000BDE8084018F036BD08BD00BF7432040007
:10836000F1810200D8B10F4B0F4A18604FF0A043C3
:108370000020C3F82C27C3F83027C3F86027C3F8C0
:1083800064270A4B4FF00042C3F80423C3F87C0172
:10839000074BC02283F8062340221A6070470E2044
:1083A000704700BF903400200C00030000600040C4
:1083B00000E100E0F8B5134B134D144E144F0024A8
:1083C000C3F87C414FF0A04315F8011BD3F81025EA
:1083D00001238B40934310D03368D7F80425991AB2
:1083E00048BFD11A43F23333994206D9D7F804353E
:1083F0003360084B20461B6898470134042CE1D1B8
:10840000F8BD00BF006000407832040094340020C2
:1084100000100140903400202DE9F0410446CEB018
:1084200038B1424D2B685A0403D5414E3368032BB3
:1084300002DC4EB0BDE8F0813E4B18680DAB611E0A
:1084400004F10F0C1F4611F8012F4FEA121E02F023
:108450000F0210F80EE083F800E0825C5A7061456C
:1084600003F10203EFD10023334887F820302F2196
:108470001AF098FC002846D02F212F481AF092FCC1
:10848000411CDFF8C4802D4AD8F8043501922C4AEB
:10849000009202974222042006F09AFB2B685B04AC
:1084A000C7D53368032BC4DD23482F211AF07AFC8B
:1084B000002831D02F2120481AF074FC411CE27BA7
:1084C0002068D8F804350B92A27B0A92627B09924D
:1084D000227B0892E27A0792A27A0692627A059249
:1084E000227A0492E28852BA92B20392A28852BAD5
:1084F00000BA92B2CDE90102124A0092042043224E
:1085000006F066FB95E70C485C211AF04BFC08B1BD
:108510005C21B2E70849B4E707485C211AF042FC45
:1085200008B15C21C7E70449C9E700BF302F00202C
:108530002C2F0020342F00207C320400A4320400B1
:10854000B6320400BE32040000100140024B53F862
:1085500020300846184700BF00330400024B53F890
:1085600020300846184700BF14330400836803B165
:1085700018477047006B003818BF01207047036927
:10858000013B033304D84069003818BF012070470D
:1085900000207047024601218C3008F0A8BD0A4631
:1085A00000230B6302F18C00022108F0A0BD70B51E
:1085B00090F82C30022B064615D038300FF0DBFB3C
:1085C0004FF47A74A0FB042304FB0133D40B44EA78
:1085D0004344DD0B326A00239D4208BF94422CBF06
:1085E0000120002070BD0020FCE710B500230446E8
:1085F00003630362703004F0F7FB04F13800BDE858
:1086000010400FF0E3BB10B5044638300FF0DEFB2E
:1086100000232362E3681BB12046BDE810401847E1
:1086200010BD00002DE9F04100F138050446284650
:108630000FF0CCFB04F110030FCB04F1200686E809
:108640000F00606A1AF074FA064610B9784601F015
:10865000A9F8206A4FF47A7832460023A0FB08017B
:108660001AF0EAF8A26AA2FB08238B4208BF8242F2
:108670003CBF0B460246002B08BFB2F57A7F1DD3E4
:10868000114ED903D00341EA524180194FF0000640
:108690000E4A4FF0000346EB01011AF0CDF801231A
:1086A000C4E9100184F8383028460FF067FB40B960
:1086B000636833B12046BDE8F0411847212000210E
:1086C000EDE7BDE8F08100BF20A1070040420F00A8
:1086D00010B5044604F0C8FB236B4FF47A7101FB1C
:1086E000030104F1700004F096FB23681BB12046DF
:1086F000BDE81040184710BD10B5044610B97846C3
:1087000001F050F8224604F18C000021BDE8104031
:1087100008F0EDBC10B5044610B9784601F042F8F7
:10872000224604F18C000321BDE8104008F0DFBCB4
:108730002DE93048044610B9784601F033F804F1C9
:108740003800256A0FF017FB4FF47A73A0FB03BCC7
:1087500003FB01CC4FEADB3040EA4C40281ABDE86D
:108760003088000038B5044610B9784601F01AF890
:10877000094BA367094BE364C4F88040A46404F187
:1087800038000FF037FB0649054604F18C0008F06D
:108790007DFC284638BD00BF9F85020095850200FC
:1087A0004C33040072DF704773DF704774DF70472B
:1087B0002DE9F0412F4CA2B006460F46904600210D
:1087C000102220461AF01CFA2B4A2C491378C3EBCE
:1087D0004315294421602A49013303F001030D4464
:1087E0001F211370A180A1813C22002104A8A56053
:1087F0001AF006FA062301AA8DF813300E9201230F
:108800003C22002113A88DF80230ADF820308DF8FD
:108810003C30ADF80060CDF824D0ADF80460ADF880
:10882000088003971AF0ECF92246022352F8041B41
:108830008DF84C3004A800F0F5F908B118F0C2FA30
:10884000104AA16813A800F0EDF908B118F0BAFABF
:108850000D4A08490D48FFF7A5FF082804D105492E
:108860000A480022FFF79EFF08B118F0ABFA22B0C9
:10887000BDE8F081DC3400209C3400209D340020D1
:10888000EC340020E8340020042F0020002F0020CA
:10889000B0F5202F0AD20A23B0FBF3F310B1012B5D
:1088A00038BF0123034A9381916070474FF6FF73ED
:1088B000F5E700BF042F002008B5064B012118780A
:1088C000FFF772FF08B118F07DFABDE808400020FC
:1088D00004F070BE002F002008B5054B1878FFF794
:1088E00065FF18B1BDE8084018F06CBA08BD00BFBC
:1088F000002F002076DF70477ADF70477CDF7047FB
:1089000069DF704718F05EBA04F000B807B5037865
:108910004BB940883B21FFF7EDFF08B303B05DF88A
:1089200004EB18F04FBA012B1AD1134B1B685B04F0
:1089300016D5124B1B68032B12DD11482F211AF09C
:1089400031FA80B12F210E481AF02CFA411C0D4B40
:108950000D4AD3F8043500920420682206F038F955
:1089600003B05DF804FB06485C211AF01BFA08B15D
:108970005C21E8E70249EAE7302F00202C2F002095
:108980005C330400001001408C3304001FB500F07C
:1089900047FC08B118F016FA00236946012000933D
:1089A00000F06EFB08B118F00DFA0C22002101A8AE
:1089B0001AF026F9BDF80430114823F47F7323F030
:1089C000030343F4887343F00103ADF8043000233C
:1089D0000293ADF80C301AF0DDF9009AADF80E00F4
:1089E00001A94120FFF78CFF08B118F0EBF96846A8
:1089F00000F0AEFB08B118F0E5F905B05DF804FB36
:108A00002F3204001FB5112310488DF804301AF0DE
:108A1000C1F90E4982B201A8FFF770FF08B118F042
:108A2000D1F908220DEB020000211AF0E9F8084AFA
:108A30004FF0C87302A8CDE90223FFF75DFF08B12C
:108A400018F0C0F905B05DF804FB00BF2F32040038
:108A50007800C80010B58AB001AC08220021204679
:108A60001AF0CEF8124A4FF0C873CDE90123002165
:108A70001C2203A81AF0C4F84FF4803340F6CD410D
:108A8000CDE9041303238DF818300023ADF81A3014
:108A90008DF81C30074B089303A8074B03940993E8
:108AA00000F040FD08B118F08DF90AB010BD00BF0C
:108AB0007800C8000D8902000589020070B5EFF347
:108AC000108672B60C4A946801239CB993600B4BD4
:108AD0000B4DD3F8801029401160C3F88050D3F8B3
:108AE000841051604FF0FF32C3F88420047006B93F
:108AF00062B670BD0370FAE7B06C002000E100E0E0
:108B0000FC06FFBD10B5084B9A685AB150B9EFF397
:108B1000108172B6054A1C6814605C6854609860E5
:108B200001B962B610BD00BFB06C002000E100E0EA
:108B30006DDF704779DF70477DDF704764DF704716
:108B40002DE9F04F85B000250E9CBDF83CB0B4F87F
:108B500000A00191074690461E46A9463A884A451C
:108B60000DDC45B12388013BA3EB0A039BB2FF2B2D
:108B70003AD806F80A30002005B0BDE8F08F7A68D0
:108B800052F82900039000220DF10B0103A8FFF712
:108B9000D5FF0028F0D19DF80B20424521D1228835
:108BA000002D14BF0020022002EB080101445945AA
:108BB0001ADC3DB9013292B2019B2280B354228863
:108BC0000132228022880DF10B01324403A8FFF705
:108BD000B5FF0028D0D121889DF80B200A442280BF
:108BE000012509F10109B9E70C20C5E72DE9F34199
:108BF000089FBDF824801546CDE90078022204467E
:108C00001E46FFF79DFF50B93346102229462046E5
:108C1000CDE9087802B0BDE8F041FFF791BF02B09E
:108C2000BDE8F0812DE9F04F00231788138090F8FC
:108C30002D3085B006460D46144653B3082F01D893
:108C40000C2027E102A8FFF773FF002840F02281E3
:108C500023880822EA54238801339BB21B222380F5
:108C6000EA542088013080B2208006220DF10901EB
:108C7000284419F0B7FF23889DF8082006339BB2DB
:108C800012F0FE0218BF01222380EA542388013328
:108C90002380B378FBB123880433BB42D0D802A829
:108CA000FFF748FF002840F0F58023880322EA54AC
:108CB000238801339BB219222380EA542388BDF80C
:108CC000082001339BB2E9182380EA54120A4A7043
:108CD000238802332380F2789AB12388D91CB942C1
:108CE000AED80221E954238801339BB201212380AD
:108CF000E95423880B449BB22380EA5423880B4415
:108D000023807268AAB12388D91CB94298D802215D
:108D100092F90020E954238801339BB20A21238071
:108D2000E954238801339BB22380EA54238801331A
:108D300023803389002B40F0A180338A5BB1CDE9D9
:108D400000472B460722032106F11000FFF74EFFD4
:108D5000002840F09F80338B5BB1CDE900472B4664
:108D60001522142106F11800FFF740FF002840F0FB
:108D70009180326A002A40F09080D6F82480B8F1C1
:108D8000000F30D0B8F804302188981C8A1C0244A7
:108D9000BA423FF655AFFE283FF652AF03336B544D
:108DA000238801339BB2FF222380EA5423880133B6
:108DB0009BB22380B8F80020EA54E918120A4A70DE
:108DC0002088023080B22080B8F804205AB1D8F848
:108DD000081000296BD0284419F004FF2388B8F844
:108DE00004201344238096F82C30002B40F09A8006
:108DF000307800284ED03388012B58D0228802F1D9
:108E0000020CBC453FF61CAF012805D17378023334
:108E100013449F42FFF414AF023FBF1ABFB202A92E
:108E200005EB0C00ADF80870FFF786FE90BB3178BB
:108E3000BDF80830022900F0BA8072789A4202D355
:108E4000BB4240F2B280012940F0B380974293B216
:108E5000C0F0AF80ADF808300821BDF80830FE2B17
:108E60003FF6EEAE22880133AB542288013292B233
:108E70002280A9542288134423800BE0CDE90047C7
:108E80002B460622022106F10800FFF7AFFE00285C
:108E90003FF453AF05B0BDE8F08FB4F800C00CF15B
:108EA0000603BB423FF6CCAE1188052901D8072046
:108EB000F0E76FF4486E01EB0E039BB24FF27D3E7C
:108EC0007345F4D95388052BF1D96FF4486018180D
:108ED00080B27045EBD94FF6FF70814203D08342D8
:108EE00001D09942E3D8052305F80C3023880133DB
:108EF0009BB212212380E954238801339BB2238043
:108F00001188E954E818090A4170238802339BB29A
:108F100023805288EA54E918120A4A7023880233DF
:108F200023802AE7B36A002BC1D04FF000094FF02D
:108F30000C0A4FF0160B96F82C305FFA89F2934228
:108F40007FF656AFB16A0AFB02F201EB0208B8F8ED
:108F50000430981CFE283FF673AE208803332B5450
:108F6000238801339BB2238005F803B023880133A3
:108F70009BB223808A5AEA54E918120A4A70208860
:108F8000023080B22080B8F804205AB1D8F8081016
:108F900000298CD0284419F025FE2388B8F8042035
:108FA0001344238009F10109C5E7092155E7BB42B4
:108FB000FBD9ADF808704FE701600B6843604A6861
:108FC000934204BF002343607047436843B1026883
:108FD00091680B4443605268934204BF002343608E
:108FE00070474BDF704700001FB50D4C01A8FFF71D
:108FF000F8FF70B9214602A8FFF7DEFF039B002BA4
:10900000F4D00198D3E90021904702A8FFF7DDFFD3
:10901000F4E7052801D017F0D5FE04B010BD00BF5D
:10902000B833040060DF704769DF704761DF704765
:1090300030B5114B1B78A9B0E3B1104D94240DF15C
:10904000020103A8ADF80240FFF7F0FF70B929460E
:1090500001A8FFF7B1FF029B002BF0D003A8D3E9D2
:109060000021904701A8FFF7B0FFF4E7052801D0E1
:1090700017F0A8FE29B030BD2A350020C433040003
:10908000F0B5064685B00D4600295CD02F4B0B602D
:109090000C22002101A819F0B3FD012706232A683C
:1090A000ADF8083001A920208DF804608DF8067015
:1090B000FFF7BAFF0C22002101A819F0A1FD00243E
:1090C0002A688DF8057001A94020ADF80640FFF729
:1090D000ABFF0C22214601A819F092FD45232A6816
:1090E000ADF8063001A923208DF80460FFF79CFF3E
:1090F0000C22214601A819F083FD2A688DF804404E
:1091000001A93846FFF790FF0C22214601A819F06B
:1091100077FD4FF4B0632A68019301A9A120FFF7FE
:1091200083FF0C22214601A819F06AFD9DF8043046
:109130002A683B4301A9A0208DF80430FFF774FF93
:10914000204605B0F0BD0E20FBE700BF002E00203A
:1091500008B5FFF767FF10B9014B01221A7008BD6F
:109160002A35002010DF704711DF704713B5044621
:1091700009496846FFF720FF019808B902B010BD01
:10918000D0E900212046904718B16846FFF71DFF3F
:10919000F2E71120F2E700BFD433040013B5044610
:1091A00007496846FFF708FF019B0BB902B010BDE5
:1091B0002046D3E9002190476846FFF706FFF3E712
:1091C000EC330400064B9A6822B11A6822F480023C
:1091D0001A607047034B4FF48002C3F88020704739
:1091E000B06C002000E100E00B4991F816335A09F9
:1091F000EC231341DB0706D5084B9A683AB94FF4C4
:1092000080030B60704742F2020017F0DBBD1A6862
:1092100042F480021A60704700E100E0B06C002068
:10922000F7B5194F3C7864BB184E012520463570C0
:10923000FFF79CFF112821D02046FFF7AFFF144B0A
:109240008DF80340186801900DF10300FFF736FC1C
:10925000104901A8FFF786FF0446B0FA80F04009E4
:1092600038709DF80300FFF74DFC3CB90A4B347091
:109270001C70FFF7B9FF2846FFF790FF204603B0A8
:10928000F0BD0824FAE700BF2C3500202B35002064
:10929000D0330400A59502002D350020F7B5154FF9
:1092A0003B781BB3144E01203070FFF75FFF11288D
:1092B0004FF000051CD00220FFF770FF0DF10700F2
:1092C0008DF80750FFF7FAFBFFF74EFF04469DF8B5
:1092D00007003D70FFF716FC2CB93470FFF772FFE2
:1092E0000320FFF75BFF204603B0F0BD0824FAE738
:1092F0002C46F8E72C3500202B35002007B508490F
:109300006846FFF759FE019B13B903B05DF804FBF3
:10931000D3E9002090476846FFF757FEF3E700BF08
:10932000E0330400FFF7EABF75DF704776DF704770
:109330007ADF70477BDF7047034B1A8882420CBF8D
:1093400018460020704700BF4C350020024B9B6937
:1093500003B11847704700BF3035002073B585B2A0
:109360002846FFF7E9FF044670B1164E027A337BB8
:109370009A420BD200F10A012846FFF7D5FFE8B167
:10938000112801D0FFF7E2FF02B070BD0023037285
:10939000337C43B13B212846FFF7C8FF30F0080378
:1093A00001D0FFF7D3FF7369002BEDD000228DF8B9
:1093B0000420ADF8065001A89847E5E7237A013369
:1093C0002372E1E73035002037B50B46497A0F4A62
:1093D00071B9D2E901141D7A0246002D18BF214649
:1093E000586813F065F908B1FFF7B0FF03B030BD5E
:1093F000002119725369002BF8D00122ADF8060044
:109400008DF8042001A89847F0E700BF3035002010
:109410004B8802889A4213D842889A4210D3808897
:109420008A8840F2F313984294BF031AC31A9342F6
:1094300006D800F2F310904234BF0020012070479C
:109440000020704770B50388122B014659D004D80C
:10945000102B1ED0112B44D070BD502BFCD12F4BA4
:10946000C288DB899A42F7D1038A022BF4D186881D
:109470003046FFF761FF05460028EDD001F11200EC
:1094800000F08AF838BB686813F05EF90028E3D072
:1094900009E0C37B012BDFD14FF6FF70FFF74CFFD4
:1094A000054620B90420BDE87040FFF74FBF8E8805
:1094B0001B4A0680002303721368C0F80A30536801
:1094C000C0F80E3010310A30FFF7A2FF134B68725C
:1094D000DB89002BC0D129463046BDE87040FFF73C
:1094E00073BF8088FFF728FF04460028B4D0406887
:1094F00013F02AF908B1FFF729FF4FF6FF73238015
:10950000AAE786883046FFF717FF05460028A3D054
:1095100008310A30FFF77CFF6872DCE73035002045
:1095200060350020F8B5064648B305460FCD154F07
:109530003C460FC495E8070084E807003068124CE9
:109540003C60B0B1FFF7F4FEC0B932681368236025
:10955000536863600D480E4A4FF6FF7303800D4B4E
:1095600040F8043F002113F091F8002818BF0320B1
:1095700004E02046FFF7DEFE0028EBD0F8BD0E2009
:10958000FCE700BF30350020603500204C3500205E
:109590005D93020068350020007800F001007047FC
:1095A0000620704730B5754B14461B6844F2010223
:1095B000904287B00D4603F4804300F0A98022D882
:1095C000012844D041F20102904276D0002B58D0BD
:1095D0006B4B1B68002B54DD6A482F2119F0E2FB0E
:1095E000002800F0BF802F21664819F0DBFB411CEA
:1095F000654B664AD3F80435009201957B22012021
:1096000005F0E6FA3DE044F202029042DED1002B82
:1096100037D05B4B1B68002B33DD5A482F2119F0E4
:10962000C1FB00286BD02F21564819F0BBFB411C11
:10963000554B2288D3F8043503926268CDE9015274
:10964000534A00920120692205F0C2FA19E0C3B121
:109650004B4B1B68002B14DD4A482F2119F0A2FB4D
:1096600010B32F21474819F09DFB411C464B494A36
:10967000D3F804350092CDE901546022012005F0B1
:10968000A7FA4FF0A0434FF4F032C3F81825C3F8FF
:109690000C25EFF3108372B64DF6AD6C3E4A13788D
:1096A000002B68D107B030BD36485C2119F07AFB39
:1096B00008B15C21D6E73349D8E7002BE1D0304B25
:1096C0001B68002BDDDD2F482F2119F06BFB68B1E3
:1096D0002F212C4819F066FB411C2B4B2F4AD3F845
:1096E00004350092CDE901546322C7E725485C2187
:1096F00019F058FB08B15C21EBE72249EDE721485E
:109700005C2119F04FFB08B15C218DE71D498FE703
:10971000002BB6D01A4B1B68002BB2DD19482F2145
:1097200019F040FBA8B12F21164819F03BFB411C52
:10973000154B2268D3F8043504926268CDE90252D1
:10974000A2680192164A00920120732205F040FAA5
:1097500097E70C485C2119F025FB08B15C21E3E791
:109760000849E5E707485C2119F01CFB08B15C21BA
:109770003AE704493CE730BF91E700BF302F0020B3
:109780002C2F0020F8330400001001409C3404000A
:109790005C340400203404001C2F00203A34040000
:1097A0007B34040007B500230146ADF800306A465B
:1097B000044B019344F20200FFF7F4FE03B05DF89E
:1097C00004FB00BF4737040001461022014819F08E
:1097D00009BA00BF8835002010B50C4C0C4908228E
:1097E000204619F0FFF908220A49A01819F0FAF9E1
:1097F000A37903F00F0343F04003A371237A03F02E
:109800003F0363F07F03237210BD00BF8835002043
:1098100060000010A4000010004870478835002048
:109820000022064913460132202A4B804B6001F882
:10983000083BF8D1024A1360704700BF98350020FA
:1098400098360020F0B50C4B0C4D1B6804462022C6
:109850007BB1013B15F8330050B105EBC3067788A7
:10986000A74202D176688E4202D0013AF0D110466A
:10987000F0BD1F23EEE700BF98360020983500208A
:1098800030B5094A094C136804EBC3051F2B696006
:109890004FF0010104F83310194408BF0023688019
:1098A00014BF1160136030BD983600209835002039
:1098B000C0F30C038B42084438BFA0F50050C01A17
:1098C00070470000F0B50D4B0D4A1E6800218E4216
:1098D00012D0156800230AE052F8044C04EBC307C9
:1098E00014F83340844201D17868F0BD01339D42C1
:1098F000F2D101310832EAE70020F6E724370020F0
:109900002C37002000B58DB048B9991C07D0012133
:1099100001A8CDE902328DF8041001F0A7FA034B3B
:10992000186804F03FF80DB05DF804FB38370020EC
:1099300010B50378044613B97846FFF733FF607A11
:10994000431C01209840013810BD2DE9F0410E461E
:109950008EB015461C46074610B97846FFF722FF21
:1099600016B97846FFF71EFF636AA27802330593A3
:10997000E378A2F10800002B14BF012102210DF1B0
:10998000040842424241434604F10C0004F03FF90E
:10999000A3788DF83430237BADF82050022B16FAD3
:1099A00085F5CDE906870B960C950FD1236913B980
:1099B0007846FFF7F7FE23690993102305A8ADF851
:1099C000283004F020F90EB0BDE8F0810023F5E75F
:1099D000B2F5C07F2DE9F04781468846174602D987
:1099E0007846FFF7DFFE244B00259A4693F848603F
:1099F0005EB9384608F091F8702404FB05A4E066CF
:109A000048B900242046BDE8F0870135042D03F154
:109A10007003EBD1F5E730224946204619F0E2F811
:109A2000B8F1010FE664A4F84A701BD1134BA4F8F7
:109A300052601B7D84F8513084F85060D9F828308A
:109A400063656FF00103A3620D4BA4F85860A36334
:109A50002464012002F0F6FA702303FB05A585F8C3
:109A60004880CFE76FF00103A362064BA36584F83B
:109A70006860054B2466EAE7543700203C37002035
:109A8000FDA1020041A80200F5A1020010B50446A4
:109A9000C06E08F044F804F1300003F0A5F994F822
:109AA0004830022B03D104F1500003F09DF9204609
:109AB0007022002119F0A4F8002084F84800BDE8C5
:109AC000104002F0BFBA10B590F84830012B8CB0AE
:109AD000044602D07846FFF765FE01238DF8043076
:109AE000636D029303F0C0F9039001A801F0BEF981
:109AF0002046FFF7CBFF0CB010BD10B50446808A9E
:109B000002F048FD01281CD1237BD3B194F9162023
:109B1000002A18DBE27D5AB1022B12D094F90330EF
:109B2000002B10DBA378002B0CBF0020072010BDFA
:109B3000E2780AB9012B06D1237833B9A378042B34
:109B4000F2E71020F3E70720F1E70020EFE700003D
:109B50001FB500230A468DF80F3028B30230086085
:109B60000DF10F01104604F050F89DF80F30DBB1F5
:109B7000144B1B685B0717D5134B1B68032B13DDB6
:109B800012482F2119F00EF998B12F210F4819F022
:109B900009F9411C0E4B0F4AD3F8043500920420FA
:109BA00040F2154205F014F89DF80F0005B05DF87D
:109BB00004FB06485C2119F0F5F808B15C21E5E7E3
:109BC0000249E7E7302F00202C2F0020B534040095
:109BD00000100140D234040070B50446D4E90612E6
:109BE0002378808A8CB0D3B1E38805F0ABFF0546BB
:109BF00090B1A68AE4692C22002101A819F000F88E
:109C000004F001040F2301A88DF80430ADF80860BA
:109C1000ADF80A4001F02AF928460CB070BD05F0F5
:109C20008DFFE4E72DE9F04F98461378D2F818A09D
:109C3000F3B006460D46144623B1D1885046FFF7CF
:109C400037FE9061E378A278002BA2F108000DF1B5
:109C50000C0914BF0121022104F10C0742424B46BA
:109C60004241384603F0D3FFA3788DF83C30ADB2C3
:109C7000E81A80B2CDE90896E378C4F818A0064443
:109C80000E964FF0000912AEADF828000D96ADF813
:109C90003090002B65D04FF0100B04F1240A237B89
:109CA000C4F82490022B02BF2369ADF830B00B93A7
:109CB000206A2179524612F001F8606A30BB237B9A
:109CC000022B05D1E089394612F0BCF80028E6D114
:109CD000374B1B685B0741D5364B1B68052B3DDDB9
:109CE00035482F2119F05EF8002858D02F2132482E
:109CF00019F058F8411C314B314AD3F80435009221
:109D0000062040F2017204F063FF27E007A9FFF785
:109D10001FFF0028CCD02046FFF75EFFF0B9A178E6
:109D20000B906D1A8DF81C0097E80300A38AADF81C
:109D30002A3001220CAB8DF8282083E80300A37D94
:109D40008DF84030236A0E9307A8636A0896ADF831
:109D500024500F93CDF8448001F088F873B0BDE82B
:109D6000F08F227B012AB3D1A146E089B4F814A078
:109D700049F8243F494611F0E3FF606A07A9FFF75D
:109D8000E7FE0028C7D160624946504611F0D8FF6F
:109D9000606A07A9FFF7DCFE002899D0BBE70648F8
:109DA0005C2118F0FFFF08B15C21A0E70249A2E79F
:109DB000302F00202C2F0020B5340400001001406B
:109DC000E5340400C37D0A7830B5002B3DD0C3785C
:109DD00022F07F0203F07F031A430A700B780278A7
:109DE00003F07F0343EAC2130B70037863B38378F5
:109DF000083B5A425A414B7803F07F0343EAC213AF
:109E00004B708A78C58802F00302C5F3861442EAD3
:109E1000850223F07F032343D2B28A704B70CB7844
:109E2000057A03F01F03C5F3C10422F0030243EADD
:109E300045132243DBB2CB708A70427A23F01F03B2
:109E400002F01F021343CB7030BDC47822F04003F0
:109E500043EA8413DBB20B70027923F03F0302F074
:109E60003F0213430B70B9E72DE9F04F824689B0EA
:109E70000D4609B100220A600AF10C039AF850401D
:109E8000019301274FF0000B9AF80900A04203D27A
:109E9000002009B0BDE8F08FDAF84C1007FA04F2A0
:109EA0000A4264D19AF81720019B8AF80840002AD8
:109EB0000CBF0C26082684429AF80020029306FB69
:109EC00004F908BFBAF84A608DF818B008BFA6EBCD
:109ED0000906002A14BF4FF004084FF0010806EBF2
:109EE00008020492DAF82820039202A8DAF82C205B
:109EF000059204F02EF80028CBD1079A904454B96B
:109F00009AF853203AB9DAF818208AF85370C2F355
:109F10000C02AAF806209AF817209AB99AF852204B
:109F200082B914B17846FFF73DFCBAF84A109AF8A6
:109F300002208A1ADAF86C1053460846FFF705FD2E
:109F40008AF8527007995046FFF73CFFDAF86C1018
:109F500032464944404618F045FE02A804F01AF87B
:109F600015B12A6801322A60621C8AF85020013437
:109F7000E4B289E738B590F84830012B044602D0A6
:109F80007846FFF70FFC02F06FFF237B074A012B97
:109F900005BFD2E90315A37DD16805FB0311014478
:109FA00004F13000BDE8384002F035BF3C370020F6
:109FB000F0B5C37D16468278002B324414BF4FF4AF
:109FC00080734FF4C0739342C7B00F467DD3424BAA
:109FD000002493F84810012907D19D8A818A8D4277
:109FE00003D1DD89C1898D4271D00134042C03F184
:109FF0007003EED10121FFF7EBFC0546002844D0A9
:10A0000032463946C06E18F0EDFD002304A92846FB
:10A010000493FFF729FF30F00404064650D1049B57
:10A0200013B12846FFF7A6FF2C4B1B6813F004035F
:10A030004FD02B4B1B68032B27DDB5F84A00294B6B
:10A04000802805AA1F6828BF802000231646834267
:10A0500002F102021CD10022234806F813202F210E
:10A0600018F0A0FE18B32F211F4818F09BFE411CCA
:10A070001E4B1F4AD3F8043501921E4A00920296E5
:10A080004FF4AC62042004F0A3FD204647B0F0BDBD
:10A09000E96EC95C4FEA111C01F00F0117F80CC002
:10A0A00002F802CC795C02F8011C0133CFE70E48BC
:10A0B0005C2118F077FE08B15C21D5E70A49D7E7A3
:10A0C0002846FFF7E3FC3446DFE70924DDE70824F0
:10A0D000DBE71C46D9E700BF54370020302F0020B3
:10A0E0002C2F0020342F0020B53404000010014034
:10A0F0000E350400B6320400F0B50D4691B00446AA
:10A1000010B97846FFF74EFB94F84830022B1BD16C
:10A1100063789A074CD4E188A069FFF7C9FB2E4AFF
:10A12000E16913680F0A0E06591C11602B4A361894
:10A1300003F007034FEA031147F1000702EB031393
:10A14000A08A5052C3E902672C22002105A8666D3F
:10A1500018F056FD102305A88DF8143006968DF8DA
:10A160001C5000F083FE2046FFF790FC1C4B1B6840
:10A170005B071BD51B4B1B68032B17DD1A482F21D0
:10A1800018F010FEF0B12F21174818F00BFE411CFB
:10A19000164BD3F80435029594F848200192144ADE
:10A1A0000092042040F2F31204F012FD11B0F0BD51
:10A1B000E188A08A002216F06FF994F84830022B4B
:10A1C000C2D1A8E708485C2118F0ECFD08B15C2179
:10A1D000DAE70549DCE700BF20370020A036002081
:10A1E000302F00202C2F0020B53404000010014037
:10A1F0001C35040008460021FFF77EBF10B591F81A
:10A200004830012B0C4602D07846FFF7CBFA94F881
:10A2100051305BB1013B84F85130002384F8503059
:10A22000084BBDE81040186803F0BCBB217B012936
:10A23000204603D1BDE81040FFF75EBFBDE81040E7
:10A24000FFF741BC383700202DE9F04306468FB0B8
:10A2500010460F4615469846FFF7BEFC04460028F8
:10A260005ED195F80390B9F1000F40F0AA80062F57
:10A2700056D130787378820102F4FE5242EA93029A
:10A28000604B1F4693F84810012928D1B3F814C039
:10A29000E9898C4523D1D988914220D1B3F858C09F
:10A2A000A98ABCF1000F01D08C4518D110F0800FA5
:10A2B000D6F802204FF070033ED003FB0473A3F8DE
:10A2C0005810702000FB047412BAE56C1543E56465
:10A2D000002A63D103212046FFF70EFF20E001345E
:10A2E000042C03F17003CDD1474B1B685B0717D5D6
:10A2F000464B1B68012B13DD45482F2118F052FDFA
:10A3000088B12F21424818F04DFD411C414B424A73
:10A31000D3F804350092022040F2776204F058FC32
:10A320000FB0BDE8F0833A485C2118F03BFD08B15E
:10A330005C21E7E73649E9E703FB0473DB898B42DD
:10A34000BFD0314B1B685A07EAD5304B1B68012B35
:10A35000E6DD2F482F2118F025FDB0B12F212C4824
:10A3600018F020FD411C70202A4BAA8AD3F804352E
:10A37000029200FB04740220E2890192274A0092B3
:10A3800040F27B6204F024FCCAE721485C2118F00B
:10A3900009FD08B15C21E2E71D49E4E72046FFF72B
:10A3A000C7FA854203D12046FFF78DFBB8E70021AD
:10A3B00084F850102046FFF757FD2046FFF7DAFDDE
:10A3C000AEE74846FFF77EFA02460028A8D0D5E956
:10A3D00003012B6A0B93AB8AADF8223009AB83E8FB
:10A3E0000300AB7D8DF830302B788DF82030EB6A90
:10A3F0008DF81490CDE906670D93414605A8904766
:10A400008EE700BF54370020302F00202C2F002073
:10A41000B5340400001001403F3504006D350400E0
:10A42000F0B589B005460E460192FFF766FB04467B
:10A4300038B92B78019A3BB131462846FFF7B8FD71
:10A440000446204609B0F0BDE97DAB7801920029B1
:10A45000134414BF0B210F218B4226D801330493E0
:10A4600005F10C030293AB6A03938DF81800EB6AB5
:10A47000059302A803F06DFD04460028E1D1079979
:10A4800028464F1CFFF79EFCEB7D019A3BB13146FD
:10A49000384618F0A7FB02A803F07CFDD1E72B4655
:10A4A00039463046FFF751FAF5E70924C9E70000BD
:10A4B00010B54FF4E0720021134818F0A1FB0024FE
:10A4C00005F028FC114B12481C602146802218F030
:10A4D00097FB104B1049114A11489C75C3E90012B3
:10A4E00010494CF25032C3E902211A6140F60402CD
:10A4F0009A8203F039FA0C4B18600C4B0C481C6024
:10A50000BDE8104005F016BD54370020203700206C
:10A51000A03600203C37002080969800F0490200C9
:10A5200099AD020020A10700383700202437002011
:10A530000599020005F0FABA30B504468DB000283E
:10A540006CD00369002B69D0C369002B66D0856984
:10A55000002D63D05A788DF804201A780993838AE5
:10A5600082F001020B2B8DF80320027B09D9012117
:10A57000022A8DF8001001D1294A927D5AB904228D
:10A580000AE0C17A0029F2D1012A0CBF012200227F
:10A590008DF800203ED1082213448DF802200B33A1
:10A5A0000C22B3FBF2F3013B8DF8093000238DF848
:10A5B000083094E8030000238DF8173003AB83E8DC
:10A5C00003002389ADF81430A37A8DF81630236A7E
:10A5D0000A932046DF2308950B9311F0D5FD28B18F
:10A5E0002378012B14BFFF2320230B93684615F01B
:10A5F000CDFE40B19DF80C30012B16BF0B9B2023E4
:10A6000043F020030B93A28A21696846FFF708FFF5
:10A610000DB030BD04238DF80230CAE70E20F7E7F5
:10A620003C37002030B50A4691B0044600286DD072
:10A630004368002B6AD08569002D67D003788DF8B8
:10A64000133000230D9383680B2B94BF017B0121F2
:10A6500001F001008DF8100000208DF8120031B1DA
:10A660000733DB08013B8DF819308DF81800D4E969
:10A67000040101238DF8273007AB83E80300E38949
:10A68000ADF82430237F8DF82630236A0C9504A87A
:10A69000CDE90E2315F07AFE40B19DF81C30012B58
:10A6A00016BF0F9B202343F020030F93184B1B680A
:10A6B0005B071BD5174B1B68062B17DD16482F2190
:10A6C00018F070FBC8B12F21134818F06BFB411C28
:10A6D000124BA269D3F80435029222780192104AF3
:10A6E0000092072040F6030204F072FAD4E9011246
:10A6F00004A8FFF795FE11B030BD07485C2118F0A3
:10A7000051FB08B15C21DFE70349E1E70E20F2E7E6
:10A71000302F00202C2F0020B53404000010014001
:10A72000AE35040070B5037B012B90B004460D4696
:10A7300077D13D4B1B685B0718D53C4B1B68032B3F
:10A7400014DD3B482F2118F02DFB00285ED02F216F
:10A75000374818F027FB411C364B374AD3F80435ED
:10A760000092042040F2632204F032FA04AE0B227D
:10A770000021304618F044FA9DF81130E28808961E
:10A7800003F0030343EA82038DF811302B0E8DF89A
:10A7900012302B0C8DF813306378022B0CBF802302
:10A7A0000023C2F3861242EA03024FF00603099324
:10A7B0004FF001038DF82C30A38AADF82E304FF006
:10A7C00000036DBA8DF810200C93226A8DF81C30AE
:10A7D0008DF82830E36AADF814500D920F931ED116
:10A7E0000DF10E0103A811F0BFFBBDF80C30ADF860
:10A7F0002A30A37D0BB1114B5B7D8DF838306FF0A3
:10A80000010107A8FFF70EFF10B070BD08485C21DA
:10A8100018F0C8FA08B15C219AE705499CE7E3897A
:10A82000E5E70020F0E700BF302F00202C2F0020AC
:10A83000B534040000100140D93504003C37002035
:10A8400010B591F84830022B0C4602D07846FEF73E
:10A85000A9FF022384F8683094F84830022B06D10F
:10A86000E16C2046FFF75EFF08B984F8680010BD70
:10A870002DE9F04F0E469FB014469B460546002832
:10A8800000F07D82002A00F07A8221B9092738463B
:10A890001FB0BDE8F08F1822214615A818F0A2F9C4
:10A8A0002B7895F900100020DA0981428DF84820B4
:10A8B000B4BF0422012296428DF84900E6D39DF8E8
:10A8C0005F70EFB103F07F0381428DF84B308DF85C
:10A8D0004A002EDA6A78AB78920102F4FE5242EA1C
:10A8E0009302ADF84E20DB00EA7803F0180343EA48
:10A8F000521302F01F028DF850308DF8512018E0ED
:10A90000C3F38010002903F03F038DF84B008DF84E
:10A910004C3008DA95F90130002BB4BF082304232A
:10A920008DF84A30D6E704231A4496428DF84A300F
:10A93000ACD300231B939BF80030032B02D978463D
:10A94000FEF730FF9BF80020BC4B12A853F82230D2
:10A950001D93FFF7D2F80746002898D112A815F0EA
:10A9600015FD28B19DF8493043F002038DF84930B8
:10A970000021082205A818F043F9608805A911F004
:10A9800061FA28B19DF8493043F001038DF8493050
:10A99000D4E90312208905F003F9002852D19DF86B
:10A9A0004930002B3FF473AFD90744BF069A169283
:10A9B0009DF84820002A00F0C681BDF84E10189876
:10A9C000FEF776FF199BBDF85CC09D494FEA03680E
:10A9D0004FEA132918EB00084FF0000A49F100096B
:10A9E0000B88634506D1D1E90223994508BF9045FC
:10A9F0003FF44DAF0AF1010ABAF1080F01F110015D
:10AA0000EED1904B0024184693F84820022A22D118
:10AA10009A8A62451FD1702303FB0404E188A06970
:10AA2000FEF746FFE1690A0612184FEA112343F1C7
:10AA300000034B4508BF424534D205212046FFF7AD
:10AA40005BFB0DE09DF8493003F0FE038DF84930C3
:10AA5000002BA4D11BE70134042C03F17003D3D1E4
:10AA6000BDF84E30BDF85C00DDE9181205F0C2F803
:10AA70000346BDF85C00002B00F0D280DDE918121F
:10AA8000BDF84E3005F0ECF800283FF400AF12A8F6
:10AA9000FEF74EFF014612A8FFF744FE12A8FFF78B
:10AAA0009BF8F4E6994508BF9045FFF4F0AE664B7D
:10AAB0001B685B071CD5654B1B68032B18DD6448BE
:10AAC0002F2118F06FF9002800F021812F21604814
:10AAD00018F068F9411C5F4B9DF85020D3F80435FD
:10AAE00001925D4A0092042040F2A33204F070F813
:10AAF00094F84830022B02D07846FEF753FEDFF878
:10AB00005C81D8F8009002F0AFF909EB000104F184
:10AB1000300002F080F9237B012B1AD194F86830C1
:10AB2000BBB994F84830022B02D07846FEF73AFEC3
:10AB3000D8E9013298F8151002FB013802F094F9B7
:10AB400000EB080104F1500002F065F9012384F8DC
:10AB500068309DF85000E36C0121814013EA010246
:10AB60007FF495AE0B43E3649DF85F30617A002B70
:10AB700014BF4FF008084FF00C088142A6F10409F9
:10AB800008FB00F840F0CC8008EB0903A4F84A3039
:10AB9000A269189B9A420BD20DF1540EBEE80F0029
:10ABA00004F10C0CACE80F009EE803008CE80300F5
:10ABB000E06E4A46291D404418F014F89DF84930CB
:10ABC0009B0705D5012312AAF1B2284615F030FBE8
:10ABD0002046E56CFEF7ACFE85427FF458AEE16C92
:10ABE0002046FFF79FFD9DF849309D0706D5BDF82B
:10ABF0004E10BDF85C00012215F04EFC6378D807BA
:10AC00000AD5E37DE06EB4F84A10002B00F0968080
:10AC10005B462246FFF718FB2046FEF737FF8BE026
:10AC200042464B4615F05AFCD0B112A8FEF780FE02
:10AC3000014612A8FFF776FD29E600BF1036040092
:10AC4000A036002054370020302F00202C2F002069
:10AC5000B534040000100140FD3504003C370020ED
:10AC60009DF85F209DF85130002A14BF08240C2461
:10AC700003FB044414BF4FF480734FF4C0739C4231
:10AC800028D9404B1B685A077FF501AE3E4B1B6825
:10AC9000002B7FF7FCAD3D482F2118F083F880B1E1
:10ACA0002F213A4818F07EF8411C394B394AD3F825
:10ACB00004350092019440F27F32012003F088FFB6
:10ACC000E5E532485C2118F06DF808B15C21E8E751
:10ACD0002E49EAE72246022112A8FEF779FE044631
:10ACE00000287FF4E4AE014612A8FFF71BFD2C22DA
:10ACF000214607A817F084FF10238DF81C3007A801
:10AD0000022308948DF8243000F0B0F8BFE51F4806
:10AD10005C2118F047F808B15C21D8E61B49DAE657
:10AD2000002B08BF4FF00C0AD1453FF431AF04218E
:10AD300020460392FFF7E0F90027A8E55B4622468C
:10AD4000FEF770FF68E7990705D5012312AAF1B253
:10AD5000284615F06DFA9DF84930DA077FF597AD72
:10AD60009DF85F30681C711E23B15B4612AAFFF785
:10AD70006BFA8CE55B4612AAFEF754FF87E50E27B7
:10AD800085E500BF302F00202C2F0020B5340400B3
:10AD900000100140E9350400F7B5184C002625469F
:10ADA000374695F84830012B0BD101A92846019769
:10ADB000FFF75AF8042801D0019B13B12846FFF78A
:10ADC000D9F80136042E05F17005EAD1002594F872
:10ADD0004830022B0AD194F86830022B06D1E16C7E
:10ADE0002046FFF79FFC08B984F868000135042D60
:10ADF00004F17004EBD1012003B0F0BD5437002002
:10AE00002DE9F8430F46054630B3164B1E68012E58
:10AE100098461FD8002400F10409BC420BD1124B04
:10AE200043F8365003EBC60301365C60C8F8006097
:10AE30000020BDE8F88359F834306BB115F934308F
:10AE400015F83400002B09DB50B1FEF73BFD38B993
:10AE50000134E2E70420ECE70E20EAE70B20E8E704
:10AE60000F20E6E72437002028370020F8B50746F2
:10AE700010B97846FEF796FC0F4E346894B10F4D2A
:10AE800001232B7023791BB954F8043C38469847AA
:10AE90002468002CF6D12B78022B03D13168064CA4
:10AEA00009B92970F8BD0B790E6813B1204603F07B
:10AEB00015FE3146F4E700BF183900201439002090
:10AEC00010B5044610B97846FEF76CFC00232372D7
:10AED000211D0248BDE8104003F0DFBD18390020F5
:10AEE00010B5044610B97846FEF75CFC074A1378A3
:10AEF000013B012B04D8022313700123237210BDE0
:10AF0000211D0348BDE8104003F0E8BD14390020BE
:10AF1000183900200B888268D25A073222F00302C7
:10AF2000134402889BB2043A934288BF00230B80EB
:10AF3000704713B58368C91AADF806100DF1060104
:10AF4000FFF7E8FFBDF806308068184402B010BD76
:10AF500070B5064615460C4611B97846FEF722FC38
:10AF600016B97846FEF71EFCB4F1005F24D94FF005
:10AF70008053D3F80C3103F50023B4EB832F1ED29A
:10AF80006B1E2344B3F1005F26D94FF08052D2F8F4
:10AF90000C2102F50022B3EB822F20D2042D02D81F
:10AFA0007846FEF7FFFB35800023043D7380B380B5
:10AFB000B4602580A37070BDB4F5000F08D94FF0C0
:10AFC0008053D3F80C3103F50053B4EB832FD7D360
:10AFD0007846FEF7E7FBD3E7B3F5000F08D94FF04B
:10AFE0008052D2F80C2102F50052B3EB822FD5D358
:10AFF0007846FEF7D7FBD1E738B5044610B9784656
:10B00000FEF7D0FB6288A36813449B78012B02D122
:10B010007846FEF7C7FBEFF3108572B6A268A188E9
:10B0200011448B78032B0AD12046FFF782FFA368D7
:10B03000C31A63800023837005B962B638BD00234C
:10B0400093706380A380F7E7F8B50E461546044673
:10B0500010B97846FEF7A6FB16B97846FEF7A2FBB4
:10B060006288A36813449B78012B02D17846FEF7CF
:10B0700099FB002D37D02388043B9BB29D4232D8E8
:10B08000EFF3108772B66288A388E81D20F00300F2
:10B090009A4280B204D29B1A984210DD042016E036
:10B0A00018D92188891A814209D29842F6D80329F1
:10B0B00081BFA3689B1804229A7000236380628872
:10B0C000A1688B188D5201229A700020336007B955
:10B0D00062B6F8BDA26813449B78002BDED1937052
:10B0E0006380A380EBE70920F3E7F8B50D46164629
:10B0F000044610B97846FEF755FB15B97846FEF7B9
:10B1000051FBAB78012B02D07846FEF74BFB2B8826
:10B11000B34202D27846FEF745FB16B97846FEF7F1
:10B1200041FBEFF3108772B60223AB70E1182E805B
:10B130002046FFF7EFFE6288A38893421FBFA368F3
:10B140009B1800229A7007B962B6F8BD70B50D461B
:10B15000044610B97846FEF725FB15B97846FEF788
:10B1600021FBEFF3108672B6A288A36813449A7885
:10B17000042A06D1211D2046FFF7CCFEA288A36831
:10B1800013449A78022A05D0032A08D0052006B96C
:10B1900062B670BD03229A702B600020F7E77846F4
:10B1A000FEF700FBF9E738B5044610B97846FEF71C
:10B1B000F9FAEFF3108572B6A088A16801448B7884
:10B1C000042B03D12046FFF7B4FE01468878831E86
:10B1D0005842584105B962B638BD38B5044610B971
:10B1E0007846FEF7DFFAEFF3108572B6A088A16803
:10B1F00001448878C31E012B05D9831E584258414B
:10B2000005B962B638BD2046FFF793FE0146F0E768
:10B21000F8B50D46044610B97846FEF7C3FA15B9DD
:10B220007846FEF7BFFAEFF3108672B6AB78012BC3
:10B2300019D0032B22D1A288A36813449D4202D0C7
:10B240007846FEF7AFFA0027AF70211D2046FFF7C2
:10B2500061FEA288A36813449B78042B00D1A780C9
:10B2600006B962B6F8BD6288A36813449D4202D055
:10B270007846FEF797FA0023AB70F1E77846FEF7C1
:10B2800091FAEDE710B5EFF3108472B68288816809
:10B2900011448B78042B02D1FFF74BFE01468878CE
:10B2A000B0FA80F0400904B962B610BD0379427962
:10B2B0009B1A03F57F2303F6FF7300EB03307047FF
:10B2C00010B5054884681C22002117F099FC20461F
:10B2D000BDE8104004F0F2B91C39002070B5194CDB
:10B2E000E36813B97846FEF75DFA237E13B178461A
:10B2F000FEF758FA6368092B02D97846FEF752FA2E
:10B30000114D0026636855F823309847022811D064
:10B3100003280DD0012810D163680133092B636025
:10B3200002D97846FEF73EFA237E002BEAD004E0ED
:10B330006660F9E7237E0BB1207070BDBDE87040F8
:10B34000FFF7BEBF1C3900207C36040010B503880F
:10B35000044613B97846FEF725FA2088084B04EB1B
:10B36000800030EA030203D06288B2F5FE4F05D1B7
:10B3700004EA030000F580500478204410BD00BFAB
:10B3800000F0FFFF70B504460D4647F6FE66FFF776
:10B39000DDFFA84207D2844205D24388013B9BB21D
:10B3A000B342F4D870BD0020FCE700000B78032BFB
:10B3B000094B04BF00221A761A78012A03D11B7E9A
:10B3C00043B9FFF78BBF022A04D10B78032B01D1BD
:10B3D000FFF776BF704700BF1C39002010B50C4C3A
:10B3E000E3681878002203F58051184404F066FDE4
:10B3F00050B9E1680846FFF759FF814206D001F5D0
:10B400008051E160032010BD0120FCE70220FAE733
:10B410001C3900201FB50A4B02221B688DF8002042
:10B420000193084A4FF4805369460120029300F0CB
:10B43000F3FFB0FA80F0400905B05DF804FB00BFEF
:10B440003C390020383900201FB50123CDE9022105
:10B450000190054A8DF800306946184600F0DCFF7F
:10B4600005B05DF804FB00BF383900202DE9F04736
:10B47000254BD86802794179013A91421F4603D1A0
:10B4800001205876BDE8F08700F580531F491C78ED
:10B490001C440B6813F8045F1D44FFF707FF638823
:10B4A000013B9BB247F6FE62934200F58056884608
:10B4B00004D920463146FFF765FF0446DFF850A067
:10B4C0004FF001092CB9B4FA84F464097C760120A8
:10B4D000D8E7D8F800106288284601F5805104F0BA
:10B4E000EDFC05460028EED004225146204687F8A0
:10B4F0001890FFF7A9FF28B920463146FFF742FF11
:10B500000446DFE70020BDE71C3900203C3900205D
:10B510004838040038B5104CE36818784FF6FF72CD
:10B5200003F58051184404F0C9FC88B1E368197828
:10B530000B4498420CD0657E0849094B0422002D2B
:10B5400008BF1946FFF780FF20B90120207638BDDB
:10B550000120FCE70020FAE71C39002050380400E5
:10B560004C38040070B50C4D0C4EE96830680C780E
:10B5700004302246FFF768FF58B93268EB6804F0E0
:10B58000FC04043414446C611A7813442B610120C8
:10B5900070BD0020FCE700BF1C3900203C390020B2
:10B5A00008B5054B054918680422FFF74DFFB0FAAE
:10B5B00080F0400908BD00BF3C3900202839002038
:10B5C00010B5074B074C1968E06840F6FC7204316F
:10B5D000FFF73AFF10B90120207610BD0020FCE7EC
:10B5E0003C3900201C39002010B50C4CE16808469D
:10B5F000FFF75CFE81420AD1094B0A491868042210
:10B60000FFF722FF40B901232376022010BD01F588
:10B610008051E1600320F9E70020F7E71C390020A2
:10B620003C390020403900202DE9F74F324D2B697D
:10B6300013B97846FEF7B6F86B6913B97846FEF78A
:10B64000B1F8DFF8B89047F6FE6A6B69D5E90306F2
:10B6500003EA0908A8EB0308FFF728FE7388013BFB
:10B660009BB2534508F5805800F5805B05D93046FC
:10B670005946FFF787FE064668B1344600275C4509
:10B6800013D327BB012334B1618847F6FF7291427F
:10B6900001D0002BD9D001202AE020460192FFF7EB
:10B6A00055FE019A04461746E9E7228807EB820215
:10B6B000904509D986EA040313EA090F04D1638887
:10B6C000013B9BB25345E8D90FB90123DCE7686918
:10B6D0003A463146FFF7B8FE48B96A693A446A61AA
:10B6E00014B97846FEF75EF82C610023CBE7002002
:10B6F00003B0BDE8F08F00BF1C39002000F0FFFF51
:10B700001FB50A4B0222DB688DF800200193084A1E
:10B710004FF4805369460120029300F07DFEB0FA99
:10B7200080F0400905B05DF804FB00BF1C39002023
:10B73000383900201FB540F6F8731B685A1C0CD12D
:10B74000374B1A68013202D01A68002A4CD14FF0E8
:10B750008052516913694B4303E0002BF7D0A3F5E6
:10B760008053304CA3F5805323602F4B1B68DB02C2
:10B7700023D52E4B1B68062B1FDD2D482F2117F0DC
:10B7800011FB002832D02F21294817F00BFB411C58
:10B7900040F6F872274B1268D3F80435501C08BFE6
:10B7A0001F4A206808BF1268CDE90120224A009292
:10B7B000072040F2672203F00BFA236819684B1E3A
:10B7C00003332AD8C1F30B033BBB1C4A1C48D1608E
:10B7D000012111701B491383936001330A2B0ED191
:10B7E0007846FDF7DFFF0FE01B68B8E710485C21E3
:10B7F00017F0D8FA08B15C21C6E70D49C8E751F83F
:10B8000023408442E9D1536001200F4900F0F4FD48
:10B81000FFF764FD012004B010BD0020FBE700BF6E
:10B82000141000103C390020302F00202C2F002055
:10B830002036040000100140483604001C39002066
:10B8400001B702007C360400ADB3020010B5044617
:10B8500010B97846FDF7A6FF094A107860B1E06894
:10B86000D1684379A0EB0333994206D3FFF71EFD5D
:10B8700081428CBF0020012010BD0020FCE700BFEA
:10B880001C390020024B1878003818BF012070477F
:10B890001C39002038B50E4C2378054613B1784684
:10B8A000FDF780FF2B78032B02D07846FDF77AFF57
:10B8B000EB68E360012000230649A5606360207007
:10B8C000238300F099FDBDE83840FFF707BD00BFB6
:10B8D0001C390020ADB30200014B1868704700BF4F
:10B8E0003C39002010B5044610B97846FDF75AFFE0
:10B8F00063681BB123680BB1A36813B97846FDF7E1
:10B9000051FFA3685A1E1A4202D07846FDF74AFF3B
:10B910000023C4E9033310BD70B50E460446F0B1F0
:10B920008368F3B1EFF3108572B6D0E90331994221
:10B9300003D105B962B605250FE04EB18368013B1E
:10B940000B40D0E90012304602FB031117F04AF910
:10B9500023690133236135B962B6284670BD0E25CF
:10B96000FBE70925F9E70025F7E70000024AD2F8CE
:10B970000034002BFBD0704700E0014038B5C0F325
:10B980000B05EDB9F1B1104C0223C4F80435FFF7F3
:10B99000EDFF01F6FF7121F47F6121F00F010144F9
:10B9A000884206D10023C4F80435FFF7DFFF28469C
:10B9B00038BDC4F80805FFF7D9FF00F58050EFE760
:10B9C0001025F4E70925F2E700E0014040EA010311
:10B9D00070B5064698071ED1FAB112F003001CD1CB
:10B9E0000F4B94080122C3F80425FFF7BFFF05465B
:10B9F000A54206D10A4B0022C3F80425FFF7B6FF83
:10BA000070BD51F825305A1C03D046F82530FFF799
:10BA1000ADFF0135ECE71020F2E70920F0E700BFA9
:10BA200000E0014041F2826398429DBF024B1878CA
:10BA3000C0F3C00001207047CB39002013B501903E
:10BA4000000C01280C4602D07846FDF7ABFE084AF0
:10BA50000849236813600B7843F001030B7083F0EF
:10BA60000203C3F340030020137102B010BD00BFF6
:10BA7000C4390020CB39002013B50190000C0228F6
:10BA80000C4602D07846FDF78DFE084B22681A60FE
:10BA900022791A71064A002058719871D87113786A
:10BAA00043F00203137002B010BD00BFBC39002088
:10BAB000CB39002007B50190000C032802D078464E
:10BAC000FDF770FE03480522002103B05DF804EB8A
:10BAD00017F096B8C439002007B50190000C04286F
:10BAE00002D07846FDF75EFE03480822002103B02D
:10BAF0005DF804EB17F084B8BC39002013B5019051
:10BB0000000C03280C4602D07846FDF74BFE044992
:10BB10000522204602B0BDE8104017F063B800BF10
:10BB2000C439002007B50190000C032804D000910F
:10BB30007846FDF737FE00990648052217F052F8BF
:10BB4000054A1378002043F00103137003B05DF839
:10BB500004FB00BFC4390020CB39002013B501908D
:10BB6000000C04280C4602D07846FDF71BFE044961
:10BB70000822204602B0BDE8104017F033B800BFDD
:10BB8000BC39002007B50190000C042804D00091B6
:10BB90007846FDF707FE00990648082217F022F8BC
:10BBA000054A1378002043F00203137003B05DF8D8
:10BBB00004FB00BFBC390020CB39002000B50A4B84
:10BBC0001A7B9B688DB0012A08BF03F1FF330493F1
:10BBD0000390022301A88DF808208DF80430FFF7A8
:10BBE00045F90DB05DF804FB70390020074A137861
:10BBF000590709D50178122906D105490868054970
:10BC00006FF3820348601370704700BFCB39002088
:10BC1000C4390020703900201FB5124C2378590612
:10BC200002D47846FDF7BEFD23785A0717D40E4A92
:10BC3000526802F50052B2F1807F02920FD80B4A8F
:10BC400043F0040312788DF80C2002A94FF4403021
:10BC5000237005F04FF910B17846FDF7A3FD04B04D
:10BC600010BD00BFCB39002070390020CC39002036
:10BC70001FB50023ADF80D300C4B9A6802920C4AA8
:10BC80001B7B8DF80C3013780133DBB202A94FF423
:10BC9000802013708DF80F3005F02CF910B1784624
:10BCA000FDF780FD05B05DF804FB00BF7039002092
:10BCB000CC39002007B54FF4403005F06DF94FF452
:10BCC000802005F069F914220021074816F098FF3A
:10BCD000064A137823F0600343F04003137003B067
:10BCE0005DF804EBFFF798BF70390020CB390020D6
:10BCF00010B50C4C14220021204616F081FF01F0F3
:10BD0000B3F8094B094A0A499A600022C3E90312B1
:10BD100058605A61074B6260197862F3C301197069
:10BD200010BD00BF703900204C390020ADBE0200AC
:10BD300000879303CB39002037B5264D2B78DB06DF
:10BD40002FD42548254B036000F0DCFD2448254B0B
:10BD5000036000F0D7FD2B7813F0200212D103F01E
:10BD60000303032B204C1ED02260A2602273228288
:10BD7000FFF77EFF236863602B7843F040032B704E
:10BD8000FFF74AFF4FF4803005F006F94FF400301A
:10BD900005F002F9154801F005F82B7843F010037F
:10BDA0002B7003B030BD124B1A68A2601A7922734F
:10BDB0009879597941EA00212182D9790D4B19707E
:10BDC0000D4B1879884202D00AB92260D2E71B686D
:10BDD0002360CFE7CB3900206439002049BF02003F
:10BDE000B0390020EDBB0200703900204C39002032
:10BDF000BC390020CC390020C4390020034B18780E
:10BE000080F00400C0F38000704700BFCB390020F1
:10BE100010B501F039FD0D4A137BA3B9947B94B999
:10BE2000108AFFF7FFFD70B101231373936814822A
:10BE300001339360FFF71CFF2046FFF7BFFE01F0C0
:10BE400063FD204610BD0824F9E700BF70390020CB
:10BE500010B501F019FD144A547B9CB1917B09BBCC
:10BE6000108AFFF7DFFD044660B1137B51732BB1DD
:10BE7000012B0BD07846FDF795FC03E0FFF7C8FFD8
:10BE80000028F7D101F040FD204610BD0846C2E968
:10BE9000001111731182FFF791FEFFF7E9FEFFF722
:10BEA000BBFEEFE70024EDE7703900201FB5244CFE
:10BEB000227B2AB1012A0FD07846FDF773FC1CE0E3
:10BEC000208AFFF7AFFDC0B1FFF7C2FF638A0BB155
:10BED000013B638204B010BD218A0846FFF7A2FD32
:10BEE00058B142F2B013994288BF6273FFF7B0FFB6
:10BEF0000028EBD1637B002BE8D1238A01339BB26E
:10BF00001E2118462382B3FBF1F201FB12339BB2D0
:10BF1000002BDBD1A3680293237B8DF80C30094BF7
:10BF2000ADF80D001B788DF80F3002A94FF480207A
:10BF300004F0E0FF0028C9D07846FDF733FCC5E7E0
:10BF400070390020CC39002010B50378042B0ED1B5
:10BF500043681B785BB11C4B4269197B047E69BB4B
:10BF6000598AF9B9012C996802D08A4203D810BDC8
:10BF70004C1CA24218D92A318A42F8D8997B002950
:10BF8000F5D184689A60114A1A619981C3E9001158
:10BF9000FFF76EFEFFF740FE04F11000BDE8104011
:10BFA000FFF70CBE012CE2D1996801318A42DED143
:10BFB00001225A73BDE81040FFF74ABF0129D6D1CC
:10BFC000012CD4D09968F1E7703900200000062DCB
:10BFD00038B5184B1B785B06054626D5164CD4E9B8
:10BFE00000239A421FD2207B144B1549012808BF19
:10BFF0000B469A4207D263682268403B9A4208D3B4
:10C00000FFF70AFE05E001236373FFF721FF002815
:10C01000F1D0EFF3108072B623685A1C22602B60B7
:10C0200028B962B638BDFFF7F7FD0F20FAE7002008
:10C03000F8E700BFCB39002070390020FFFF7F00F8
:10C0400000E0FF0010B50C4A1368144628B1012027
:10C050000A4903448873136010BD13B97846FDF78D
:10C06000A1FB2368013B2360002BF5D1034A9373A6
:10C07000BDE81040FFF7ECBE4439002070390020C5
:10C0800000B58DB00323ADF8080001A88DF810208D
:10C0900003918DF80430FEF7E9FE0DB05DF804FB66
:10C0A000014B9868704700BF70390020034B9868B7
:10C0B0001B7B012B08BF00F1FF3070477039002057
:10C0C000044B9B685840C20748BF03F1FF33184632
:10C0D000704700BF70390020014B187B704700BFCC
:10C0E0007039002070B50E4E337813F0200415D14E
:10C0F0000C4D43F0200333702973A8602C82FFF7A6
:10C10000B7FD2046FFF75AFD337843F04003C5E9F9
:10C1100000443370FFF780FD204670BD0820FCE727
:10C12000CB390020703900202DE9F3411D4CDFF898
:10C13000788000250221204602F01CFBEFB2014668
:10C140000026B9B96EB12046019102F07AFB0828A9
:10C15000019906D154F8043C1BB10A4638464146C1
:10C1600098470135032D04F1BC04E3D1012002B04E
:10C17000BDE8F08154F8043C1BB134F80C2C38466F
:10C18000984734F80C3C02210133204624F80C3C3B
:10C1900002F00CFB0221204602F0ECFA01360146C7
:10C1A000CFE700BFE4390020B436040038B50121E0
:10C1B00004460C3002F0DEFA054620B3164BC4F8F4
:10C1C0009C300023C4F8A03003786268012B07D0AC
:10C1D000022B1AD07846FDF7E5FA4FF4FA7306E021
:10C1E00081688B1A990829234B4303F5FA730B4A8C
:10C1F000934294BFC4F8A830C4F8A8200123C4F81F
:10C20000AC4084F8B830284638BD83689B1A1A0BB6
:10C21000034B5343E9E700BF45C2020060850100BC
:10C22000084C010010B50446FFF7C0FF48B104F107
:10C230009C0006F01BF920B17846BDE81040FDF7E0
:10C24000B1BA10BD2DE9F74F494B1B7807460C4694
:10C250003BB106F041F9002384F8B83003B0BDE8E3
:10C26000F08F01F10C09D1F8A8504846012102F0E5
:10C2700081FA064610B97846FDF794FADFF8F8A07F
:10C28000A5F5FA784FF0290B00253378012BA8EBA0
:10C29000050506D0022B3BD07846FDF783FA002334
:10C2A0001FE06368B268B5FBFBF5D21AAD0095429A
:10C2B00028BF154625B901937846FDF773FA019B0F
:10C2C000F168706823F003032A4619441844FFF705
:10C2D0007DFB10B17846FDF765FA63681D44656023
:10C2E000B36862689A422AD106F0F6F848460121FE
:10C2F00002F05CFA0023636084F8B8301D4B1868C4
:10C3000001F050FB204603B0BDE8F04FFFF78ABFB5
:10C310006368B268B5FBFAF5D21A2D03954228BFBF
:10C32000154625B901937846FDF73CFA019B7068E4
:10C3300023F0030329461844FFF720FBC9E701F067
:10C3400095F93378C51B48BF3D1A012B0BD0022B42
:10C350000BD07846FDF726FA00232B44434594D9A9
:10C3600006F0BAF8CEE72923F7E75346F5E700BF12
:10C37000D4390020D0390020084C010070B51B488A
:10C380001B4C01F0F1FA1B4B186004F11C0341F245
:10C3900003060825636104F10C0004F1180323610E
:10C3A000A681A57302F029FA04F1D803C4F8D030AD
:10C3B00004F1C80004F1D403C4F8CC30A4F8C86078
:10C3C00084F8CA5002F019FA04F5CA73C4F88C3123
:10C3D00004F5C873A4F8846184F88651C4F88831E0
:10C3E00004F5C270BDE8704002F007BA29C102002E
:10C3F000D8390020D0390020022838B504460D462F
:10C4000002D97846FDF7CEF90248BC2303FB0404A9
:10C41000A56038BDD839002002282DE9F84F05461F
:10C420000C46914602D97846FDF7BCF914B9784616
:10C43000FDF7B8F92378012B12D16368990702D070
:10C440007846FDF7AFF9E3689A0702D07846FDF722
:10C45000A9F9A3689B0711D07846FDF7A3F90DE071
:10C46000022B0DD16368C3F30B0313B17846FDF7BC
:10C4700099F9A368C3F30B03002BEDD1A36813B99B
:10C480007846FDF78FF9EFF3108872B6BC26234F7C
:10C490006E4306F10C0BBB440021584602F06AF9CA
:10C4A000824690B30021584602F080F910222146BE
:10C4B000504616F097FBB9F1000F03D0BB195B880B
:10C4C000A9F80030BC2000FB05756B8895F8B840D2
:10C4D00001336B8004BB124B1D78BDB9B819FFF74F
:10C4E00065FEB8F1000F0ED162B6444640B106F1C8
:10C4F0009C00384405F0BAFF10B17846FDF752F9B8
:10C500002046BDE8F88F2C46F0E70424B8F1000F70
:10C51000F6D1A0460020E7E70024F7E7D83900204D
:10C52000D439002070B5EFF3108672B6144C23682E
:10C5300018BB13B97846FDF735F92368013B236032
:10C5400093B9104D95F8B83013B92846FFF76AFE35
:10C5500095F8743113B90C48FFF764FE95F8303242
:10C5600013B90A48FFF75EFE2368094A003B18BF6B
:10C570000123137006B962B670BD01332360F3E77F
:10C580000C3C0020D8390020943A0020503B002079
:10C59000D439002010B1024B800B185C704700BFEB
:10C5A000C436040012DF704713B501F069FD04467C
:10C5B000D8B1134B1B685B0617D5124B1B68012BB8
:10C5C00013DD11482F2116F0EDFB80B12F210E480D
:10C5D00016F0E8FB411C0D4B0D4AD3F804350092D0
:10C5E00001947522022002F0F3FA02B010BD064851
:10C5F0005C2116F0D7FB08B15C21E8E70249EAE7C5
:10C60000302F00202C2F0020C836040000100140DD
:10C61000E436040070B58AB006F01EFC044600281B
:10C6200034D000238DF8103006460FCE05AD0FC56F
:10C6300033682B60627D052A0CD9207D00F00F0342
:10C64000072B07D004AB063A04F11D0100F00F00E0
:10C6500005F092FA114B1A68AAB104AB0393237D3B
:10C66000C3F303038DF80430637D062B89BF063BBB
:10C6700000238DF8053004F11D0398BF8DF80530B7
:10C68000029301A89047204606F0D0FB06F0FEFB7F
:10C6900080F00100C0B20AB070BD00BF183C00209D
:10C6A00010B5114C2378022B8CB005D07846FDF7DD
:10C6B00079F801200CB010BDFFF7A0FB18B90B48AA
:10C6C000FEF7FEFBF5E706F093FB03232C22002187
:10C6D00001A8237016F094FA1D2301A88DF80430E8
:10C6E000FEF7C4FBE5E700BF143C0020202F00202C
:10C6F00000B50A4B1A78042A8DB00CD105221A70A5
:10C7000000212C2201A816F07BFA1C2301A88DF829
:10C710000430FEF7ABFB0DB05DF804FB143C0020C9
:10C7200008B50378122B08D10448FEF7D9FB044B57
:10C730001868BDE8084001F035B908BD202F002079
:10C74000103C0020F7B5314F3A780546002A52D107
:10C75000002852D0067A0F2E01D0062E4FD105F0B8
:10C76000DBF9E868002843D0FDF72EF80DF107004B
:10C77000FFF718FF0446C0BB9DF80730012B40D1DE
:10C78000FDF74EF800F0F8FA304601F02FF8E8789F
:10C7900000F084F900F064FE05F0FEFD1C4806F090
:10C7A00017FC05F06DFB05F0BDF9FFF7E7FD04F0A0
:10C7B000D1FA00F0A3FC05F06FF904F08BFF2846D6
:10C7C00001F0B2FBFDF774FE03F06CFEFCF7E8FE2F
:10C7D00008B1062817D10F4801F0C6F80E4B1860B3
:10C7E0000E4B00221A6001233B70204603B0F0BDBF
:10C7F000FCF7F2FFBAE70824F7E70E24F5E7072471
:10C80000F3E70224F1E70446EFE700BF143C002001
:10C8100015C60200A1C60200103C0020183C0020F2
:10C8200037B5254D2A78012A04D0043A012A36D991
:10C83000082426E001F086FBFDF77CFEFCF7B0FE45
:10C84000044650B3062828D01C4B1B685B0418D53F
:10C850001B4B1B68012B14DD1A482F2116F0A2FA7E
:10C8600090B12F21174816F09DFA411C164B174A1C
:10C87000D3F804350092019440F28912022002F0AC
:10C88000A7F9204603B030BD0E485C2116F08AFAA5
:10C8900008B15C21E6E70B49E8E700F0D3FF05F0BB
:10C8A000D7FD04460028ECD102232B70084B1868F2
:10C8B00001F078F8E5E700BF143C0020302F00209D
:10C8C0002C2F0020C8360400001001400D37040052
:10C8D000103C002008B5084B1A78032A0AD104221C
:10C8E00006481A7005F07AFD18B17846FCF75AFF31
:10C8F000002008BD0820FCE7143C0020F1C602001F
:10C90000FDF71ABEFEF7DCBAFEF7EABA08B500F08A
:10C9100077FD002008BD07F0E7BB0000044B1A6854
:10C920000132B2F1704F08BF01221A6018687047D7
:10C930001C3C002010B5044610B97846FCF732FFC5
:10C940000023C4E9003310BD38B50D46044610B9C4
:10C950007846FCF727FF15B97846FCF723FF00233C
:10C960006B60EFF3108372B6226822B925606560B0
:10C9700003B962B638BD62685560F8E710B5044681
:10C9800010B97846FCF70EFFEFF3108272B62068FC
:10C9900020B90023636002B962B610BD436823600A
:10C9A000002BF8D1F5E710B5044610B97846FCF72E
:10C9B000F9FE206810BD38B50C46054610B978461A
:10C9C000FCF7F0FE14B97846FCF7ECFE2046FFF7C2
:10C9D000EAFF90B12846FFF7E6FF40B994E803006C
:10C9E00085E803002046BDE83840FFF7A3BF6B6829
:10C9F00022685A6063686B60F4E738BD037A13B14C
:10CA000000230372704743681B6804334360704718
:10CA10001FB5036802464068191D884208D1CDE958
:10CA2000013300238DF80C30029B51681B6893B9C9
:10CA3000D2E900131C684868844205D18B420BBFC1
:10CA40000021043B59604B605368196849681960BC
:10CA50000123137205E00968994201A803D1FFF789
:10CA6000D7FF04B010BDFFF7C9FFDDE735DF704722
:10CA700008B54FF0FF30FFF7F9FFBFF34F8F0549BF
:10CA8000054BCA6802F4E0621343CB60BFF34F8FDB
:10CA900000BFFDE700ED00E00400FA0507289ABF9B
:10CAA000024B33F81000FA20704700BF3237040001
:10CAB000024B5868103840B2704700BF00ED00E0EC
:10CAC00000280346B8BF00F11F03084A5B1152F863
:10CAD0002330424202F01F0200F01F0058BF5042B4
