:020000022000DC
:1070000000FD0320F1E2030019E303001BE303008A
:107010001DE303001FE3030021E303000000000061
:1070200000000000000000000000000023E3030057
:1070300025E303000000000027E3030029E3030029
:107040002BE303002BE303002BE303002BE30300FC
:107050002BE303002BE303002D8302002BE303004B
:107060002BE303002BE30300711E03002BE303005B
:107070002BE303002BE303002BE303002BE30300CC
:107080002BE3030039B9030001D702002BE303000F
:1070900009BA03002BE30300459002002BE3030031
:1070A0002BE303002BE303002BE303002BE303009C
:1070B0002BE303002BE303000000000000000000AE
:1070C0002BE303002BE303002BE303002BE303007C
:1070D0002BE303002BE303002BE303002BE303006C
:1070E0002BE303002BE303002BE30300000000006D
:1070F000000000002BE30300000000002BE303006E
:10710000000000000000000000000000000000007F
:10711000000000000000000000000000000000006F
:10712000000000000000000000000000000000005F
:10713000000000000000000000000000000000004F
:10714000000000000000000000000000000000003F
:10715000000000000000000000000000000000002F
:10716000000000000000000000000000000000001F
:10717000000000000000000000000000000000000F
:1071800000000000000000000000000000000000FF
:1071900000000000000000000000000000000000EF
:1071A00000000000000000000000000000000000DF
:1071B00000000000000000000000000000000000CF
:1071C00000000000000000000000000000000000BF
:1071D00000000000000000000000000000000000AF
:1071E000000000000000000000000000000000009F
:1071F000000000000000000000000000000000008F
:1072000010B5054C237833B9044B13B10448AFF3E0
:1072100000800123237010BDF02E0020000000002C
:107220006017040008B5034B1BB103490348AFF3D3
:10723000008008BD00000000F42E0020601704004C
:10724000154B002B08BF134B9D46A3F5803A002138
:107250008B460F461348144A121A18F073FC0F4B52
:10726000002B00D098470E4B002B00D098470020F1
:10727000002104000D000D48002802D00C48AFF397
:10728000008018F00FFC2000290000F0D3FB18F05C
:10729000F5FB00BF0000080000FD03200000000017
:1072A00000000000F02E00206C5D002000000000B7
:1072B0000000000041DF704730B52D4B14461B68BD
:1072C000526887B00D4603F4804352B3F3B1294BA3
:1072D0001B68032B1ADD28482F2118F005FDB8B1D3
:1072E0002F21254818F000FD411C244B6268D3F87B
:1072F0000435049262780392227802926A8801929D
:107300001F4A00920420C32207F004FA07B030BDE0
:1073100019485C2118F0E8FC08B15C21E1E7164946
:10732000E3E7002BF2D0134B1B68032BEEDD124872
:107330002F2118F0D9FC90B12F210F4818F0D4FC60
:10734000411C0E4B2278D3F8043502926A880192D0
:107350000C4A00920420C82207F0DCF9D6E7064860
:107360005C2118F0C1FC08B15C21E6E70249E8E7BE
:10737000482E0020442E00209BFD030000100140F9
:10738000C6FD030018FE0300012A07B52AD0022A11
:1073900050D0002A70D13C4B1B68590416D53B4B8A
:1073A0001B68032B12DD3A482F2118F09DFC80B199
:1073B0002F21374818F098FC411C364B364AD3F839
:1073C00004350092AA22042007F0A4F903B05DF866
:1073D00004FB2F485C2118F087FC08B15C21E8E72A
:1073E0002B49EAE7062232214FF4F03000F008FF83
:1073F000254B1B685A04E9D5244B1B68032BE5DD9C
:1074000023482F2118F070FC58B12F21204818F084
:107410006BFC411C1F4B214AD3F804350092AF226C
:10742000D1E71B485C2118F05FFC08B15C21EDE757
:107430001749EFE7144B1B685B04C7D5134B1B6858
:10744000032BC3DD12482F2118F04EFC58B12F2119
:107450000F4818F049FC411C0E4B114AD3F8043573
:107460000092B322AFE70A485C2118F03DFC08B156
:107470005C21EDE70649EFE7054AB721032003B099
:107480005DF804EB16F05FBF482E0020442E00206C
:107490009BFD03000010014041FE030061FE03005C
:1074A00081FE030070B58A4D2B685A0486B00446ED
:1074B00000F1010617D5874B1B68032B13DD8648A7
:1074C0002F2118F011FCA8B12F21834818F00CFCD3
:1074D000411C824B824AD3F8043500920196EC227B
:1074E000042007F017F9731E032B0FD8DFE803F011
:1074F0000B550B5578485C2118F0F6FB08B15C2160
:10750000E3E77549E5E701238DF80C30754A1378F8
:107510008DF80D30591C32206423CDE904302B68DE
:1075200011705B041AD56B4B1B68032B16DD6A4880
:107530002F2118F0D9FB90B32F21674818F0D4FB06
:10754000411C664B9DF80C20D3F804350192664A25
:107550000092042040F2031207F0DCF8022E27D834
:107560004EB3624C208812F037F903A9204604AAD2
:107570000DF074F89DF80C1004460D2000F02AFE62
:10758000082C00F29B80082C00F29A80DFE804F0BF
:107590002E9898984498987044000023B4E74E4879
:1075A0005C2118F0A1FB08B15C21C6E74A49C8E795
:1075B000023C012C1CD92B68590417D5454B1B687C
:1075C000032B13DD44482F2118F08EFBD8B12F2157
:1075D000414818F089FB411C404B454AD3F804351B
:1075E000009204204FF48C7207F094F806B070BD3E
:1075F00003A94048022304AA0DF07CF89DF80C1062
:1076000004460E20BAE734485C2118F06DFB08B13F
:107610005C21DDE73049DFE72B685A0418D52D4B94
:107620001B68032B14DD2C482F2118F05DFBB0B133
:107630002F21294818F058FB411C284B2E4AD3F81B
:107640000435009201964FF49272042007F062F81C
:10765000062232214FF4F03000F0D2FDC6E71E487A
:107660005C2118F041FB08B15C21E2E71A49E4E72C
:107670002B685B04BAD5174B1B68032BB6DD164885
:107680002F2118F031FB80B12F21134818F02CFB6B
:10769000411C124B194AD3F80435009201964FF45D
:1076A0009872042007F036F8A0E70B485C2118F028
:1076B0001BFB08B15C21E8E70749EAE7112CABD0D6
:1076C000054A4FF49A71204616F03DFE8EE700BF42
:1076D000482E0020442E00209BFD03000010014096
:1076E000A3FE0300752F0020B6FE03000C2F002020
:1076F0006C000400402F0020D1FE0300E8FE0300D0
:1077000037B5244B1B685B0417D5234B1B68032B31
:1077100013DD22482F2118F0E7FA80B32F211F48EC
:1077200018F0E2FA411C1E4B1E4AD3F804350092B1
:1077300004204FF4A47206F0EDFF1B4C1B4D256393
:10774000002301212046A362A3850CF05BFF20B13A
:10775000124A40F2511116F0F6FD002314486566F6
:107760000221E365A4F860300CF04CFF80B10B4AB5
:1077700040F2511103B0BDE8304016F0E4BD0748B7
:107780005C2118F0B1FA08B15C21C8E70349CAE7E7
:1077900003B030BD482E0020442E00209BFD030086
:1077A0000010014012FF03000C2F002060000400B5
:1077B000402F002007B50378232B2ED1184B1B68D0
:1077C0005B0416D5174B1B68032B12DD16482F21BF
:1077D00018F08AFAC0B12F21134818F085FA411C1D
:1077E000124B134AD3F8043500920420CF2206F03E
:1077F00091FF0322C8214FF4F03000F001FD03B0E7
:107800005DF804EB00F016BB07485C2118F06CFA39
:1078100008B15C21E0E70449E2E703B05DF804FB4E
:10782000482E0020442E00209BFD03000010014044
:1078300032FF030010B5044600214FF4F03004EB92
:10784000840400F0D3FC62003221BDE810404FF404
:10785000C03000F0D5BC00F005BD00001FB503A886
:1078600012F0B2FF144B1B685B0419D5134B1B6855
:10787000032B15DD12482F2118F036FA98B12F216D
:107880000F4818F031FA411C0E4BBDF80C20D3F80C
:10789000043501920C4A00920420852206F03AFF3A
:1078A00005B05DF804FB06485C2118F01DFA08B12C
:1078B0005C21E5E70249E7E7482E0020442E00203E
:1078C0009BFD0300001001404BFF030007B51D4B5B
:1078D0001B685B0416D51C4B1B68032B12DD1B4871
:1078E0002F2118F001FA18B32F21184818F0FCF9CD
:1078F000411C174B174AD3F80435009204208A2202
:1079000006F008FF00F00EFF00F034FFFFF7A6FFBF
:1079100000F0A8FC00214FF4F03000F067FC0422D6
:10792000C8214FF4F03003B05DF804EB00F068BC00
:1079300006485C2118F0D8F908B15C21D5E7034965
:10794000D7E700BF482E0020442E00209BFD0300F7
:107950000010014062FF030007B5134B1B685B0476
:1079600016D5124B1B68012B12DD11482F2118F080
:10797000BBF980B12F210E4818F0B6F9411C0D4B10
:107980000D4AD3F80435009202209C2206F0C2FE74
:1079900003B05DF804FB06485C2118F0A5F908B1B6
:1079A0005C21E8E70249EAE7482E0020442E002047
:1079B0009BFD0300001001407CFF030007B5313838
:1079C000032804D803B05DF804EBFFF76BBD144B3C
:1079D0001B685B0417D5134B1B68032B13DD124880
:1079E0002F2118F081F988B12F210F4818F07CF968
:1079F000411C0E4B0E4AD3F80435009204204FF47C
:107A0000A17206F087FE03B05DF804FB06485C2116
:107A100018F06AF908B15C21E7E70349E9E700BF1C
:107A2000482E0020442E00209BFD03000010014042
:107A30006C00040000B5854E854A46F201008DB009
:107A4000042106F04BFE3368580419D5814B1B689E
:107A5000032B15DD80482F2118F046F9002800F08F
:107A6000B3802F217C4818F03FF9411C7B4B7C4AA6
:107A7000D3F804350092042040F2711206F04AFE59
:107A800014F00AF920B1744A40F2731116F05BFC4D
:107A900000F0F8FB734800F021FC20B16E4A40F280
:107AA000771116F050FC00F001FE00F03BFE00F0F4
:107AB00061FE0021202203A818F044F801238DF86C
:107AC0000C3007238DF80F3006238DF81430664BE9
:107AD00007936649664B0B9303A800F06DF920B33A
:107AE0000B2840F0A080336859041ED5594D2A68F0
:107AF000032A1ADD58482F2118F0F6F800286CD018
:107B00002F21554818F0F0F8411C544C594AD4F82C
:107B10000435009204204FF4B27206F0FBFD336886
:107B20005A0402D52B68032B60DC5348642100F013
:107B3000F1FA4E4B1B78002B7BD1504D0FCD03AC8F
:107B40000FC495E8070084E8070003A800F08AFA4C
:107B500020B1414A40F2951116F0F5FB01F0ECFC22
:107B600000F016FC00F09EF820B13B4A4FF4CF71B4
:107B700016F0E9FB33685B0418D5364B1B68032B02
:107B800014DD35482F2118F0AFF8002854D02F21EC
:107B9000314818F0A9F8411C304B394AD3F8043564
:107BA000009204204FF4D07206F0B4FD00214FF48F
:107BB000F03000F01BFB0222C8214FF4F03000F03F
:107BC0001FFBFFF777FBFCE723485C2118F08CF8DC
:107BD00008B15C2146E7204948E71F485C2118F0BE
:107BE00083F808B15C218CE71B498EE71A482F21E6
:107BF00018F07AF870B12F21174818F075F8411C69
:107C0000204AD4F804350092042040F2651206F0B0
:107C100081FD8AE710485C2118F066F808B15C2104
:107C2000EAE70D49ECE70C4A4FF4B57116F08BFB0F
:107C30007BE7FFF713FE91E707485C2118F054F843
:107C400008B15C21A4E70449A6E700BF482E002044
:107C5000B1E60200442E00209BFD0300001001400D
:107C60009BFF0300A5740200B5770200742F00206B
:107C700001770200CAFF0300BD790200440004003E
:107C80006C0004001800040010B5044607F0A8FAC0
:107C900038B123780E2B04D1BDE81040002004F049
:107CA000C5BC10BD08B513F0F5FD20B10CF016F8F9
:107CB00008B10BF095FFBDE8084004F0E9BB0000F7
:107CC00070B5837DC27D86B043EA0223ADF81430DF
:107CD0000546032305A80E46ADF8163012F040FD08
:107CE0000446002845D1288A04AA294612F018FF24
:107CF000044600283DD1BDF81010E88A0DF11203AA
:107D0000324613F01DF90446002832D1297ED5F8F9
:107D1000120001F0010104F01DF810B1784601F0E5
:107D2000D1FBBDF812000FF009FA044608BB174B4F
:107D30001B681B031DD5164B1B68062B19DD154848
:107D40002F2117F0D1FFB8B12F21124817F0CCFF27
:107D5000411C2A7E104B02F00102D3F80435029236
:107D6000D5F8122001920D4A00920720C62206F093
:107D7000D1FC204606B070BD06485C2117F0B4FF68
:107D800008B15C21E1E70349E3E700BF482E00208A
:107D9000442E00208402040000100140A3020400CD
:107DA00008B504F08BFF10F0DBFD12F029FCBDE8F4
:107DB000084003F0B7BD000073B50E460546A0B3FA
:107DC00004F0F8FA044668BB12F0B8FC10F02CFE80
:107DD00028690FF083F9044620BB2B7F0193AB6920
:107DE000009301466B69124859220FF045FC044686
:107DF000C0B92B6A03B1984708F08AFD12F0A0FBC6
:107E0000054610F029FB0B2D01D00B2802D1FFF7FE
:107E1000C7FF0B2413F03EFD054608B10BF09EFE94
:107E200006B13570204602B070BD0E24FAE700BFDF
:107E3000782F002008B507F0D3F920B1BDE808403D
:107E4000002004F0F3BBBDE80840014804F092BBF9
:107E5000002E002069DF704730B5394D2A7887B091
:107E60001AB1012803D0032862D007B030BD002327
:107E700001A9019300F094FF08B116F057FA0C2203
:107E800000210DEB020017F05DFEBDF80C302D480F
:107E900023F47F7323F0030343F4887343F0010357
:107EA000ADF80C3000230493ADF8143017F014FF34
:107EB000019AADF8160003A94120FFF7CBFF08B1E6
:107EC00016F034FA01A800F0D3FF08B116F02EFA2C
:107ED0001D4C236803B19847012302A90DF102004C
:107EE000029312F0FFFF08B116F020FABDF802006D
:107EF00012F086FD0DF1010112F0A6FE08B116F098
:107F000015FA0BF02BFE9DF8011000200CF08CFAF6
:107F100010B1784601F0D6FA04F0BAFA08B116F0BA
:107F200005FA00232B706368002B9ED098479CE7CE
:107F300001F006F8002898D016F0F8F995E700BF90
:107F4000D22F0020C3020400D42F002008B50378EC
:107F50001C2B0CD1064B1B784BB101F02FF808B14C
:107F600016F0E4F9BDE80840024804F005BB08BD7E
:107F7000D22F00200C2E002010B50749074814F01E
:107F800037FB024638B9064906484969BDE8104042
:107F9000032314F046BB10BDF02F00205C330020FB
:107FA000D42F00202832002010B50378023B082B84
:107FB0004AD8DFE803F01E051249493849493F0015
:107FC000224B9B68002B3FD0007A00283CD0204AEF
:107FD00001211170BDE8104018471C4BDB68002BD5
:107FE00032D01B4A117879B300211170BDE81040DE
:107FF0001847184B1A784AB9144B1B6913B1144926
:108000000A709847BDE81040FFF7B6BF124B1348FF
:1080100001221A7004F0AEFA04F094FAA0B1BDE89F
:10802000104016F083B9094B0D489969102214F0DD
:108030003DFBF3E7D0E90210FFF742FE08B116F06E
:1080400075F9044B01221A7010BD00BFD42F002017
:10805000D02F0020D12F0020D22F00200C2E002066
:108060002832002070B51C4A1C4E5168044686B068
:10807000106803AB03C31189927A19809A700FCCF0
:1080800035460FC594E8070085E80700B36903B3D8
:10809000134B0093134A1449144803AB14F07AFAB3
:1080A000A8B9134815F08CFE0146104814F08CFA5C
:1080B00068B9104815F0F4FF48B90E4816F022F8D8
:1080C00001460A4814F080FA08B9FFF755FF06B0D8
:1080D00070BD0720FBE700BFD5020400D42F0020AD
:1080E000A97F0200F02F00205C33002028320020FE
:1080F00010300020D831002010B5054C226832B174
:1081000016F056FA002802DB23689847F8E710BDFE
:108110009C330020154B164A10B50C4618600121FF
:10812000144813F015FE18B1134A4A2116F00BF942
:10813000610C0023E00341F26F728B4208BF824260
:1081400010D24FF47A72002317F01CFB01460B4843
:10815000002213F00FFE38B1BDE81040064A4B2153
:1081600016F0F1B80521F2E710BD00BF9C330020E6
:10817000F980020004030400E0020400A0330020A0
:1081800070B5104C206808B916F0D0F84FF0A04533
:108190000D4ED5F8043532685340C5F804352368D0
:1081A000013B236063B9094813F030FE3268D5F80B
:1081B000043523EA0203064A12681343C5F804355E
:1081C00070BD00BFC0330020C4330020C83300207E
:1081D000F0330020012303FA00F04FF0A04311B167
:1081E000C3F80C057047C3F8080570474FF0A0436B
:1081F00011B1C3F80C057047C3F8080570470000BB
:10820000F8B52AB3132923D9124B134C5200013A63
:108210004FF0A0451A602060D5F8043518400F4B88
:108220004FF4FA76186000274FF40040E0FB016736
:108230004FF47A7200233046394617F0A3FA002231
:108240000146074813F096FD10B92368C5F80C35B0
:10825000F8BD00BFC0330020C4330020F03300203D
:10826000C833002008B5054813F0D0FD044B1A6848
:108270004FF0A043C3F8082508BD00BFC833002055
:10828000C433002008B54FF0A04303224FF400513F
:10829000C3F83427C3F808154FF48041C3F83827D2
:1082A000C3F808154FF40041C3F83C27C3F808157C
:1082B000C3F840274FF48032C3F808250548064A22
:1082C000012113F045FD18B1BDE8084016F02EB8A5
:1082D00008BD00BF0803040081810200D8B10F4B24
:1082E0000F4A18604FF0A0430020C3F82C27C3F8B2
:1082F0003027C3F86027C3F864270A4B4FF00042C9
:10830000C3F80423C3F87C01074BC02283F806237B
:1083100040221A6070470E20704700BFE8330020EB
:108320000C0003000060004000E100E0F8B5134BD2
:10833000134D144E144F0024C3F87C414FF0A0435A
:1083400015F8011BD3F8102501238B40934310D05F
:108350003368D7F80425991A48BFD11A43F233334A
:10836000994206D9D7F804353360084B20461B687C
:1083700098470134042CE1D1F8BD00BF00600040F3
:108380000C030400EC33002000100140E83300200F
:108390002DE9F0410446CEB038B1424D2B685A0465
:1083A00003D5414E3368032B02DC4EB0BDE8F081AB
:1083B0003E4B18680DAB611E04F10F0C1F4611F8FF
:1083C000012F4FEA121E02F00F0210F80EE083F8A0
:1083D00000E0825C5A70614503F10203EFD1002393
:1083E000334887F820302F2117F07EFC002846D034
:1083F0002F212F4817F078FC411CDFF8C4802D4A4C
:10840000D8F8043501922C4A0092029742220420A7
:1084100006F080F92B685B04C7D53368032BC4DDF5
:1084200023482F2117F060FC002831D02F2120484D
:1084300017F05AFC411CE27B2068D8F804350B92F7
:10844000A27B0A92627B0992227B0892E27A0792CF
:10845000A27A0692627A0592227A0492E28852BA4D
:1084600092B20392A28852BA00BA92B2CDE9010246
:10847000124A00920420432206F04CF995E70C487A
:108480005C2117F031FC08B15C21B2E70849B4E780
:1084900007485C2117F028FC08B15C21C7E70449B4
:1084A000C9E700BF482E0020442E00204C2E00209B
:1084B00010030400380304004A03040052030400BC
:1084C0000010014072DF704773DF704774DF704740
:1084D0002DE9F0412F4CA2B006460F4690460021F0
:1084E0001022204617F02EFB2B4A2C491378C3EBA1
:1084F0004315294421602A49013303F001030D4447
:108500001F211370A180A1813C22002104A8A56035
:1085100017F018FB062301AA8DF813300E920123E1
:108520003C22002113A88DF80230ADF820308DF8E0
:108530003C30ADF80060CDF824D0ADF80460ADF863
:108540000880039717F0FEFA2246022352F8041B14
:108550008DF84C3004A800F0F5F908B115F0E6FEEE
:10856000104AA16813A800F0EDF908B115F0DEFE7D
:108570000D4A08490D48FFF7A5FF082804D1054911
:108580000A480022FFF79EFF08B115F0CFFE22B087
:10859000BDE8F08134340020F4330020F5330020AE
:1085A00044340020403400201C2E0020182E0020CF
:1085B000B0F5202F0AD20A23B0FBF3F310B1012B40
:1085C00038BF0123034A9381916070474FF6FF73D0
:1085D000F5E700BF1C2E002008B5064B01211878D6
:1085E000FFF772FF08B115F0A1FEBDE808400020BA
:1085F00004F0B6BD182E002008B5054B1878FFF71B
:1086000065FF18B1BDE8084015F090BE08BD00BF79
:10861000182E002076DF70477ADF70477CDF7047C6
:1086200069DF704715F082BE03F0A8BF07B5037875
:108630004BB940883B21FFF7EDFF08B303B05DF86D
:1086400004EB15F073BE012B1AD1134B1B685B04AE
:1086500016D5124B1B68032B12DD11482F2117F082
:1086600043FB80B12F210E4817F03EFB411C0D4B00
:108670000D4AD3F8043500920420682206F04AF827
:1086800003B05DF804FB06485C2117F02DFB08B130
:108690005C21E8E70249EAE7482E0020442E00204A
:1086A0009203040000100140C20304001FB500F053
:1086B00047FC08B115F03AFE0023694601200093FB
:1086C00000F06EFB08B115F031FE0C22002101A86C
:1086D00017F038FABDF80430114823F47F7323F003
:1086E000030343F4887343F00103ADF8043000231F
:1086F0000293ADF80C3017F0EFFA009AADF80E00C7
:1087000001A94120FFF78CFF08B115F00FFE684664
:1087100000F0AEFB08B115F009FE05B05DF804FBF2
:10872000C30204001FB5112310488DF8043017F060
:10873000D3FA0E4982B201A8FFF770FF08B115F015
:10874000F5FD08220DEB0200002117F0FBF9084AA5
:108750004FF0C87302A8CDE90223FFF75DFF08B10F
:1087600015F0E4FD05B05DF804FB00BFC302040092
:108770007800C80010B58AB001AC0822002120465C
:1087800017F0E0F9124A4FF0C873CDE90123002138
:108790001C2203A817F0D6F94FF4803340F6CD41E0
:1087A000CDE9041303238DF818300023ADF81A30F7
:1087B0008DF81C30074B089303A8074B03940993CB
:1087C00000F040FD08B115F0B1FD0AB010BD00BFCA
:1087D0007800C8002D8602002586020070B5EFF3F0
:1087E000108672B60C4A946801239CB993600B4BB7
:1087F0000B4DD3F8801029401160C3F88050D3F896
:10880000841051604FF0FF32C3F88420047006B921
:1088100062B670BD0370FAE7E45C002000E100E09E
:10882000FC06FFBD10B5084B9A685AB150B9EFF37A
:10883000108172B6054A1C6814605C6854609860C8
:1088400001B962B610BD00BFE45C002000E100E0A9
:108850006DDF704779DF70477DDF704764DF7047F9
:108860002DE9F04F85B000250E9CBDF83CB0B4F862
:1088700000A00191074690461E46A9463A884A45FF
:108880000DDC45B12388013BA3EB0A039BB2FF2B10
:108890003AD806F80A30002005B0BDE8F08F7A68B3
:1088A00052F82900039000220DF10B0103A8FFF7F5
:1088B000D5FF0028F0D19DF80B20424521D1228818
:1088C000002D14BF0020022002EB0801014459458D
:1088D0001ADC3DB9013292B2019B2280B354228846
:1088E0000132228022880DF10B01324403A8FFF7E8
:1088F000B5FF0028D0D121889DF80B200A442280A2
:10890000012509F10109B9E70C20C5E72DE9F3417B
:10891000089FBDF824801546CDE900780222044660
:108920001E46FFF79DFF50B93346102229462046C8
:10893000CDE9087802B0BDE8F041FFF791BF02B081
:10894000BDE8F0812DE9F04F00231788138090F8DF
:108950002D3085B006460D46144653B3082F01D876
:108960000C2027E102A8FFF773FF002840F02281C6
:1089700023880822EA54238801339BB21B222380D8
:10898000EA542088013080B2208006220DF10901CE
:10899000284417F0C9F823889DF8082006339BB2B5
:1089A00012F0FE0218BF01222380EA54238801330B
:1089B0002380B378FBB123880433BB42D0D802A80C
:1089C000FFF748FF002840F0F58023880322EA548F
:1089D000238801339BB219222380EA542388BDF8EF
:1089E000082001339BB2E9182380EA54120A4A7026
:1089F000238802332380F2789AB12388D91CB942A4
:108A0000AED80221E954238801339BB2012123808F
:108A1000E95423880B449BB22380EA5423880B44F7
:108A200023807268AAB12388D91CB94298D8022140
:108A300092F90020E954238801339BB20A21238054
:108A4000E954238801339BB22380EA5423880133FD
:108A500023803389002B40F0A180338A5BB1CDE9BC
:108A600000472B460722032106F11000FFF74EFFB7
:108A7000002840F09F80338B5BB1CDE900472B4647
:108A80001522142106F11800FFF740FF002840F0DE
:108A90009180326A002A40F09080D6F82480B8F1A4
:108AA000000F30D0B8F804302188981C8A1C02448A
:108AB000BA423FF655AFFE283FF652AF03336B5430
:108AC000238801339BB2FF222380EA542388013399
:108AD0009BB22380B8F80020EA54E918120A4A70C1
:108AE0002088023080B22080B8F804205AB1D8F82B
:108AF000081000296BD0284417F016F82388B8F81E
:108B000004201344238096F82C30002B40F09A80E8
:108B1000307800284ED03388012B58D0228802F1BB
:108B2000020CBC453FF61CAF012805D17378023317
:108B300013449F42FFF414AF023FBF1ABFB202A911
:108B400005EB0C00ADF80870FFF786FE90BB31789E
:108B5000BDF80830022900F0BA8072789A4202D338
:108B6000BB4240F2B280012940F0B380974293B2F9
:108B7000C0F0AF80ADF808300821BDF80830FE2BFA
:108B80003FF6EEAE22880133AB542288013292B216
:108B90002280A9542288134423800BE0CDE90047AA
:108BA0002B460622022106F10800FFF7AFFE00283F
:108BB0003FF453AF05B0BDE8F08FB4F800C00CF13E
:108BC0000603BB423FF6CCAE1188052901D8072029
:108BD000F0E76FF4486E01EB0E039BB24FF27D3E5F
:108BE0007345F4D95388052BF1D96FF448601818F0
:108BF00080B27045EBD94FF6FF70814203D08342BB
:108C000001D09942E3D8052305F80C3023880133BD
:108C10009BB212212380E954238801339BB2238025
:108C20001188E954E818090A4170238802339BB27D
:108C300023805288EA54E918120A4A7023880233C2
:108C400023802AE7B36A002BC1D04FF000094FF010
:108C50000C0A4FF0160B96F82C305FFA89F293420B
:108C60007FF656AFB16A0AFB02F201EB0208B8F8D0
:108C70000430981CFE283FF673AE208803332B5433
:108C8000238801339BB2238005F803B02388013386
:108C90009BB223808A5AEA54E918120A4A70208843
:108CA000023080B22080B8F804205AB1D8F80810F9
:108CB00000298CD0284416F037FF2388B8F8042008
:108CC0001344238009F10109C5E7092155E7BB4297
:108CD000FBD9ADF808704FE701600B6843604A6844
:108CE000934204BF002343607047436843B1026866
:108CF00091680B4443605268934204BF0023436071
:108D000070474BDF704700001FB50D4C01A8FFF7FF
:108D1000F8FF70B9214602A8FFF7DEFF039B002B86
:108D2000F4D00198D3E90021904702A8FFF7DDFFB6
:108D3000F4E7052801D015F0F9FA04B010BD00BF22
:108D4000F003040060DF704769DF704761DF704740
:108D500030B5114B1B78A9B0E3B1104D94240DF13F
:108D6000020103A8ADF80240FFF7F0FF70B92946F1
:108D700001A8FFF7B1FF029B002BF0D003A8D3E9B5
:108D80000021904701A8FFF7B0FFF4E7052801D0C4
:108D900015F0CCFA29B030BD82340020FC03040069
:108DA000F0B5064685B00D4600295CD02F4B0B6010
:108DB0000C22002101A816F0C5FE012706232A680F
:108DC000ADF8083001A920208DF804608DF80670F8
:108DD000FFF7BAFF0C22002101A816F0B3FE002411
:108DE0002A688DF8057001A94020ADF80640FFF70C
:108DF000ABFF0C22214601A816F0A4FE45232A68E9
:108E0000ADF8063001A923208DF80460FFF79CFF20
:108E10000C22214601A816F095FE2A688DF8044020
:108E200001A93846FFF790FF0C22214601A816F051
:108E300089FE4FF4B0632A68019301A9A120FFF7CE
:108E400083FF0C22214601A816F07CFE9DF8043019
:108E50002A683B4301A9A0208DF80430FFF774FF76
:108E6000204605B0F0BD0E20FBE700BF002E00201D
:108E700008B5FFF767FF10B9014B01221A7008BD52
:108E80008234002010DF704711DF704713B50446AD
:108E900009496846FFF720FF019808B902B010BDE4
:108EA000D0E900212046904718B16846FFF71DFF22
:108EB000F2E71120F2E700BF0C04040013B50446EA
:108EC00007496846FFF708FF019B0BB902B010BDC8
:108ED0002046D3E9002190476846FFF706FFF3E7F5
:108EE00024040400064B9A6822B11A6822F4800216
:108EF0001A607047034B4FF48002C3F8802070471C
:108F0000E45C002000E100E00B4991F816335A09B7
:108F1000EC231341DB0706D5084B9A683AB94FF4A6
:108F200080030B60704742F2020015F0FFB91A6827
:108F300042F480021A60704700E100E0E45C002027
:108F4000F7B5194F3C7864BB184E012520463570A3
:108F5000FFF79CFF112821D02046FFF7AFFF144BED
:108F60008DF80340186801900DF10300FFF736FCFF
:108F7000104901A8FFF786FF0446B0FA80F04009C7
:108F800038709DF80300FFF74DFC3CB90A4B347074
:108F90001C70FFF7B9FF2846FFF790FF204603B08B
:108FA000F0BD0824FAE700BF843400208334002099
:108FB00008040400C592020085340020F7B5154F5F
:108FC0003B781BB3144E01203070FFF75FFF112870
:108FD0004FF000051CD00220FFF770FF0DF10700D5
:108FE0008DF80750FFF7FAFBFFF74EFF04469DF898
:108FF00007003D70FFF716FC2CB93470FFF772FFC5
:109000000320FFF75BFF204603B0F0BD0824FAE71A
:109010002C46F8E7843400208334002007B5084943
:109020006846FFF759FE019B13B903B05DF804FBD6
:10903000D3E9002090476846FFF757FEF3E700BFEB
:1090400018040400FFF7EABF75DF704776DF70474A
:109050007ADF70477BDF7047034B1A8882420CBF70
:1090600018460020704700BFA4340020024B9B69C3
:1090700003B11847704700BF8834002073B585B22C
:109080002846FFF7E9FF044670B1164E027A337B9B
:109090009A420BD200F10A012846FFF7D5FFE8B14A
:1090A000112801D0FFF7E2FF02B070BD0023037268
:1090B000337C43B13B212846FFF7C8FF30F008035B
:1090C00001D0FFF7D3FF7369002BEDD000228DF89C
:1090D0000420ADF8065001A89847E5E7237A01334C
:1090E0002372E1E78834002037B50B46497A0F4AEE
:1090F00071B9D2E901141D7A0246002D18BF21462C
:10910000586812F037FE08B1FFF7B0FF03B030BD6A
:10911000002119725369002BF8D00122ADF8060026
:109120008DF8042001A89847F0E700BF883400209C
:109130004B8802889A4213D842889A4210D380887A
:109140008A8840F2F313984294BF031AC31A9342D9
:1091500006D800F2F310904234BF0020012070477F
:109160000020704770B50388122B014659D004D8EF
:10917000102B1ED0112B44D070BD502BFCD12F4B87
:10918000C288DB899A42F7D1038A022BF4D1868800
:109190003046FFF761FF05460028EDD001F11200CF
:1091A00000F08AF838BB686812F030FE0028E3D07F
:1091B00009E0C37B012BDFD14FF6FF70FFF74CFFB7
:1091C000054620B90420BDE87040FFF74FBF8E88E8
:1091D0001B4A0680002303721368C0F80A305368E4
:1091E000C0F80E3010310A30FFF7A2FF134B68723F
:1091F000DB89002BC0D129463046BDE87040FFF71F
:1092000073BF8088FFF728FF04460028B4D0406869
:1092100012F0FCFD08B1FFF729FF4FF6FF73238022
:10922000AAE786883046FFF717FF05460028A3D037
:1092300008310A30FFF77CFF6872DCE788340020D1
:10924000B8340020F8B5064648B305460FCD154F93
:109250003C460FC495E8070084E807003068124CCC
:109260003C60B0B1FFF7F4FEC0B932681368236008
:10927000536863600D480E4A4FF6FF7303800D4B31
:1092800040F8043F002112F063FD002818BF0320BE
:1092900004E02046FFF7DEFE0028EBD0F8BD0E20EC
:1092A000FCE700BF88340020B8340020A43400203C
:1092B0007D900200C0340020007800F0010070476B
:1092C0000620704730B5754B14461B6844F2010206
:1092D000904287B00D4603F4804300F0A98022D865
:1092E000012844D041F20102904276D0002B58D0A0
:1092F0006B4B1B68002B54DD6A482F2116F0F4FCE1
:10930000002800F0BF802F21664816F0EDFC411CBC
:10931000654B664AD3F80435009201957B22012003
:1093200005F0F8F93DE044F202029042DED1002B54
:1093300037D05B4B1B68002B33DD5A482F2116F0CA
:10934000D3FC00286BD02F21564816F0CDFC411CD1
:10935000554B2288D3F8043503926268CDE9015257
:10936000534A00920120692205F0D4F919E0C3B1F3
:109370004B4B1B68002B14DD4A482F2116F0B4FC20
:1093800010B32F21474816F0AFFC411C464B494A09
:10939000D3F804350092CDE901546022012005F094
:1093A000B9F94FF0A0434FF4F032C3F81825C3F8D1
:1093B0000C25EFF3108372B64DF6AD6C3E4A137870
:1093C000002B68D107B030BD36485C2116F08CFC0C
:1093D00008B15C21D6E73349D8E7002BE1D0304B08
:1093E0001B68002BDDDD2F482F2116F07DFC68B1B6
:1093F0002F212C4816F078FC411C2B4B2F4AD3F818
:1094000004350092CDE901546322C7E725485C2169
:1094100016F06AFC08B15C21EBE72249EDE7214830
:109420005C2116F061FC08B15C218DE71D498FE7D6
:10943000002BB6D01A4B1B68002BB2DD19482F2128
:1094400016F052FCA8B12F21164816F04DFC411C15
:10945000154B2268D3F8043504926268CDE90252B4
:10946000A2680192164A00920120732205F052F977
:1094700097E70C485C2116F037FC08B15C21E3E764
:109480000849E5E707485C2116F02EFC08B15C218D
:109490003AE704493CE730BF91E700BF482E00207F
:1094A000442E00203004040000100140D4040400C5
:1094B0009404040058040400342E002072040400B4
:1094C000B304040007B500230146ADF800306A4636
:1094D000044B019344F20200FFF7F4FE03B05DF881
:1094E00004FB00BF7F07040001461022014816F06C
:1094F0001BBB00BFE034002010B50C4C0C49082207
:10950000204616F011FB08220A49A01816F00CFBA1
:10951000A37903F00F0343F04003A371237A03F010
:109520003F0363F07F03237210BD00BFE0340020CF
:1095300060000010A400001000487047E0340020D4
:109540000022064913460132202A4B804B6001F865
:10955000083BF8D1024A1360704700BFF034002086
:10956000F0350020F0B50C4B0C4D1B680446202252
:109570007BB1013B15F8330050B105EBC30677888A
:10958000A74202D176688E4202D0013AF0D110464D
:10959000F0BD1F23EEE700BFF0350020F0340020BF
:1095A00030B5094A094C136804EBC3051F2B6960E9
:1095B0004FF0010104F83310194408BF00236880FC
:1095C00014BF1160136030BDF0350020F03400206E
:1095D000C0F30C038B42084438BFA0F50050C01AFA
:1095E00070470000F0B50D4B0D4A1E6800218E42F9
:1095F00012D0156800230AE052F8044C04EBC307AC
:1096000014F83340844201D17868F0BD01339D42A3
:10961000F2D101310832EAE70020F6E77C3600207B
:109620008436002000B58DB048B9991C07D00121BF
:1096300001A8CDE902328DF8041001F04FFA034B76
:10964000186803F085FF0DB05DF804FB8836002034
:1096500010B50378044613B97846FFF733FF607AF4
:10966000431C01209840013810BD2DE9F0410E4601
:109670008EB015461C46074610B97846FFF722FF04
:1096800016B97846FFF71EFF636AA2780233059386
:10969000E378A2F10800002B14BF012102210DF193
:1096A000040842424241434604F10C0004F085F8AC
:1096B000A3788DF83430237BADF82050022B16FAB6
:1096C00085F5CDE906870B960C950FD1236913B963
:1096D0007846FFF7F7FE23690993102305A8ADF834
:1096E000283004F066F80EB0BDE8F0810023F5E7FD
:1096F000B2F5C07F2DE9F04781468846174602D96A
:109700007846FFF7DFFE244B00259A4693F8486021
:109710005EB9384607F099FF702404FB05A4E066A3
:1097200048B900242046BDE8F0870135042D03F137
:109730007003EBD1F5E730224946204616F0F4F9E4
:10974000B8F1010FE664A4F84A701BD1134BA4F8DA
:1097500052601B7D84F8513084F85060D9F828306D
:1097600063656FF00103A3620D4BA4F85860A36317
:109770002464012002F09EFA702303FB05A585F8FE
:109780004880CFE76FF00103A362064BA36584F81E
:109790006860054B2466EAE7A43600208C3600207A
:1097A000019F020015A50200F99E020010B50446B3
:1097B000C06E07F04CFF04F1300003F0F3F894F8AA
:1097C0004830022B03D104F1500003F0EBF820469F
:1097D0007022002116F0B6F9002084F84800BDE898
:1097E000104002F067BA10B590F84830012B8CB0E9
:1097F000044602D07846FFF765FE01238DF8043059
:10980000636D029303F00EF9039001A801F066F96D
:109810002046FFF7CBFF0CB010BD10B50446808A80
:1098200002F0F0FC01281CD1237BD3B194F916205F
:10983000002A18DBE27D5AB1022B12D094F90330D2
:10984000002B10DBA378002B0CBF0020072010BDDD
:10985000E2780AB9012B06D1237833B9A378042B17
:10986000F2E71020F3E70720F1E70020EFE7000020
:109870001FB500230A468DF80F3028B30230086068
:109880000DF10F01104603F096FF9DF80F30DBB18C
:10989000144B1B685B0717D5134B1B68032B13DD99
:1098A00012482F2116F020FA98B12F210F4816F0F8
:1098B0001BFA411C0E4B0F4AD3F8043500920420CA
:1098C00040F2154204F026FF9DF80F0005B05DF848
:1098D00004FB06485C2116F007FA08B15C21E5E7B5
:1098E0000249E7E7482E0020442E0020ED04040042
:1098F000001001400A05040070B50446D4E90612C0
:109900002378808A8CB0D3B1E38805F0BDFE05468C
:1099100090B1A68AE4692C22002101A816F012F960
:1099200004F001040F2301A88DF80430ADF808609D
:10993000ADF80A4001F0D2F828460CB070BD05F031
:109940009FFEE4E72DE9F04F98461378D2F818A06F
:10995000F3B006460D46144623B1D1885046FFF7B2
:1099600037FE9061E378A278002BA2F108000DF198
:109970000C0914BF0121022104F10C0742424B469D
:109980004241384603F019FFA3788DF83C30ADB260
:10999000E81A80B2CDE90896E378C4F818A0064426
:1099A0000E964FF0000912AEADF828000D96ADF8F6
:1099B0003090002B65D04FF0100B04F1240A237B6C
:1099C000C4F82490022B02BF2369ADF830B00B938A
:1099D000206A2179524611F0D5FD606A30BB237BA5
:1099E000022B05D1E089394611F090FE0028E6D11E
:1099F000374B1B685B0741D5364B1B68052B3DDD9C
:109A000035482F2116F070F9002858D02F21324800
:109A100016F06AF9411C314B314AD3F804350092F3
:109A2000062040F2017204F075FE27E007A9FFF757
:109A30001FFF0028CCD02046FFF75EFFF0B9A178C9
:109A40000B906D1A8DF81C0097E80300A38AADF8FF
:109A50002A3001220CAB8DF8282083E80300A37D77
:109A60008DF84030236A0E9307A8636A0896ADF814
:109A700024500F93CDF8448001F030F873B0BDE866
:109A8000F08F227B012AB3D1A146E089B4F814A05B
:109A900049F8243F494611F0B7FD606A07A9FFF76E
:109AA000E7FE0028C7D160624946504611F0ACFD80
:109AB000606A07A9FFF7DCFE002899D0BBE70648DB
:109AC0005C2116F011F908B15C21A0E70249A2E778
:109AD000482E0020442E0020ED0404000010014018
:109AE0001D050400C37D0A7830B5002B3DD0C37836
:109AF00022F07F0203F07F031A430A700B7802788A
:109B000003F07F0343EAC2130B70037863B38378D7
:109B1000083B5A425A414B7803F07F0343EAC21391
:109B20004B708A78C58802F00302C5F3861442EAB6
:109B3000850223F07F032343D2B28A704B70CB7827
:109B4000057A03F01F03C5F3C10422F0030243EAC0
:109B500045132243DBB2CB708A70427A23F01F0395
:109B600002F01F021343CB7030BDC47822F04003D3
:109B700043EA8413DBB20B70027923F03F0302F057
:109B80003F0213430B70B9E72DE9F04F824689B0CD
:109B90000D4609B100220A600AF10C039AF8504000
:109BA000019301274FF0000B9AF80900A04203D25D
:109BB000002009B0BDE8F08FDAF84C1007FA04F283
:109BC0000A4264D19AF81720019B8AF80840002ABB
:109BD0000CBF0C26082684429AF80020029306FB4C
:109BE00004F908BFBAF84A608DF818B008BFA6EBB0
:109BF0000906002A14BF4FF004084FF0010806EBD5
:109C000008020492DAF82820039202A8DAF82C203D
:109C1000059203F074FF0028CBD1079A904454B901
:109C20009AF853203AB9DAF818208AF85370C2F338
:109C30000C02AAF806209AF817209AB99AF852202E
:109C400082B914B17846FFF73DFCBAF84A109AF889
:109C500002208A1ADAF86C1053460846FFF705FD11
:109C60008AF8527007995046FFF73CFFDAF86C10FB
:109C700032464944404615F057FF02A803F060FF02
:109C800015B12A6801322A60621C8AF8502001341A
:109C9000E4B289E738B590F84830012B044602D089
:109CA0007846FFF70FFC02F0BDFE237B074A012B2D
:109CB00005BFD2E90315A37DD16805FB031101445B
:109CC00004F13000BDE8384002F083BE8C3600203D
:109CD000F0B5C37D16468278002B324414BF4FF492
:109CE00080734FF4C0739342C7B00F467DD3424B8D
:109CF000002493F84810012907D19D8A818A8D425A
:109D000003D1DD89C1898D4271D00134042C03F166
:109D10007003EED10121FFF7EBFC0546002844D08B
:109D200032463946C06E15F0FFFE002304A92846CE
:109D30000493FFF729FF30F00404064650D1049B3A
:109D400013B12846FFF7A6FF2C4B1B6813F0040342
:109D50004FD02B4B1B68032B27DDB5F84A00294B4E
:109D6000802805AA1F6828BF80200023164683424A
:109D700002F102021CD10022234806F813202F21F1
:109D800015F0B2FF18B32F211F4815F0ADFF411C8D
:109D90001E4B1F4AD3F8043501921E4A00920296C8
:109DA0004FF4AC62042004F0B5FC204647B0F0BD8F
:109DB000E96EC95C4FEA111C01F00F0117F80CC0E5
:109DC00002F802CC795C02F8011C0133CFE70E489F
:109DD0005C2115F089FF08B15C21D5E70A49D7E776
:109DE0002846FFF7E3FC3446DFE70924DDE70824D3
:109DF000DBE71C46D9E700BFA4360020482E002030
:109E0000442E00204C2E0020ED04040000100140E0
:109E1000460504004A030400F0B50D4691B004461F
:109E200010B97846FFF74EFB94F84830022B18D152
:109E3000E188A069FFF7CCFB284AE16913680F0AA3
:109E40000E06591C1160264A361803F007034FEA24
:109E5000031147F1000702EB0313A08A5052C3E934
:109E600002672C22002105A8666D15F06BFE1023F9
:109E700005A88DF8143006968DF81C5000F02EFEC3
:109E80002046FFF793FC174B1B685B071BD5164B4F
:109E90001B68032B17DD15482F2115F025FFA0B1F6
:109EA0002F21124815F020FF411C114BD3F8043527
:109EB000029594F8482001920E4A0092042040F244
:109EC000F31204F027FC11B0F0BD08485C2115F036
:109ED0000BFF08B15C21E4E70449E6E7783600208F
:109EE000F8350020482E0020442E0020ED04040008
:109EF000001001405405040008460021FFF78CBF04
:109F000010B591F84830012B0C4602D07846FFF787
:109F1000D9FA94F851305BB1013B84F851300023F9
:109F200084F85030084BBDE81040186803F010BBAF
:109F3000217B0129204603D1BDE81040FFF76CBF0B
:109F4000BDE81040FFF74FBC883600202DE9F043F4
:109F500006468FB010460F4615469846FFF7CCFCD4
:109F6000044600285ED195F80390B9F1000F40F047
:109F7000AA80062F56D130787378820102F4FE52FF
:109F800042EA9302604B1F4693F84810012928D1FA
:109F9000B3F814C0E9898C4523D1D988914220D1E6
:109FA000B3F858C0A98ABCF1000F01D08C4518D174
:109FB00010F0800FD6F802204FF070033ED003FB64
:109FC0000473A3F85810702000FB047412BAE56CF7
:109FD0001543E564002A63D103212046FFF71CFFE7
:109FE00020E00134042C03F17003CDD1474B1B68F2
:109FF0005B0717D5464B1B68012B13DD45482F2106
:10A0000015F072FE88B12F21424815F06DFE411CFB
:10A01000414B424AD3F804350092022040F2776265
:10A0200004F078FB0FB0BDE8F0833A485C2115F0EE
:10A030005BFE08B15C21E7E73649E9E703FB0473FF
:10A04000DB898B42BFD0314B1B685A07EAD5304BB6
:10A050001B68012BE6DD2F482F2115F045FEB0B11E
:10A060002F212C4815F040FE411C70202A4BAA8A53
:10A07000D3F80435029200FB04740220E2890192B5
:10A08000274A009240F27B6204F044FBCAE7214871
:10A090005C2115F029FE08B15C21E2E71D49E4E7E7
:10A0A0002046FFF7D5FA854203D12046FFF79BFBF8
:10A0B000B8E7002184F850102046FFF765FD2046E0
:10A0C000FFF7E8FDAEE74846FFF78CFA02460028A6
:10A0D000A8D0D5E903012B6A0B93AB8AADF82230E7
:10A0E00009AB83E80300AB7D8DF830302B788DF819
:10A0F0002030EB6A8DF81490CDE906670D93414648
:10A1000005A890478EE700BFA4360020482E002007
:10A11000442E0020ED0404000010014077050400E7
:10A12000A5050400F0B589B005460E460192FFF77B
:10A1300074FB044638B92B78019A3BB13146284666
:10A14000FFF7C6FD0446204609B0F0BDE97DAB78B7
:10A1500001920029134414BF0B210F218B4226D8F2
:10A160000133049305F10C030293AB6A03938DF85A
:10A170001800EB6A059302A803F0C1FC044600280E
:10A18000E1D1079928464F1CFFF7ACFCEB7D019A03
:10A190003BB13146384615F0C7FC02A803F0D0FCAD
:10A1A000D1E72B4639463046FFF75FFAF5E7092439
:10A1B000C9E7000010B54FF4E0720021134815F014
:10A1C000C1FC002405F048FB114B12481C602146DD
:10A1D000802215F0B7FC104B1049114A11489C75AC
:10A1E000C3E9001210494CF25032C3E902211A614E
:10A1F00040F604029A8203F08DF90C4B18600C4B68
:10A200000C481C60BDE8104005F036BCA4360020A8
:10A2100078360020F83500208C3600208096980093
:10A22000F049020011AA020020A107008836002090
:10A230007C3600202596020005F01ABA30B5044697
:10A240008DB000285FD00369002B5CD0C369002B60
:10A2500059D08569002D56D05A788DF804201A7887
:10A260000993838A82F001020B2B8DF80320027B75
:10A2700009D90121022A8DF8001001D1234A927DCB
:10A280005AB904220AE0C17A0029F2D1012A0CBF8E
:10A29000012200228DF8002031D1082213448DF8CC
:10A2A00002200B330C22B3FBF2F3013B8DF8093093
:10A2B00000238DF8083094E8030000238DF8173050
:10A2C00003AB83E803002389ADF81430A37A8DF83B
:10A2D0001630236A0A932046DF2308950B9311F06A
:10A2E000B5FA28B12378012B14BFFF2320230B9349
:10A2F000A28A21696846FFF715FF0DB030BD04231F
:10A300008DF80230D7E70E20F7E700BF8C3600202B
:10A3100030B50A4691B00446002860D04368002B4F
:10A320005DD08569002D5AD003788DF81330002355
:10A330000D9383680B2B94BF017B012101F0010079
:10A340008DF8100000208DF8120031B10733DB08C2
:10A35000013B8DF819308DF81800D4E90401012370
:10A360008DF8273007AB83E80300E389ADF824308C
:10A37000237F8DF82630236A0C95CDE90E23194BE7
:10A380001B685B071BD5184B1B68062B17DD17488E
:10A390002F2115F0A9FCC8B12F21144815F0A4FCF9
:10A3A000411C134BA269D3F8043502922278019222
:10A3B000104A0092072040F6030204F0ABF9D4E9FA
:10A3C000011204A8FFF7AEFE11B030BD07485C21B2
:10A3D00015F08AFC08B15C21DFE70449E1E70E20B3
:10A3E000F2E700BF482E0020442E0020ED040400B8
:10A3F00000100140E605040070B5037B012B90B00E
:10A4000004460D4677D13D4B1B685B0718D53C4B86
:10A410001B68032B14DD3B482F2115F065FC002839
:10A420005ED02F21374815F05FFC411C364B374A70
:10A43000D3F804350092042040F2632204F06AF954
:10A4400004AE0B220021304615F07CFB9DF8113044
:10A45000E288089603F0030343EA82038DF8113083
:10A460002B0E8DF812302B0C8DF813306378022BE5
:10A470000CBF80230023C2F3861242EA03024FF08E
:10A48000060309934FF001038DF82C30A38AADF831
:10A490002E304FF000036DBA8DF810200C93226A15
:10A4A0008DF81C308DF82830E36AADF814500D9209
:10A4B0000F931ED10DF10E0103A811F0B7F9BDF8ED
:10A4C0000C30ADF82A30A37D0BB1114B5B7D8DF8BC
:10A4D00038306FF0010107A8FFF71AFF10B070BD08
:10A4E00008485C2115F000FC08B15C219AE7054999
:10A4F0009CE7E389E5E70020F0E700BF482E002055
:10A50000442E0020ED040400001001401106040058
:10A510008C36002010B591F84830022B0C4602D042
:10A520007846FEF7CFFF022384F8683094F848306D
:10A53000022B06D1E16C2046FFF75EFF08B984F8D4
:10A54000680010BD2DE9F04F0D469DB017469846A6
:10A550000446002800F05882002A00F0558221B9F4
:10A56000092630461DB0BDE8F08F1822394613A8E1
:10A5700015F0DAFA237894F900100020DA09814204
:10A580008DF84020B4BF0422012295428DF841008D
:10A59000E6D39DF85760EEB103F07F0381428DF85A
:10A5A00043308DF842002EDA6278A378920102F4EB
:10A5B000FE5242EA9302ADF84620DB00E27803F057
:10A5C000180343EA521302F01F028DF848308DF849
:10A5D000492018E0C3F38010002903F03F038DF8F1
:10A5E00043008DF8443008DA94F90130002BB4BFF1
:10A5F000082304238DF84230D6E704231A449542F9
:10A600008DF84230ACD30023199398F80030032B17
:10A6100002D97846FEF756FF98F80020CB4B10A8D9
:10A6200053F822301B93FFF7F8F80646002898D11C
:10A630000146082203A815F085FA788803A911F0CD
:10A6400065F828B19DF8413043F001038DF84130A1
:10A65000D7E90312388905F045F8002855D19DF84F
:10A660004130002B3FF47DAF13F001031CBF049A6F
:10A6700014929DF84020002A00F0B481BDF84610E5
:10A680001698FEF7A5FF179BBDF854C0B0494FEAD6
:10A69000036A4FEA132B1AEB000A4FF000074BF145
:10A6A000000B0B88634506D1D1E902239B4508BF07
:10A6B00092453FF456AF0137082F01F11001F0D158
:10A6C000A44B4FF00009184693F84820022A25D1E0
:10A6D0009A8A624522D1702303FB0909B9F8061052
:10A6E000D9F81800FEF774FFD9F81C100A061218E2
:10A6F0004FEA112343F100035B4508BF524535D2B1
:10A7000005214846FFF788FB0FE09DF8413003F034
:10A71000FE038DF84130002BA1D122E709F1010998
:10A72000B9F1040F03F17003CED1DDE91612BDF8C3
:10A730004630BDF8540004F0FFFF002800F0C98047
:10A74000DDE91612BDF84630BDF8540005F02AF8D0
:10A7500000283FF406AF10A8FEF77AFF014610A8C4
:10A76000FFF74AFE10A8FFF7C7F8FAE69B4508BFB7
:10A770009245FFF4F6AE784B1B685B071CD5774B10
:10A780001B68032B18DD76482F2115F0ADFA002841
:10A7900000F00E812F21724815F0A6FA411C714B72
:10A7A0009DF84820D3F8043501926F4A00920420A6
:10A7B00040F2A33203F0AEFF99F84830022B02D0EA
:10A7C0007846FEF77FFEDFF8A8A1DAF800B002F0C5
:10A7D00029F90BEB000109F1300002F0FAF899F8C1
:10A7E0000C30012B1AD199F86830BBB999F8483070
:10A7F000022B02D07846FEF765FEDAE901329AF8BC
:10A80000151002FB013A02F00DF900EB0A0109F103
:10A81000500002F0DEF8012389F868309DF84810F6
:10A82000D9F84C3001228A4013EA020A7FF499AE2B
:10A830001343C9F84C309DF8573099F80920002B84
:10A8400014BF4FF0080E4FF00C0E8A42A5F104051C
:10A850000EFB01FE40F0B5800EEB0503A9F84A306F
:10A86000D9F81820169B9A420AD20DF14C0CBCE87C
:10A870000F0009F10C070FC79CE8030087E80300ED
:10A88000D9F86C00211D2A46704415F04DF9484650
:10A89000D9F84C40FEF7DCFE84427FF462AED9F872
:10A8A0004C104846FFF7A8FD99F80130DA070CD59F
:10A8B00099F81730D9F86C00B9F84A10002B00F05D
:10A8C0008C8043464A46FFF741FB4846FEF76EFF41
:10A8D00081E09DF857209DF84930002A14BF4FF0C1
:10A8E00008094FF00C0903FB099914BF4FF480735A
:10A8F0004FF4C07399453DD9174B1B6859077FF535
:10A9000030AE164B1B68002B7FF72BAE14482F215F
:10A9100015F0EAF988B12F21114815F0E5F9411C2D
:10A92000104B124AD3F804350092CDF8049040F24F
:10A930007F32012003F0EEFE13E609485C2115F09A
:10A94000D3F908B15C21E7E70549E9E748060400C7
:10A95000F8350020A4360020482E0020442E002088
:10A96000ED04040000100140350604002106040037
:10A970008C3600204A46022110A8FEF7B9FE814617
:10A9800000287FF4F8AE014610A8FFF735FD2C2211
:10A99000494605A815F0D6F810238DF8143005A8FF
:10A9A0000223CDF818908DF81C3000F097F8D8E508
:10A9B00016485C2115F098F908B15C21EBE61349C3
:10A9C000EDE6002B08BF0C27BD423FF449AF042140
:10A9D0004846FFF721FA0026C3E543464A46FEF7FC
:10A9E000B1FF72E7002B3FF4BCAD9DF85730601CFF
:10A9F000691E23B1434610AAFFF7A8FAB1E5434602
:10AA000010AAFEF79FFFACE50E26AAE5ED040400B0
:10AA1000F7B5184C00262546374695F84830012BE7
:10AA20000BD101A928460197FFF7AEF8042801D001
:10AA3000019B13B12846FFF72DF90136042E05F1CD
:10AA40007005EAD1002594F84830022B0AD194F819
:10AA50006830022B06D1E16C2046FFF7CDFC08B927
:10AA600084F868000135042D04F17004EBD1012055
:10AA700003B0F0BDA43600202DE9F8430F4606468A
:10AA800010B3144B1C689846E4B9254600F104093C
:10AA9000BD4208D1104BC3E900650123C8F800305E
:10AAA0002046BDE8F88359F835306BB116F93530DA
:10AAB00016F83500002B09DB50B1FEF793FD38B9CD
:10AAC0000135E5E70424EBE70E24E9E70B24E7E78B
:10AAD0000F24E5E77C36002080360020F8B50746D5
:10AAE00010B97846FEF7EEFC0F4E346894B10F4D66
:10AAF00001232B7023791BB954F8043C384698473E
:10AB00002468002CF6D12B78022B03D13168064C37
:10AB100009B92970F8BD0B790E6813B1204603F00E
:10AB20007FFD3146F4E700BF68380020643800201C
:10AB300010B5044610B97846FEF7C4FC0023237212
:10AB4000211D0248BDE8104003F049BD68380020CF
:10AB500010B5044610B97846FEF7B4FC074A1378DE
:10AB6000013B012B04D8022313700123237210BD73
:10AB7000211D0348BDE8104003F052BD6438002099
:10AB8000683800200B888268D25A073222F003020C
:10AB9000134402889BB2043A934288BF00230B807F
:10ABA000704713B58368C91AADF806100DF1060198
:10ABB000FFF7E8FFBDF806308068184402B010BD0A
:10ABC00070B5064615460C4611B97846FEF77AFC74
:10ABD00016B97846FEF776FCB4F1005F24D94FF041
:10ABE0008053D3F80C3103F50023B4EB832F1ED22E
:10ABF0006B1E2344B3F1005F26D94FF08052D2F888
:10AC00000C2102F50022B3EB822F20D2042D02D8B2
:10AC10007846FEF757FC35800023043D7380B380EF
:10AC2000B4602580A37070BDB4F5000F08D94FF053
:10AC30008053D3F80C3103F50053B4EB832FD7D3F3
:10AC40007846FEF73FFCD3E7B3F5000F08D94FF085
:10AC50008052D2F80C2102F50052B3EB822FD5D3EB
:10AC60007846FEF72FFCD1E738B5044610B9784690
:10AC7000FEF728FC6288A36813449B78012B02D15D
:10AC80007846FEF71FFCEFF3108572B6A268A18824
:10AC900011448B78032B0AD12046FFF782FFA3686B
:10ACA000C31A63800023837005B962B638BD0023E0
:10ACB00093706380A380F7E7F8B50E461546044607
:10ACC00010B97846FEF7FEFB16B97846FEF7FAFB98
:10ACD0006288A36813449B78012B02D17846FEF763
:10ACE000F1FB002D37D02388043B9BB29D4232D824
:10ACF000EFF3108772B66288A388E81D20F0030086
:10AD00009A4280B204D29B1A984210DD042016E0C9
:10AD100018D92188891A814209D29842F6D8032984
:10AD200081BFA3689B1804229A7000236380628805
:10AD3000A1688B188D5201229A700020336007B9E8
:10AD400062B6F8BDA26813449B78002BDED19370E5
:10AD50006380A380EBE70920F3E7F8B50D461646BC
:10AD6000044610B97846FEF7ADFB15B97846FEF7F4
:10AD7000A9FBAB78012B02D07846FEF7A3FB2B880A
:10AD8000B34202D27846FEF79DFB16B97846FEF72D
:10AD900099FBEFF3108772B60223AB70E1182E8097
:10ADA0002046FFF7EFFE6288A38893421FBFA36887
:10ADB0009B1800229A7007B962B6F8BD70B50D46AF
:10ADC000044610B97846FEF77DFB15B97846FEF7C4
:10ADD00079FBEFF3108672B6A288A36813449A78C1
:10ADE000042A06D1211D2046FFF7CCFEA288A368C5
:10ADF00013449A78022A05D0032A08D0052006B900
:10AE000062B670BD03229A702B600020F7E7784687
:10AE1000FEF758FBF9E738B5044610B97846FEF757
:10AE200051FBEFF3108572B6A088A16801448B78BE
:10AE3000042B03D12046FFF7B4FE01468878831E19
:10AE40005842584105B962B638BD38B5044610B904
:10AE50007846FEF737FBEFF3108572B6A088A1683D
:10AE600001448878C31E012B05D9831E58425841DE
:10AE700005B962B638BD2046FFF793FE0146F0E7FC
:10AE8000F8B50D46044610B97846FEF71BFB15B918
:10AE90007846FEF717FBEFF3108672B6AB78012BFE
:10AEA00019D0032B22D1A288A36813449D4202D05B
:10AEB0007846FEF707FB0027AF70211D2046FFF7FD
:10AEC00061FEA288A36813449B78042B00D1A7805D
:10AED00006B962B6F8BD6288A36813449D4202D0E9
:10AEE0007846FEF7EFFA0023AB70F1E77846FEF7FD
:10AEF000E9FAEDE710B5EFF3108472B68288816845
:10AF000011448B78042B02D1FFF74BFE0146887861
:10AF1000B0FA80F0400904B962B610BD03794279F5
:10AF20009B1A03F57F2303F6FF7300EB0330704792
:10AF300010B5054884681C22002114F003FE204649
:10AF4000BDE8104004F05CB96C38002070B5194CB5
:10AF5000E36813B97846FEF7B5FA237E13B1784655
:10AF6000FEF7B0FA6368092B02D97846FEF7AAFA11
:10AF7000114D0026636855F823309847022811D0F8
:10AF800003280DD0012810D163680133092B6360B9
:10AF900002D97846FEF796FA237E002BEAD004E029
:10AFA0006660F9E7237E0BB1207070BDBDE870408C
:10AFB000FFF7BEBF6C380020B406040010B503884C
:10AFC000044613B97846FEF77DFA2088084B04EB57
:10AFD000800030EA030203D06288B2F5FE4F05D14B
:10AFE00004EA030000F580500478204410BD00BF3F
:10AFF00000F0FFFF70B504460D4647F6FE66FFF70A
:10B00000DDFFA84207D2844205D24388013B9BB2B0
:10B01000B342F4D870BD0020FCE700000B78032B8E
:10B02000094B04BF00221A761A78012A03D11B7E2D
:10B0300043B9FFF78BBF022A04D10B78032B01D150
:10B04000FFF776BF704700BF6C38002010B50C4C7E
:10B05000E3681878002203F58051184404F0D0FC0E
:10B0600050B9E1680846FFF759FF814206D001F563
:10B070008051E160032010BD0120FCE70220FAE7C7
:10B080006C3800201FB50A4B02221B688DF8002087
:10B090000193084A4FF4805369460120029300F05F
:10B0A000F3FFB0FA80F0400905B05DF804FB00BF83
:10B0B0008C380020883800201FB50123CDE90221FB
:10B0C0000190054A8DF800306946184600F0DCFF13
:10B0D00005B05DF804FB00BF883800202DE9F0477B
:10B0E000254BD86802794179013A91421F4603D134
:10B0F00001205876BDE8F08700F580531F491C7881
:10B100001C440B6813F8045F1D44FFF707FF6388B6
:10B11000013B9BB247F6FE62934200F5805688469B
:10B1200004D920463146FFF765FF0446DFF850A0FA
:10B130004FF001092CB9B4FA84F464097C7601203B
:10B14000D8E7D8F800106288284601F5805104F04D
:10B1500057FC05460028EED004225146204687F8C9
:10B160001890FFF7A9FF28B920463146FFF742FFA4
:10B170000446DFE70020BDE76C3800208C38002053
:10B180008008040038B5104CE36818784FF6FF7259
:10B1900003F58051184404F033FC88B1E368197852
:10B1A0000B4498420CD0657E0849094B0422002DBF
:10B1B00008BF1946FFF780FF20B90120207638BD6F
:10B1C0000120FCE70020FAE76C3800208808040022
:10B1D0008408040070B50C4D0C4EE96830680C789A
:10B1E00004302246FFF768FF58B93268EB6804F074
:10B1F000FC04043414446C611A7813442B6101205C
:10B2000070BD0020FCE700BF6C3800208C380020A7
:10B2100008B5054B054918680422FFF74DFFB0FA41
:10B2200080F0400908BD00BF8C380020783800202D
:10B2300010B5074B074C1968E06840F6FC72043102
:10B24000FFF73AFF10B90120207610BD0020FCE77F
:10B250008C3800206C38002010B50C4CE168084692
:10B26000FFF75CFE81420AD1094B0A4918680422A3
:10B27000FFF722FF40B901232376022010BD01F51C
:10B280008051E1600320F9E70020F7E76C380020E7
:10B290008C380020903800202DE9F74F324D2B6973
:10B2A00013B97846FEF70EF96B6913B97846FEF7C5
:10B2B00009F9DFF8B89047F6FE6A6B69D5E903062D
:10B2C00003EA0908A8EB0308FFF728FE7388013B8F
:10B2D0009BB2534508F5805800F5805B05D9304690
:10B2E0005946FFF787FE064668B1344600275C459D
:10B2F00013D327BB012334B1618847F6FF72914213
:10B3000001D0002BD9D001202AE020460192FFF77E
:10B3100055FE019A04461746E9E7228807EB8202A8
:10B32000904509D986EA040313EA090F04D163881A
:10B33000013B9BB25345E8D90FB90123DCE76869AB
:10B340003A463146FFF7B8FE48B96A693A446A613D
:10B3500014B97846FEF7B6F82C610023CBE700203D
:10B3600003B0BDE8F08F00BF6C38002000F0FFFF95
:10B370001FB50A4B0222DB688DF800200193084AB2
:10B380004FF4805369460120029300F07DFEB0FA2D
:10B3900080F0400905B05DF804FB00BF6C38002068
:10B3A000883800201FB540F6F8731B685A1C0CD172
:10B3B000374B1A68013202D01A68002A4CD14FF07C
:10B3C0008052516913694B4303E0002BF7D0A3F57A
:10B3D0008053304CA3F5805323602F4B1B68DB0256
:10B3E00023D52E4B1B68062B1FDD2D482F2114F073
:10B3F0007BFC002832D02F21294814F075FC411C19
:10B4000040F6F872274B1268D3F80435501C08BF79
:10B410001F4A206808BF1268CDE90120224A009225
:10B42000072040F2672203F075F9236819684B1E64
:10B4300003332AD8C1F30B033BBB1C4A1C48D16021
:10B44000012111701B491383936001330A2B0ED124
:10B450007846FEF737F80FE01B68B8E710485C2124
:10B4600014F042FC08B15C21C6E70D49C8E751F869
:10B4700023408442E9D1536001200F4900F0F4FDDC
:10B48000FFF764FD012004B010BD0020FBE700BF02
:10B49000141000108C380020482E0020442E00206C
:10B4A0005806040000100140800604006C3800209B
:10B4B00071B30200B40604001DB0020010B50446CA
:10B4C00010B97846FDF7FEFF094A107860B1E068D0
:10B4D000D1684379A0EB0333994206D3FFF71EFDF1
:10B4E00081428CBF0020012010BD0020FCE700BF7E
:10B4F0006C380020024B1878003818BF01207047C4
:10B500006C38002038B50E4C2378054613B17846C8
:10B51000FDF7D8FF2B78032B02D07846FDF7D2FF3A
:10B52000EB68E360012000230649A560636020709A
:10B53000238300F099FDBDE83840FFF707BD00BF49
:10B540006C3800201DB00200014B1868704700BF26
:10B550008C38002010B5044610B97846FDF7B2FFCC
:10B5600063681BB123680BB1A36813B97846FDF774
:10B57000A9FFA3685A1E1A4202D07846FDF7A2FF1F
:10B580000023C4E9033310BD70B50E460446F0B184
:10B590008368F3B1EFF3108572B6D0E903319942B5
:10B5A00003D105B962B605250FE04EB18368013BB2
:10B5B0000B40D0E90012304602FB031114F0B4FA3C
:10B5C00023690133236135B962B6284670BD0E2563
:10B5D000FBE70925F9E70025F7E70000024AD2F862
:10B5E0000034002BFBD0704700E0014038B5C0F3B9
:10B5F0000B05EDB9F1B1104C0223C4F80435FFF787
:10B60000EDFF01F6FF7121F47F6121F00F0101448C
:10B61000884206D10023C4F80435FFF7DFFF28462F
:10B6200038BDC4F80805FFF7D9FF00F58050EFE7F3
:10B630001025F4E70925F2E700E0014040EA0103A4
:10B6400070B5064698071ED1FAB112F003001CD15E
:10B650000F4B94080122C3F80425FFF7BFFF0546EE
:10B66000A54206D10A4B0022C3F80425FFF7B6FF16
:10B6700070BD51F825305A1C03D046F82530FFF72D
:10B68000ADFF0135ECE71020F2E70920F0E700BF3D
:10B6900000E0014041F2826398429DBF024B18785E
:10B6A000C0F3C000012070471B39002013B5019082
:10B6B000000C01280C4602D07846FDF703FF084A2B
:10B6C0000849236813600B7843F001030B7083F083
:10B6D0000203C3F340030020137102B010BD00BF8A
:10B6E000143900201B39002013B50190000C0228EA
:10B6F0000C4602D07846FDF7E5FE084B22681A603A
:10B7000022791A71064A002058719871D8711378FD
:10B7100043F00203137002B010BD00BF0C390020CB
:10B720001B39002007B50190000C032802D0784691
:10B73000FDF7C8FE03480522002103B05DF804EBC5
:10B7400014F000BA1439002007B50190000C042849
:10B7500002D07846FDF7B6FE03480822002103B068
:10B760005DF804EB14F0EEB90C39002013B501902C
:10B77000000C03280C4602D07846FDF7A3FE0449CE
:10B780000522204602B0BDE8104014F0CDB900BF3C
:10B790001439002007B50190000C032804D0009153
:10B7A0007846FDF78FFE00990648052214F0BCF993
:10B7B000054A1378002043F00103137003B05DF8CD
:10B7C00004FB00BF143900201B39002013B5019081
:10B7D000000C04280C4602D07846FDF773FE04499D
:10B7E0000822204602B0BDE8104014F09DB900BF09
:10B7F0000C39002007B50190000C042804D00091FA
:10B800007846FDF75FFE00990648082214F08CF98F
:10B81000054A1378002043F00203137003B05DF86B
:10B8200004FB00BF0C3900201B39002000B50A4B77
:10B830001A7B9B688DB0012A08BF03F1FF33049384
:10B840000390022301A88DF808208DF80430FFF73B
:10B8500045F90DB05DF804FBC0380020074A1378A5
:10B86000590709D50178122906D105490868054903
:10B870006FF3820348601370704700BF1B390020CC
:10B8800014390020C03800201FB5124C2378590607
:10B8900002D47846FDF716FE23785A0717D40E4ACD
:10B8A000526802F50052B2F1807F02920FD80B4A23
:10B8B00043F0040312788DF80C2002A94FF44030B5
:10B8C000237005F0AFF810B17846FDF7FBFD04B02A
:10B8D00010BD00BF1B390020C03800201C390020DB
:10B8E0001FB50023ADF80D300C4B9A6802920C4A3C
:10B8F0001B7B8DF80C3013780133DBB202A94FF4B7
:10B90000802013708DF80F3005F08CF810B1784658
:10B91000FDF7D8FD05B05DF804FB00BFC03800207E
:10B920001C39002007B54FF4403005F0CDF84FF436
:10B93000802005F0C9F814220021074814F002F90C
:10B94000064A137823F0600343F04003137003B0FA
:10B950005DF804EBFFF798BFC03800201B390020CA
:10B9600010B50C4C14220021204614F0EBF801F025
:10B9700059F8094B094A0A499A600022C3E903129F
:10B9800058605A61074B6260197862F3C3011970FD
:10B9900010BD00BFC03800209C3800201DBB020035
:10B9A000008793031B39002037B5264D2B78DB0623
:10B9B0002FD42548254B036000F0DCFD2448254B9F
:10B9C000036000F0D7FD2B7813F0200212D103F0B2
:10B9D0000303032B204C1ED02260A260227322821C
:10B9E000FFF77EFF236863602B7843F040032B70E2
:10B9F000FFF74AFF4FF4803005F066F84FF400304F
:10BA000005F062F8154800F0ABFF2B7843F0100307
:10BA10002B7003B030BD124B1A68A2601A792273E2
:10BA20009879597941EA00212182D9790D4B197011
:10BA30000D4B1879884202D00AB92260D2E71B6800
:10BA40002360CFE71B390020B4380020B9BB0200C7
:10BA5000003900205DB80200C03800209C3800206A
:10BA60000C3900201C39002014390020034B1878B1
:10BA700080F00400C0F38000704700BF1B39002035
:10BA800010B501F0D7FC0D4A137BA3B9947B94B990
:10BA9000108AFFF7FFFD70B10123137393681482BE
:10BAA00001339360FFF71CFF2046FFF7BFFE01F054
:10BAB00001FD204610BD0824F9E700BFC038002072
:10BAC00010B501F0B7FC144A547B9CB1917B09BBC3
:10BAD000108AFFF7DFFD044660B1137B51732BB171
:10BAE000012B0BD07846FDF7EDFC03E0FFF7C8FF14
:10BAF0000028F7D101F0DEFC204610BD0846C2E95F
:10BB0000001111731182FFF791FEFFF7E9FEFFF7B5
:10BB1000BBFEEFE70024EDE7C03800201FB5244C42
:10BB2000227B2AB1012A0FD07846FDF7CBFC1CE01E
:10BB3000208AFFF7AFFDC0B1FFF7C2FF638A0BB1E8
:10BB4000013B638204B010BD218A0846FFF7A2FDC5
:10BB500058B142F2B013994288BF6273FFF7B0FF49
:10BB60000028EBD1637B002BE8D1238A01339BB201
:10BB70001E2118462382B3FBF1F201FB12339BB264
:10BB8000002BDBD1A3680293237B8DF80C30094B8B
:10BB9000ADF80D001B788DF80F3002A94FF480200E
:10BBA00004F040FF0028C9D07846FDF78BFCC5E7BC
:10BBB000C03800201C39002010B50378042B0ED1AA
:10BBC00043681B785BB11C4B4269197B047E69BBDF
:10BBD000598AF9B9012C996802D08A4203D810BD5C
:10BBE0004C1CA24218D92A318A42F8D8997B0029E4
:10BBF000F5D184689A60114A1A619981C3E90011EC
:10BC0000FFF76EFEFFF740FE04F11000BDE81040A4
:10BC1000FFF70CBE012CE2D1996801318A42DED1D6
:10BC200001225A73BDE81040FFF74ABF0129D6D15F
:10BC3000012CD4D09968F1E7C03800200000062D0F
:10BC400038B5184B1B785B06054626D5164CD4E94B
:10BC500000239A421FD2207B144B1549012808BFAC
:10BC60000B469A4207D263682268403B9A4208D347
:10BC7000FFF70AFE05E001236373FFF721FF0028A9
:10BC8000F1D0EFF3108072B623685A1C22602B604B
:10BC900028B962B638BDFFF7F7FD0F20FAE700209C
:10BCA000F8E700BF1B390020C0380020FFFF7F00ED
:10BCB00000E0FF0010B50C4A1368144628B10120BB
:10BCC0000A4903448873136010BD13B97846FDF721
:10BCD000F9FB2368013B2360002BF5D1034A9373E2
:10BCE000BDE81040FFF7ECBE94380020C0380020BB
:10BCF00000B58DB00323ADF8080001A88DF8102021
:10BD000003918DF80430FEF7E9FE0DB05DF804FBF9
:10BD1000014B9868704700BFC0380020034B9868FB
:10BD20001B7B012B08BF00F1FF307047C03800209B
:10BD3000044B9B685840C20748BF03F1FF331846C5
:10BD4000704700BFC0380020014B187B704700BF10
:10BD5000C038002070B50E4E337813F0200415D192
:10BD60000C4D43F0200333702973A8602C82FFF739
:10BD7000B7FD2046FFF75AFD337843F04003C5E98D
:10BD800000443370FFF780FD204670BD0820FCE7BB
:10BD90001B390020C03800202DE9F3411D4CDFF88D
:10BDA000788000250221204602F0B0FAEFB2014669
:10BDB0000026B9B96EB12046019102F00EFB0828A9
:10BDC000019906D154F8043C1BB10A463846414655
:10BDD00098470135032D04F1BC04E3D1012002B0E2
:10BDE000BDE8F08154F8043C1BB134F80C2C384603
:10BDF000984734F80C3C02210133204624F80C3CCF
:10BE000002F0A0FA0221204602F080FA0136014633
:10BE1000CFE700BF34390020EC06040038B501211B
:10BE200004460C3002F072FA054620B3164BC4F8F3
:10BE30009C300023C4F8A03003786268012B07D03F
:10BE4000022B1AD07846FDF73DFB4FF4FA7306E05B
:10BE500081688B1A990829234B4303F5FA730B4A1F
:10BE6000934294BFC4F8A830C4F8A8200123C4F8B2
:10BE7000AC4084F8B830284638BD83689B1A1A0B4A
:10BE8000034B5343E9E700BFB5BE020060850100E4
:10BE9000084C010010B50446FFF7C0FF48B104F19B
:10BEA0009C0006F07BF820B17846BDE81040FDF715
:10BEB00009BB10BD2DE9F74F494B1B7807460C46CF
:10BEC0003BB106F0A1F8002384F8B83003B0BDE818
:10BED000F08F01F10C09D1F8A8504846012102F079
:10BEE00015FA064610B97846FDF7ECFADFF8F8A027
:10BEF000A5F5FA784FF0290B00253378012BA8EB34
:10BF0000050506D0022B3BD07846FDF7DBFA00236F
:10BF10001FE06368B268B5FBFBF5D21AAD0095422D
:10BF200028BF154625B901937846FDF7CBFA019B4A
:10BF3000F168706823F003032A4619441844FFF798
:10BF40007DFB10B17846FDF7BDFA63681D4465605E
:10BF5000B36862689A422AD106F056F84846012131
:10BF600002F0F0F90023636084F8B8301D4B1868C4
:10BF700001F0EEFA204603B0BDE8F04FFFF78ABFAC
:10BF80006368B268B5FBFAF5D21A2D03954228BF53
:10BF9000154625B901937846FDF794FA019B706820
:10BFA00023F0030329461844FFF720FBC9E701F0FB
:10BFB00033F93378C51B48BF3D1A012B0BD0022B38
:10BFC0000BD07846FDF77EFA00232B44434594D9E5
:10BFD00006F01AF8CEE72923F7E75346F5E700BF46
:10BFE0002439002020390020084C010070B51B487E
:10BFF0001B4C01F08FFA1B4B186004F11C0341F23B
:10C0000003060825636104F10C0004F118032361A1
:10C01000A681A57302F0BDF904F1D803C4F8D030AD
:10C0200004F1C80004F1D403C4F8CC30A4F8C8600B
:10C0300084F8CA5002F0ADF904F5CA73C4F88C3123
:10C0400004F5C873A4F8846184F88651C4F8883173
:10C0500004F5C270BDE8704002F09BB999BD0200C2
:10C060002839002020390020022838B504460D4622
:10C0700002D97846FDF726FA0248BC2303FB0404E4
:10C08000A56038BD2839002002282DE9F84F054663
:10C090000C46914602D97846FDF714FA14B9784651
:10C0A000FDF710FA2378012B12D16368990702D0AB
:10C0B0007846FDF707FAE3689A0702D07846FDF75D
:10C0C00001FAA3689B0711D07846FDF7FBF90DE054
:10C0D000022B0DD16368C3F30B0313B17846FDF750
:10C0E000F1F9A368C3F30B03002BEDD1A36813B9D7
:10C0F0007846FDF7E7F9EFF3108872B6BC26234FB8
:10C100006E4306F10C0BBB440021584602F0FEF8CA
:10C11000824690B30021584602F014F910222146BD
:10C12000504613F001FDB9F1000F03D0BB195B8835
:10C13000A9F80030BC2000FB05756B8895F8B84065
:10C1400001336B8004BB124B1D78BDB9B819FFF7E2
:10C1500065FEB8F1000F0ED162B6444640B106F15B
:10C160009C00384405F01AFF10B17846FDF7AAF993
:10C170002046BDE8F88F2C46F0E70424B8F1000F04
:10C18000F6D1A0460020E7E70024F7E72839002091
:10C190002439002070B5EFF3108672B6144C236872
:10C1A00018BB13B97846FDF78DF92368013B23606E
:10C1B00093B9104D95F8B83013B92846FFF76AFEC9
:10C1C00095F8743113B90C48FFF764FE95F83032D6
:10C1D00013B90A48FFF75EFE2368094A003B18BFFF
:10C1E0000123137006B962B670BD01332360F3E713
:10C1F0005C3B002028390020E4390020A03A0020D0
:10C200002439002010B1024B800B185C704700BF2E
:10C21000FC06040012DF704713B501F007FD044669
:10C22000D8B1134B1B685B0617D5124B1B68012B4B
:10C2300013DD11482F2113F057FD80B12F210E4837
:10C2400013F052FD411C0D4B0D4AD3F804350092FA
:10C2500001947522022002F05DFA02B010BD06487A
:10C260005C2113F041FD08B15C21E8E70249EAE7EF
:10C27000482E0020442E002000070400001001403A
:10C280001C07040070B58AB006F07EFB0446002847
:10C2900034D000238DF8103006460FCE05AD0FC503
:10C2A00033682B60627D052A0CD9207D00F00F03D6
:10C2B000072B07D004AB063A04F11D0100F00F0074
:10C2C00005F0F2F9114B1A68AAB104AB0393237D70
:10C2D000C3F303038DF80430637D062B89BF063B4F
:10C2E00000238DF8053004F11D0398BF8DF805304B
:10C2F000029301A89047204606F030FB06F05EFB53
:10C3000080F00100C0B20AB070BD00BF683B0020E1
:10C3100010B5114C2378022B8CB005D07846FDF770
:10C32000D1F801200CB010BDFFF7A0FB18B90B48E5
:10C33000FEF7FEFBF5E706F0F3FA03232C220021BB
:10C3400001A8237013F0FEFB1D2301A88DF8043013
:10C35000FEF7C4FBE5E700BF643B0020382E002059
:10C3600000B50A4B1A78042A8DB00CD105221A7038
:10C3700000212C2201A813F0E5FB1C2301A88DF855
:10C380000430FEF7ABFB0DB05DF804FB643B00200E
:10C3900008B50378122B08D10448FEF7D9FB044BEB
:10C3A0001868BDE8084001F0D3B808BD382E002059
:10C3B000603B0020F7B5314F3A780546002A52D14C
:10C3C000002852D0067A0F2E01D0062E4FD105F04C
:10C3D0003BF9E868002843D0FDF786F80DF1070027
:10C3E000FFF718FF0446C0BB9DF80730012B40D172
:10C3F000FDF7A6F800F09EFA304600F0CDFFE87891
:10C4000000F02AF900F002FE05F05EFD1C4806F07F
:10C4100077FB05F0CDFA05F01DF9FFF7E7FD04F015
:10C4200031FA00F049FC05F0CFF804F0EBFE2846A5
:10C4300001F050FBFDF7BEFE03F0CCFDFCF740FF22
:10C4400008B1062817D10F4801F064F80E4B1860A8
:10C450000E4B00221A6001233B70204603B0F0BD52
:10C46000FDF74AF8BAE70824F7E70E24F5E70724B2
:10C47000F3E70224F1E70446EFE700BF643B002046
:10C4800085C2020011C30200603B0020683B00200F
:10C4900037B5254D2A78012A04D0043A012A36D925
:10C4A000082426E001F024FBFDF7C6FEFCF708FF98
:10C4B000044650B3062828D01C4B1B685B0418D5D3
:10C4C0001B4B1B68012B14DD1A482F2113F00CFCA9
:10C4D00090B12F21174813F007FC411C164B174A47
:10C4E000D3F804350092019440F28912022002F040
:10C4F00011F9204603B030BD0E485C2113F0F4FB67
:10C5000008B15C21E6E70B49E8E700F071FF05F0B0
:10C5100037FD04460028ECD102232B70084B186825
:10C5200001F016F8E5E700BF643B0020482E00202C
:10C53000442E0020000704000010014045070400BD
:10C54000603B002008B5084B1A78032A0AD1042260
:10C5500006481A7005F0DAFC18B17846FCF7B2FF0D
:10C56000002008BD0820FCE7643B002061C30200F6
:10C57000FDF764BEFEF7DCBAFEF7EABA08B500F0D4
:10C5800015FD002008BD07F047BB0000044B1A68EA
:10C590000132B2F1704F08BF01221A60186870476B
:10C5A0006C3B002010B5044610B97846FCF78AFFB2
:10C5B0000023C4E9003310BD38B50D46044610B958
:10C5C0007846FCF77FFF15B97846FCF77BFF002320
:10C5D0006B60EFF3108372B6226822B92560656044
:10C5E00003B962B638BD62685560F8E710B5044615
:10C5F00010B97846FCF766FFEFF3108272B6206838
:10C6000020B90023636002B962B610BD436823609D
:10C61000002BF8D1F5E710B5044610B97846FCF7C1
:10C6200051FF206810BD35DF7047000008B54FF09E
:10C63000FF30FFF7F8FFBFF34F8F0549054BCA687E
:10C6400002F4E0621343CB60BFF34F8F00BFFDE7FE
:10C6500000ED00E00400FA0507289ABF024B33F80A
:10C660001000FA20704700BF6A070400024B5868A8
:10C67000103840B2704700BF00ED00E000280346CC
:10C68000B8BF00F11F03084A5B1152F82330424241
:10C6900002F01F0200F01F0058BF504223FA00F0C2
:10C6A00000F00100704700BF00E100E046DF704786
:10C6B00030B501F110031032103013F8014D12F8AB
:10C6C000015D8B4284EA050400F8014DF5D130BDCF
:10C6D0002DE9F047144690B002F10F0510220F46E5
:10C6E0002D1101460DEB0200984604F00F0413F0E3
:10C6F0001BFA002D51D0B4FA84F6760900211022DD
:10C7000008A813F01FFAC6F1020A04A8FFF7CEFF2B
:10C710005FFA8AFA01210CAA9DF930000F23914695
:10C7200092F800C012F801EF4FEA4C0C013B4CEAC2
:10C73000DE1C9BB202F801CC002BF1D19DF83F30FA
:10C740005B00DBB20028B8BF83F087038DF83F3071
:10C750004B1C9A454FF00201DDD2013D07EB05115C
:10C76000EEB10CAA6846FFF7A3FF102200210CA827
:10C7700013F0E8F90024AC4223DB4A46694608A8D6
:10C78000FFF796FF04A8FFF791FF102249464046A5
:10C7900013F0CAF910B0BDE8F0872E46AEE7224686
:10C7A000684613F0C1F910AB2344802203F8402CF3
:10C7B0000134102C02D10CAA6946D3E70DF80460AD
:10C7C000F6E707EB0412494608A8FFF771FF04A833
:10C7D000FFF76CFF0134CEE738B5114B1A680446F9
:10C7E0002AB11A6840685268821A002A0DDA1A685B
:10C7F00062611C609A88013292B29A8012B97846BE
:10C80000FCF760FE0123237038BD1A681546526993
:10C810001AB15168091A0029F8DB62616C61E9E715
:10C82000743B002010B5124B1A68824204461A4627
:10C830000BD142691A609A8892B2511E89B29980CE
:10C840008AB97846FCF73EFE0DE01B685BB159697A
:10C85000A1420BD16169596193889BB2591E89B27B
:10C860009180002BEDD00023237010BD0B46EDE727
:10C87000743B0020014B186800F06ABE703B00203A
:10C88000044B1A6822B11B680349586800F054B978
:10C8900000F0A8B9743B002075C802002DE9F041F2
:10C8A00000F0C0F8224E054637464FF000083368C6
:10C8B00023B133685B685B1B642B06D400F0B2F8CD
:10C8C000FFF7DEFF0120BDE8F08134682378012BFB
:10C8D00002D07846FCF7F6FD63693B60BB88C4F87C
:10C8E00014809BB25A1E92B2BA8013B97846FCF7F4
:10C8F000E9FDA36813B97846FCF7E4FD0223284656
:10C9000021692370A368984700F08CF82378022BE4
:10C910000546CCD1E2680AB92270C8E763681344BF
:10C92000591B6429FBD463602046FFF755FFBEE71F
:10C93000743B002008B508220021064813F002F9D4
:10C94000054800F0E7FD054B1860BDE8084000F021
:10C950005CB800BF743B00209DC80200703B002003
:10C9600010B5044600F0CEFE10B97846FCF7AAFDDB
:10C9700014B97846FCF7A6FDA36813B97846FCF70E
:10C98000A1FD2378012B02D17846FCF79BFD002303
:10C9900063612046FFF720FF00F044F8BDE8104037
:10C9A000FFF76EBF10B5044600F0ACFE10B9784634
:10C9B000FCF788FD14B97846FCF784FD2046FFF7A4
:10C9C00031FF0023636100F02DF8BDE81040FFF750
:10C9D00057BF38B504460D4600F094FE10B97846AE
:10C9E000FCF770FD14B97846FCF76CFD2046FFF7A4
:10C9F00019FF0023636120466560FFF7EDFE00F03C
:10CA000011F8BDE83840FFF73BBF08B50FF00EFA4C
:10CA100038B90FF041F920B17846BDE80840FCF77D
:10CA200051BD08BD10B5EFF3108072B60C4A0D4B26
:10CA30001968D2F80435D2F80441012C04BFD2F8A9
:10CA40000435013100B962B6074843EA01614FF489
:10CA500080420023E0FB0123D00B40EA434010BD9D
:10CA6000001001407C3B002040420F0010B50A4BF3
:10CA70000A4C4FF40032C3F84823C3F80823226855
:10CA800012B97846FCF71EFD2468FFF7CBFF23465A
:10CA9000BDE81040184700BF00100140883B00204F
:10CAA00010B5EFF3108072B61E4B1F490022C3F879
:10CAB00004210A6801320A6000B962B61B4A116893
:10CAC00009B31168013911601268E2B9184AD3F844
:10CAD00004051168884217D2EFF3108072B6D3F8BC
