:020000022000DC
:1060000000FD002099AD0300C1AD0300C3AD030046
:10601000C5AD0300C7AD0300C9AD0300000000001B
:10602000000000000000000000000000CBAD0300F5
:10603000CDAD030000000000CFAD0300D1AD0300E3
:10604000D3AD0300D3AD0300D3AD0300D3AD030044
:10605000D3AD0300D3AD030081690200D3AD0300CB
:10606000D3AD0300D3AD030095960300D3AD030079
:10607000D3AD0300D3AD0300D3AD0300D3AD030014
:10608000D3AD030081A50300B9510300D3AD0300D4
:1060900051A60300D3AD0300656E0200D3AD03002B
:1060A000D3AD0300D3AD0300D3AD0300D3AD0300E4
:1060B000D3AD0300D3AD03000000000000000000DA
:1060C000D3AD0300D3AD0300D3AD0300D3AD0300C4
:1060D000D3AD0300D3AD0300D3AD03000000000037
:1060E00000000000000000000000000000000000B0
:1060F00000000000000000000000000000000000A0
:10610000000000000000000000000000000000008F
:10611000000000000000000000000000000000007F
:10612000000000000000000000000000000000006F
:10613000000000000000000000000000000000005F
:10614000000000000000000000000000000000004F
:10615000000000000000000000000000000000003F
:10616000000000000000000000000000000000002F
:10617000000000000000000000000000000000001F
:10618000000000000000000000000000000000000F
:1061900000000000000000000000000000000000FF
:1061A00000000000000000000000000000000000EF
:1061B00000000000000000000000000000000000DF
:1061C00000000000000000000000000000000000CF
:1061D00000000000000000000000000000000000BF
:1061E00000000000000000000000000000000000AF
:1061F000000000000000000000000000000000009F
:1062000010B5054C237833B9044B13B10448AFF3F0
:1062100000800123237010BDB02E0020000000007C
:1062200040DD030008B5034B1BB103490348AFF33E
:10623000008008BD00000000B42E002040DD0300F7
:10624000154B002B08BF134B9D46A3F5803A002148
:106250008B460F461348144A121A16F061F90F4B79
:10626000002B00D098470E4B002B00D09847002001
:10627000002104000D000D48002802D00C48AFF3A7
:10628000008016F0FDF82000290000F015F916F046
:10629000E3F800BF0000080000FD0020000000003F
:1062A00000000000B02E0020C459002000000000B3
:1062B0000000000041DF704707B50378232B2ED183
:1062C000184B1B685B0416D5174B1B68032B12DD9C
:1062D00016482F2116F0F6F9C0B12F21134816F0F9
:1062E000F1F9411C124B134AD3F8043500920420F3
:1062F000AC220FF0DBFE0322C8214FF4F01000F0B7
:10630000E1FA03B05DF804EB0AF040BE07485C21F7
:1063100016F0D8F908B15C21E0E70449E2E703B0E0
:106320005DF804FB242E0020202E00205CC7030013
:106330000010014077C7030030B50378093B89B0EE
:106340000446042B61D8DFE803F08C909903030026
:106350000379022B5BD0042B6BD1B0F81320B0F87B
:1063600009309A425AD1D0F80F20D0F805309A421D
:1063700054D1D0F81530D0F80B2093422CBF002315
:106380000123002B55D004A903A80AF00FFE18B171
:10639000414A662114F02BFD404B039A404D1A44AC
:1063A000404B5108B3EB520F94BF01F6FF7303F655
:1063B000FF731D403C4B1B685B0417D53B4B1B68B0
:1063C000032B13DD34482F2116F07CF940B32F2125
:1063D000314816F077F9411C354B364AD3F804356D
:1063E00000920195772204200FF060FE20792A4662
:1063F000611D0AF04DFB18B1274A792114F0F7FC12
:1064000000214FF4F01000F053FA09B030BDC27B08
:1064100043799A4202D1037C8279AEE70023B0E748
:106420001D485C2116F04EF908B15C21D0E71A49ED
:10643000D2E704A809F01AFC0028E6D19DF81C3028
:106440005A1E012A02D9083B012BDED82079611D92
:106450000AF068FB0028D8D00F4A902114F0C7FC3E
:10646000D3E701214FF42020CDE700214FF4F010B5
:1064700000F01EFA01214FF4C020C4E74FF4F010E1
:10648000002100F015FA20790AF092FB0028BCD018
:10649000014AA121E2E700BF5CC7030000600200DF
:1064A00000F0FFFF68E00300242E0020202E0020D3
:1064B0000010014090C7030000B58DB014F010FA31
:1064C00018B1834ADA2114F092FC824C00F02CFAC5
:1064D000814A04214CF287000FF0CCFD23685D0453
:1064E00018D57E4B1B68032B14DD79482F2116F03D
:1064F000E9F8002800F0A6802F21754816F0E2F890
:10650000411C774B774AD3F8043500920420DE22F1
:106510000FF0CCFD00F006FB0021242203A815F0AB
:10652000FFFF01238DF80C3007238DF80F30062371
:106530008DF814306C496D4B079303A80AF0ECFCFE
:1065400018B30B2840F0AC80236858041DD5634E67
:106550003268032A19DD5E482F2116F0B3F80028AF
:1065600079D02F215A4816F0ADF8411C5C4D604A95
:10657000D5F8043500920420C7220FF097FD236858
:10658000590402D53368032B6EDC5A485A4B03601A
:106590000DF056FD23685A0417D5504B1B68032B8A
:1065A00013DD4B482F2116F08DF800287DD02F21C8
:1065B000474816F087F8411C494B504AD3F8043538
:1065C00000920420E4220FF071FD474B197879B94D
:1065D000142203A815F0A4FF494B089303A8494BC4
:1065E000099300F0FFF818B1394AF52114F0FFFBC8
:1065F0000AF01EFD00F0F6F90AF010FC18B1344A5A
:10660000FF2114F0F4FB23685B0418D5334B1B689F
:10661000032B14DD2E482F2116F054F800284DD0FE
:106620002F212B4816F04EF8411C2D4B364AD3F83B
:1066300004350092042040F201120FF037FDFFF7FD
:1066400039FEFCE722485C2116F03CF808B15C21D9
:1066500053E71F4955E71E485C2116F033F808B18F
:106660005C217FE71A4981E719482F2116F02AF8A3
:1066700068B12F21164816F025F8411C234AD5F899
:10668000043500920420C8220FF010FD7DE7104869
:106690005C2116F017F808B15C21EBE70C49EDE737
:1066A0000B4ACD2114F0A3FB6FE709485C2116F0DB
:1066B00009F808B15C217BE705497DE704485C21C6
:1066C00016F000F808B15C21ABE70149ADE700BF67
:1066D0005CC70300242E002049600300202E002008
:1066E00000100140BBC70300CC2E0020B96202009D
:1066F000E3C70300D02E0020396302005AC803000C
:1067000074C803009FC8030089C8030031C8030090
:1067100010B50749074807F0E1FD024638B90649B8
:1067200006484969BDE81040012307F0F0BD10BDDF
:10673000FC2E002018320020E02E0020E430002043
:1067400010B50378023B082B2CD8DFE803F01B05BB
:10675000102B2B2C2B2B38001E4B9B6813B3007A6D
:1067600000B31D4A01211170BDE810401847194BB4
:10677000DB68BBB1184A1178A1B100211170BDE8E6
:1067800010401847154B1A78124B42B91B6913B1C8
:1067900011490A709847BDE81040FFF7B9BF5B6820
:1067A000002BECD110BD0B4B0D489969102207F05E
:1067B000F3FD0028F6D0BDE8104014F00BBBD0E983
:1067C00002100AF02DFB08B114F004FB034B012268
:1067D0001A70E7E7E02E0020DC2E0020DD2E0020DE
:1067E000E430002070B5164A164E5168044686B053
:1067F000106803AB03C31189927A19809A700FCC89
:1068000035460FC594E8070085E80700B369A3B1D2
:106810000D4B00930D4A0E490E4803AB07F030FDB7
:1068200048B90D4809F042F901460A4807F042FD0F
:1068300008B9FFF76DFF06B070BD0720FBE700BF8A
:10684000AFC80300E02E002041670200FC2E0020AC
:1068500018320020E43000201C2F002070B5104CAE
:10686000206808B914F0B6FA4FF0A0450D4ED5F8DF
:10687000043532685340C5F804352368013B236072
:1068800063B9094814F0E6F83268D5F8043523EA0C
:106890000203064A12681343C5F8043570BD00BFF1
:1068A000583200205C320020603200208832002004
:1068B0004FF0A04311B1C3F80C057047C3F80805A9
:1068C00070470000F8B52AB3132923D9124B134C93
:1068D0005200013A4FF0A0451A602060D5F8043507
:1068E00018400F4B4FF4FA76186000274FF4004021
:1068F000E0FB01674FF47A7200233046394615F009
:106900002FFC00220146074814F058F810B92368FC
:10691000C5F80C35F8BD00BF583200205C320020AD
:10692000883200206032002008B54FF0A0430322D7
:106930004FF40031C3F84427C3F808154FF4802101
:10694000C3F84827C3F808154FF40021C3F84C27B3
:10695000C3F80815C3F850274FF48012C3F8082570
:106960000548064A012114F017F818B1BDE808409F
:1069700014F030BA08BD00BFBCC803005D68020057
:10698000F8B5134B134D144E144F0024C3F87C413B
:106990004FF0A04315F8011BD3F8102501238B40BD
:1069A000934310D03368D7F80425991A48BFD11AF9
:1069B00043F23333994206D9D7F804353360084B94
:1069C00020461B6898470134042CE1D1F8BD00BF74
:1069D00000600040C0C80300843200200010014065
:1069E000803200202DE9F0410446CEB038B1424D4E
:1069F0002B685A0403D5414E3368032B02DC4EB09A
:106A0000BDE8F0813E4B18680DAB611E04F10F0C20
:106A10001F4611F8012F4FEA121E02F00F0210F864
:106A20000EE083F800E0825C5A70614503F10203D6
:106A3000EFD10023334887F820302F2115F042FE94
:106A4000002846D02F212F4815F03CFE411CDFF8CE
:106A5000C4802D4AD8F8043501922C4A009202973E
:106A6000422204200FF022FB2B685B04C7D5336859
:106A7000032BC4DD23482F2115F024FE002831D03C
:106A80002F21204815F01EFE411CE27B2068D8F81B
:106A900004350B92A27B0A92627B0992227B0892B8
:106AA000E27A0792A27A0692627A0592227A049298
:106AB000E28852BA92B20392A28852BA00BA92B253
:106AC000CDE90102124A0092042043220FF0EEFAAF
:106AD00095E70C485C2115F0F5FD08B15C21B2E7A3
:106AE0000849B4E707485C2115F0ECFD08B15C21CA
:106AF000C7E70449C9E700BF242E0020202E00204C
:106B0000282E0020C4C80300ECC80300FEC8030000
:106B100006C903000010014060DF704769DF70475D
:106B20000DF090BA10B588B000F04AF908B114F031
:106B300051F92B4B0393039B04930C22002105A8CE
:106B400015F0EEFC0023049A8DF8143005A90120FD
:106B5000FFF7E4FF08B114F03DF90C22002105A86D
:106B600015F0DEFCF823049A059305A9A120FFF790
:106B7000D5FF08B114F02EF904A8FFF7CDFF039B51
:106B8000049A9A4204461CD0164B1B685B0418D525
:106B9000154B1B68012B14DD14482F2115F092FDB5
:106BA000A8B12F21114815F08DFD411C104B049AFE
:106BB000D3F8043501920F4A00920220AB220FF065
:106BC00075FA14B1204614F005F908B010BD074855
:106BD0005C2115F077FD08B15C21E3E70349E5E7A7
:106BE000F02D0020242E0020202E002046C9030076
:106BF0000010014076C9030070B5EFF3108672B63D
:106C00000C4A946801239CB993600B4B0B4DD3F84D
:106C1000801029401160C3F88050D3F8841051606F
:106C20004FF0FF32C3F88420047006B962B670BD1D
:106C30000370FAE73859002000E100E0FC06FFBDD0
:106C400010B5084B9A685AB150B9EFF3108172B67B
:106C5000054A1C6814605C685460986001B962B6AB
:106C600010BD00BF3859002000E100E001600B6852
:106C700043604A68934204BF0023436070474368FF
:106C800043B1026891680B4443605268934204BF69
:106C90000023436070474BDF704700001FB50D4C69
:106CA00001A8FFF7F8FF70B9214602A8FFF7DEFF41
:106CB000039B002BF4D00198D3E90021904702A850
:106CC000FFF7DDFFF4E7052801D014F083F804B0E6
:106CD00010BD00BFB0C9030061DF704730B5114B74
:106CE0001B7891B0E3B1104D34240DF1020103A8DB
:106CF000ADF80240FFF7F0FF70B9294601A8FFF791
:106D0000B5FF029B002BF0D003A8D3E900219047E8
:106D100001A8FFF7B4FFF4E7052801D014F05AF8F2
:106D200011B030BD8C320020BCC9030010DF7047A9
:106D300013B5044609496846FFF798FF019808B95A
:106D400002B010BDD0E900212046904718B1684636
:106D5000FFF795FFF2E71120F2E700BFCCC903006F
:106D600013B5044607496846FFF780FF019B0BB93E
:106D700002B010BD2046D3E9002190476846FFF7D6
:106D80007EFFF3E7E4C903000B4991F816335A0973
:106D9000EC231341DB0706D5084B9A683AB94FF448
:106DA00080030B60704742F2020014F013B81A68B7
:106DB00042F480021A60704700E100E03859002078
:106DC000F7B5194F3C7864BB184E01252046357045
:106DD000FFF7AEFF112821D02046FFF7C1FF144B6B
:106DE0008DF80340186801900DF10300FFF704FFD0
:106DF000104901A8FFF79AFF0446B0FA80F0400955
:106E000038709DF80300FFF71BFF3CB90A4B347044
:106E10001C70FFF7B9FF2846FFF7A2FF204603B01A
:106E2000F0BD0824FAE700BF8E3200208D3200202A
:106E3000C8C90300DD0B03008F32002007B50849E5
:106E40006846FFF713FF019B13B903B05DF804FB1D
:106E5000D3E9002090476846FFF711FFF3E700BF32
:106E6000D8C90300FFF7EABF38B5827802F0030300
:106E70000446032B23D8DFE803F002141A1E9308FC
:106E8000154A1648126813440268A3600021F2B143
:106E900095685D1B002D17DAD9B91146E1600460D1
:106EA00038BD02F0FC0303EB92035B00E8E79208B5
:106EB00064235343E4E7920841F27073F9E778469C
:106EC00009F08CFF0023DBE71146D268DFE70029D9
:106ED000E4D0CC60E260E3E7A8320020B0320020CA
:106EE000032808B503D8044B53F8200008BD7846A2
:106EF00009F074FF0020F9E7F0C903002DE9F04123
:106F0000584D2B78ABB1584B584E5F680DF0FAFADC
:106F100004463078FFF7E4FF3278554B2044C01B1D
:106F2000002A42D14CF2503290423ED91A680132C6
:106F30001A60DFF84C81D8F80020002A00F0898020
:106F40004A4E9378307803F003038342374666DD78
:106F5000474B94681B68E31A464C5C43FFF7C0FF3D
:106F6000D8F80030B4FBF0F09B78C3F3010403F0D1
:106F70000303022B20D0032B31D0012B47D10A224F
:106F8000B0FBF2F302FB1300002840D10DF0BAFA77
:106F900000F5742101F5107134702B78002B50D05E
:106FA000BDE8F04130480DF084BA1A683149B0FBB1
:106FB000F1F010441860BCE7337863B96422B0FB89
:106FC000F2F302FB130010BB0DF09CFA2A490223D6
:106FD00001443B70E1E7012B19D10A22EFE7337836
:106FE00063B941F27072B0FBF2F302FB130070B9A7
:106FF0000DF088FA214903230144EAE7012B02D16D
:107000004FF41672EFE7022B01D13C22EBE70DF0B3
:1070100079FA04463878FFF763FF2118BDE70DF0D1
:1070200071FAD8F800300446987800F00300FFF7B2
:1070300057FFD8F800309B78C3F301032118337051
:10704000ABE70948012341602B70BDE8F0410DF02A
:10705000F7B92B7823B1BDE8F04103480DF012BA1F
:10706000BDE8F081AC32002090320020AD3200202B
:10707000A8320020A0860100809698000046C32315
:10708000B03200202DE9F341244B1B78032B2AD882
:10709000DFE803F0021B1F23214A1368013313604A
:1070A000204B214E1E4D00221A70B04634683CB170
:1070B000A3682A6893421AD02A689B1A002B16DB11
:1070C000FFF71CFF02B0BDE8F081154A13680A33D0
:1070D000E5E7134A13686433E1E7114A136803F5DF
:1070E000BB531033DBE7784609F078FED8E72788F2
:1070F000E368C8F8003001A900233846019301F085
:10710000E7FC10B1784609F069FE384663680199DA
:1071100098472046FFF7A8FEC8E700BFAD32002021
:10712000A8320020AC320020B032002010B5084C4C
:1071300018220021204615F0F3F9064B064AA360F9
:1071400000231360054A1360054A137010BD00BF89
:107150009032002085700200A8320020B03200205A
:10716000AC32002008B5054B1B7813B104480DF074
:1071700089F9BDE80840FFF7D9BF00BFAC32002055
:1071800090320020F8B50D461646044610B97846F0
:1071900009F024FE124F0DF0A9FE3B6800220BB14E
:1071A000A34215D105F0030545EA8605A5709BB1FC
:1071B000DB6882B93B602EB12046FFF755FE3B6885
:1071C0009C4201D1FFF79AFEBDE8F8400DF0CEBE1B
:1071D0001A46DB68E3E7D360002EF5D0ECE700BF8A
:1071E000B03200200A4B93F8390093F85D2080F00C
:1071F0000100404280B24AB14FF6FF72904204D083
:10720000586D1B6BC01AC00F70470120704700BF3C
:10721000B432002038B5154C242303FB0043054647
:1072200093F8393013B9784609F0D8FDB4F86030D6
:1072300013B9784609F0D2FD242202FB0543002150
:1072400083F83910B4F86030013B9BB2A4F8603089
:107250001BB94FF6FF73A4F8623002FB0544A06A25
:1072600011F007FE0023A36238BD00BFB432002036
:107270002DE9F8432D4DB5F86030064613B9784630
:1072800009F0ACFD294C06F57A79002794F83930DD
:107290001FFA87F83BB3236BA3EB0903002B22DA19
:1072A000A38DA26A04F11801404600F0EFFE1028F9
:1072B0000CD8DFE800F00E0B0B0B0E150B150E159E
:1072C0000B0B0B0B0B0E15000127DFE7784609F0BF
:1072D00085FD94F83830013BDBB284F83830EBB9E7
:1072E0004046FFF797FF2434002FEDD0FFF77AFFD9
:1072F000B5F86030A5F86200ABB1012802D9784634
:1073000009F06CFDB5F86230242202FB03531B6BBD
:107310009A1B48BFF21AEA60BDE8F883D4E90C3240
:1073200013442363DFE7EB60F6E700BFB4320020CD
:1073300010B5064C64220021204615F0F1F8044BEC
:10734000A3604FF6FF73A4F8623010BDB432002082
:10735000717202002DE9F0470128BDF820A0064611
:1073600088461746994602D9784609F037FDB8F1A4
:10737000000F02D1784609F031FD17B9784609F0BF
:107380002DFD98F800305B0702D1784609F026FD04
:10739000B9F1000F02D1784609F020FDBAF1000FD3
:1073A00002D1784609F01AFD274C242303FB06433B
:1073B00093F8393013B13046FFF72CFF0DF0A2F8E7
:1073C000844697E80F00242505FB064505F1180EB5
:1073D0008EE80F00C5F82890A5F82CA098F800308A
:1073E000C3F3020385F8383098F80000C3084CF264
:1073F000503003FB0000012385F83930B4F86030C9
:107400006863604401332863A4F86030FFF7EAFE44
:10741000B4F86230984201D1864213D14FF6FF731F
:107420009842A4F8620002D1784609F0D7FCB4F87B
:1074300062300548242202FB0344216BBDE8F0477B
:107440000DF037B8BDE8F087B43200204A090123B7
:1074500001F01F0103FA01F150F82230194214BF64
:107460000120002070474FF6FF72B2EB104F82B040
:1074700083B215D113F47F4007D003F44043B3F532
:10748000004F14BF0020012006E023F07F022AB93C
:107490007F3B18BF0123184602B070470346FAE746
:1074A00023F03F03C02BECE701289FBF054B382298
:1074B00002FB003090F8340094BF00F0010000207F
:1074C000704700BF5C330020C0F30F43A3F5405367
:1074D0009BB2012B13B512D80B4A107810F00400A0
:1074E0000FD10A4A096802EBC304C943616012F86C
:1074F000331021F0060102F8331002B010BD052050
:10750000FBE70020F9E700BFCE330020D033002096
:1075100013B50190000C01280C4602D0784609F002
:107520005DFC012363800223A380238002B010BD91
:1075300013B50190000C01280C4602D0784609F0E2
:107540004DFC6388012B0DD1A388022B0AD123881F
:10755000022B07D1044A137843F001031370002073
:1075600002B010BD0B20FBE7CE33002037B5C0F3CF
:107570000F44A4F54054A4B2012C01900D4602D949
:10758000784609F02BFC044B03EBC4046368DB432F
:107590002B6003B030BD00BFD033002070B51C4657
:1075A0000B89B3F5BE7F0546164606D30923236033
:1075B0002068B0FA80F0400970BDFFF775FF28B170
:1075C0000C48382303FB050083890BB10523EEE744
:1075D0003EB982884FF6FF739A4206D0C2889A421B
:1075E00003D00868FFF73FFF08B90723DFE7002350
:1075F000DDE700BF5C33002037B5040CB4F5805FD5
:1076000001900D4602D0784609F0E8FB064BA4F540
:107610008054A4B20621022201FB0431284603B0A3
:10762000BDE8304014F06EBF4633002037B5C0F3DC
:107630000F44A4F50054A4B2012C01900D4602D9C8
:10764000784609F0CBFB054B3821142201FB0431AD
:10765000284603B0BDE8304014F054BF5C3300202E
:10766000F7B5C0F30F43A3F500539BB2012B019074
:1076700024D81548007810F004061DD13820134D89
:107680008F894343EC18A08987421AD10888EB5AA6
:10769000984216D148886388984212D1CA89E389F2
:1076A0009A420ED11422204614F02CFF94F8343064
:1076B00023F0060384F83430002000E0052003B0F6
:1076C000F0BD0B20FBE700BFCE3300205C33002071
:1076D00010B50E4C70220021204614F021FF062226
:1076E00000210B4814F01CFF10220021094814F05F
:1076F00017FF094AE2604FF0FF3101236160A38464
:10770000E1636264A4F85C3010BD00BF5C3300200C
:1077100046330020D0330020FFFF02002DE9F04F58
:10772000D5B0814607A80F4615461C46BDF87861BE
:1077300002F022FB724B382202FB0932918904913C
:107740000498BDF81E10814205D84FF0100A50462B
:1077500055B0BDE8F08FBDF81C1005910DF1200863
:10776000002D00F09A80D5E90301B5F81EB0B5F8F8
:1077700024A02D7F88E8030045B1382000FB09399B
:1077800099F81150FF2D04BF5E4B1D7814B978464F
:1077900009F024FB16B9784609F020FB0DF1280901
:1077A00024220021484614F0BBFE504610AA594638
:1077B00003F0D0F882460028C9D1DDE9043298E808
:1077C00003001344A9F80830BB7A89F80B30FB7A20
:1077D00089F80C3089E80300FB6889F80A505146A3
:1077E0004846C9F81040A9F81460C9F820300CF0D8
:1077F00025FC82460028AAD1434B1A6812F4005F88
:107800009946A4D0414B1A68042A98469FDD404807
:107810002F2114F057FF00284FD02F213C4814F09F
:1078200051FF411C3B4D3A88D5F8043501923A4A44
:107830000092052040F2A9120EF038FCD9F8003071
:107840009B0484D5D8F80030042B80DD334B802E88
:10785000196828BF802613ABA0191F46844203F184
:10786000020333D100232A4807F816302F2114F0E1
:1078700029FF002838D02F21254814F023FF411C70
:10788000274AD5F804350192264A009202974FF410
:10789000D57205200EF00AFC59E7D088B2F804B082
:1078A000414602F0E1FA40BBB8F80220002A3FF45A
:1078B0004CAF134B4FF6FF7A5FE715485C2114F08D
:1078C00001FF08B15C21A9E71149ABE714F8012BCE
:1078D0004FEA121C02F00F0211F80CC003F802CCA0
:1078E0008A5C03F8012CB9E709485C2114F0EAFE30
:1078F00008B15C21C0E70649C2E74FF0050A26E758
:107900005C330020F02D0020242E0020202E0020AB
:1079100000CA0300001001401CCA0300282E0020EA
:1079200030CA0300FEC80300000CB0F5805F82B0CF
:107930000FD10B4B187810F004000CD1094B0988BB
:107940001A88914209D15A7922F006025A7102B07E
:1079500070470520FBE70020F9E70B20F7E700BFA1
:10796000CE3300204633002007B5104B1B785B0751
:1079700009D40F4A12F8303043F0040302F83030D3
:1079800003B05DF804FB00F540500223ADF804306D
:10799000ADF80600019810F043FD0028F0D07846BD
:1079A00003B05DF804EB09F019BA00BFCE33002034
:1079B000D033002007B5124B1B7813F0040F114B86
:1079C00008D113F8302042F0020203F8302003B04F
:1079D0005DF804FB03EBC003022200F540505B6836
:1079E000ADF80420ADF80600DB430198009369462A
:1079F00010F0C4FC0028EAD0784609F0EFF9E6E779
:107A0000CE330020D033002007B5134B13491B7829
:107A100013F0040F0BD1382303FB001090F834301F
:107A200043F0020380F8343003B05DF804FB022316
:107A3000ADF8043000F50053ADF80630382303FBF1
:107A40000011019810F09AFC0028EDD0784603B0A0
:107A50005DF804EB09F0C2B9CE3300205C3300209E
:107A600007B50C4B1B785B0707D40B4A537943F0DF
:107A70000203537103B05DF804FB0749074810F097
:107A80007DFC0028F6D0784603B05DF804EB09F0E1
:107A9000A5B900BFCE3300204633002002000010FD
:107AA0004A094FF0FF3301F01F0103FA01F150F8CA
:107AB0002230194009D04B420B4005495943C90EA9
:107AC000044B585C00EB421070471820704700BF11
:107AD00031B57C07B8CA03002DE9F04F85B0814667
:107AE000DDF8388092461F460D4611B9784609F0F8
:107AF00075F903AB524629464846FFF74FFD18B9C2
:107B0000039805B0BDE8F08F69882B884FF6FF72A7
:107B100091422FD1FF2B8CBF4FF0020B4FF0010B86
:107B20002E895E44B6B2304611F0A1F9044680B306
:107B300069882B882A784FF6FF7081421DD06170CA
:107B4000090A2270A1702A89696804EB0B0014F0FD
:107B5000D9FC00962346524629464846FFF7DEFDEB
:107B6000039018B917B1B8F1000F0ED1204611F0EB
:107B700080F9C5E74FF0030BD2E713F47F4F1DBF29
:107B80001B0A237062702270DDE73C60A8F8006079
:107B9000B7E70420B5E700002DE9F04F504E3378E9
:107BA00013F0020785B003D00B2005B0BDE8F08FBD
:107BB00013F0010F4B4C18D0A0464FF6FF79BB468F
:107BC000B8F80C304B450CD0B8F8060048455ED1EB
:107BD000B8F80E50022D5FD1382303FB074383F81A
:107BE00012B008F13808002F4FD033783E4D43F0E3
:107BF000040333702B7813F0040064D1990701D586
:107C0000FFF7D8FE2B7823F006032B702B7A5A0748
:107C10005DD50120FFF7A8FE2B7A23F006032B7217
:107C2000324D6B79980701D5FFF71AFF6B7923F076
:107C300002036B7194F83430990702D50020FFF7E6
:107C4000E3FE94F8343023F0020384F8343094F8DF
:107C50006C309A0702D50120FFF7D6FE94F86C30FD
:107C600023F0020384F86C303378DB0735D42048E6
:107C70000290022302A9ADF80C3010F07FFB10B186
:107C8000784609F0ABF805208FE7012798E702F066
:107C900087F800289CD087E7134B03EBC505043514
:107CA00000212846FFF7FCFE1828824694D01FFAD0
:107CB0008AF002F0BDF800287FF476AF0AF10101E6
:107CC0001729EED988E70020FFF74EFE9AE79F07B5
:107CD000A2D50120FFF76EFE9EE7002065E700BFFA
:107CE000CE3300205C330020D03300204633002008
:107CF000020001002DE9F04F00F114048FB0054699
:107D0000204603F06BF800278146002874D04FF618
:107D1000FF73ADF832302B7D012B70D10DA802F02E
:107D20002BF8EF8ABDF83430FF1ABFB2CA46524C66
:107D30004FF0000BBAF1000F74D0A689F21B564227
:107D4000564194F83430E98B03F0010304F1080044
:107D50000A93FFF77BFB29880B90A28D68884FF070
:107D6000000890456ED34FF00008CDF82480434BB7
:107D70001B689B0423D5424B1B68062B1FDD414823
:107D80002F2114F09FFC00286DD02F213D4814F0C6
:107D900099FC411C3C4B099AD3F8043506920B9A86
:107DA000CDE904620A9A03926288029222880192C3
:107DB000364A0092072040F224420EF077F90A9BDF
:107DC000B3B1AEB10B9B9BB1099B8BB12B7D012B4A
:107DD0001FFA8BF005D1226B0990294600F0FCFFB9
:107DE0000998A36A226B03EBC80329465B6898478E
:107DF0003834BBF1000F12D00FB0BDE8F08FEA8A23
:107E00004FF6FB739A4291D80DF13201204602F0F1
:107E100087F810B1784608F0E1FFBA4687E74FF0DF
:107E2000010B87E7E08901280AD8194BBDF8321009
:107E300003EBC0000430FFF709FB00F0010680E708
:107E40005046FAE7A36A03EBC80C33F838308B428C
:107E500003D1BCF80230834202D008F1010880E768
:107E6000CDF8249083E707485C2114F02BFC08B17F
:107E70005C218BE703498DE75C330020242E002032
:107E8000202E002000CA03000010014038CA030061
:107E9000D03300202DE9F0410268137803F0C001CF
:107EA0008029D0B0044600F0A68000F295801D061F
:107EB00040F19B8000252E46624F3B68980419D5FF
:107EC000614B1B68042B15DD60482F2114F0FAFB71
:107ED000002800F094802F215C4814F0F3FB411C33
:107EE0005B4B5C4AD3F8043500920196FD220520D5
:107EF0000EF0DCF8E06902F081F88046A06902F03B
:107F000069F84FF6FF739D422268ADF81460ADF832
:107F100016507DD1B6F5807F34BF012302234FF682
:107F2000FF7113448D42A288069373D1FF2E8CBF3C
:107F300002210121521A217A8DF820106189ADF8B1
:107F40002210E1680991217C8DF82810618AADF832
:107F50002A1061690B9194F820108DF83010616A35
:107F60000D913968ADF8328092B28904ADF81C20C9
:107F7000ADF838002AD534490968042926DD364988
:107F8000802A0D6828BF80220FA99E180C46B34294
:107F900001F1020140D100232C4804F812302F21B6
:107FA00014F090FB002843D02F21284814F08AFBBE
:107FB000411C274B294AD3F804350192284A0092E4
:107FC00002944FF48A7205200EF070F805A8FFF7AE
:107FD00091FE50B0BDE8F081C0297FF46BAF5578B9
:107FE0009EB2937845EA032566E77F2B9EB2F0D0D8
:107FF0004FF6FF7560E7567846EA0326F8E7134820
:108000005C2114F05FFB08B15C2165E70F4967E76D
:10801000032384E703218DE713F8010B070900F020
:108020000F00EF5D01F8027C285C01F8010CAEE75F
:1080300006485C2114F046FB08B15C21B5E7034912
:10804000B7E700BF242E0020202E002000CA030026
:10805000001001408DCA0300282E0020A0CA030092
:10806000FEC80300037813B1142B03D0704704300B
:10807000FFF710BFC388022B01BF034A137843F0F8
:1080800002031370704700BFCE330020F0B50746DF
:1080900085B015461E4681B17AB173B103AB00229B
:1080A000FFF77CFA10B9039805B0F0BD00962B4697
:1080B00000223846FFF732FBF6E70E20F4E7000017
:1080C00007B500F0CBFEFFF74DF8FFF701FB164AAE
:1080D000137823F007031370144B186810F0A0F9FD
:1080E0001348019010F09CF943F20103ADF80630FB
:1080F000019810F095F94FF48053ADF806300198CF
:1081000010F08EF94FF40053ADF80630019810F0DE
:1081100087F942F20103ADF80630019803B05DF82B
:1081200004EB10F07DB900BFCE330020A8CA0300D5
:108130000200003008B5FFF7CBFA0848084B03608F
:108140000BF07EFF00F07CFEFEF7F0FFFFF7F0F88B
:10815000044A137823F00703137008BD503300203E
:1081600065800200CE3300202DE9F0410D46044623
:10817000002800F0BE80002900F0BB80C3681BB15E
:108180008368002B00F0B5804FF6FF732B80E36807
:108190001BB9A368002B40F0AE80A688002E40F0EB
:1081A000AC8002F03FFE10B10F20BDE8F081564BCD
:1081B000A088062202FB00329178D278D14219467B
:1081C0006AD1D4E902870026B74240F08B802A8822
:1081D0004E4E4FF6FF739A4243D196F8343013F067
:1081E000010305D096F86C30DB0700F18A8001238B
:1081F00038222B8002FB03634FF6FF70D8802B8858
:1082000002FB036398802B88A78802FB03639F818E
:108210002B88678802FB03635F802B882788534382
:10822000F7522B8802FB036250742288A388824293
:108230004FF0060202FB03130BBF9A78DA78013283
:1082400001320CBF9A70DA702B88382202FB03636C
:1082500093F8342042F0010283F834202888FFF795
:10826000D3FB2A882169382303FB026200201163B3
:108270002A88A16803FB026291622A88E16803FBF5
:10828000026291852A88616903FB026291612A88F2
:1082900003FB0266B28288E71C4B2288B3F80CC04D
:1082A0006788844507D1B3F802C0BC4503D1B3F851
:1082B00000C094450CD0B3F84460864281D1588FF9
:1082C000B8427FF47EAF188F90427FF47AAF0126D8
:1082D000382202FB06332E8093F83430DA077FF51C
:1082E00070AF61E758F83600FFF7BDF838B10136D6
:1082F0006AE70E2059E7092057E7052055E70720D0
:1083000053E7042051E700BF463300205C330020D0
:10831000F0B5064685B00F4619B30DF10A030022E9
:10832000009303ABADF80A20FFF7D6FB054688B9EA
:108330000D49039B382272438818C07C40070CD03B
:1083400002F11304BDF80A20009221443A46304657
:10835000FFF700F8284605B0F0BD184610F089FD7B
:10836000F8E70E25F6E700BF5C33002013B514468E
:108370000A4639B134B1002300932146FFF7ACFB24
:1083800002B010BD0E20FBE710B50446FFF78CF8D5
:1083900070B117290ED8084A382303FB0423DA8862
:1083A0008A4203D0D9802046FFF72EFB002000E050
:1083B000052010BD0720FCE75C33002010B5044603
:1083C00051B1FFF771F848B10548382303FB0404A5
:1083D0000020E3880B8010BD0E20FCE70520FAE7A3
:1083E0005C330020012838B51BD80F4B382202FB24
:1083F000003292F83440E40713D5D27C01F0070430
:1084000002F00705A54204D1C1F3C404B4EBD20FB6
:1084100005D0382202FB0033D974FFF7F5FA0020AB
:1084200000E0052038BD00BF5C33002069B10128A1
:108430000DD8084B382202FB003090F83430DB07AF
:1084400005D5C37C0B70002070470E2070470520B7
:10845000704700BF5C33002038B50446154699B11B
:1084600092B1FFF721F888B10A48382303FB0400D2
:1084700083696BB1837CC3F301030B70837CC3F30B
:1084800085032B70002038BD0E20FCE70520FAE79D
:108490000620F8E75C3300202DE9F3410DF10702D7
:1084A0000DF106010546FFF7D7FF10B1784608F039
:1084B00095FC294E9DF80770382303FB05633C4665
:1084C000B3F824809DF80630032B23D8DFE803F0AF
:1084D00005021A1E07EB87046400B4FBF8F23F2A7A
:1084E0001CD8002F35D0012A38BF0122D2B2002774
:1084F000382000FB056039461430FEF743FE02B019
:10850000BDE8F081642417FB04F4E6E741F27074DF
:108510007C43E2E7784608F061FCDEE740F2762330
:108520009A4205D80A230127B2FBF3F2D2B2DFE761
:1085300041F69C039A4295BF642341F27073B2FBEB
:10854000F3F2B2FBF3F299BFD2B20227D2B2032701
:10855000CEE73A46CCE700BF5C330020012810B5D7
:108560000FD80B4A382404FB002393F83420D20799
:1085700007D59A693AB141B19984FFF78DFF002080
:1085800010BD0520FCE70620FAE70720F8E700BF4A
:108590005C330020012838B5044625D81548382317
:1085A00003FB040393F83450ED071DD59D69EDB12D
:1085B0003F2A1DD803291BD89B7CB2EB930F03D114
:1085C00003F003038B420DD0382303FB040001F0BA
:1085D000030343EA820181742046FFF75DFF2046D2
:1085E000FFF712FA002000E0052038BD0620FCE766
:1085F0000720FAE75C33002038B5044602F012FC8D
:1086000028BB2046FEF750FF18B3144D382202FB5A
:108610000452D289022A18D111490B7813F00102B1
:1086200003D00B7ADA0716D4012223F0040343F0B7
:10863000010301F83230382303FB045390B2D88190
:10864000FFF7B8F92046FFF7DFF9002038BD0F200B
:10865000FCE70520FAE70420F8E700BF5C330020C0
:10866000D03300202DE9F04104460E46FEF71CFFF2
:10867000F0B11348382303FB0404E789022F1AD012
:1086800017291AD8DFF83C80FD00043508EB0500F7
:10869000FEF7DCFE50B9012303FA06F658F8053060
:1086A0003846334348F80530FFF784F9002000E0EE
:1086B0000520BDE8F0810620FBE70720F9E700BFB1
:1086C0005C330020D0330020F8B504460D46FEF799
:1086D000EBFED8B11048382303FB0404E689022ED0
:1086E00016D0172916D80D4FF40004343819FEF7A8
:1086F000ADFE50B1012303FA05F53B59304623EA9C
:1087000005033B51FFF756F90020F8BD0520FCE7B3
:108710000620FAE70720F8E75C330020D03300207A
:108720002DE9F843064615460F4641B33AB3FEF726
:10873000BBFE30B31648382303FB0606F389022B31
:1087400021D00024DFF84C90B5F800802C80F0890F
:1087500001280ED809EBC00021460430FEF776FE52
:1087600038B12B88984510D927F813402B8801334E
:108770002B800134182CEAD10020BDE8F8830E20AC
:10878000FBE70520F9E70620F7E70920F5E700BF3A
:108790005C330020D03300202DE9F04107460E461F
:1087A000FEF782FEC0B1082919D83825DFF83480D9
:1087B0007D43083508EB0500FEF748FE50B901235C
:1087C00003FA06F658F805303846334348F80530C2
:1087D000FFF71AF9002000E00520BDE8F08107202E
:1087E000FBE700BF5C330020F8B506460D46FEF7F8
:1087F0005BFEA8B1082915D838240B4F7443083400
:108800003819FEF723FE50B1012303FA05F53B5951
:10881000304623EA05033B51FFF7F6F80020F8BD88
:108820000520FCE70720FAE75C3300202DE9F04142
:10883000064615460F46F9B1F2B1FEF735FEE8B12E
:108840001048B5F800803823002403FB06062C806E
:10885000083621463046FEF7F9FD38B12B88984599
:108860000ED927F813402B8801332B800134082CB4
:10887000EFD10020BDE8F0810E20FBE70520F9E7ED
:108880000920F7E75C33002010B50446FEF70CFE24
:1088900070B108290ED8084A382303FB04239A88AC
:1088A0008A4203D099802046FFF7AEF8002000E00E
:1088B000052010BD0720FCE75C33002010B50446FE
:1088C00051B1FEF7F1FD48B10548382303FB04041C
:1088D0000020A3880B8010BD0E20FCE70520FAE7DE
:1088E0005C330020030605D4012803D0024B187026
:1088F0000020704707207047F02D0020014B1878AA
:10890000704700BFF02D002010B50446FEF7CCFDE7
:1089100060B1074A382303FB04231A7C8A4203D040
:1089200019742046FFF770F8002000E0052010BD04
:108930005C33002010B5044651B1FEF7B5FD48B1D7
:108940000548382303FB04040020237C0B7010BD72
:108950000E20FCE70520FAE75C33002010B5044642
:10896000FEF7A2FD80B181F080037E2B0ED9084A6C
:10897000382303FB04235A7C8A4203D059742046CF
:10898000FFF742F8002000E0052010BD0720FCE7BB
:108990005C33002010B5044651B1FEF785FD48B1A7
:1089A0000548382303FB04040020637C0B7010BDD2
:1089B0000E20FCE70520FAE75C33002021B128B93E
:1089C000034B1B880B8070470E20704705207047B3
:1089D0004633002021B128B9034B9B780B707047B8
:1089E0000E207047052070474633002021B128B97A
:1089F000034BDB780B7070470E20704705207047E3
:108A00004633002010B5044669B1FEF74DFD60B154
:108A1000074A382303FB04F013185B884B80135A72
:108A20000B80002010BD0E20FCE70520FAE700BFF8
:108A30005C33002037B501910AB310B1052003B0B3
:108A400030BD4FF6FF7313800E4BBDF804009989BB
:108A5000BDF8064029B95D88A54202D11D8885422E
:108A60000AD0B3F844100029E8D1598FA142E5D1CA
:108A70001B8F8342E2D1012111800020DFE70E200D
:108A8000DDE700BF5C33002070B5C1B1BAB1C0B939
:108A90000E4B158810801488AC4214D293F83460C1
:108AA000F60706D59E8926B921F8140014880134EA
:108AB0001480383308B1002070BD0120EBE70E2090
:108AC000FAE70520F8E70920F6E700BF5C3300204D
:108AD00010B5044651B1FEF7E7FC48B1054838230C
:108AE00003FB04040020236B0B6010BD0E20FCE789
:108AF0000520FAE75C33002070B50646FEF7D4FC8B
:108B0000E0B1382575430E4C002205F114001146E2
:108B100020442C44FEF736FB304600F0E5F9E088AF
:108B200001F05EF900254FF0FF3330466360657455
:108B30006582A575FEF768FF284670BD0520FCE735
:108B40005C330020082837B505461CD80DF1060116
:108B50000020FFF7B3FE28B9BDF80630AB4201D1C3
:108B6000FFF7CAFF0DF106010120FFF7A7FE04463B
:108B700058B9BDF80630AB4202D10120FFF7BCFF67
:108B8000204603B030BD0724FAE70024F8E70000D0
:108B90002DE9F04F5B4DB5F8703085B0074613B93D
:108BA000784608F01BF94FF6FF73564CDFF864A1C6
:108BB000DFF864B1A5F8723007F57A794FF0000854
:108BC00094F84030CBB1236BA3EB0903002B1BDAE5
:108BD000002384F84030B5F87030013BA5F87030C0
:108BE000208B03A9FFF774FF10B1784608F0F6F860
:108BF000636B0399208B012298472C34B8F1000F46
:108C000052D14FF00108DBE7A36BA3EB0902002A66
:108C100065DAA5F87280208B04F11C01FFF778FB60
:108C20000646E8B1DAF800309B0417D5DBF80030CF
:108C3000042B13DD34482F2113F044FDE8B12F211C
:108C4000314813F03FFD411C304B314AD3F8043515
:108C500000920196802205200DF028FA082E15D1E9
:108C6000D4E90E231A445B00A263E363226BA36B77
:108C7000D31A002BC1DAA263BFE723485C2113F0AB
:108C800021FD08B15C21DBE71F49DDE7042E01D09F
:108C90000F2E20D12C2303FB0858D8F8383003F5C9
:108CA0001C434033C8F83830B5F870303BB3B5F8E2
:108CB0007230012B02D9784608F090F8B5F872307E
:108CC0002C2202FB03539B6BDA1B48BFFA1AEA60A3
:108CD00005B0BDE8F08F784608F080F8C6E7B5F833
:108CE00072204FF6FF718A4206D02C2101FB0252FE
:108CF000926B9B1A002B80DAA5F872807DE7EB60FF
:108D0000E6E700BFE4330020D8CA030000100140AA
:108D1000FDCA0300242E0020202E002038B52C4C44
:108D20002C2303FB0043054693F8403013B97846E3
:108D300008F054F8B4F8703013B9784608F04EF8DB
:108D40002C2202FB0542002382F84030B4F8703038
:108D5000013B9BB2A4F87030A3B3B4F87230AB42BD
:108D600035D1926B1B4B134494F84020EAB1A26BAF
:108D7000D11A0029B8BF13464FF6FF72B8BF0022C0
:108D800094F86C10A1B1616ECB1A002B10DA01239C
:108D9000A4F87230B4F872300D482C2202FB034460
:108DA000A16BBDE838400BF084BB4FF6FF72E7E7DC
:108DB0004FF6FF739A42A4F87220EBD1784608F080
:108DC0000DF8E7E7BDE8384001480BF05BBB38BD64
:108DD000E4330020008793030128F8B504460E46CB
:108DE000174602D9784607F0F9FF0CF07FF8134BCD
:108DF00093F8402012B11A8BA2421DD093F86C2038
:108E0000B2B1B3F84420A24212D101202C2505FBB7
:108E100000353388AA8D9A420AD1EA8D73889A4226
:108E200006D1FFF77BFF6B6B00223946204698473F
:108E3000BDE8F8400CF09AB80020E7E7E4330020E2
:108E400010B5044C74220021204613F069FB024B3C
:108E5000A36010BDE4330020918B020073B51F4C5A
:108E60000CF044F8B4F870302BB100232046A4F87D
:108E700070300BF007FB94F840307BB1258B18481D
:108E8000666B00212C2213F04BFB01A92846FFF74B
:108E90001FFEF0B9019902222846B04794F86C30C1
:108EA0009BB1B4F844500F48246E00212C2213F0DB
:108EB00037FB01A92846FFF70BFE10B1784607F0F3
:108EC0008DFF019902222846A0470CF04FF802B00E
:108ED00070BD784607F082FFDCE700BFE433002076
:108EE000FC33002028340020012873B504462DD817
:108EF000174D0BF0FBFF95F8403013B12B8BA342BD
:108F000020D095F86C30FBB1B5F84430A3421BD1AA
:108F100001263046FFF702FF01A92046FFF7D8FDE2
:108F200010B1784607F05AFF2C2303FB0655204664
:108F30006B6B01990222984700240CF017F8204629
:108F400002B070BD0026E4E70524F6E70524F6E745
:108F5000E43300204A09012301F01F0103FA01F163
:108F600050F82230194214BF0120002070474A09EE
:108F7000012301F01F0103FA01F150F822300B43E5
:108F800040F82230704700000F28014602D80248FE
:108F9000FFF7E0BF0020704758340020103881B23E
:108FA000072902D80248FFF7D5BF0020704700BF4D
:108FB0006034002010B50446FFF7E6FF28B92046CC
:108FC000FFF7ECFF00F0010010BD0120FAE7000000
:108FD0002DE9F0474FF6FF73DFF84080DFF840904F
:108FE0000B8007460D4600241E464FF0AC0A214672
:108FF0004046FFF7AFFF40B10AFB04F333F80930F6
:10900000BB4206D12C80BDE8F0872B88B34208BF55
:109010002C800134042CEAD10020F4E790360020A3
:10902000943600202DE9F0474FF6FF73DFF84080BB
:10903000DFF840900B8007460D4600241E464FF097
:109040002A0A21464046FFF785FF40B10AFB04F398
:1090500033F80930BB4206D12C80BDE8F0872B885D
:10906000B34208BF2C800134082CEAD10020F4E779
:10907000A4340020A834002013B50190000C01286E
:109080000C4602D0784607F0A9FE04232380012372
:10909000A3800823638023811023E38002B010BDE6
:1090A00013B50190000C01280C4602D0784607F059
:1090B00095FE2388042B13D1A388012B10D163883C
:1090C000082B0DD12389082B0AD1E388102B07D157
:1090D000044A137843F001031370002002B010BD5E
:1090E0000B20FBE78C36002037B5C0F30F44A4F506
:1090F0008054A4B20F2C01900D4602D9784607F097
:109100006DFE07482146FFF725FF10B9784607F0A6
:1091100065FE044B33F824302B8003B030BD00BF14
:10912000583400206434002038B5044610B978461D
:1091300007F054FE0A4B002293F8645090B203F1FA
:1091400022011DB18C420AD003F143018C4206D0AA
:109150000132042A03F1AC03EED14FF6FF7038BDA3
:109160009436002013B50190000C02280C4602D062
:10917000784607F033FE074B1B68DB0702D47846BE
:1091800007F02CFE04490422204602B0BDE810403E
:1091900013F0B8B95C3400207C36002037B5C0F33A
:1091A0000F44A4F50054A4B2072C01900D4602D937
:1091B000784607F013FE0A482146FFF7CBFE10B9A8
:1091C000784607F00BFE0749142303FB0411102215
:1091D0000431284603B0BDE8304013F093B900BF16
:1091E000603400204439002073B5040CB4F5A04F5E
:1091F00001900D4602D0784607F0F0FDA4F5A0449A
:10920000A4B20C482146FFF7A5FE10B9784607F036
:10921000E5FD1621084E4C43A11D10223144281DA6
:1092200013F070F9325B2A8033195B886B8002B0CF
:1092300070BD00BFF8350020FC350020F8B5A1F165
:10924000100414260B4F66430546301D2946102294
:10925000384413F057F9B91928460CF055FE10B1EF
:10926000784607F0BBFD21460348BDE8F840FFF70C
:109270007EBE00BF443900206034002073B5040C6A
:10928000A4F500530E4699B2072901900CD808485E
:10929000FFF760FE30B9A4F5FF51103989B23046AE
:1092A000FFF7CCFF002000E0052002B070BD00BF3A
:1092B00060340020F7B5C0F30F44A4F54054A4B2C5
:1092C000032C01900D4602D9784607F087FD002156
:1092D0002422284613F024F912482146FFF73AFECB
:1092E00010B9784607F07AFDAC230F4E5C4337196E
:1092F000335B2B8097F86430AB70A11C1022314493
:10930000E81C13F0FFF897F864304BB112341022C8
:10931000311905F1130003B0BDE8F04013F0F2B8C5
:1093200003B0F0BD903600209436002073B5C0F332
:109330000F44A4F58044A4B2072C01900D4602D935
:10934000784607F04BFD00212622284613F0E8F866
:1093500012482146FFF7FEFD10B9784607F03EFDA2
:109360002A210F4E4C43A11D10223144681D13F0D9
:10937000C9F8325B2A8033195A886A809B7D2B7129
:109380004BB119341022311905F1150002B0BDE8B6
:10939000704013F0B7B802B070BD00BFA434002015
:1093A000A83400202DE9F0411E4CAC25554316464B
:1093B00005F16803621923440F469367804610B98C
:1093C000194B01221A7005F12201214438460CF094
:1093D00062FD10B1784607F001FD05F17C012144E2
:1093E00038460CF069FD10B1784607F0F7FCA81C70
:1093F000394610222044123513F084F8102200213F
:10940000601913F08DF8AC237343E21824F803803D
:10941000002382F8643031460448BDE8F041FFF78C
:10942000A6BD00BF943600207A360020903600207A
:1094300037B5C0F30F4404F540540190A4B20D4673
:10944000224631F8030BFFF7ADFF074AAB78AC219A
:1094500001FB0424054A84F864301378002043F0AB
:109460000403137003B030BD943600208C36002006
:109470002DE9F8432A255D43144C91468046A81DEA
:1094800010220F46204449461E4613F03BF805F1D2
:109490001900002110222044053513F041F861190C
:1094A00048460CF0EFFC10B1784607F097FC2A23F1
:1094B0007343E218002111719175578024F80380DD
:1094C00031460348BDE8F843FFF751BDA8340020FA
:1094D000A4340020F7B5C0F30F44A4F58044A4B22F
:1094E000072C01900D462DD817482146FFF732FD75
:1094F00010B1002003B0F0BD144F698828882A26D7
:1095000023466A1D6643FFF7B3FF2B79BA1993759B
:10951000002BEED0153506F11900294610223844EB
:1095200012F0F0FF06F11801394428460CF0AAFCAD
:1095300010B1784607F052FC2A2303FB0474237908
:10954000E375D6E70520D5E7A4340020A834002031
:109550002DE9F3410190000C00F50054A4B2072C52
:109560000D4632D900F5805084B2072C2FD8012641
:10957000194A137843F00403137069882888234636
:109580002A1DFFF775FF2A27144B6743DA199846FF
:109590009675F6B1143507F11900294610221844C2
:1095A00012F0B0FF07F11801414428460CF06AFCA4
:1095B00010B1784607F012FC2A2303FB0484002034
:1095C0002379E37502B0BDE8F0810026D0E70520DD
:1095D000F8E73046F6E700BF8C360020A8340020BC
:1095E00073B5064610460C461546FFF7B3FC10B996
:1095F000784607F0F3FB01232644ADF80430ADF8BC
:10960000066001980EF00CFF10B1784607F0E6FBFB
:109610006209012304F01F0403FA04F455F8223010
:1096200023EA040345F8223002B070BD2DE9F0476B
:109630004FF6FF73DFF84C80DFF84C900B80074645
:109640000D4600244FF0140A21464046FFF782FCE5
:10965000064650B92A884FF6FF739A4200D12C80F3
:109660000134082CF0D1002608E0102239460AFB0C
:10967000049012F039FF0028F2D12C803046BDE86A
:10968000F08700BF603400204839002008B528B9B1
:10969000784607F0A3FB4FF6FF700BE0064B9842AD
:1096A000F9D303F501729042F5D8C01AAC23B0FB90
:1096B000F3F080B208BD00BF0837002008B528B914
:1096C000784607F08BFB4FF6FF7008BD0A4B9842B7
:1096D00009D303F59372904205D8C01A2A23B0FB30
:1096E000F3F080B2F1E7054A4FF6FF73904214BFE2
:1096F00018460820E9E700BFAC34002000360020FF
:1097000013B50190000C022804D00091784607F0B0
:1097100065FB0099074C2368DB0707D40648042241
:1097200012F0F0FE236843F001032360002002B032
:1097300010BD00BF5C3400207C360020F7B5C0F3BC
:109740000F44A4F54054A4B2032C01900E4629D82E
:1097500015482146FFF7FEFB10B1002003B0F0BD15
:109760003146224631F8030B104FFFF71BFEAC22A7
:109770005443B3783A1982F86430002BEDD0133695
:1097800004F11200314610223844433412F0BAFE7C
:10979000391930460CF07FFB0028DED0784607F000
:1097A0001DFBDAE70520D9E790360020943600202B
:1097B00037B50023054610460C46ADF80030FFF7DC
:1097C000C9FB10B9784607F009FB60190123ADF811
:1097D0000430ADF80600019869460EF0CFFD10B1D7
:1097E000784607F0FBFA03B030BD00002DE9F84FD2
:1097F00081461546884600294BD00AF097FA022880
:10980000074648D000F0FD03012B44D14FF6FF740A
:10981000DFF890B0224B0026A24654450BD11846E3
:109820003146FFF797FB1E4B28B9B4B20136102E14
:10983000F3D1002205E03BF826204A45F6D1B4B228
:1098400001220DB9032F26D19AB94FF6FF739C421E
:1098500023D0144B124823F8249003EB84032146B1
:109860005A80FFF784FB0E4A21464FF48050FFF7E1
:109870009FFF0C4BA8F80040A4001C442DB9E378CE
:109880000133E3700020BDE8F88FA3780133A370A3
:10989000F8E70E20F7E71020F5E70420F3E700BF14
:1098A00058340020643400202DE9F3414FF6FF784E
:1098B0000D461446ADF80680074650B349B30DF186
:1098C0000601FFF7B3FEBDF8063003F11006B6B28D
:1098D00060B943451FD031463846FFF7AFFC0F4A09
:1098E000BDF806104FF40050FFF762FFBDF80630D8
:1098F0000B4A2E80142101FB032334B9DA7801329C
:10990000DA70002002B0BDE8F0819A7801329A70D6
:10991000F7E70E20F6E70420F4E700BF60340020EC
:109920004439002038B50446FFF72EFB80B1154BB3
:1099300003EB8402907848B9D57845B923F82450D0
:10994000114A21464FF48050FFF74AFE002038BDEF
:109950002046FFF723FB80B1A4F110010B4889B228
:1099600014224A438418A378002BEFD1E47834B949
:109970008452074A4FF40050E6E70520E7E718460F
:10998000E5E700BF6434002058340020443900204B
:109990006034002041090B4A00F01F0052F82120DA
:1099A0004FF0FF338340134009D05A421A40064B10
:1099B0005343DB0E054AD05C00EB41107047042096
:1099C000704700BF9036002031B57C07A2CB030062
:1099D0004FF6FF730B80084B1B6813F0010307D091
:1099E000064B1B88834205D108230B80012070475A
:1099F00008220A8000207047F8350020FC3500203E
:109A00002DE9F3410190000CB0F5A04F1AD10F4E93
:109A1000346814F0010417D10D4D0F88B1F802809D
:109A200010220431A81D12F06DFD0123214630469D
:109A3000AB80A5F802802F80FFF799FA204602B08C
:109A4000BDE8F0810524F9E70024F7E7F8350020A8
:109A5000FC35002073B5C0F30F44A4F58054A4B2C4
:109A60000F2C01900E4611D80A482146FFF772FAD2
:109A700050B9094B328823F8242003EB8403214694
:109A800058800448FFF773FA002000E0052002B078
:109A900070BD00BF58340020643400200388012BBF
:109AA00012D14388A3F54052032A04D814290BD1BC
:109AB000A3F5C04307E0A3F58042072A04D8242970
:109AC000F4D1A3F5A0434380704700007FB52B4A33
:109AD000137813F002044ED1D90712D4284A106823
:109AE0005168128901AB03C301A94FF001101A801C
:109AF0000EF044FC10B1784607F070F9052004B070
:109B000070BD13F00400FAD064F3820313701D4D8E
:109B10000123ADF8043021462846FFF71BFA68B14F
:109B2000A6B206F54053ADF8063001980EF078FC69
:109B30002A4631464FF44050FFF73AFE0134042CD8
:109B4000E9D1114D002421462846FFF703FA68B1F8
:109B5000A6B206F58043ADF8063001980EF060FC21
:109B60002A4631464FF48040FFF722FE0134082C8C
:109B7000E9D10020C3E70B20C1E700BF8C360020ED
:109B800070CB030090360020A434002037B50023AA
:109B9000494A19460133102BD170917002F1040229
:109BA000F8D10023454A1C460133082BD470947029
:109BB00002F11402F8D104220021414812F0B0FC55
:109BC000042200213F4812F0ABFC042200213E4851
:109BD00012F0A6FC042200213C4812F0A1FC042251
:109BE00000213B4812F09CFC00210422394812F06D
:109BF00097FC394B394A1C805C80394B1C701378B8
:109C000023F003031370374B18680EF009FC364B32
:109C100018680EF005FC0123ADF804304FF48054B1
:109C200041F21005ADF8064001340198A4B20EF0DF
:109C3000F7FBAC42F6D14FF4005442F20805ADF800
:109C4000064001340198A4B20EF0EAFBAC42F6D112
:109C50004FF44053ADF8063001980EF0E1FB43F2AB
:109C60000103ADF8063001980EF0DAFB43F202036F
:109C7000ADF8063001980EF0D3FB43F20303ADF8C4
:109C8000063001980EF0CCFB4FF4804444F20805F6
:109C9000ADF8064001340198A4B20EF0C1FBAC420D
:109CA000F6D14FF4A043ADF80630019803B0BDE8FB
:109CB00030400EF0B5BB00BF6434002044390020B2
:109CC0005C3400205834002060340020903600209E
:109CD000A4340020F83500207C3600208C3600208B
:109CE0007A3600207ACB03007ECB0300054808B506
:109CF000054B03600AF0A4F9044A137823F0030328
:109D0000137008BD8036002021A402008C3600208C
:109D100070B5044610B9784607F060F8144E3568FF
:109D200015F0010521D1638813B90B25284670BDB4
:109D3000208809F0FBFF0128F7D1208863881844A8
:109D4000013880B209F0F2FF0128EED133680948EA
:109D500043F0010321460422336012F0D3FB324664
:109D600029460220FFF724FDE0E70F25DEE700BFCC
:109D70005C3400207C36002010B5044610B97846CB
:109D800007F02CF820460349BDE81040042212F0E9
:109D9000B9BB00BF7C3600200122FFF727BD0000C1
:109DA00010B50446FFF706F978B10F2C89BF0848B3
:109DB0000848103C14238CBF03FB040400EB84040C
:109DC0000020A3780133A37010BD0520FCE700BF7D
:109DD00044390020643400200122FFF765BD0000F3
:109DE00010B50446FFF7D0F850B10C4B03EB8403D9
:109DF0009A78013A9A702046BDE81040FFF792BD6C
:109E00002046FFF7CBF830B1054AA4F11003142126
:109E100001FB0323ECE7052010BD00BF64340020E4
:109E2000443900200022FFF7E1BC0022FFF73CBDCF
:109E300010B50446FFF7BEF878B10F2C89BF08486B
:109E40000848103C14238CBF03FB040400EB84047B
:109E50000020E3780133E37010BD0520FCE700BF6C
:109E6000443900206434002070B506460D4601B325
:109E7000FFF78AF8044658B1104B33F826206A8061
:109E800033F8260009F052FF28700020686070BD8A
:109E90003046FFF783F870B11420103E084B46435C
:109EA00020469A5B6A8004361E4402236E602B7043
:109EB000EDE70E20EBE70520E9E700BF6434002062
:109EC0004439002013B50446FFF774F808B3694617
:109ED0002046FFF7C9FFC0B99DF80030032B0BD116
:109EE0000D4B03EB8403DA789AB1013ADA7020461D
:109EF000FFF718FD02B010BD022B08D1074AA4F1EC
:109F00001003142101FB0323EDE70020F2E70F20EB
:109F1000F0E70520EEE700BF64340020443900205C
:109F20002DE9F7430C46054600283CD000293AD0DD
:109F3000408809F0FBFE022824D000F0FD00012833
:109F400033D14FF6FF73DFF86880DFF868906F88D1
:109F5000238000251E4629464046FEF7FBFF40B100
:109F600039F82530BB4208D12580002003B0BDE878
:109F7000F0832388B34208BF25800135102DEAD134
:109F80000520F3E768684FF6FF73ADF8063050B16F
:109F90000DF10601FFF74AFB0028F1D0BDF80630AD
:109FA00010332380E1E70E20E0E71020DEE700BF5A
:109FB000583400206434002007B50DF10601FFF786
:109FC00007F820B1BDF8060003B05DF804FB4FF6BA
:109FD000FF70F9E708B1FFF7A7B84FF6FF707047B9
:109FE00007B50DF10601FFF71DF820B1BDF8060019
:109FF00003B05DF804FB4FF6FF70F9E708B1FFF717
:10A000005DBB4FF6FF70704738B504460D4669B129
:10A0100007280DD801460748FEF79CFF40B12A20CB
:10A020004443054B1B5B2B80002038BD0E20FCE712
:10A030000520FAE7A4340020A8340020082870B5D1
:10A0400004460D463CD8002938D0082821D00146C6
:10A050001C48FEF77FFF002832D01B4E2A2303FB4B
:10A0600004635B88032B02D9784606F0B7FE2A23E7
:10A0700003FB046315485988FEF76CFF10B9784656
:10A0800006F0ACFE2A2000FB046463882B800020CD
:10A0900070BD0F4B1B68DB0712D50E4C6388032B7A
:10A0A00002D9784606F09AFE61880848FEF752FF0A
:10A0B0000028EAD1784606F091FEE6E70E20E7E7B1
:10A0C0000520E5E7A4340020A834002090360020C5
:10A0D000F8350020FC350020F0B50646C7B015461F
:10A0E0000C46002971D0002A6FD0B0F5805F6ED287
:10A0F0001146FEF76DFF2A88074670B13748AC233A
:10A1000003FB020021461022023012F0EDF9002874
:10A110000CBF03200F2047B0F0BD4FF6FF739A42EB
:10A1200057D021463046FFF73DF92D4A29884FF494
:10A130004050FFF73DFB294B2988AC2202FB01313F
:10A1400030468C3109F083FF264B186810F48020CC
:10A15000E1D0254B1B68062B3DDD244B186805AB71
:10A16000611E1D460F3411F8012F160902F00F026F
:10A17000865D1E70825C5A708C4203F10203F2D13C
:10A1800000231B4885F820302F2112F09BFA98B14C
:10A190002F21174812F096FA411C164B164AD3F895
:10A1A00004350192154A0092072002954FF413627C
:10A1B0000BF07CFF0020AEE70D485C2112F082FA24
:10A1C00008B15C21E5E70A49E7E70E20A3E707208D
:10A1D000A1E704209FE738469DE700BF94360020A2
:10A1E00090360020242E0020202E0020282E002033
:10A1F0001FCB03000010014049CB0300FEC8030041
:10A20000032838B504460D460DD801460748FEF729
:10A21000A1FE40B10648AC2303FB0404002094F8DF
:10A2200064302B7038BD0520FCE700BF903600205D
:10A23000943600202DE9F04105460F4600294ED006
:10A2400003284ED801462848FEF784FE002848D04F
:10A25000264BAC246C431A191E4692F8642072B146
:10A26000012A02D00820BDE8F08104F1120010227A
:10A270003946184412F038F90028F4D0F2E704F116
:10A280001208984439461022404612F03BF904F176
:10A290004301314438460BF0FEFD10B1784606F01C
:10A2A0009DFD04F19401314440460BF005FE10B1D0
:10A2B000784606F093FDAC236B43F118012281F838
:10A2C000642004F1A401F05A314409F08DFA4FF4EE
:10A2D0004050054A2946FFF76BFA0020C3E70E20DD
:10A2E000C1E70520BFE700BF90360020943600206C
:10A2F000032810B504461DD801461048FEF72AFE73
:10A30000C0B10F48AC236343C11891F86420012AFF
:10A3100012D1022281F8642003F1A4010144C05A41
:10A3200009F062FA4FF44050044A2146FFF740FA20
:10A33000002010BD0520FCE70820FAE79036002039
:10A340009436002003282DE9F04107465CD80146E9
:10A350002F48FEF7FFFD002856D02E4EAC247C433C
:10A3600006EB040898F86430002B4FD004F112017A
:10A37000A01C31441022304412F0C4F804F143010F
:10A3800004F1220031442122304412F0BBF804F1E0
:10A39000940104F17C0031441822304412F0B2F8E8
:10A3A000002504F18C01305B88F864502A46314462
:10A3B00009F01AFA2C46184E184DA0462146284698
:10A3C000FEF7C8FD90B17388BB420FD1B37D6BB16E
:10A3D000122206F11701301D12F094F886F816804B
:10A3E0002A46A1B24FF48040FFF7E2F90134082C6D
:10A3F00006F12A06E2D14FF44050054A3946FFF7EC
:10A40000D7F90020BDE8F0810520FBE70820F9E737
:10A410009036002094360020A8340020A434002078
:10A4200070B50378042B02D0142B20D070BDD0E976
:10A430000146457E2046FFF729F94FF6FF7290420C
:10A44000F4D02034A642F1D10D4AAC2101FB002307
:10A4500093F864302DB1012BE8D1BDE87040FFF7CF
:10A4600047BF002BE2D0BDE87040FFF76BBFC38849
:10A47000012B01BF034A137843F002031370D5E7A1
:10A48000943600208C3600202DE9F0470D46064614
:10A4900000B3F9B10024DFF84480DFF844900F687E
:10A4A0000C604FF0AC0A21464046FEF753FD58B110
:10A4B0002B689F4210D00AFB04F232F8092026F8DC
:10A4C00013202B6801332B600134042CEBD10020C6
:10A4D000BDE8F0870E20FBE70920F9E79036002061
:10A4E000943600202DE9F04F8246C7B00F469946BA
:10A4F0001446002A00F08280002B7FD009F016FC61
:10A50000012883467CD1032F7CD842483946FEF788
:10A5100021FD002876D00DF112015046FFF758FAC0
:10A520008046002870D1BDF812504FF6FF739D424F
:10A530006CD0083D1626384B6E43B01D10222146C4
:10A54000184411F0DFFF344B34489A192946A2F819
:10A5500004B0578023F806A0FEF709FDBDF81210DD
:10A560002E4A08394FF4A04089B2FFF721F9BDF80F
:10A570001230A9F800302A4B186810F4802031D02E
:10A58000284B1B68062B43DD274B186805AB611E63
:10A590001D460F3411F8012F160902F00F02865DD7
:10A5A0001E70825C5A708C4203F10203F2D10023C8
:10A5B0001E4885F820302F2112F084F8A8B12F21F1
:10A5C0001A4812F07FF8411C194B1A4AD3F8043587
:10A5D0000192194A0092072002954FF423620BF072
:10A5E00065FD002047B0BDE8F08F10485C2112F0F7
:10A5F00069F808B15C21E3E70C49E5E70E20F1E7D3
:10A600001020EFE70520EDE70F20EBE70420E9E756
:10A610004046E7E790360020FC350020F835002062
:10A62000242E0020202E0020282E00201FCB0300E7
:10A630000010014056CB0300FEC803002DE9F04195
:10A640000646C6B088461D461446002A72D0002B26
:10A6500070D0032970D83C48FEF77CFC00286BD0F2
:10A66000B6F5805F6AD229463046FEF7DBFC2B88C0
:10A67000074678B135482A2202FB03002146102202
:10A68000063011F031FF00280CBF03200F2046B028
:10A69000BDE8F0814FF6FF72934251D02246414609
:10A6A0003046FEF7E5FE4FF48040294A2988FFF73F
:10A6B0007FF8284B186810F48020E8D0264B1B68E0
:10A6C000062B3FDD254B186805AB611E1D460F3478
:10A6D00011F8012F160902F00F02865D1E70825CD0
:10A6E0005A708C4203F10203F2D100231C4885F812
:10A6F00020302F2111F0E6FF98B12F21184811F0DA
:10A70000E1FF411C174B184AD3F804350192174A50
:10A7100000920720029540F67F220BF0C7FC002034
:10A72000B5E70F485C2111F0CDFF08B15C21E5E7EA
:10A730000B49E7E70E20AAE70520A8E70720A6E7D0
:10A740000420A4E73846A2E790360020A834002071
:10A75000A4340020242E0020202E0020282E0020AB
:10A760001FCB03000010014063CB0300FEC80300B1
:10A77000F8B504460E4600293ED007283ED80146CB
:10A780001F48FEF7E7FB002838D01E481E492A253F
:10A7900065434319AC275A8807FB0212074692F813
:10A7A0006420012A01D00820F8BD05F119010844F0
:10A7B000997D31B11022314611F096FE0028F3D078
:10A7C000F1E79A7531461022183511F09BFE791980
:10A7D00030460BF057FB10B1784606F0FFFA2A23FB
:10A7E00003FB04734FF480401A79DA752146044A5A
:10A7F000FEF7DEFF0020D7E70E20D5E70520D3E7E0
:10A80000A4340020A834002094360020072807B57F
:10A8100001460ED801900848FEF79CFB48B14FF462
:10A820008040054A0199FEF7DBFE002003B05DF889
:10A8300004FB0520FAE700BFA43400200328F8B584
:10A8400004463BD801461F48FEF784FB002835D05C
:10A850000020FFF79FF80025042827D1012D2FD0D5
:10A86000194E1A4F002529463846FEF773FB48B1AA
:10A870007388A34206D1A8B2FFF7C8FF10B178468B
:10A8800006F0ACFA0135082D06F12A06EBD1AC230F
:10A890000F4A6343D35A0BB90E4A13704FF440501A
:10A8A000084A2146FEF79CFE0020F8BD013003282F
:10A8B00005F10105D2D8FFF76DF8CDE70520F4E7E3
:10A8C0000F20F2E790360020A8340020A4340020A6
:10A8D000943600207A3600202DE9F04706461446CB
:10A8E0000F4651B34AB3032829D801461648FEF74C
:10A8F00031FB20B30025DFF85480DFF854A0D4F8F2
:10A900000090256029465046FEF724FB68B1B8F850
:10A910000230B34209D12368994512D0B8F800201B
:10A9200027F813202368013323600135082D08F12F
:10A930002A08E7D10020BDE8F0870E20FBE70520BC
:10A94000F9E70920F7E700BF90360020A83400207F
:10A95000A434002070B504460E461546002A44D0A3
:10A96000082944D80BBF2448244800213146FEF76B
:10A97000F1FA00283BD04FF6FF739C4207D1082E16
:10A9800017BF1F4A1F4B2A2303FB06235C88032C97
:10A990002FD81D482146FEF7DDFA50B3082E1B4A7A
:10A9A00020D02A2303FB06F1AC2303FB042393F8F6
:10A9B0006430022B124B13D15818807D80B11731AF
:10A9C00019446960AC2303FB04F0131893F8643056
:10A9D000022B0CBF4330223010442860002070BD91
:10A9E0000431EDE70A4B6B60ECE70E20F7E705203A
:10A9F000F5E70820F3E700BFF8350020A434002075
:10AA0000A8340020FC350020903600209436002029
:10AA10000036002038B50D46FFF7CEFA044675B172
:10AA200003280ED801460848FEF794FA48B10749B2
:10AA3000AC2000FB041422342C60002038BD0E2012
:10AA4000FCE70520FAE700BF90360020943600208E
:10AA50002DE9F843804617460E4611B9784606F0B0
:10AA6000BDF917B9784606F0B9F9306808F07F08E3
:10AA700020BB0024002333603B601B4BDFF86C904D
:10AA8000AC2505FB0435A3B2032B15D82146484657
:10AA9000FEF760FA28B395F8641095F8222005F1C6
:10AAA0002203D1B1904595F8430005F143010ED141
:10AAB000804514D133603960BDE8F883FEF734FB7C
:10AAC0004FF6FF739842D4D0441CA4B2D2E780451D
:10AAD00007D1316000233B60EEE7904501D1336040
:10AAE000F8E7AC350134CEE79436002090360020EC
:10AAF0002DE9F04704460F46154612B9784606F090
:10AB00006DF914B9784606F069F92046FFF762FA44
:10AB10004FF6FF739842804603D100232B60BDE8B7
:10AB2000F0872868E8B1FEF7C9FD441C0F48DFF83C
:10AB300040A02A2606FB04068146072CEDD82146B4
:10AB40005046FEF707FA70B1738843450BD173790D
:10AB50007B409B0607D12A2000FB0490043028602C
:10AB6000DDE70446E2E701342A36E6E7A8340020B0
:10AB7000A434002038B504460D4611B9784606F0D5
:10AB80002DF934B1044830F8043BA3420CBF04460D
:10AB900000242C6038BD00BFFC3500202DE9F047B3
:10ABA000054690460E4611B9784606F017F9B8F1F9
:10ABB000000F02D1784606F011F93068002852D013
:10ABC000FEF764FD00F1010A284FDFF8A890AC24DD
:10ABD00004FB0A7441E051464846FEF7BBF9C8B38E
:10ABE00094F8643053B955B1082204F18C01284619
:10ABF00011F07AFCB0FA80F35B0901E0E5B90123BA
:10AC000043B31B4B1B781BB3AC2303FB0AF3FB5A68
:10AC1000B3FA83F35B09AC2000FB0AFA07EB0A02E4
:10AC20000AF1740A574482F87430376092F864303D
:10AC300088F80030BDE8F087082204F18C0128462E
:10AC400011F052FC0028DAD0082204F1A401CEE76A
:10AC50000123E0E70AF1010AAC34BAF1030FBAD9D3
:10AC600000233360E6E78246AEE700BF943600205B
:10AC70007A360020903600202DE9F74304460D4631
:10AC800009F054F8022856D0032816D0012824D100
:10AC9000444B1B6813F001031FD0434B1A889442A6
:10ACA0001BD35B8813449C424FF0000315DA6C8081
:10ACB00028706B6003B0BDE8F0834FF6FE7300218F
:10ACC0009C426C802870696009D04FF6FF76B442D0
:10ACD0002FD0231D9BB2012B0CD80020EAE701A93D
:10ACE00001200EF072F810B1784606F077F89DF862
:10ACF0000400DFE72D4FDFF8BC900D46B046464517
:10AD000011D129464846FEF725F960B9AEB20135A2
:10AD1000102D07F10407F2D10CF0AEFE43881B1B87
:10AD200058425841C6E73B88A342F0D1FB78002B3C
:10AD3000EDD00120BEE76868E8B94FF6FF73ADF8C3
:10AD40000430BDF80460DFF87080194F072E4FF60D
:10AD5000FF7394BF01360026ADF804304FF014099C
:10AD6000082EBAD031464046FEF7F4F848B9ADF89F
:10AD700004600136F4E701A9FEF758FC0028DCD096
:10AD8000DFE709FB06F3DA5BA242F2D1FA18D278C8
:10AD9000002AA2D0043302221F446C802A706F6004
:10ADA00088E700BF5C3400207C360020643400203B
:10ADB00044390020583400206034002038B50C4657
:10ADC000054600B111B9784606F008F8024B1A881A
:10ADD0002A805B88238038BD7C36002007B5037845
:10ADE000022B0AD003F0FD03012B17D140886946DE
:10ADF000FFF742FF03B05DF804FB40686946FEF7C9
:10AE000015FC0028F6D0BDF80030054A142101FBDE
:10AE10000323D878003818BF0120EBE70020E9E7CA
:10AE20004439002007B501A8FEF7A6FFBDF80400CD
:10AE3000003818BF012003B05DF804FB2DE9F04F86
:10AE40000C4689B0064600B111B9784605F0C6FF38
:10AE50002388152B02D8784605F0C0FF4FF6FF7205
:10AE60004FF42013CDE905230025012305A90A226B
:10AE70003046ADF81C30ADF8045011F043FB0A2306
:10AE800023800DF10E012846FDF7A4FD10B1784690
:10AE900005F0A4FF0DF10F010020FDF7A7FD10B193
:10AEA000784605F09BFF0DF106010020FDF786FDB9
:10AEB00010B1784605F092FFBDF80630ADF80C30C1
:10AEC0000DF10809022301AA49460020ADF804301B
:10AED000FDF7DAFD10B1784605F080FF20880422E6
:10AEE00003A9304411F00EFB27889DF80E3004377B
:10AEF000BFB227805BB14FF00008BDF804A0454603
:10AF00004FF6FF7BD04515D323881D4425809DF83F
:10AF10000F3063B12088BDF80480002706443D4609
:10AF20004FF6FF7A47451ED323881D44258009B07C
:10AF3000BDE8F08F39F8180004A9FDF763FD10B1E2
:10AF4000784605F04BFFBDF810305B4508D1E81995
:10AF500002220DF11201304411F0D4FA0235ADB2E3
:10AF600008F10108CEE739F8170004A9FDF74AFDFA
:10AF700010B1784605F032FFBDF8103053450ED0C1
:10AF8000022204A9701911F0BDFAA81C02220DF1C9
:10AF9000120116FA80F011F0B5FA0435ADB201379E
:10AFA000C0E70000024B1B6803B11847704700BFA1
:10AFB000E439002013B5044601A8FEF7DDFEBDF814
:10AFC0000430181B18BF4FF0FF3080B202B010BD24
:10AFD00037B504460CF054FD0546002301A8009344
:10AFE000FEF7CAFE288A6946FFF714FD30B9009BB8
:10AFF0006360BDF80430238003B030BD0520FBE75B
:10B0000007B5002001A90DF0E0FE10B1784605F06B
:10B01000E5FEBDF806000A23B0FBF3F09DF805300D
:10B02000013B03F00703013843EAC00003B05DF8B9
:10B0300004FB1FB50193BDF81830ADF80020ADF842
:10B0400008304FF6FF724FF40073ADF80220ADF8F0
:10B050000A306A46079B0393FDF788F905B05DF84F
:10B0600004FB00001FB50446039108F0F1FF084BF4
:10B0700003991860074B01221A7000230190009376
:10B0800048F24A022046FFF7D4FF04B010BD00BFCB
:10B09000EC390020E8390020F0B50B89032B87B08C
:10B0A00006460C4626D14D68AB78012B22D80027E6
:10B0B0008DF80C702B88ADF80D3002238DF80F3011
:10B0C00008F0C6FF04230190009348F2480203AB46
:10B0D00021463046FFF7ADFF0822394604A811F09B
:10B0E0001FFA1E238DF810302B88ADF8143004A8F9
:10B0F000FFF758FF07B0F0BD10B586B004460391C6
:10B100008DF81420ADF8153008F0A2FF032301904C
:10B110000093039905AB48F244022046FFF789FFEC
:10B1200006B010BDF0B50C460988A1F500411B39E9
:10B1300087B0054617461E46102936D8DFE801F0CD
:10B1400009090909350909093535353535354D35CB
:10B1500064000922002103A811F0E2F923888DF888
:10B160000C60A3F500431B3B072B32D8DFE803F04C
:10B1700004042B04311F1F1F63681A88ADF80D20CB
:10B180005A88ADF80F205B68CDF81130002F14BF3E
:10B190000726092608F05CFFCDE9006003AB48F202
:10B1A0001F0221462846FFF744FF07B0F0BD636841
:10B1B00033F8122BADF80D2000228DF80F208DF8FA
:10B1C00010201B68E0E7636833F8022BADF80D2010
:10B1D000F7E7784605F002FED8E70522002103A82C
:10B1E00011F09EF963688DF80C601A88ADF80D2097
:10B1F0005B88ADF80F3008F02BFF0523009301901A
:10B2000003AB48F22A02CCE70722002103A811F081
:10B2100087F963688DF80C601A88ADF80D209A885C
:10B22000ADF811205B88ADF80F3008F011FF07234F
:10B230000093019003AB48F22C02B2E730B585B021
:10B2400004460D46002303A90120ADF808300DF097
:10B25000BCFD10B1784605F0C1FD9DF80C308DF8AD
:10B2600008309DF80D309DF80920013B63F3020280
:10B270008DF80920BDF80E20142A04D19DF809305C
:10B2800013F0070305D00A23B2FBF3F3013B03F0ED
:10B290001F039DF8092063F3C7028DF8092008F009
:10B2A000D7FE02230190009348F2280202AB294600
:10B2B0002046FFF7BEFE05B030BD7FB50B89022BDF
:10B2C00005460E463ED14C682378012B3AD803F050
:10B2D00001038DF804306378C3F3020301338DF862
:10B2E0000530637883B3DB08013303EB83035B0032
:10B2F000142B38BF142301A90120ADF806300DF03E
:10B3000053FD10B1784605F069FD31462846FFF738
:10B3100095FF082200210DEB020011F001F908232E
:10B320008DF8083023788DF80C306378C3F302036E
:10B330008DF80D30637802A8C3F3C4038DF80E3086
:10B34000FFF730FE04B070BD1423D1E730B589B0EB
:10B350000446ADF817309DF8343003910020002BDF
:10B360008DF814000C98ADF8152014BF0725092599
:10B37000CDF8190008F06CFE0399CDE9005005AB3B
:10B3800048F21F022046FFF754FE09B030BDF0B569
:10B390000F89012F87B005460C461FD14E683378C0
:10B3A000012B1BD802238DF80C3008F051FE03ABA3
:10B3B000CDE9007048F2140221462846FFF739FE15
:10B3C0000822002104A811F0ABF806238DF81030F4
:10B3D00033788DF8143004A8FFF7E4FD07B0F0BD12
:10B3E00010B586B0CDE902138DF814209DF80E300B
:10B3F000BDF80C20ADF8152004468DF8173008F084
:10B4000027FE042301900093029905AB48F2030242
:10B410002046FFF70EFE06B010BD0000F0B50C8907
:10B4200024F00204A4B287B007460D464CBB4E6818
:10B43000308808F07BFC012823D13388ADF8083030
:10B44000114B1A889B78ADF80A208DF80C3008F063
:10B45000FFFD05230190009348F22E0202AB29461E
:10B460003846FFF7E6FD0822214604A811F058F8F7
:10B470002C238DF810303388ADF8143004A8FFF772
:10B4800091FD07B0F0BD00BF69CC03002DE9F04786
:10B490000B89022B86B007460C4638D14B68B3F8AF
:10B4A0000090C9F30B00FEF787FDA38C834206468C
:10B4B00030D14B460C2221463846FFF71DFE26E0D0
:10B4C000BAF80000FEF78CFD01352AF8020B30E0D7
:10B4D00038F81500FDF736FB10B1784605F07EFC14
:10B4E0000135019BAB42F3D84B460022214638463A
:10B4F000FFF702FE08220021404611F011F8172341
:10B5000040468DF80830ADF80C60FFF74BFD06B0F3
:10B51000BDE8F0874FF6FF7398420DF10808E3D0BD
:10B52000082301AA41460193FFF7D6F9054618B949
:10B53000C246019BAB42C3D83046FFF77FF90546B0
:10B540000028CED00F28B4D04B460422B3E7000029
:10B550002DE9FF410B89122B07460D462ED1D1F85C
:10B560000480082244460DEB0200002134F8026BEF
:10B5700010F0D6FF2A8848F240039A42C6F30B0621
:10B580001FD121460DF106023046FEF7A5FD152319
:10B5900004460F2C8DF80830BDF80630ADF80C309D
:10B5A00096BF0D4B10221A5DB8F800302946384678
:10B5B000FFF7A2FD14B902A8FFF7F4FC04B0BDE840
:10B5C000F0813046FEF7F8FC2146ADF80600FEF7A4
:10B5D00031FE16230446DCE76CCC030073B502236E
:10B5E0000DEB030201A90546ADF80230FDF798F80E
:10B5F000062826D010B1784605F0F0FB0024BDF8EF
:10B600000220A3B29A4202D8002002B070BDA3B2B9
:10B6100002AA5E0002EB4303284633F8041CFDF740
:10B6200053F810B1784605F0D9FB02AB1E4436F84A
:10B63000040CFEF747FC10B1784605F0CFFB01344F
:10B64000DDE70820E1E72DE9F0438DB01C46154603
:10B6500080468946092200210DF1250010F060FF87
:10B6600000230DF10B0120468DF82030ADF821505C
:10B67000FDF760F910B1784605F0B0FB9DF8263073
:10B680009DF80B2003F00F0343EA021305A920469F
:10B690008DF82630FDF7B6F910B1784605F09EFB1F
:10B6A000BDF81460BDF816304FF6FF7296420DF1EA
:10B6B0000E0120460EBFADF82A30ADF82C30ADF8A3
:10B6C0002A60FCF77BFE10B1784605F087FBBDF8D9
:10B6D0000E004FF6FF73984218D100238DF82330E7
:10B6E0008DF824304FF6FF739E420CBF0C260E26B9
:10B6F00008F0AEFC08ABCDE9006048F219024946FB
:10B700004046FFF796FC0DB0BDE8F08306A9FEF7B2
:10B71000ABFB10B1784605F061FBBDF81A30ADF80F
:10B72000233004A92046FDF7C9F805280546D4D0E2
:10B7300000283FD1BDF810000DF11201FEF764FCA6
:10B740000528074604D18DF823508DF82450C9E709
:10B750000028C7D19DF812308DF825309DF81330A0
:10B7600003F00F029DF8263023F00F0313430DF171
:10B77000270120468DF82630FDF70CF901223946C5
:10B7800003A810F0CDFE0DF10D0203A92046FCF731
:10B7900063FE9DF80C209DF80D3002A943EA821348
:10B7A00020468DF82830FCF741FE9DF808308DF8D2
:10B7B000293097E7784605F011FB93E7F0B50B8940
:10B7C000032B87B006460D4619D14F6804238DF828
:10B7D0000C303B88ADF80D3000238DF80F303888E1
:10B7E000C0F30B00FEF7E8FB0DF10B010446FEF77A
:10B7F00007FDD0B9BB78022B03D0032B36D007B09E
:10B80000F0BD9DF80B305A1E012AF8D8012B06D145
:10B810002046FEF76DFD10B1784605F0DFFA0023F3
:10B820008DF80C3002238DF80F3008F011FC042342
:10B8300001900093294603AB48F217023046FFF708
:10B84000F8FB9DF80C100029D9D1082204A810F0AB
:10B8500067FE27238DF8103004A89DF80F308DF86F
:10B860001430ADF81640FFF79DFBC8E79DF80B308C
:10B87000032BC4D033B12046FEF764FD10B17846E7
:10B8800005F0ACFA00238DF80C30CCE770B50E89CA
:10B89000012E86B005460C4621D14B6818788DF8EC
:10B8A0000F00FDF71FF80146C8B9082204A810F0E0
:10B8B00037FE04238DF8103004A89DF80F308DF862
:10B8C0001430FFF76FFB08F0C3FB0DF10F03CDE958
:10B8D000006048F20E0221462846FFF7AAFB06B098
:10B8E00070BD10B586B0044603910CF0A9FA8DF82E
:10B8F000140008F0ADFB012301900093039905AB00
:10B9000048F20B022046FFF794FB06B010BD70B55D
:10B910000B89092B8CB006460D4661D14C682388F3
:10B92000ADF81C30A3782BB1102B5BD8013B012262
:10B9300002FA03F30893E37843B1112B9DBF03F19F
:10B94000FF33012202FA03F34FF0FF330993237907
:10B950008DF82830B4F8053003F00F03ADF82A3025
:10B96000B4F80730ADF82C30B4F80700FEF724FB2C
:10B970004FF6FF7398423CD104238DF81030238892
:10B98000ADF81130E3788DF81430A3788DF81330CA
:10B9900023798DF81530B4F8053003F00F03ADF8B6
:10B9A0001630B4F80730ADF8183008F051FB0A2310
:10B9B00001900093294604AB06223046FFF739FB7D
:10B9C0009DF8101061B908220DEB020010F0A8FDDF
:10B9D00029238DF8083002A807AB0393FFF7E2FA9A
:10B9E0000CB070BDFF2B4FF6FF7318BF4FF0FF3345
:10B9F000A0E707A80CF048F800280CBF00230F238D
:10BA0000BBE7000013B50378012B03D00E2B12D037
:10BA100002B010BD124B42681B689A42F8D1114C1B
:10BA20002378012BF4D105F06BFA0BF0A5F850B98F
:10BA300002232370ECE70B4C2378022BE8D10BF0A8
:10BA40009BF80028E4D008220021684610F068FD29
:10BA5000232368468DF80030FFF7A4FA0023E8E7B7
:10BA6000EC390020E839002030B50B89012B87B074
:10BA700005460C463FD14A688DF80C301378C3F365
:10BA8000020301338DF80D301378DA080A2302FB24
:10BA90000333142BB8BF142303A90020ADF80E30D4
:10BAA0000DF082F910B1784605F098F9FFF7A8FA81
:10BAB0008DF8080008F0CCFA01230190009348F2B9
:10BAC000250202AB21462846FFF7B3FA08220021DF
:10BAD00004A810F025FD2E238DF810309DF80830B5
