:020000021000EC
:10C0000000FD012029670300516703005367030007
:10C0100055670300576703005967030000000000DD
:10C020000000000000000000000000005B6703004B
:10C030005D670300000000005F67030061670300A5
:10C0400063670300636703006367030063670300BC
:10C0500063670300636703000DEE0100636703007D
:10C060006367030091E901005D89020063670300D3
:10C07000636703006367030063670300636703008C
:10C0800063670300A13D0300ED4102006367030005
:10C09000713E03006367030031FB01006367030027
:10C0A000636703006367030063670300636703005C
:10C0B00063670300636703000000000000000000E6
:10C0C000636703006367030063670300636703003C
:10C0D000636703006367030063670300636703002C
:10C0E0006367030000000000000000000000000083
:10C0F00000000000636703000000000063670300A6
:10C10000000000000000000000000000000000002F
:10C11000000000000000000000000000000000001F
:10C12000000000000000000000000000000000000F
:10C1300000000000000000000000000000000000FF
:10C1400000000000000000000000000000000000EF
:10C1500000000000000000000000000000000000DF
:10C1600000000000000000000000000000000000CF
:10C1700000000000000000000000000000000000BF
:10C1800000000000000000000000000000000000AF
:10C19000000000000000000000000000000000009F
:10C1A000000000000000000000000000000000008F
:10C1B000000000000000000000000000000000007F
:10C1C000000000000000000000000000000000006F
:10C1D000000000000000000000000000000000005F
:10C1E000000000000000000000000000000000004F
:10C1F000000000000000000000000000000000003F
:10C2000010B5054C237833B9044B13B10448AFF390
:10C2100000800123237010BD0822002000000000D0
:10C22000A09F030008B5034B1BB103490348AFF3BC
:10C23000008008BD000000000C220020A09F030029
:10C24000154B002B08BF134B9D46A3F5803A0021E8
:10C250008B460F461348144A121A1BF0E3FE0F4B8D
:10C26000002B00D098470E4B002B00D098470020A1
:10C27000002104000D000D48002802D00C48AFF347
:10C2800000801BF07FFE2000290000F025FB1BF042
:10C2900065FE00BF0000080000FD01200000000056
:10C2A0000000000008220020C85300200000000009
:10C2B0000000000041DF7047014B1B880B80704776
:10C2C00048220020034B04481980A1F5004109B21F
:10C2D00001F022BF48220020F820002007B5144BAF
:10C2E0001B685B0416D5134B1B68032B12DD124829
:10C2F0002F211BF069FF90B12F210F481BF064FF25
:10C30000411C0E4B0E4AD3F8043500920420BB2288
:10C3100008F076FF03B05DF804EB01F0BDBC064801
:10C320005C211BF051FF08B15C21E6E70249E8E718
:10C33000602100205C210020608203000010014089
:10C340008E8203000378232B01D1FFF7C7BF70470C
:10C350001FB503A816F068FC154B1B685B041AD5C3
:10C36000144B1B68032B16DD13482F211BF02CFFE9
:10C37000A0B12F2110481BF027FF411C0F4BBDF827
:10C380000C20D3F8043501920D4A009204204FF49A
:10C390008F7208F035FF05B05DF804FB06485C219C
:10C3A0001BF012FF08B15C21E4E70349E6E700BF98
:10C3B000602100205C210020608203000010014009
:10C3C000A782030007B5174B1B685B0417D5164BF4
:10C3D0001B68032B13DD15482F211BF0F5FEB8B1A8
:10C3E0002F2112481BF0F0FE411C114B114AD3F8CB
:10C3F00004350092042040F2231208F001FF02F0FD
:10C400000BFF02F031FF03B05DF804EBFFF7A0BFB4
:10C4100006485C211BF0D8FE08B15C21E1E7034926
:10C42000E3E700BF602100205C2100206082030060
:10C4300000100140BE82030030B5154B1B685B0441
:10C4400085B00C46154618D5124B1B68032B14DD1E
:10C4500011482F211BF0B8FE88B12F210E481BF088
:10C46000B3FE411C0D4B0E4AD3F804350092CDE9C2
:10C4700001459722042008F0C3FE05B030BD0648F0
:10C480005C211BF0A1FE08B15C21E7E70249E9E766
:10C49000602100205C210020608203000010014028
:10C4A000D88203001FB51A48002101F0DBF808B15B
:10C4B0001AF058F9174B1B685B041CD5164B1B6808
:10C4C000032B18DD15482F211BF07EFEB0B12F2164
:10C4D00012481BF079FE411C0D4A114B92F8B00036
:10C4E000D3F804350290128801920E4A009204207B
:10C4F0009F2208F085FE05B05DF804FB07485C212B
:10C500001BF062FE08B15C21E2E70449E4E700BFEA
:10C51000701F0020602100205C2100206082030049
:10C520000010014003830300F0B5394E3268520415
:10C53000C7B0044622D5374F3A68042A1EDD364874
:10C540002F211BF041FED8B12F2133481BF03CFEB8
:10C55000411C324D2279D5F804350392228902928A
:10C56000E28801922E4A00920520B22208F048FE8D
:10C5700033685B0402D53B68042B0ADC47B0F0BD8E
:10C5800025485C211BF020FE08B15C21DDE7224933
:10C59000DFE72269234B802A1F6805AB28BF802272
:10C5A00000211E468A4203F1020318D100231A48D3
:10C5B00006F812302F211BF007FEF8B12F21164884
:10C5C0001BF002FE411C184AD5F804350192174AA7
:10C5D00000920296B422052008F012FECEE7E06831
:10C5E000405C4FEA101C00F00F0017F80CC003F875
:10C5F00002CC385C03F8010C0131D3E706485C211A
:10C600001BF0E2FD08B15C21D9E70349DBE700BF7D
:10C61000602100205C2100206082030000100140A6
:10C620003C830300642100206A83030074830300B9
:10C6300008B503781D2B07D1074801F083F848B1EE
:10C64000BDE808401AF08EB8142B03D1BDE80840AD
:10C65000FFF76ABF08BD00BF701F0020F7B5924DFD
:10C66000A0F131062B68032E03F4804300F2F7801B
:10C67000A0F13004C3B18D4B1B68032B14DD8C4833
:10C680002F211BF0A1FD00286CD02F2188481BF022
:10C690009BFD411C874B884AD3F8043500920194D6
:10C6A000D622042008F0ACFD022C64D0042C6CD0FF
:10C6B000012C40F09A80814A1388B3F5804F38BF2F
:10C6C0004FF48043A3F5804313807C4E7C4831882F
:10C6D000A1F5004109B201F01FFD7A4801F08CF884
:10C6E0002B685B04044640F19D80704F3A68032A32
:10C6F00040F3D6806E482F211BF066FD002800F025
:10C700009C802F216A481BF05FFD411C694B3288D9
:10C71000D3F8043501926C4A0092042040F20512CD
:10C7200008F06EFD002C7DD02B685A047AD53B684A
:10C73000012B77DD5E482F211BF046FD002800F01D
:10C7400085802F215A481BF03FFD411C594B5F4A01
:10C75000D3F80435009201944FF48472022008F05B
:10C760004FFD5FE052485C211BF02EFD08B15C21BB
:10C770008CE74F498EE7514A13884BF6FF718B4285
:10C7800028BF0B4603F580439EE701F083FA40B1D2
:10C790000EF08CFB01F034FA03B0BDE8F040FFF777
:10C7A0009DBD2B6858043DD5404B1B68032B39DDDC
:10C7B0003F482F211BF008FD70B12F213C481BF092
:10C7C00003FD411C3B4B424AD3F804350092F7224B
:10C7D000042008F015FD25E035485C211BF0F4FC31
:10C7E00008B15C21EAE73249ECE72B68590416D519
:10C7F0002E4B1B68032B12DD2D482F211BF0E4FC70
:10C8000090B12F212A481BF0DFFC411C294B314AF3
:10C81000D3F8043500920420FD2208F0F1FC012E2B
:10C820007FF653AF03B0F0BD21485C211BF0CCFC78
:10C8300008B15C21E6E71E49E8E71D485C211BF0D2
:10C84000C3FC08B15C215DE719495FE718485C212A
:10C850001BF0BAFC08B15C2174E7154976E7002BA0
:10C86000E0D0124B1B68032BDCDD11482F211BF09D
:10C87000ABFC60B12F210E481BF0A6FC411C0D4BF8
:10C88000144AD3F8043500924FF48B72A0E708489D
:10C890005C211BF099FC08B15C21ECE70449EEE750
:10C8A000002C7FF444AFBDE7602100205C21002014
:10C8B00060820300001001407C83030048220020B6
:10C8C000F8200020701F0020F4820300C6830300BC
:10C8D0008F830300E884030000B57A4C7A4A4FF452
:10C8E000C0408DB0042108F06FFC2368580419D5AE
:10C8F000764B1B68032B15DD75482F211BF064FC5C
:10C90000002800F0A0802F2171481BF05DFC411C25
:10C91000704B714AD3F80435009204204FF4A97289
:10C9200008F06EFC6D4801F015FC17F0E9FB08B14A
:10C9300019F018FF02F034FC02F06EFC02F094FCD7
:10C9400011F082FD0021202203A81BF06BFB0123C4
:10C950008DF80C3007238DF80F3006238DF8143036
:10C960005F4B07935F49604B0B9303A801F054F9A9
:10C9700020B30B2840F09680236859041ED5534EEF
:10C980003268032A1ADD52482F211BF01DFC0028B3
:10C9900062D02F214E481BF017FC411C4D4D534ACD
:10C9A000D5F804350092042040F2411208F028FC2A
:10C9B00023685A0402D53368032B56DC11F05CFD62
:10C9C00064214B4801F0D8FA464B197800296CD104
:10C9D000142203A81BF026FB464B0493464B0893F6
:10C9E00003A8464B099301F06FFA08B119F0BAFE9B
:10C9F00003F018FB01F0F6FA414806F031FB01F0B4
:10CA000081F808B119F0AEFE23685B0418D52F4BEE
:10CA10001B68032B14DD2E482F211BF0D5FB0028AB
:10CA200046D02F212A481BF0CFFB411C294B354A09
:10CA3000D3F80435009204204FF4BF7208F0E0FBF5
:10CA4000FFF738FCFCE722485C211BF0BDFB08B176
:10CA50005C2159E71E495BE71D485C211BF0B4FBD4
:10CA600008B15C2196E71A4998E719482F211BF075
:10CA7000ABFB70B12F2116481BF0A6FB411C224ACC
:10CA8000D5F804350092042040F2431208F0B8FBB8
:10CA900094E70F485C211BF097FB08B15C21EAE7A3
:10CAA0000B49ECE719F05EFE88E7FFF751FC9FE7C2
:10CAB00007485C211BF088FB08B15C21B2E7044900
:10CAC000B4E700BF602100209D5102005C210020DE
:10CAD0006082030000100140F4830300F82000206E
:10CAE00045C3010024220020A5C401002C840300BA
:10CAF0005DC60100C5C30100A384030012860300C4
:10CB0000601F0020E88403007A84030038B51546CE
:10CB1000044600B112B9784603F04AFA207F29464C
:10CB200013F039F830B1BDE83840034A40F2B9118A
:10CB300019F025BE38BD00BF2286030073B5144628
:10CB40001E46054600B112B9784603F031FA216855
:10CB5000287F13F00EF820B1074A40F2D11119F0E6
:10CB60000EFE2368019301A9284611F043FD0EB182
:10CB70002368336002B070BD2286030030B50446DE
:10CB800089B0A0F1E80550F8283C0DF11E012846B7
:10CB90009847237F012B36D114F80A3C002B35D15E
:10CBA000002344F8083C204B1B685B0421D51F4B35
:10CBB0001B68032B1DDD1E482F211BF005FB50B306
:10CBC0002F211B481BF000FB411C1A4B226AD3F893
:10CBD00004350492626A039234F80C2C029214F821
:10CBE000382C0192144A0092042040F2E22208F00C
:10CBF00007FB54F8243C23B134F80E2C216A284654
:10CC0000984709B030BD13F0FD0FC9D1BDF81E30F3
:10CC100024F80C3CC4E706485C211BF0D5FA08B1A7
:10CC20005C21CEE70249D0E7602100205C21002092
:10CC300022860300001001404F8603002DE9F341D6
:10CC40001C4B1D4D1C681D4E1D4F1CB9012002B010
:10CC5000BDE8F08114F8043CA4F5C278FBB12B6860
:10CC60005B0415D53368032B12DD16482F211BF00A
:10CC7000ABFAB0B12F2113481BF0A6FA411C124A9F
:10CC8000D7F80435009204204FF42B7208F0B8FA5C
:10CC9000002388F88031A4F19C0000F0C9FE2468CC
:10CCA000D3E708485C211BF08FFA08B15C21E2E76A
:10CCB0000449E4E760220020602100205C2100207C
:10CCC00000100140228603009086030038B5C4B2EC
:10CCD0000D462046023112F0FFFE18B10C4A8921A0
:10CCE00019F04DFD291D204612F016FF18B1084A13
:10CCF0008A2119F044FD2946204612F0CDFE28B1C4
:10CD0000BDE83840024A8B2119F039BD38BD00BF5B
:10CD10002286030037B50546144612B9784603F05B
:10CD200047F995F8B8006946FFF7D0FFBDF8023023
:10CD30006380BDF80430A3809DF80030237003B0F9
:10CD400030BD13B5D0F8D830CDE90031D0F8C830B7
:10CD500004461BB1D0F8CC00694698476946201DAF
:10CD600012F09CFB02B010BD2DE9B34F0446A0F1B8
:10CD7000E80900F084FE0746204600F067FE94F8BC
:10CD80002C3034F80C5C226A022B80464BD034F8ED
:10CD90000E0C401B4FEAE07BA0FB070107FB0B11C9
:10CDA000D3171AF00BFF6946054414F8300CFFF74F
:10CDB0008DFF002D40D0BDF802108D42B8BF0D464A
:10CDC000BDF804108D42A8BF0D46A9B254F82C3C02
:10CDD00024F8101C0BB14846984794F82C30022BCD
:10CDE0000FD1626A34F8103C002A27DDBDF8042018
:10CDF0009A4206D1012384F89830124B186807F044
:10CE00001DF9B8F5FA7F0BD954F8083CFB1AB3F5B5
:10CE10007A7F05D944F8087C41464846FFF791FFE0
:10CE200002B0BDE8B08F606A4FEAE07BA0FB07016B
:10CE300007FB0B110023B4E72946C7E7E1D0BDF893
:10CE40000220D5E75C22002038B51546044600B123
:10CE500012B9784603F0ACF894F85800294612F05D
:10CE60008EFD30B1BDE83840024A40F2A11119F000
:10CE700086BC38BD2286030070B514461D460646A2
:10CE800000B112B9784603F093F8217896F858006B
:10CE900012F062FD20B1044A40F28D1119F06FFCCE
:10CEA0000DB123782B7070BD2286030073B5044644
:10CEB0001D46164612B9784603F07AF8694694F88A
:10CEC000B800FFF703FF318800238DF8003071B9F7
:10CED00001238DF8003045B1BDF802306B80BDF8FC
:10CEE0000430AB809DF800302B7002B070BD7388A9
:10CEF00094F8B800ADF80210ADF8043012F0D9FD86
:10CF000020B1114A40F24B2119F039FCBDF8041050
:10CF100094F8B80012F0EDFD20B10B4A4FF41371F4
:10CF200019F02DFC9DF8001094F8B80012F0A1FD46
:10CF300020B1054A40F24D2119F021FC6946201D1F
:10CF400012F0D2FAC7E700BF2286030073B5064687
:10CF50001D46144612B9784603F02AF8218896F83F
:10CF6000B80012F066FD20B1084A40F20A2119F01B
:10CF700006FC2388ADF8043001A9301D12F0ABFA8D
:10CF80000DB123882B8002B070BD00BF2286030044
:10CF900038B50546144612B9784603F009F895F8F5
:10CFA000B800214612F058FD30B1BDE83840034AC0
:10CFB00040F2F11119F0E3BB38BD00BF2286030037
:10CFC00038B50546144612B9784602F0F1FF95F8D7
:10CFD000B800214612F008FD30B1BDE83840034AE0
:10CFE0004FF4F37119F0CBBB38BD00BF22860300AC
:10CFF00008B50023C0F8183100F1F80190F8B80026
:10D0000012F0C9FD30B1BDE80840034A40F2813159
:10D0100019F0B5BB08BD00BF22860300F0B58BB088
:10D020001546109F1E46044600B112B9784602F01C
:10D03000BFFFD4F8D0301BB12988D4F8D40098476A
:10D04000D4F8C0300DF11E012046984708A994F885
:10D05000B800FFF73BFE2988BDF8243099426DD80F
:10D06000BDF82230994202D2002918BF194694F81F
:10D07000B800A4F8DA1012F05CFD18B1394AD421D6
:10D0800019F07DFBB4F8DA1049B194F8B800002229
:10D0900012F082FC18B1334AD72119F070FB94F8D2
:10D0A000B930BDF81E2013B12B88934258D0B4F884
:10D0B000DA309B1AC4F8FC3000222D2384F80421B6
:10D0C000C4F80031002E3BD12046FFF791FF264BDC
:10D0D000D4F8F8501B685B0422D5244B1B68032B43
:10D0E0001EDD20482F211BF06FF880B32F211D4833
:10D0F0001BF06AF8411C1E4BD4F8FC20D3F8043511
:10D100000492D4F8F8200392D4F818210292B4F8CB
:10D11000DA200192174A00920420E32208F070F806
:10D1200004F1E80000F076FC37B1B4F8D8303B8069
:10D13000B4F8DA307B807D600BB0F0BD194696E71D
:10D140007368C4F818313368C4F8F830BFE705488D
:10D150005C211BF039F808B15C21C8E70149CAE736
:10D160000025E1E722860300602100205C210020E9
:10D17000001001409E86030013B5154B1B685B042D
:10D1800004461AD5134B1B68032B16DD12482F21BA
:10D190001BF01AF898B12F210F481BF015F8411C0D
:10D1A0000E4B14F8382CD3F8043501920C4A009237
:10D1B00004204FF4327208F023F802B010BD064884
:10D1C0005C211BF001F808B15C21E5E70249E7E7C3
:10D1D000602100205C210020228603000010014015
:10D1E000DC86030030B5154685B0044600B112B99F
:10D1F000784602F0DDFED4F8C0300DF1060120467D
:10D200009847BDF806302B8094F81431022B1AD1C0
:10D2100094F8B80002A9FFF759FDB4F8DA30BDF868
:10D220000C2093424FF0FF3318BF00236B80D4F8DB
:10D2300008312BB1D4F80C31003B18BF01235B42FD
:10D240006B6005B030BDB4F8DA306B8004F1E800F3
:10D2500000F0FCFB6860F4E713B50446694690F8FB
:10D26000B800FFF733FDB4F8D810BDF80220BDF8C0
:10D27000043029B1914238BF1146994228BF19465E
:10D28000D4F8BC30A4F8D8100BB12046984702B0AF
:10D2900010BD000037B5304B1B685B040446A0F19D
:10D2A000E8051BD52D4B1B68032B17DD2C482F21C0
:10D2B0001AF08AFF002845D02F2129481AF084FF50
:10D2C000411C284B14F8382CD3F804350192264A17
:10D2D000009204204FF4547207F092FF94F82C301F
:10D2E000022B1CBF34F80E3C24F8103C2846FFF7F4
:10D2F000B3FF54F8243C23B134F80E2C216A28469D
:10D30000984734F8101C51B114F8300C012212F077
:10D3100043FB20B1124A40F2653119F030FA34F87B
:10D32000101C14F8300C12F004FC20B10C4A40F22E
:10D33000693119F024FA0021284603B0BDE83040D5
:10D34000FFF7FFBC06485C211AF03EFF08B15C21E4
:10D35000B3E70349B5E700BF602100205C2100204E
:10D360002286030000100140F8860300F0B587B064
:10D3700015460C9E1F46044600B112B9784602F0CD
:10D3800017FED4F8D0301BB12988D4F8D4009847C0
:10D39000B5F90030C4F8FC3002222D2384F80421B2
:10D3A000C4F80031002F5DD12046FFF721FED4F8EC
:10D3B000C03004F1D8012046984794F8B80004A979
:10D3C000FFF784FCB5F90030002B52DDD4F8F830BB
:10D3D000002B55D0BDF81430A4F8DA302E4B1B6862
:10D3E0005B0421D52D4B1B68032B1DDD2C482F2101
:10D3F0001AF0EAFE002846D02F2129481AF0E4FE50
:10D40000411C284BD4F8F820D3F804350392D4F803
:10D4100018210292B5F900200192234A00920420BB
:10D4200040F2691207F0ECFE04F1E80000F0F2FAB5
:10D43000B6B1B4F8D8303380B4F8DA30BDF814207F
:10D4400093424FF0FF3318BF00237380D4F8F830B5
:10D450002BB1B5F90030003B18BF01235B4273606C
:10D4600007B0F0BD7B68C4F818313B68C4F8F830E9
:10D470009DE705D0D4F8F83013B1BDF81230ABE712
:10D48000B4F8D830A8E706485C211AF09DFE08B130
:10D490005C21B2E70249B4E7602100205C21002052
:10D4A00022860300001001401A8703002DE9F04195
:10D4B00088B015460E9E1F46044600B112B9784644
:10D4C00002F076FDD4F8D0301BB12988D4F8D4000E
:10D4D000984704F1080010F00FFF5A4B84F8DE0063
:10D4E0001A6812F4804F984625D0574B1B68032BBF
:10D4F00021DD56482F211AF067FE002800F08380B6
:10D500002F2152481AF060FE411C94F8DEE0504A88
:10D51000DFF84CC128794F4BBEF1000F08BF6246BF
:10D52000D3F80435CDE901024B4A009204204FF4B0
:10D53000897207F065FED4F8C03004F1D8012046A6
:10D54000984794F8B80006A9FFF7C0FB94F8DE30BE
:10D550002A68002B60D0B4F8D8301344002B5EDD6D
:10D56000BDF81C209A4205DBBDF81A209A42B8BFCC
:10D570001A4692B2A4F8DA202B68C4F8FC300122D3
:10D580002D2384F80421C4F80031002F49D120460E
:10D59000FFF72EFDD8F800305B0423D52A4B1B681B
:10D5A000032B1FDD29482F211AF00EFE00283FD043
:10D5B0002F2126481AF008FE411C264BB4F8DA2029
:10D5C000D3F804350492D4F8F8200392D4F8182143
:10D5D00002922A680192214A009204204FF4957227
:10D5E00007F00EFE04F1E80000F014FA46B1B4F8BA
:10D5F000D8303380B4F8DA307380D4F8F830736000
:10D6000008B0BDE8F08111485C211AF0DDFD08B1D9
:10D610005C2176E70D4978E7B4F8DC309DE700221D
:10D62000A8E77B68C4F818313B68C4F8F830B1E764
:10D6300006485C211AF0C8FD08B15C21B9E703492E
:10D64000BBE700BF602100205C2100202286030090
:10D650004C87030000100140738703007F8703009D
:10D660005487030037B5044600284DD0D0F8C030A9
:10D67000002B49D0D0F8BC301BB9D0F8C430002BF7
:10D6800042D0224BC4F8B430214B224A1A60224ABD
:10D690005A60C4F8AC30214B214A1A60C4F8A43057
:10D6A000204A019104F1B8005A6012F081FA05464F
:10D6B00038BB84F8B9000199204611F01FFF0546D8
:10D6C000F8B9194BC4F8E830184BC4F8EC30184BD3
:10D6D000C4F8F03004F1E800164B84F88051C4F827
:10D6E000F430C4F8700100F0DFF9054648B912487B
:10D6F00004F5C27107F0E9FC104806F081FC104BFC
:10D700001860284603B030BD0E25FAE7B487030041
:10D710005422002079CE010049CE01004C22002085
:10D720003DCB01000DCB010079D101007DCB010083
:10D7300069CD010095D20100602200203DCC01009E
:10D740005C22002030B5054685B0002850D090F806
:10D75000B84002A9204612F09FF920B1254A40F2B4
:10D76000C63119F00CF80DF10A01204612F0B4F997
:10D7700020B1204A40F2C73119F001F803A9204630
:10D7800012F0CAF920B11B4A4FF4727118F0F7FF7A
:10D790006946204612F0F3F820B1164A40F2C9312A
:10D7A00018F0EDFF0DF10201204612F0D5F920B17D
:10D7B000104A40F2CA3118F0E2FF01A9204612F0E7
:10D7C00013F920B10B4A40F2CB3118F0D8FF0DF11C
:10D7D0000601204612F040F920B1064A4FF4737159
:10D7E00018F0CDFF6946284611F054FF05B030BD52
:10D7F0000E20FBE72286030010B5044680B3E83014
:10D8000000F016F904F1D801D4F8C030204698474A
:10D81000B4F8D81051B194F8B800012212F0BCF855
:10D8200020B1104A40F2DD3118F0A9FFB4F8D81049
:10D8300094F8B80012F07DF920B10A4A40F2E131C3
:10D8400018F09DFFD4F8D03023B1B4F8D810D4F834
:10D85000D400984720460021BDE81040FFF771BA78
:10D860000E2010BD22860300024B53F820300846DC
:10D87000184700BFD8870300024B53F820300846F2
:10D88000184700BFEC870300836803B1184770474F
:10D89000006B003818BF012070470369013B033358
:10D8A00004D84069003818BF012070470020704735
:10D8B000024601218C3009F028BF0A4600230B6381
:10D8C00002F18C00022109F020BF70B590F82C30D5
:10D8D000022B064615D0383010F069FD4FF47A74EB
:10D8E000A0FB042304FB0133D40B44EA4344DD0BC7
:10D8F000326A00239D4208BF94422CBF01200020C1
:10D9000070BD0020FCE710B50023044603630362EA
:10D91000703005F0BDFD04F13800BDE8104010F096
:10D9200071BD10B50446383010F06CFD0023236241
:10D93000E3681BB12046BDE81040184710BD000049
:10D940002DE9F04100F138050446284610F05AFD53
:10D9500004F110030FCB04F1200686E80F00606A83
:10D960001AF0F8FA064610B9784602F021FB206A50
:10D970004FF47A7832460023A0FB08011AF06EF9C2
:10D98000A26AA2FB08238B4208BF82423CBF0B461F
:10D990000246002B08BFB2F57A7F1DD3114ED90382
:10D9A000D00341EA524180194FF000060E4A4FF071
:10D9B000000346EB01011AF051F90123C4E91001FB
:10D9C00084F83830284610F0F5FC40B9636833B16C
:10D9D0002046BDE8F041184721200021EDE7BDE8D1
:10D9E000F08100BF20A1070040420F0010B504469F
:10D9F00005F08EFD236B4FF47A7101FB030104F1F6
:10DA0000700005F05CFD23681BB12046BDE81040A6
:10DA1000184710BD10B5044610B9784602F0C8FA90
:10DA2000224604F18C000021BDE8104009F06DBED3
:10DA300010B5044610B9784602F0BAFA224604F14D
:10DA40008C000321BDE8104009F05FBE2DE930488D
:10DA5000044610B9784602F0ABFA04F13800256AA2
:10DA600010F0A5FC4FF47A73A0FB03BC03FB01CCC0
:10DA70004FEADB3040EA4C40281ABDE8308838B520
:10DA8000044610B9784602F093FA04F1380010F019
:10DA90008EFC4FF47A73A0FB034503FB0155E00BAA
:10DAA00040EA454038BD000038B5044610B9784614
:10DAB00002F07EFA094BA367094BE364C4F8804087
:10DAC000A46404F1380010F0B1FC0649054604F1E5
:10DAD0008C0009F0E9FD284638BD00BFBBD8010025
:10DAE000B1D801002488030010B5044608F0EEF810
:10DAF00038B123780E2B04D1BDE81040002005F08A
:10DB00000BBB10BD08B516F0F9F820B10CF05CFEA7
:10DB100008B10CF0DBFDBDE8084005F02FBA0000AD
:10DB200070B5837DC27D86B043EA0223ADF8143020
:10DB30000546012305A80E46ADF8163015F040F84D
:10DB40000446002845D1288A04AA294615F01CFA63
:10DB5000044600283DD1BDF81010E88A0DF11203EB
:10DB6000324615F021FC0446002832D1297ED5F832
:10DB7000120001F0010104F063FE10B1784602F0DA
:10DB800017FABDF812000FF0CFFE044608BB174B82
:10DB90001B681B031DD5164B1B68062B19DD15488A
:10DBA0002F211AF011FBB8B12F2112481AF00CFBEB
:10DBB000411C2A7E104B02F00102D3F80435029278
:10DBC000D5F8122001920D4A00920720C62207F0D4
:10DBD00017FB204606B070BD06485C211AF0F4FA27
:10DBE00008B15C21E1E70349E3E700BF60210020C1
:10DBF0005C2100203488030000100140538803009A
:10DC000008B505F0D1FD13F07DF914F025FFBDE84E
:10DC1000084004F0FDBB000073B50E460546A0B3F6
:10DC200005F03EF9044668BB14F0B8FF13F0A8F9FC
:10DC300028690FF049FE044620BB2B7F0193AB6996
:10DC4000009301466B691248592210F0EDF8044622
:10DC5000C0B92B6A03B1984709F0D0FB14F09CFEC1
:10DC6000054612F0D1FE0B2D01D00B2802D1FFF793
:10DC7000C7FF0B2416F042F8054608B10CF0E4FC8F
:10DC800006B13570204602B070BD0E24FAE700BF21
:10DC90006422002016F032B808B508F017F820B159
:10DCA000BDE80840002005F037BABDE8084001484B
:10DCB00005F0D6B91821002069DF704730B5394D1D
:10DCC0002A7887B01AB1012803D0032862D007B0A0
:10DCD00030BD002301A9019301F0DCFD08B118F06B
:10DCE00041FD0C2200210DEB02001AF09BF9BDF85A
:10DCF0000C302D4823F47F7323F0030343F488731F
:10DD000043F00103ADF80C3000230493ADF8143058
:10DD10001AF052FA019AADF8160003A94120FFF754
:10DD2000CBFF08B118F01EFD01A801F017FE08B1E5
:10DD300018F018FD1D4C236803B19847012302A970
:10DD40000DF10200029315F001FB08B118F00AFD75
:10DD5000BDF8020015F088F80DF1010115F0A8F9E1
:10DD600008B118F0FFFC0CF06FFC9DF801100020CA
:10DD70000DF0D0F810B1784602F01AF905F0FEF86F
:10DD800008B118F0EFFC00232B706368002B9ED0C5
:10DD900098479CE701F04AFE002898D018F0E2FC72
:10DDA00095E700BFBE22002073880300C022002038
:10DDB00008B503781C2B0CD1064B1B784BB101F036
:10DDC00073FE08B118F0CEFCBDE80840024805F02B
:10DDD00049B908BDBE2200202421002010B5074902
:10DDE000074816F043FE024638B906490648496915
:10DDF000BDE81040032316F052BE10BDDC22002007
:10DE000048260020C02200201425002010B50378E9
:10DE1000023B082B4AD8DFE803F01E0512494938B7
:10DE200049493F00224B9B68002B3FD0007A0028D5
:10DE30003CD0204A01211170BDE8104018471C4B0E
:10DE4000DB68002B32D01B4A117879B300211170A6
:10DE5000BDE810401847184B1A784AB9144B1B6993
:10DE600013B114490A709847BDE81040FFF7B6BFD8
:10DE7000124B134801221A7005F0F2F805F0D8F899
:10DE8000A0B1BDE8104018F06DBC094B0D48996970
:10DE9000102216F049FEF3E7D0E90210FFF740FE2A
:10DEA00008B118F05FFC044B01221A7010BD00BFCE
:10DEB000C0220020BC220020BD220020BE22002063
:10DEC000242100201425002070B51C4A1C4E5168E6
:10DED000044686B0106803AB03C31189927A198097
:10DEE0009A700FCC35460FC594E8070085E8070007
:10DEF000B36903B3134B0093134A1449144803AB9B
:10DF000016F086FDA8B9134818F098F90146104894
:10DF100016F098FD68B9104818F000FB48B90E4893
:10DF200018F02EFB01460A4816F08CFD08B9FFF7E1
:10DF300055FF06B070BD0720FBE700BF95880300C2
:10DF4000C02200200DDE0100DC2200204826002037
:10DF500014250020FC220020C424002010B5054C0C
:10DF6000226832B118F040FD002802DB2368984790
:10DF7000F8E710BD88260020154B164A10B50C4650
:10DF800018600121144816F017F918B1134A4A21F4
:10DF900018F0F5FB610C0023E00341F26F728B4235
:10DFA00008BF824210D24FF47A72002319F056FE55
:10DFB00001460B48002216F011F938B1BDE81040B7
:10DFC000064A4B2118F0DBBB0521F2E710BD00BF6C
:10DFD000882600205DDF0100C4880300A0880300BC
:10DFE0008C2600202DE9F0410446CEB038B1424DD8
:10DFF0002B685A0403D5414E3368032B02DC4EB024
:10E00000BDE8F0813E4B18680DAB611E04F10F0CAA
:10E010001F4611F8012F4FEA121E02F00F0210F8EE
:10E020000EE083F800E0825C5A70614503F1020360
:10E03000EFD10023334887F820302F211AF0C4F89D
:10E04000002846D02F212F481AF0BEF8411CDFF8D7
:10E05000C4802D4AD8F8043501922C4A00920297C8
:10E060004222042007F0CCF82B685B04C7D5336844
:10E07000032BC4DD23482F211AF0A6F8002831D045
:10E080002F2120481AF0A0F8411CE27B2068D8F824
:10E0900004350B92A27B0A92627B0992227B089242
:10E0A000E27A0792A27A0692627A0592227A049222
:10E0B000E28852BA92B20392A28852BA00BA92B2DD
:10E0C000CDE90102124A00920420432207F098F899
:10E0D00095E70C485C211AF077F808B15C21B2E7AB
:10E0E0000849B4E707485C211AF06EF808B15C21D2
:10E0F000C7E70449C9E700BF602100205C21002078
:10E1000064210020C8880300F088030074830300A2
:10E11000028903000010014073B5438906680D466B
:10E120000446017A23B90191784601F041FF019933
:10E13000628905F500456A434FF6FF73B2FBF3F2BF
:10E1400092B2012A38BF0122304602B0BDE87040C9
:10E1500000F0C8B813B54389044613B1784601F0FE
:10E1600027FFD4E90001002200F070F910B17846D1
:10E1700001F01EFF206800F065F9194B60811B68F3
:10E180005B0418D5174B1B68032B14DD16482F2191
:10E190001AF01AF8D0B12F2113481AF015F8411CC3
:10E1A000124B6289D3F804350192114A009204207F
:10E1B000662207F025F8638913B9784601F0F8FE66
:10E1C000206802B0BDE8104000F0A6BA06485C2105
:10E1D00019F0FAFF08B15C21DEE70349E0E700BF70
:10E1E000602100205C2100204289030000100140D2
:10E1F000658903002DE9F8430468054694F820007A
:10E2000000F024FC04F11807FF264FF0FF394FF00F
:10E210000008207AFF2802D000F018FC2672607AED
:10E22000FF2802D000F012FC66722068431C03D065
:10E2300000F070FDC4F8009084F80B800C34BC42F0
:10E24000E7D16868BDE8F84300F028BB2DE9F0414C
:10E25000134EDFF850800C460025012706EB4106DF
:10E26000735D5BB1735D013BDBB27355735D93B955
:10E2700058F824301B682046DB6998474DB167B1D8
:10E28000084B53F824300221BDE8F041586800F0F3
:10E2900076BB0125E4E70027F0E7BDE8F08100BF89
:10E2A00034530020AC26002010B540680B49027999
:10E2B0008C5CFF2CE3B20DD0FE2B0DD0006803F573
:10E2C000A87350F82330064850F82200984203D132
:10E2D000FF238B54002010BD0120FCE7C026002046
:10E2E000C82600202DE9F74F0368904693F82120B7
:10E2F000022A04460F4640F09B800C254D435A19D4
:10E300005268904509D1DB691BB9002003B0BDE814
:10E31000F08F426810799847F7E7FFF7C5FF83460B
:10E32000002840F087806368DFF814A11B79FE2283
:10E330000AF80320266896F8200000F0E3FBD14697
:10E34000B8F1000F1FD13544687A00F0DBFB287A62
:10E3500000F0C0FB63681B79FF220AF803200C233E
:10E3600003FB0766C6F804802368DB69002BCCD06A
:10E3700063681A79304B03EB42030221D955606878
:10E3800000F0E9FAC1E7B169884507D335441FFABF
:10E3900081F8287A00F0B6FB687AD9E707EB4703E3
:10E3A0004FEA830A06EB830360685A6891423AD0C9
:10E3B000002A38D0904536D25B46032100F09AFA05
:10E3C000636896F820B0196856F80A00354401F5DC
:10E3D000A671AB7A01911BB300F0F2FC02460199E1
:10E3E000584600F057FB96F8200000F073FB636876
:10E3F0001B7909F8037063681A79104B43F822807F
:10E400000C2505FB0765606800234246394600F08D
:10E4100071FA287A00F05EFB687A00F05BFB9EE7F9
:10E4200000F0C0FCDAE70379FF2209F80320E7E7F0
:10E4300008206BE7112069E734530020C82600202C
:10E44000C02600200368188B704700002DE9F04FAC
:10E450002DED028B8BB0044604928A46002900F011
:10E460004981056895F82130002B40F0458100F086
:10E4700099FD08B1852846D100F0D2FB002839D09B
:10E480009E4B9F4E1B6803F0F003303B18BF0123E7
:10E490003370FF2385F820304FF6FF7300222B8165
:10E4A0004FF0FF33EA722B60EA75AB82EB6005F147
:10E4B000200000F097FA0596074608BB0AF108030A
:10E4C000804606935AF828B05FFA88F3BBF1FF3F05
:10E4D00008EE103A00F09D80266896F82110B9B138
:10E4E00008262046FFF786FE30460BB0BDEC028BB7
:10E4F000BDE8F08F00F05CFB0028C1D00326F3E7F5
:10E500002046FFF777FE0426EEE74FF00108D9E733
:10E510004FF00C0909FB08F9069B06EB090213F8FA
:10E5200008309372516003228DF8202022680393F3
:10E530004A4408A9927AB2FA82F252098DF821204F
:10E54000584601228DF8222000F074FBD8B9039BB5
:10E5500046F809B00122002B00F0B480BBF11F0F78
:10E5600086BF68490BF01F0B4FF0A04102FA0BF277
:10E57000C1F80C250C2303FB08FB0BF10800304409
:10E5800000F030FA08B10426ABE70BF10900304483
:10E5900000F028FA0028F6D106EB0B030793187A4F
:10E5A00000F0B0FA079B587A00F0ACFA039B56F8DB
:10E5B0000900002B00F0938000F002FC834656F81F
:10E5C000090000F0EFFB8146606801680C2000FB49
:10E5D00008664FEA880303F5A07319445A46307A57
:10E5E00000F058FA6368707A19684A4601F5A47118
:10E5F00000F050FA0123F3726368434A1B7902EB7F
:10E60000430318EE101A0022204603F80820FFF7F3
:10E6100069FEB8F1000F3FF478AFDAF81030B3F5C7
:10E62000805F01D3092F62D1059B1B7813B1012FA5
:10E6300038BF012700238DF8213060688DF82070E5
:10E640004FF4E063ADF822300379304A099308A90A
:10E6500000F09CF8064600287FF443AF6368DAF8C0
:10E6600010201B68D3F81075FFB2100FC7F12001FE
:10E67000120100FA01F1A7F1200322FA07F720FAAC
:10E6800003F30F431F43AF6160684FF0010800F0D0
:10E690002DF904233A466068CDF80080022100F08D
:10E6A00044F90221606800F06AF9049BEB61636839
:10E6B000174A1B7985F8218042F82340154AFF212B
:10E6C000D15411E7BBF11F0F86BF0E490BF01F0B92
:10E6D0004FF0A04102FA0BF2C1F808254AE700F01A
:10E6E00061FB834656F8090000F06AFB6BE75B08A4
:10E6F000013794E70B26F7E60826F5E6E80F00F069
:10E70000DC26002000030050345300204DE20100BD
:10E71000AC260020C02600202DE9F0470768DFF86E
:10E720006890002604463D46B0464FF00C0A6368E8
:10E730001B7909EB430303F80680EB7A73B1236876
:10E7400028680AFB0633997AB1FA81F1490900F089
:10E7500045FB286800F014FBC5F804800C357EB139
:10E760006368084A1B79FF21D154606800F0BEF845
:10E77000606800F079F8022387F82130BDE8F0875F
:10E780000126D4E7C026002034530020F7B50679CF
:10E79000324D0C2474432F193B7A002B5BD12A5144
:10E7A0004A687A609C461A4647790368D4B2A74201
:10E7B00047D8CA782A4F1C0B43F30733002BAEBF50
:10E7C00003F16043274B04F00F044FEA4212D2B228
:10E7D000AABF03F561431A5583F80023036843F386
:10E7E000073464090122C3F3043302FA03F347F840
:10E7F000243007684B78D7F8044503F0030324F06E
:10E8000003042343C7F8043507688B78D7F8084515
:10E8100003F0030324F003042343C7F80835046816
:10E820000B78D4F8100503F00F0320F00F010B4311
:10E83000C4F810350C2303FB065500202A7203B0E0
:10E84000F0BDA40004F5A074013243F804C01B59C4
:10E850000193019BA8E70820F1E700BFE026002014
:10E8600000E100E014ED00E0036801221A60037982
:10E87000034A0C2101FB032302221A72704700BFD6
:10E88000E02600200368044901221A6103790C2064
:10E8900000FB03131A727047E0260020026838B5A7
:10E8A00042F3073301215B09C2F3043201FA02F299
:10E8B00020330C4941F8232003680025D3F80022B7
:10E8C000C3F8005203684FF0FF320446C3F8082330
:10E8D000FFF7D8FF2379044A0C2101FB03231D72A3
:10E8E00038BD00BF00E100E0E026002003680122FF
:10E8F000DA60704773B54FF4803405688C408BB193
:10E900008B0003F5A0730026EE50EB580193019B9A
:10E910000368C3F80443036801F5A87143F8212094
:10E9200002B070BDC5F80843F5E7F0B4076840F2DF
:10E930000116D7F800528E4025EA0605C7F80052A6
:10E940000468D4F800522B43C4F800329DF810300C
:10E95000F0BCFFF7CFBF8B0013B503F5A0730268BF
:10E960009BB20024D450D3580193019B02684FF40A
:10E97000803303FA01F1C2F8041302B010BD02683B
:10E980004FF4803303FA01F1C2F808137047000016
:10E990002DE9F341104C114F114E00254FF48038F2
:10E9A000236883B1D7F8043308FA05F21A420AD073
:10E9B000002323602368019304F5E040019B80B2AB
:10E9C000D6E9003198470135042D04F10404E7D15C
:10E9D00002B0BDE8F08100BF4091004000900040CF
:10E9E000E02600202DE9F74F4FF00009154D164F96
:10E9F00006464FF0040AC8465FFA89FB01240DF170
:10EA0000070004FA0BF48DF8078000F061FC2C423B
:10EA100008D03B6814EA030201BF23433B6086F839
:10EA200000B092469DF8070000F076FCBAF1000FA6
:10EA300003D0A54309F10109DED1504603B0BDE87A
:10EA4000F08F00BFFFFF0100EC260020012337B547
:10EA500003FA00F5C5F31003ABB10C4B0024C3F867
:10EA600008550DF107008DF8074000F031FC084B08
:10EA7000186820EA050018609DF8070000F04CFCBB
:10EA8000204603B030BD0720FBE700BF00F0014087
:10EA9000EC26002010B5A1B19AB101238340C3F345
:10EAA000100484B10A4C246823420ED0C00000F147
:10EAB000804000F5F830C0F81015C0F8142500208B
:10EAC00010BD0E20FCE70720FAE70820F8E700BF9A
:10EAD000EC260020012202FA00F3580C400440B951
:10EAE0001BB1064A1268134205D0054AC2F8043524
:10EAF0007047072070470820704700BFEC260020B1
:10EB000000F00140012202FA00F3580C400440B921
:10EB10001BB1064A1268134205D0054AC2F80835EF
:10EB20007047072070470820704700BFEC26002080
:10EB300000F0014000F1804000F5C040002382B0A9
:10EB4000036003680193019B02B0704703681F2BA9
:10EB500083BF03F01F03036001484FF0A0407047DC
:10EB60000003005007B5019001A8FFF7EFFF019BDC
:10EB700000EB8300D0F8003723F44033C0F80037AF
:10EB8000D0F8003743EA0141C0F8001703B05DF840
:10EB900004FB0000054B4FF0FF32072843F820200C
:10EBA00084BFC01880F84620704700BFF0260020C0
:10EBB00010B5174C94F8553043BB04F124032A21B7
:10EBC000FF22013911F0FF0103F8012BF9D1C8B27E
:10EBD000FFF7E0FF01310929F9D1062200210D4894
:10EBE00019F020FA0C4BC02283F8062340221A6049
:10EBF0004FF4BE70FFF79EFF084B4FF00042C3F882
:10EC00000423012384F85530002010BD0820FCE7C0
:10EC1000F02600203F27002000E100E000600040D7
:10EC2000034B93F85500003818BF0120704700BF10
:10EC3000F026002037B5354B1A18044692F9240007
:10EC4000013061D18878002852D01846002250F84F
:10EC5000045B013546D1181980F82420002043F8C0
:10EC60002200920002F1804202F5C0420B78D2F8F5
:10EC70001055487825F499151B04000525F4F8551E
:10EC800000F4801003F44033C2F81055034320020F
:10EC9000D2F8105500F47C5003432B43C2F81035D2
:10ECA0004A780194012A01A826D1FFF74FFF019B62
:10ECB0009A40C0F8082501A80194FFF747FF019B7F
:10ECC000134903F5E073032240F8232024FA02F2EB
:10ECD000012304F0070003FA00F08B5C184388540A
:10ECE000002003E00132082AB1D1042003B030BD76
:10ECF000FE2382F82430D3E7FFF728FF019A01238F
:10ED00009340C0F80C35D6E70820EFE7F026002046
:10ED10003F27002037B5174C2518014695F82400E9
:10ED2000072809D8FFF736FF95F92430124A03F572
:10ED3000A273002042F823006318FF220F4D83F8CE
:10ED40002420CC0801F0070301229A402B5D1342D6
:10ED50000DD001A80191FFF7F9FE019B03F5E073C7
:10ED6000022140F823102B5D23EA02022A5503B04A
:10ED700030BD00BFF0260020006000403F2700208B
:10ED8000074B184490F924309B0003F1804303F5AE
:10ED9000C043D3F8102542F00302C3F81025704792
:10EDA000F0260020054B184490F924000C30800018
:10EDB000C0B200F1804000F5C0407047F02600204E
:10EDC000054B184490F9240018308000C0B200F1BF
:10EDD000804000F5C0407047F02600200A4B1844E0
:10EDE000003990F924304FEA830303F1804303F59F
:10EDF000C04318BF0121D3F8102522F4801242EA43
:10EE00000152C3F810257047F02600202DE9F04785
:10EE1000002488B0CDE902445E4D4FF48072012198
:10EE200002F1804303F5C04390B21B68012B06D169
:10EE3000D5F804330B4202D0FFF77CFE0C430432BA
:10EE4000B2F5907F4FEA4101EAD1534B1B68012B89
:10EE50000ED14FF4BE70FFF76DFE4FF0A04344F0AB
:10EE60000044D3F8103502934C4BD3F8103503937C
:10EE700014F0FF0F1AD04A4F01260025264210D069
:10EE8000AB0003F1804303F5C043D3F81005D3F87A
:10EE9000101557F8253023B1C1F30141C0F3052007
:10EEA00098470135082D4FEA4606E7D1002C6ADA6B
:10EEB00004AF002304937B604FF0FF33CDE90633AA
:10EEC000374EDFF8D8904FF0010896F94E3096F89B
:10EED0004E20013322F0C00455D008AB03EBD40A16
:10EEE00002F007011AF8083C08FA01F10B424FEA58
:10EEF000D40048D03319920993F9243056F823509E
:10EF00002DB9032A3FD13B5C0B433B5401E0032A5C
:10EF1000F9D001A80194FFF719FE019B03F5E073F6
:10EF200050F823301AF8180C0842C3F3014307D0F5
:10EF3000022B28D1032A1CD02DB34FF0000A1CE06D
:10EF4000032B20D1032AF7D102212046FFF70AFE26
:10EF50008DB94FF0A0430299D3F81025D9F8103598
:10EF6000914213D002920393049A059B0692079351
:10EF7000ABE71146E9E74FF0010A11462046A847E2
:10EF8000BAF1000FE5D108B0BDE8F08703999942C6
:10EF9000F9D0E7E7006000407C61004000030050CA
:10EFA000F0260020034B187810B901221A70704720
:10EFB000852070474827002072DF704773DF704755
:10EFC00074DF70472DE9F0412F4CA2B006460F4682
:10EFD000904600211022204619F024F82B4A2C4993
:10EFE0001378C3EB4315294421602A49013303F008
:10EFF00001030D441F211370A180A1813C22002137
:10F0000004A8A56019F00EF8062301AA8DF81330A4
:10F010000E9201233C22002113A88DF80230ADF896
:10F0200020308DF83C30ADF80060CDF824D0ADF83C
:10F030000460ADF80880039718F0F4FF224602231D
:10F0400052F8041B8DF84C3004A800F0F5F908B113
:10F0500017F088FB104AA16813A800F0EDF908B179
:10F0600017F080FB0D4A08490D48FFF7A5FF082857
:10F0700004D105490A480022FFF79EFF08B117F0A6
:10F0800071FB22B0BDE8F0818827002049270020CD
:10F090004A270020982700209427002034210020B0
:10F0A00030210020B0F5202F0AD20A23B0FBF3F361
:10F0B00010B1012B38BF0123034A9381916070473F
:10F0C0004FF6FF73F5E700BF3421002008B5064B6B
:10F0D00001211878FFF772FF08B117F043FBBDE874
:10F0E0000840002004F0B2BD3021002008B5054BD7
:10F0F0001878FFF765FF18B1BDE8084017F032BB7C
:10F1000008BD00BF3021002076DF70477ADF7047EE
:10F110007CDF704769DF704717F024BB03F0A4BFA2
:10F1200007B503784BB940883B21FFF7EDFF08B3E3
:10F1300003B05DF804EB17F015BB012B1AD1134B8C
:10F140001B685B0416D5124B1B68032B12DD11489C
:10F150002F2119F039F880B12F210E4819F034F819
:10F16000411C0D4B0D4AD3F804350092042068224F
:10F1700006F046F803B05DF804FB06485C2119F080
:10F1800023F808B15C21E8E70249EAE760210020A2
:10F190005C2100207889030000100140A889030049
:10F1A0001FB500F043FC08B117F0DCFA00236946F4
:10F1B0000120009300F06EFB08B117F0D3FA0C2287
:10F1C000002101A818F02EFFBDF80430114823F4E7
:10F1D0007F7323F0030343F4887343F00103ADF816
:10F1E000043000230293ADF80C3018F0E5FF009ACC
:10F1F000ADF80E0001A94120FFF78CFF08B117F010
:10F20000B1FA684600F0AAFB08B117F0ABFA05B0F6
:10F210005DF804FB738803001FB5112310488DF8B7
:10F22000043018F0C9FF0E4982B201A8FFF770FF41
:10F2300008B117F097FA08220DEB0200002118F030
:10F24000F1FE084A4FF0C87302A8CDE90223FFF788
:10F250005DFF08B117F086FA05B05DF804FB00BF4A
:10F26000738803007800C80010B58AB001AC08228A
:10F270000021204618F0D6FE124A4FF0C873CDE99F
:10F28000012300211C2203A818F0CCFE4FF4803388
:10F2900040F6CD41CDE9041303238DF81830002347
:10F2A000ADF81A308DF81C30074B089303A8074BB4
:10F2B0000394099300F03CFD08B117F053FA0AB02B
:10F2C00010BD00BF7800C80021F1010019F1010054
:10F2D00070B5EFF3108672B60C4A946801239CB99E
:10F2E00093600B4B0B4DD3F8801029401160C3F88D
:10F2F0008050D3F8841051604FF0FF32C3F884205F
:10F30000047006B962B670BD0370FAE7405300207E
:10F3100000E100E0FC06FFBD10B5084B9A685AB149
:10F3200050B9EFF3108172B6054A1C6814605C682E
:10F330005460986001B962B610BD00BF4053002010
:10F3400000E100E06DDF704779DF70477DDF7047D7
:10F3500064DF70472DE9F04F85B000250E9CBDF8A5
:10F360003CB0B4F800A00191074690461E46A9465D
:10F370003A884A450DDC45B12388013BA3EB0A03DB
:10F380009BB2FF2B3AD806F80A30002005B0BDE842
:10F39000F08F7A6852F82900039000220DF10B01DA
:10F3A00003A8FFF7D5FF0028F0D19DF80B204245B8
:10F3B00021D12288002D14BF0020022002EB080179
:10F3C000014459451ADC3DB9013292B2019B2280B9
:10F3D000B35422880132228022880DF10B0132447D
:10F3E00003A8FFF7B5FF0028D0D121889DF80B2096
:10F3F0000A442280012509F10109B9E70C20C5E77B
:10F400002DE9F341089FBDF824801546CDE9007829
:10F41000022204461E46FFF79DFF50B933461022D4
:10F4200029462046CDE9087802B0BDE8F041FFF753
:10F4300091BF02B0BDE8F0812DE9F04F002317889D
:10F44000138090F82D3085B006460D46144653B310
:10F45000082F01D80C2027E102A8FFF773FF00282E
:10F4600040F0228123880822EA54238801339BB28A
:10F470001B222380EA542088013080B2208006229B
:10F480000DF10901284418F0BFFD23889DF80820DC
:10F4900006339BB212F0FE0218BF01222380EA5409
:10F4A000238801332380B378FBB123880433BB4224
:10F4B000D0D802A8FFF748FF002840F0F580238845
:10F4C0000322EA54238801339BB219222380EA5491
:10F4D0002388BDF8082001339BB2E9182380EA5441
:10F4E000120A4A70238802332380F2789AB1238863
:10F4F000D91CB942AED80221E954238801339BB20A
:10F5000001212380E95423880B449BB22380EA54D1
:10F5100023880B4423807268AAB12388D91CB9427E
:10F5200098D8022192F90020E954238801339BB234
:10F530000A212380E954238801339BB22380EA54B3
:10F540002388013323803389002B40F0A180338A44
:10F550005BB1CDE900472B460722032106F11000DD
:10F56000FFF74EFF002840F09F80338B5BB1CDE961
:10F5700000472B461522142106F11800FFF740FF23
:10F58000002840F09180326A002A40F09080D6F83E
:10F590002480B8F1000F30D0B8F804302188981CCE
:10F5A0008A1C0244BA423FF655AFFE283FF652AFDE
:10F5B00003336B54238801339BB2FF222380EA5428
:10F5C000238801339BB22380B8F80020EA54E9185D
:10F5D000120A4A702088023080B22080B8F80420D5
:10F5E0005AB1D8F8081000296BD0284418F00CFD47
:10F5F0002388B8F804201344238096F82C30002B7D
:10F6000040F09A80307800284ED03388012B58D0B3
:10F61000228802F1020CBC453FF61CAF012805D13F
:10F620007378023313449F42FFF414AF023FBF1AB2
:10F63000BFB202A905EB0C00ADF80870FFF786FE1B
:10F6400090BB3178BDF80830022900F0BA8072789A
:10F650009A4202D3BB4240F2B280012940F0B3800B
:10F66000974293B2C0F0AF80ADF808300821BDF8E2
:10F670000830FE2B3FF6EEAE22880133AB542288D1
:10F68000013292B22280A9542288134423800BE0D5
:10F69000CDE900472B460622022106F10800FFF7BC
:10F6A000AFFE00283FF453AF05B0BDE8F08FB4F8CB
:10F6B00000C00CF10603BB423FF6CCAE1188052911
:10F6C00001D80720F0E76FF4486E01EB0E039BB200
:10F6D0004FF27D3E7345F4D95388052BF1D96FF471
:10F6E0004860181880B27045EBD94FF6FF70814220
:10F6F00003D0834201D09942E3D8052305F80C30AA
:10F70000238801339BB212212380E95423880133DB
:10F710009BB223801188E954E818090A41702388B4
:10F7200002339BB223805288EA54E918120A4A70C5
:10F730002388023323802AE7B36A002BC1D04FF01D
:10F7400000094FF00C0A4FF0160B96F82C305FFAB8
:10F7500089F293427FF656AFB16A0AFB02F201EBDF
:10F760000208B8F80430981CFE283FF673AE2088D3
:10F7700003332B54238801339BB2238005F803B055
:10F78000238801339BB223808A5AEA54E918120A6B
:10F790004A702088023080B22080B8F804205AB124
:10F7A000D8F8081000298CD0284418F02DFC2388A4
:10F7B000B8F804201344238009F10109C5E70921A1
:10F7C00055E7BB42FBD9ADF808704FE701600B6805
:10F7D00043604A68934204BF002343607047436814
:10F7E00043B1026891680B4443605268934204BF7E
:10F7F0000023436070474BDF704700001FB50D4C7E
:10F8000001A8FFF7F8FF70B9214602A8FFF7DEFF55
:10F81000039B002BF4D00198D3E90021904702A864
:10F82000FFF7DDFFF4E7052801D016F09BFF04B0D9
:10F8300010BD00BFD489030060DF704769DF7047E7
:10F8400061DF704730B5114B1B78A9B0E3B1104DA3
:10F8500094240DF1020103A8ADF80240FFF7F0FF78
:10F8600070B9294601A8FFF7B1FF029B002BF0D029
:10F8700003A8D3E90021904701A8FFF7B0FFF4E700
:10F88000052801D016F06EFF29B030BDD627002024
:10F89000E08903007FB505460C4600295AD02E4B5F
:10F8A0000B600C22002101A818F0BCFB01260623E6
:10F8B0002268ADF8083001A920208DF804508DF899
:10F8C0000660FFF7BBFF0C22002101A818F0AAFB7D
:10F8D00022688DF8056001A94020FFF7AFFF0C22D8
:10F8E000002101A818F09EFB45232268ADF80630E0
:10F8F00001A923208DF80450FFF7A0FF0C2200215E
:10F9000001A818F08FFB002522688DF8045001A98A
:10F910003046FFF793FF0C22294601A818F082FB1E
:10F920004FF4B0632268019301A9A120FFF786FF7D
:10F930000C22294601A818F075FB9DF804302268B6
:10F94000334301A9A0208DF80430FFF777FF284644
:10F9500004B070BD0E20FBE7601F002008B5FFF764
:10F960006BFF10B9014B01221A7008BDD627002089
:10F9700010DF704711DF704713B504460949684628
:10F98000FFF724FF019808B902B010BDD0E90021AB
:10F990002046904718B16846FFF721FFF2E7112093
:10F9A000F2E700BFF089030013B504460749684633
:10F9B000FFF70CFF019B0BB902B010BD2046D3E945
:10F9C000002190476846FFF70AFFF3E7088A030023
:10F9D000064B9A6822B11A6822F480021A607047B6
:10F9E000034B4FF48002C3F880207047405300203F
:10F9F00000E100E00B4991F816335A09EC2313415A
:10FA0000DB0706D5084B9A683AB94FF480030B60C0
:10FA1000704742F2020016F0A5BE1A6842F4800256
:10FA20001A60704700E100E040530020F7B5194F1D
:10FA30003C7864BB184E012520463570FFF79CFFCB
:10FA4000112821D02046FFF7AFFF144B8DF803405B
:10FA5000186801900DF10300FFF73AFC104901A866
:10FA6000FFF786FF0446B0FA80F0400938709DF831
:10FA70000300FFF751FC3CB90A4B34701C70FFF7D0
:10FA8000B9FF2846FFF790FF204603B0F0BD0824D9
:10FA9000FAE700BFD8270020D7270020EC89030011
:10FAA000B1FD0100D9270020F7B5154F3B781BB3F6
:10FAB000144E01203070FFF75FFF11284FF0000552
:10FAC0001CD00220FFF770FF0DF107008DF80750E2
:10FAD000FFF7FEFBFFF74EFF04469DF807003D7061
:10FAE000FFF71AFC2CB93470FFF772FF0320FFF701
:10FAF0005BFF204603B0F0BD0824FAE72C46F8E788
:10FB0000D8270020D727002007B508496846FFF707
:10FB10005DFE019B13B903B05DF804FBD3E900203F
:10FB200090476846FFF75BFEF3E700BFFC890300E0
:10FB3000FFF7EABF75DF704776DF70477ADF7047FF
:10FB40007BDF7047034B1A8882420CBF18460020A7
:10FB5000704700BFF8270020024B9B6903B118478C
:10FB6000704700BFDC27002073B585B22846FFF739
:10FB7000E9FF044670B1164E027A337B9A420BD2EB
:10FB800000F10A012846FFF7D5FFE8B1112801D09E
:10FB9000FFF7E2FF02B070BD00230372337C43B174
:10FBA0003B212846FFF7C8FF30F0080301D0FFF7DC
:10FBB000D3FF7369002BEDD000228DF80420ADF83F
:10FBC000065001A89847E5E7237A01332372E1E75D
:10FBD000DC27002037B50B46497A0F4A71B9D2E9C4
:10FBE00001141D7A0246002D18BF2146586814F0F2
:10FBF000F5FA08B1FFF7B0FF03B030BD002119726C
:10FC00005369002BF8D00122ADF806008DF80420CE
:10FC100001A89847F0E700BFDC2700204B88028846
:10FC20009A4213D842889A4210D380888A8840F238
:10FC3000F313984294BF031AC31A934206D800F2F2
:10FC4000F310904234BF002001207047002070471D
:10FC500070B50388122B014659D004D8102B1ED042
:10FC6000112B44D070BD502BFCD12F4BC288DB89A7
:10FC70009A42F7D1038A022BF4D186883046FFF7E7
:10FC800061FF05460028EDD001F1120000F08AF86E
:10FC900038BB686814F0EEFA0028E3D009E0C37BB3
:10FCA000012BDFD14FF6FF70FFF74CFF054620B95F
:10FCB0000420BDE87040FFF74FBF8E881B4A0680C6
:10FCC000002303721368C0F80A305368C0F80E307E
:10FCD00010310A30FFF7A2FF134B6872DB89002B4B
:10FCE000C0D129463046BDE87040FFF773BF808819
:10FCF000FFF728FF04460028B4D0406814F0BAFA91
:10FD000008B1FFF729FF4FF6FF732380AAE7868823
:10FD10003046FFF717FF05460028A3D008310A3008
:10FD2000FFF77CFF6872DCE7DC2700200C2800204E
:10FD3000F8B5064648B305460FCD154F3C460FC4EF
:10FD400095E8070084E807003068124C3C60B0B1C9
:10FD5000FFF7F4FEC0B9326813682360536863602C
:10FD60000D480E4A4FF6FF7303800D4B40F8043FD9
:10FD7000002114F021FA002818BF032004E02046D7
:10FD8000FFF7DEFE0028EBD0F8BD0E20FCE700BF39
:10FD9000DC2700200C280020F827002069FB010048
:10FDA00014280020007800F00100704706207047FA
:10FDB00030B5754B14461B6844F20102904287B07F
:10FDC0000D4603F4804300F0A98022D8012844D0D6
:10FDD00041F20102904276D0002B58D06B4B1B6849
:10FDE000002B54DD6A482F2118F0EEF9002800F0AE
:10FDF000BF802F21664818F0E7F9411C654B664A21
:10FE0000D3F80435009201957B22012005F0F8F922
:10FE10003DE044F202029042DED1002B37D05B4B32
:10FE20001B68002B33DD5A482F2118F0CDF900282C
:10FE30006BD02F21564818F0C7F9411C554B22882A
:10FE4000D3F8043503926268CDE90152534A009217
:10FE50000120692205F0D4F919E0C3B14B4B1B68AE
:10FE6000002B14DD4A482F2118F0AEF910B32F21D2
:10FE7000474818F0A9F9411C464B494AD3F80435C4
:10FE80000092CDE901546022012005F0B9F94FF04C
:10FE9000A0434FF4F032C3F81825C3F80C25EFF354
:10FEA000108372B64DF6AD6C3E4A1378002B68D1C4
:10FEB00007B030BD36485C2118F086F908B15C21E6
:10FEC000D6E73349D8E7002BE1D0304B1B68002B35
:10FED000DDDD2F482F2118F077F968B12F212C484C
:10FEE00018F072F9411C2B4B2F4AD3F804350092BD
:10FEF000CDE901546322C7E725485C2118F064F975
:10FF000008B15C21EBE72249EDE721485C2118F0BC
:10FF10005BF908B15C218DE71D498FE7002BB6D056
:10FF20001A4B1B68002BB2DD19482F2118F04CF931
:10FF3000A8B12F21164818F047F9411C154B22682B
:10FF4000D3F8043504926268CDE90252A2680192A6
:10FF5000164A00920120732205F052F997E70C48E7
:10FF60005C2118F031F908B15C21E3E70849E5E7C5
:10FF700007485C2118F028F908B15C213AE70449E8
:10FF80003CE730BF91E700BF602100205C210020EA
:10FF9000148A030000100140B88A0300788A030025
:10FFA0003C8A03004C210020568A0300978A0300F4
:10FFB00007B500230146ADF800306A46044B0193B3
:10FFC00044F20200FFF7F4FE03B05DF804FB00BF4B
:10FFD000638D030001461022014818F015B800BFD8
:10FFE0003428002010B50C4C0C490822204618F08B
:10FFF0000BF808220A49A01818F006F8A37903F0B4
:020000022000DC
:100000000F0343F04003A371237A03F03F0363F02F
:100010007F03237210BD00BF342800206000001051
:10002000A400001000487047342800200022064930
:1000300013460132202A4B804B6001F8083BF8D16F
:10004000024A1360704700BF442800204429002062
:10005000F0B50C4B0C4D1B68044620227BB1013BD4
:1000600015F8330050B105EBC3067788A74202D1DB
:1000700076688E4202D0013AF0D11046F0BD1F23BF
:10008000EEE700BF442900204428002030B5094A8B
:10009000094C136804EBC3051F2B69604FF0010185
:1000A00004F83310194408BF0023688014BF11609E
:1000B000136030BD4429002044280020C0F30C0305
:1000C0008B42084438BFA0F50050C01A70470000AA
:1000D000F0B50D4B0D4A1E6800218E4212D01568F6
:1000E00000230AE052F8044C04EBC30714F8334031
:1000F000844201D17868F0BD01339D42F2D10131D3
:100100000832EAE70020F6E7CC290020D4290020B5
:1001100000B58DB048B9991C07D0012101A8CDE9DF
:1001200002328DF8041001F04FFA034B186803F007
:1001300085FF0DB05DF804FBD829002010B50378C9
:10014000044613B97846FFF733FF607A431C012059
:100150009840013810BD2DE9F0410E468EB015468D
:100160001C46074610B97846FFF722FF16B97846B5
:10017000FFF71EFF636AA27802330593E378A2F1CA
:100180000800002B14BF012102210DF10408424296
:100190004241434604F10C0004F085F8A3788DF841
:1001A0003430237BADF82050022B16FA85F5CDE9CB
:1001B00006870B960C950FD1236913B97846FFF784
:1001C000F7FE23690993102305A8ADF8283004F041
:1001D00066F80EB0BDE8F0810023F5E7B2F5C07F08
:1001E0002DE9F04781468846174602D97846FFF741
:1001F000DFFE244B00259A4693F848605EB93846E6
:1002000007F099FF702404FB05A4E06648B90024B8
:100210002046BDE8F0870135042D03F17003EBD1D2
:10022000F5E730224946204617F0EEFEB8F1010FFF
:10023000E664A4F84A701BD1134BA4F852601B7DEE
:1002400084F8513084F85060D9F8283063656FF035
:100250000103A3620D4BA4F85860A363246401203A
:1002600002F09EFA702303FB05A585F84880CFE7CE
:100270006FF00103A362064BA36584F86860054B29
:100280002466EAE7F4290020DC290020ED090200B9
:1002900001100200E509020010B50446C06E07F027
:1002A0004CFF04F1300003F0F3F894F84830022BCF
:1002B00003D104F1500003F0EBF820467022002136
:1002C00017F0B0FE002084F84800BDE8104002F0AE
:1002D00067BA10B590F84830012B8CB0044602D0B4
:1002E0007846FFF765FE01238DF80430636D0293B5
:1002F00003F00EF9039001A801F066F92046FFF71C
:10030000CBFF0CB010BD10B50446808A02F0F0FCA3
:1003100001281CD1237BD3B194F91620002A18DBC5
:10032000E27D5AB1022B12D094F90330002B10DB7E
:10033000A378002B0CBF0020072010BDE2780AB97B
:10034000012B06D1237833B9A378042BF2E71020D0
:10035000F3E70720F1E70020EFE700001FB50023D7
:100360000A468DF80F3028B3023008600DF10F01F6
:10037000104603F096FF9DF80F30DBB1144B1B685D
:100380005B0717D5134B1B68032B13DD12482F2176
:1003900017F01AFF98B12F210F4817F015FF411CD5
:1003A0000E4B0F4AD3F804350092042040F2154258
:1003B00004F026FF9DF80F0005B05DF804FB064829
:1003C0005C2117F001FF08B15C21E5E70249E7E78E
:1003D000602100205C210020D18A03000010014030
:1003E000EE8A030070B50446D4E906122378808AA9
:1003F0008CB0D3B1E38805F0BDFE054690B1A68A66
:10040000E4692C22002101A817F00CFE04F001047D
:100410000F2301A88DF80430ADF80860ADF80A404C
:1004200001F0D2F828460CB070BD05F09FFEE4E75D
:100430002DE9F04F98461378D2F818A0F3B006468D
:100440000D46144623B1D1885046FFF737FE906120
:10045000E378A278002BA2F108000DF10C0914BF7B
:100460000121022104F10C0742424B464241384629
:1004700003F019FFA3788DF83C30ADB2E81A80B2D2
:10048000CDE90896E378C4F818A006440E964FF01C
:10049000000912AEADF828000D96ADF83090002B93
:1004A00065D04FF0100B04F1240A237BC4F824908C
:1004B000022B02BF2369ADF830B00B93206A21797B
:1004C000524613F093FA606A30BB237B022B05D1AE
:1004D000E089394613F04EFB0028E6D1374B1B6804
:1004E0005B0741D5364B1B68052B3DDD35482F2179
:1004F00017F06AFE002858D02F21324817F064FE0A
:10050000411C314B314AD3F804350092062040F2A9
:10051000017204F075FE27E007A9FFF71FFF00280E
:10052000CCD02046FFF75EFFF0B9A1780B906D1A92
:100530008DF81C0097E80300A38AADF82A30012249
:100540000CAB8DF8282083E80300A37D8DF84030A4
:10055000236A0E9307A8636A0896ADF824500F9398
:10056000CDF8448001F030F873B0BDE8F08F227B05
:10057000012AB3D1A146E089B4F814A049F8243F78
:10058000494613F075FA606A07A9FFF7E7FE0028ED
:10059000C7D160624946504613F06AFA606A07A9FB
:1005A000FFF7DCFE002899D0BBE706485C2117F076
:1005B0000BFE08B15C21A0E70249A2E76021002000
:1005C0005C210020D18A030000100140018B030050
:1005D000C37D0A7830B5002B3DD0C37822F07F026E
:1005E00003F07F031A430A700B78027803F07F034D
:1005F00043EAC2130B70037863B38378083B5A4213
:100600005A414B7803F07F0343EAC2134B708A7858
:10061000C58802F00302C5F3861442EA850223F07E
:100620007F032343D2B28A704B70CB78057A03F0F4
:100630001F03C5F3C10422F0030243EA451322431A
:10064000DBB2CB708A70427A23F01F0302F01F02E4
:100650001343CB7030BDC47822F0400343EA8413C7
:10066000DBB20B70027923F03F0302F03F02134329
:100670000B70B9E72DE9F04F824689B00D4609B1FC
:1006800000220A600AF10C039AF8504001930127F6
:100690004FF0000B9AF80900A04203D2002009B0E5
:1006A000BDE8F08FDAF84C1007FA04F20A4264D180
:1006B0009AF81720019B8AF80840002A0CBF0C26E4
:1006C000082684429AF80020029306FB04F908BF2A
:1006D000BAF84A608DF818B008BFA6EB0906002AE0
:1006E00014BF4FF004084FF0010806EB0802049213
:1006F000DAF82820039202A8DAF82C20059203F0F9
:1007000074FF0028CBD1079A904454B99AF853202B
:100710003AB9DAF818208AF85370C2F30C02AAF832
:1007200006209AF817209AB99AF8522082B914B183
:100730007846FFF73DFCBAF84A109AF802208A1A68
:10074000DAF86C1053460846FFF705FD8AF8527038
:1007500007995046FFF73CFFDAF86C1032464944DF
:10076000404617F051FC02A803F060FF15B12A685B
:1007700001322A60621C8AF850200134E4B289E711
:1007800038B590F84830012B044602D07846FFF780
:100790000FFC02F0BDFE237B074A012B05BFD2E907
:1007A0000315A37DD16805FB0311014404F130005A
:1007B000BDE8384002F083BEDC290020F0B5C37DDF
:1007C00016468278002B324414BF4FF480734FF4E6
:1007D000C0739342C7B00F467DD3424B002493F8B9
:1007E0004810012907D19D8A818A8D4203D1DD8974
:1007F000C1898D4271D00134042C03F17003EED114
:100800000121FFF7EBFC0546002844D0324639466B
:10081000C06E17F0F9FB002304A928460493FFF7E4
:1008200029FF30F00404064650D1049B13B128463A
:10083000FFF7A6FF2C4B1B6813F004034FD02B4B84
:100840001B68032B27DDB5F84A00294B802805AA31
:100850001F6828BF802000231646834202F102024F
:100860001CD10022234806F813202F2117F0ACFCDE
:1008700018B32F211F4817F0A7FC411C1E4B1F4A1D
:10088000D3F8043501921E4A009202964FF4AC62EE
:10089000042004F0B5FC204647B0F0BDE96EC95C09
:1008A0004FEA111C01F00F0117F80CC002F802CC3E
:1008B000795C02F8011C0133CFE70E485C2117F088
:1008C00083FC08B15C21D5E70A49D7E72846FFF742
:1008D000E3FC3446DFE70924DDE70824DBE71C46B8
:1008E000D9E700BFF4290020602100205C2100200E
:1008F00064210020D18A0300001001402A8B0300EC
:1009000074830300F0B50D4691B0044610B97846E3
:10091000FFF74EFB94F84830022B18D1E188A0690C
:10092000FFF7CCFB284AE16913680F0A0E06591C31
:100930001160264A361803F007034FEA031147F106
:10094000000702EB0313A08A5052C3E902672C226E
:10095000002105A8666D17F065FB102305A88DF82A
:10096000143006968DF81C5000F02EFE2046FFF73E
:1009700093FC174B1B685B071BD5164B1B68032B9F
:1009800017DD15482F2117F01FFCA0B12F211248A9
:1009900017F01AFC411C114BD3F80435029594F85A
:1009A000482001920E4A0092042040F2F31204F013
:1009B00027FC11B0F0BD08485C2117F005FC08B118
:1009C0005C21E4E70449E6E7C82900204829002023
:1009D000602100205C210020D18A0300001001402A
:1009E000388B030008460021FFF78CBF10B591F843
:1009F0004830012B0C4602D07846FFF7D9FA94F81C
:100A000051305BB1013B84F85130002384F8503001
:100A1000084BBDE81040186803F010BB217B01298A
:100A2000204603D1BDE81040FFF76CBFBDE8104081
:100A3000FFF74FBCD82900202DE9F04306468FB0C0
:100A400010460F4615469846FFF7CCFC0446002892
:100A50005ED195F80390B9F1000F40F0AA80062FFF
:100A600056D130787378820102F4FE5242EA930242
:100A7000604B1F4693F84810012928D1B3F814C0E1
:100A8000E9898C4523D1D988914220D1B3F858C047
:100A9000A98ABCF1000F01D08C4518D110F0800F4D
:100AA000D6F802204FF070033ED003FB0473A3F886
:100AB0005810702000FB047412BAE56C1543E5640D
:100AC000002A63D103212046FFF71CFF20E00134F8
:100AD000042C03F17003CDD1474B1B685B0717D57E
:100AE000464B1B68012B13DD45482F2117F06CFB8B
:100AF00088B12F21424817F067FB411C414B424A05
:100B0000D3F804350092022040F2776204F078FBBB
:100B10000FB0BDE8F0833A485C2117F055FB08B1EF
:100B20005C21E7E73649E9E703FB0473DB898B4285
:100B3000BFD0314B1B685A07EAD5304B1B68012BDD
:100B4000E6DD2F482F2117F03FFBB0B12F212C48B5
:100B500017F03AFB411C70202A4BAA8AD3F80435BF
:100B6000029200FB04740220E2890192274A00925B
:100B700040F27B6204F044FBCAE721485C2117F095
:100B800023FB08B15C21E2E71D49E4E72046FFF7BB
:100B9000D5FA854203D12046FFF79BFBB8E7002139
:100BA00084F850102046FFF765FD2046FFF7E8FD6A
:100BB000AEE74846FFF78CFA02460028A8D0D5E9F0
:100BC00003012B6A0B93AB8AADF8223009AB83E8A3
:100BD0000300AB7D8DF830302B788DF82030EB6A38
:100BE0008DF81490CDE906670D93414605A890470E
:100BF0008EE700BFF4290020602100205C21002046
:100C0000D18A0300001001405B8B0300898B030035
:100C1000F0B589B005460E460192FFF774FB044615
:100C200038B92B78019A3BB131462846FFF7C6FD0B
:100C30000446204609B0F0BDE97DAB780192002959
:100C4000134414BF0B210F218B4226D80133049388
:100C500005F10C030293AB6A03938DF81800EB6A5D
:100C6000059302A803F0C1FC04460028E1D10799CE
:100C700028464F1CFFF7ACFCEB7D019A3BB1314697
:100C8000384617F0C1F902A803F0D0FCD1E72B4693
:100C900039463046FFF75FFAF5E70924C9E7000057
:100CA00010B54FF4E0720021134817F0BBF900248F
:100CB00005F048FB114B12481C602146802217F0BA
:100CC000B1F9104B1049114A11489C75C3E9001243
:100CD00010494CF25032C3E902211A6140F6040275
:100CE0009A8203F08DF90C4B18600C4B0C481C6079
:100CF000BDE8104005F036BCF4290020C8290020CA
:100D000048290020DC29002080969800F049020044
:100D1000FD14020020A10700D8290020CC290020C2
:100D20001101020005F01ABA30B504468DB0002852
:100D30005FD00369002B5CD0C369002B59D0856953
:100D4000002D56D05A788DF804201A780993838A9A
:100D500082F001020B2B8DF80320027B09D90121BF
:100D6000022A8DF8001001D1234A927D5AB904223B
:100D70000AE0C17A0029F2D1012A0CBF0122002227
:100D80008DF8002031D1082213448DF802200B3356
:100D90000C22B3FBF2F3013B8DF8093000238DF8F0
:100DA000083094E8030000238DF8173003AB83E884
:100DB00003002389ADF81430A37A8DF81630236A26
:100DC0000A932046DF2308950B9312F073FF28B196
:100DD0002378012B14BFFF2320230B93A28A2169C0
:100DE0006846FFF715FF0DB030BD04238DF80230C3
:100DF000D7E70E20F7E700BFDC29002030B50A4610
:100E000091B00446002860D04368002B5DD085690E
:100E1000002D5AD003788DF8133000230D9383688A
:100E20000B2B94BF017B012101F001008DF8100014
:100E300000208DF8120031B10733DB08013B8DF83B
:100E400019308DF81800D4E9040101238DF82730FA
:100E500007AB83E80300E389ADF82430237F8DF8E6
:100E60002630236A0C95CDE90E23194B1B685B07CE
:100E70001BD5184B1B68062B17DD17482F2117F0C1
:100E8000A3F9C8B12F21144817F09EF9411C134B48
:100E9000A269D3F80435029222780192104A009296
:100EA000072040F6030204F0ABF9D4E9011204A8CC
:100EB000FFF7AEFE11B030BD07485C2117F084F992
:100EC00008B15C21DFE70449E1E70E20F2E700BF4B
:100ED000602100205C210020D18A03000010014025
:100EE000CA8B030070B5037B012B90B004460D46FE
:100EF00077D13D4B1B685B0718D53C4B1B68032B18
:100F000014DD3B482F2117F05FF900285ED02F2118
:100F1000374817F059F9411C364B374AD3F8043596
:100F20000092042040F2632204F06AF904AE0B221E
:100F30000021304617F076F89DF81130E2880896C7
:100F400003F0030343EA82038DF811302B0E8DF872
:100F500012302B0C8DF813306378022B0CBF8023DA
:100F60000023C2F3861242EA03024FF006030993FC
:100F70004FF001038DF82C30A38AADF82E304FF0DE
:100F800000036DBA8DF810200C93226A8DF81C3086
:100F90008DF82830E36AADF814500D920F931ED1EE
:100FA0000DF10E0103A812F075FEBDF80C30ADF87E
:100FB0002A30A37D0BB1114B5B7D8DF838306FF07B
:100FC000010107A8FFF71AFF10B070BD08485C21A7
:100FD00017F0FAF808B15C219AE705499CE7E38924
:100FE000E5E70020F0E700BF602100205C21002041
:100FF000D18A030000100140F58B0300DC2900209A
:1010000010B591F84830022B0C4602D07846FEF716
:10101000CFFF022384F8683094F84830022B06D1C1
:10102000E16C2046FFF75EFF08B984F8680010BD48
:101030002DE9F04F0D469DB017469846044600280E
:1010400000F05882002A00F0558221B90926304666
:101050001DB0BDE8F08F1822394613A816F0D4FF52
:10106000237894F900100020DA0981428DF840209D
:10107000B4BF0422012295428DF84100E6D39DF8C9
:101080005760EEB103F07F0381428DF843308DF855
:1010900042002EDA6278A378920102F4FE5242EA0C
:1010A0009302ADF84620DB00E27803F0180343EA30
:1010B000521302F01F028DF848308DF8492018E0D5
:1010C000C3F38010002903F03F038DF843008DF82F
:1010D000443008DA94F90130002BB4BF082304230C
:1010E0008DF84230D6E704231A4495428DF84230F9
:1010F000ACD30023199398F80030032B02D978461B
:10110000FEF756FF98F80020CB4B10A853F822307A
:101110001B93FFF7F8F80646002898D101460822ED
:1011200003A816F07FFF788803A912F023FD28B1E9
:101130009DF8413043F001038DF84130D7E90312A7
:10114000388905F045F8002855D19DF84130002B2D
:101150003FF47DAF13F001031CBF049A14929DF875
:101160004020002A00F0B481BDF846101698FEF722
:10117000A5FF179BBDF854C0B0494FEA036A4FEA78
:10118000132B1AEB000A4FF000074BF1000B0B88F2
:10119000634506D1D1E902239B4508BF92453FF440
:1011A00056AF0137082F01F11001F0D1A44B4FF0D9
:1011B0000009184693F84820022A25D19A8A6245E8
:1011C00022D1702303FB0909B9F80610D9F81800D9
:1011D000FEF774FFD9F81C100A0612184FEA112303
:1011E00043F100035B4508BF524535D2052148460F
:1011F000FFF788FB0FE09DF8413003F0FE038DF808
:101200004130002BA1D122E709F10109B9F1040F06
:1012100003F17003CED1DDE91612BDF84630BDF8FA
:10122000540004F0FFFF002800F0C980DDE9161229
:10123000BDF84630BDF8540005F02AF800283FF408
:1012400006AF10A8FEF77AFF014610A8FFF74AFE86
:1012500010A8FFF7C7F8FAE69B4508BF9245FFF4D0
:10126000F6AE784B1B685B071CD5774B1B68032BCE
:1012700018DD76482F2116F0A7FF002800F00E8118
:101280002F21724816F0A0FF411C714B9DF8482099
:10129000D3F8043501926F4A0092042040F2A33241
:1012A00003F0AEFF99F84830022B02D07846FEF7E3
:1012B0007FFEDFF8A8A1DAF800B002F029F90BEB05
:1012C000000109F1300002F0FAF899F80C30012B16
:1012D0001AD199F86830BBB999F84830022B02D07E
:1012E0007846FEF765FEDAE901329AF8151002FB3E
:1012F000013A02F00DF900EB0A0109F1500002F089
:10130000DEF8012389F868309DF84810D9F84C3090
:1013100001228A4013EA020A7FF499AE1343C9F806
:101320004C309DF8573099F80920002B14BF4FF02E
:10133000080E4FF00C0E8A42A5F104050EFB01FECB
:1013400040F0B5800EEB0503A9F84A30D9F8182013
:10135000169B9A420AD20DF14C0CBCE80F0009F121
:101360000C070FC79CE8030087E80300D9F86C005E
:10137000211D2A46704416F047FE4846D9F84C40D5
:10138000FEF7DCFE84427FF462AED9F84C1048468A
:10139000FFF7A8FD99F80130DA070CD599F8173056
:1013A000D9F86C00B9F84A10002B00F08C80434645
:1013B0004A46FFF741FB4846FEF76EFF81E09DF885
:1013C00057209DF84930002A14BF4FF008094FF00C
:1013D0000C0903FB099914BF4FF480734FF4C073D9
:1013E00099453DD9174B1B6859077FF530AE164B11
:1013F0001B68002B7FF72BAE14482F2116F0E4FE5C
:1014000088B12F21114816F0DFFE411C104B124A03
:10141000D3F804350092CDF8049040F27F320120D9
:1014200003F0EEFE13E609485C2116F0CDFE08B18C
:101430005C21E7E70549E9E72C8C030048290020F7
:10144000F4290020602100205C210020D18A0300C3
:1014500000100140198C0300058C0300DC290020DA
:101460004A46022110A8FEF7B9FE814600287FF403
:10147000F8AE014610A8FFF735FD2C22494605A815
:1014800016F0D0FD10238DF8143005A80223CDF8F6
:1014900018908DF81C3000F097F8D8E516485C21BC
:1014A00016F092FE08B15C21EBE61349EDE6002B45
:1014B00008BF0C27BD423FF449AF04214846FFF75F
:1014C00021FA0026C3E543464A46FEF7B1FF72E71C
:1014D000002B3FF4BCAD9DF85730601C691E23B152
:1014E000434610AAFFF7A8FAB1E5434610AAFEF753
:1014F0009FFFACE50E26AAE5D18A0300F7B5184C8C
:1015000000262546374695F84830012B0BD101A916
:1015100028460197FFF7AEF8042801D0019B13B1CC
:101520002846FFF72DF90136042E05F17005EAD1A2
:10153000002594F84830022B0AD194F86830022B29
:1015400006D1E16C2046FFF7CDFC08B984F86800AD
:101550000135042D04F17004EBD1012003B0F0BD7E
:10156000F42900202DE9F8430F46064610B3144B2A
:101570001C689846E4B9254600F10409BD4208D12B
:10158000104BC3E900650123C8F800302046BDE8D0
:10159000F88359F835306BB116F9353016F8350047
:1015A000002B09DB50B1FEF793FD38B90135E5E7B3
:1015B0000424EBE70E24E9E70B24E7E70F24E5E733
:1015C000CC290020D0290020F8B5074610B978466C
:1015D000FEF7EEFC0F4E346894B10F4D01232B70D3
:1015E00023791BB954F8043C384698472468002CEA
:1015F000F6D12B78022B03D13168064C09B929703A
:10160000F8BD0B790E6813B1204603F07FFD31461B
:10161000F4E700BFB82B0020B42B002010B504461F
:1016200010B97846FEF7C4FC00232372211D02483E
:10163000BDE8104003F049BDB82B002010B50446AA
:1016400010B97846FEF7B4FC074A1378013B012B2A
:1016500004D8022313700123237210BD211D0348F7
:10166000BDE8104003F052BDB42B0020B82B002081
:101670000B888268D25A073222F003021344028890
:101680009BB2043A934288BF00230B80704713B586
:101690008368C91AADF806100DF10601FFF7E8FFDF
:1016A000BDF806308068184402B010BD70B506461B
:1016B00015460C4611B97846FEF77AFC16B97846FD
:1016C000FEF776FCB4F1005F24D94FF08053D3F8D5
:1016D0000C3103F50023B4EB832F1ED26B1E234481
:1016E000B3F1005F26D94FF08052D2F80C2102F5F9
:1016F0000022B3EB822F20D2042D02D87846FEF7C9
:1017000057FC35800023043D7380B380B46025808E
:10171000A37070BDB4F5000F08D94FF08053D3F813
:101720000C3103F50053B4EB832FD7D37846FEF783
:101730003FFCD3E7B3F5000F08D94FF08052D2F841
:101740000C2102F50052B3EB822FD5D37846FEF779
:101750002FFCD1E738B5044610B97846FEF728FCCF
:101760006288A36813449B78012B02D17846FEF768
:101770001FFCEFF3108572B6A268A18811448B7824
:10178000032B0AD12046FFF782FFA368C31A6380A8
:101790000023837005B962B638BD0023937063805F
:1017A000A380F7E7F8B50E461546044610B978460B
:1017B000FEF7FEFB16B97846FEF7FAFB6288A368CF
:1017C00013449B78012B02D17846FEF7F1FB002DE4
:1017D00037D02388043B9BB29D4232D8EFF3108769
:1017E00072B66288A388E81D20F003009A4280B296
:1017F00004D29B1A984210DD042016E018D92188E3
:10180000891A814209D29842F6D8032981BFA36878
:101810009B1804229A70002363806288A1688B1849
:101820008D5201229A700020336007B962B6F8BD6C
:10183000A26813449B78002BDED193706380A38051
:10184000EBE70920F3E7F8B50D461646044610B954
:101850007846FEF7ADFB15B97846FEF7A9FBAB78E5
:10186000012B02D07846FEF7A3FB2B88B34202D2AD
:101870007846FEF79DFB16B97846FEF799FBEFF325
:10188000108772B60223AB70E1182E802046FFF756
:10189000EFFE6288A38893421FBFA3689B180022B3
:1018A0009A7007B962B6F8BD70B50D46044610B916
:1018B0007846FEF77DFB15B97846FEF779FBEFF326
:1018C000108672B6A288A36813449A78042A06D1B7
:1018D000211D2046FFF7CCFEA288A36813449A7806
:1018E000022A05D0032A08D0052006B962B670BDC9
:1018F00003229A702B600020F7E77846FEF758FB2A
:10190000F9E738B5044610B97846FEF751FBEFF316
:10191000108572B6A088A16801448B78042B03D18E
:101920002046FFF7B4FE01468878831E584258418E
:1019300005B962B638BD38B5044610B97846FEF729
:1019400037FBEFF3108572B6A088A1680144887850
:10195000C31E012B05D9831E5842584105B962B6F2
:1019600038BD2046FFF793FE0146F0E7F8B50D4677
:10197000044610B97846FEF71BFB15B97846FEF70A
:1019800017FBEFF3108672B6AB78012B19D0032B3F
:1019900022D1A288A36813449D4202D07846FEF764
:1019A00007FB0027AF70211D2046FFF761FEA288CC
:1019B000A36813449B78042B00D1A78006B962B6B4
:1019C000F8BD6288A36813449D4202D07846FEF7B2
:1019D000EFFA0023AB70F1E77846FEF7E9FAEDE79E
:1019E00010B5EFF3108472B68288816811448B7849
:1019F000042B02D1FFF74BFE01468878B0FA80F045
:101A0000400904B962B610BD037942799B1A03F507
:101A10007F2303F6FF7300EB0330704710B50548D2
:101A200084681C22002116F0FDFA2046BDE8104013
:101A300004F05CB9BC2B002070B5194CE36813B9F5
:101A40007846FEF7B5FA237E13B17846FEF7B0FA72
:101A50006368092B02D97846FEF7AAFA114D0026D1
:101A6000636855F823309847022811D003280DD019
:101A7000012810D163680133092B636002D97846CD
:101A8000FEF796FA237E002BEAD004E06660F9E7C1
:101A9000237E0BB1207070BDBDE87040FFF7BEBF64
:101AA000BC2B0020988C030010B50388044613B9A2
:101AB0007846FEF77DFA2088084B04EB800030EA78
:101AC000030203D06288B2F5FE4F05D104EA030099
